{
	"SDC-Presale.sol": {
		"Presale": {
			"abi": [
				{
					"inputs": [
						{
							"internalType": "address",
							"name": "_weth",
							"type": "address"
						},
						{
							"internalType": "address",
							"name": "_token",
							"type": "address"
						},
						{
							"internalType": "address",
							"name": "_uniswapV2Router02",
							"type": "address"
						},
						{
							"components": [
								{
									"internalType": "uint256",
									"name": "tokenDeposit",
									"type": "uint256"
								},
								{
									"internalType": "uint256",
									"name": "hardCap",
									"type": "uint256"
								},
								{
									"internalType": "uint256",
									"name": "softCap",
									"type": "uint256"
								},
								{
									"internalType": "uint256",
									"name": "max",
									"type": "uint256"
								},
								{
									"internalType": "uint256",
									"name": "min",
									"type": "uint256"
								},
								{
									"internalType": "uint112",
									"name": "start",
									"type": "uint112"
								},
								{
									"internalType": "uint112",
									"name": "end",
									"type": "uint112"
								},
								{
									"internalType": "uint32",
									"name": "liquidityBps",
									"type": "uint32"
								}
							],
							"internalType": "struct Presale.PresaleOptions",
							"name": "_options",
							"type": "tuple"
						}
					],
					"stateMutability": "nonpayable",
					"type": "constructor"
				},
				{
					"inputs": [],
					"name": "FailedCall",
					"type": "error"
				},
				{
					"inputs": [],
					"name": "HardCapExceed",
					"type": "error"
				},
				{
					"inputs": [
						{
							"internalType": "uint256",
							"name": "balance",
							"type": "uint256"
						},
						{
							"internalType": "uint256",
							"name": "needed",
							"type": "uint256"
						}
					],
					"name": "InsufficientBalance",
					"type": "error"
				},
				{
					"inputs": [],
					"name": "InvalidCapValue",
					"type": "error"
				},
				{
					"inputs": [],
					"name": "InvalidInitializationParameters",
					"type": "error"
				},
				{
					"inputs": [],
					"name": "InvalidLimitValue",
					"type": "error"
				},
				{
					"inputs": [],
					"name": "InvalidLiquidityValue",
					"type": "error"
				},
				{
					"inputs": [
						{
							"internalType": "uint8",
							"name": "currentState",
							"type": "uint8"
						}
					],
					"name": "InvalidState",
					"type": "error"
				},
				{
					"inputs": [],
					"name": "InvalidTimestampValue",
					"type": "error"
				},
				{
					"inputs": [],
					"name": "LiquificationFailed",
					"type": "error"
				},
				{
					"inputs": [],
					"name": "NotClaimable",
					"type": "error"
				},
				{
					"inputs": [],
					"name": "NotInPurchasePeriod",
					"type": "error"
				},
				{
					"inputs": [],
					"name": "NotRefundable",
					"type": "error"
				},
				{
					"inputs": [
						{
							"internalType": "address",
							"name": "owner",
							"type": "address"
						}
					],
					"name": "OwnableInvalidOwner",
					"type": "error"
				},
				{
					"inputs": [
						{
							"internalType": "address",
							"name": "account",
							"type": "address"
						}
					],
					"name": "OwnableUnauthorizedAccount",
					"type": "error"
				},
				{
					"inputs": [],
					"name": "PurchaseBelowMinimum",
					"type": "error"
				},
				{
					"inputs": [],
					"name": "PurchaseLimitExceed",
					"type": "error"
				},
				{
					"inputs": [
						{
							"internalType": "address",
							"name": "token",
							"type": "address"
						}
					],
					"name": "SafeERC20FailedOperation",
					"type": "error"
				},
				{
					"inputs": [],
					"name": "SoftCapNotReached",
					"type": "error"
				},
				{
					"inputs": [],
					"name": "Unauthorized",
					"type": "error"
				},
				{
					"anonymous": false,
					"inputs": [
						{
							"indexed": true,
							"internalType": "address",
							"name": "creator",
							"type": "address"
						},
						{
							"indexed": false,
							"internalType": "uint256",
							"name": "timestamp",
							"type": "uint256"
						}
					],
					"name": "Cancel",
					"type": "event"
				},
				{
					"anonymous": false,
					"inputs": [
						{
							"indexed": true,
							"internalType": "address",
							"name": "creator",
							"type": "address"
						},
						{
							"indexed": false,
							"internalType": "uint256",
							"name": "amount",
							"type": "uint256"
						},
						{
							"indexed": false,
							"internalType": "uint256",
							"name": "timestamp",
							"type": "uint256"
						}
					],
					"name": "Deposit",
					"type": "event"
				},
				{
					"anonymous": false,
					"inputs": [
						{
							"indexed": true,
							"internalType": "address",
							"name": "creator",
							"type": "address"
						},
						{
							"indexed": false,
							"internalType": "uint256",
							"name": "amount",
							"type": "uint256"
						},
						{
							"indexed": false,
							"internalType": "uint256",
							"name": "timestamp",
							"type": "uint256"
						}
					],
					"name": "Finalized",
					"type": "event"
				},
				{
					"anonymous": false,
					"inputs": [
						{
							"indexed": true,
							"internalType": "address",
							"name": "previousOwner",
							"type": "address"
						},
						{
							"indexed": true,
							"internalType": "address",
							"name": "newOwner",
							"type": "address"
						}
					],
					"name": "OwnershipTransferred",
					"type": "event"
				},
				{
					"anonymous": false,
					"inputs": [
						{
							"indexed": true,
							"internalType": "address",
							"name": "beneficiary",
							"type": "address"
						},
						{
							"indexed": false,
							"internalType": "uint256",
							"name": "contribution",
							"type": "uint256"
						}
					],
					"name": "Purchase",
					"type": "event"
				},
				{
					"anonymous": false,
					"inputs": [
						{
							"indexed": true,
							"internalType": "address",
							"name": "beneficiary",
							"type": "address"
						},
						{
							"indexed": false,
							"internalType": "uint256",
							"name": "amount",
							"type": "uint256"
						},
						{
							"indexed": false,
							"internalType": "uint256",
							"name": "timestamp",
							"type": "uint256"
						}
					],
					"name": "Refund",
					"type": "event"
				},
				{
					"anonymous": false,
					"inputs": [
						{
							"indexed": true,
							"internalType": "address",
							"name": "beneficiary",
							"type": "address"
						},
						{
							"indexed": false,
							"internalType": "uint256",
							"name": "amount",
							"type": "uint256"
						},
						{
							"indexed": false,
							"internalType": "uint256",
							"name": "timestamp",
							"type": "uint256"
						}
					],
					"name": "TokenClaim",
					"type": "event"
				},
				{
					"inputs": [
						{
							"internalType": "address[]",
							"name": "accounts",
							"type": "address[]"
						}
					],
					"name": "addToWhitelist",
					"outputs": [],
					"stateMutability": "nonpayable",
					"type": "function"
				},
				{
					"inputs": [],
					"name": "cancel",
					"outputs": [
						{
							"internalType": "bool",
							"name": "",
							"type": "bool"
						}
					],
					"stateMutability": "nonpayable",
					"type": "function"
				},
				{
					"inputs": [],
					"name": "claim",
					"outputs": [
						{
							"internalType": "uint256",
							"name": "",
							"type": "uint256"
						}
					],
					"stateMutability": "nonpayable",
					"type": "function"
				},
				{
					"inputs": [
						{
							"internalType": "address",
							"name": "",
							"type": "address"
						}
					],
					"name": "contributions",
					"outputs": [
						{
							"internalType": "uint256",
							"name": "",
							"type": "uint256"
						}
					],
					"stateMutability": "view",
					"type": "function"
				},
				{
					"inputs": [],
					"name": "deposit",
					"outputs": [
						{
							"internalType": "uint256",
							"name": "",
							"type": "uint256"
						}
					],
					"stateMutability": "nonpayable",
					"type": "function"
				},
				{
					"inputs": [],
					"name": "finalize",
					"outputs": [
						{
							"internalType": "bool",
							"name": "",
							"type": "bool"
						}
					],
					"stateMutability": "nonpayable",
					"type": "function"
				},
				{
					"inputs": [],
					"name": "isWhitelistEnabled",
					"outputs": [
						{
							"internalType": "bool",
							"name": "",
							"type": "bool"
						}
					],
					"stateMutability": "view",
					"type": "function"
				},
				{
					"inputs": [],
					"name": "owner",
					"outputs": [
						{
							"internalType": "address",
							"name": "",
							"type": "address"
						}
					],
					"stateMutability": "view",
					"type": "function"
				},
				{
					"inputs": [],
					"name": "pool",
					"outputs": [
						{
							"internalType": "contract IERC20",
							"name": "token",
							"type": "address"
						},
						{
							"internalType": "contract IUniswapV2Router02",
							"name": "uniswapV2Router02",
							"type": "address"
						},
						{
							"internalType": "uint256",
							"name": "tokenBalance",
							"type": "uint256"
						},
						{
							"internalType": "uint256",
							"name": "tokensClaimable",
							"type": "uint256"
						},
						{
							"internalType": "uint256",
							"name": "tokensLiquidity",
							"type": "uint256"
						},
						{
							"internalType": "uint256",
							"name": "weiRaised",
							"type": "uint256"
						},
						{
							"internalType": "address",
							"name": "weth",
							"type": "address"
						},
						{
							"internalType": "uint8",
							"name": "state",
							"type": "uint8"
						},
						{
							"components": [
								{
									"internalType": "uint256",
									"name": "tokenDeposit",
									"type": "uint256"
								},
								{
									"internalType": "uint256",
									"name": "hardCap",
									"type": "uint256"
								},
								{
									"internalType": "uint256",
									"name": "softCap",
									"type": "uint256"
								},
								{
									"internalType": "uint256",
									"name": "max",
									"type": "uint256"
								},
								{
									"internalType": "uint256",
									"name": "min",
									"type": "uint256"
								},
								{
									"internalType": "uint112",
									"name": "start",
									"type": "uint112"
								},
								{
									"internalType": "uint112",
									"name": "end",
									"type": "uint112"
								},
								{
									"internalType": "uint32",
									"name": "liquidityBps",
									"type": "uint32"
								}
							],
							"internalType": "struct Presale.PresaleOptions",
							"name": "options",
							"type": "tuple"
						}
					],
					"stateMutability": "view",
					"type": "function"
				},
				{
					"inputs": [],
					"name": "refund",
					"outputs": [
						{
							"internalType": "uint256",
							"name": "",
							"type": "uint256"
						}
					],
					"stateMutability": "nonpayable",
					"type": "function"
				},
				{
					"inputs": [
						{
							"internalType": "address[]",
							"name": "accounts",
							"type": "address[]"
						}
					],
					"name": "removeFromWhitelist",
					"outputs": [],
					"stateMutability": "nonpayable",
					"type": "function"
				},
				{
					"inputs": [],
					"name": "renounceOwnership",
					"outputs": [],
					"stateMutability": "nonpayable",
					"type": "function"
				},
				{
					"inputs": [
						{
							"internalType": "bool",
							"name": "_enabled",
							"type": "bool"
						}
					],
					"name": "setWhitelistEnabled",
					"outputs": [],
					"stateMutability": "nonpayable",
					"type": "function"
				},
				{
					"inputs": [
						{
							"internalType": "address",
							"name": "newOwner",
							"type": "address"
						}
					],
					"name": "transferOwnership",
					"outputs": [],
					"stateMutability": "nonpayable",
					"type": "function"
				},
				{
					"inputs": [
						{
							"internalType": "address",
							"name": "contributor",
							"type": "address"
						}
					],
					"name": "userTokens",
					"outputs": [
						{
							"internalType": "uint256",
							"name": "",
							"type": "uint256"
						}
					],
					"stateMutability": "view",
					"type": "function"
				},
				{
					"inputs": [
						{
							"internalType": "address",
							"name": "",
							"type": "address"
						}
					],
					"name": "whitelist",
					"outputs": [
						{
							"internalType": "bool",
							"name": "",
							"type": "bool"
						}
					],
					"stateMutability": "view",
					"type": "function"
				},
				{
					"stateMutability": "payable",
					"type": "receive"
				}
			],
			"devdoc": {
				"errors": {
					"FailedCall()": [
						{
							"details": "A call to an address target failed. The target may have reverted."
						}
					],
					"HardCapExceed()": [
						{
							"details": "Emitted when a purchase attempt exceeds the presale's hard cap."
						}
					],
					"InsufficientBalance(uint256,uint256)": [
						{
							"details": "The ETH balance of the account is not enough to perform the operation."
						}
					],
					"InvalidCapValue()": [
						{
							"details": "Emitted when the pool validation parameters provided to the contract are invalid."
						}
					],
					"InvalidInitializationParameters()": [
						{
							"details": "Emitted when the initialization parameters provided to the contract are invalid."
						}
					],
					"InvalidLimitValue()": [
						{
							"details": "Emitted when the pool validation parameters provided to the contract are invalid."
						}
					],
					"InvalidLiquidityValue()": [
						{
							"details": "Emitted when the pool validation parameters provided to the contract are invalid."
						}
					],
					"InvalidState(uint8)": [
						{
							"details": "Emitted when an action is performed in an invalid state.",
							"params": {
								"currentState": "The current state of the contract."
							}
						}
					],
					"InvalidTimestampValue()": [
						{
							"details": "Emitted when the pool validation parameters provided to the contract are invalid."
						}
					],
					"LiquificationFailed()": [
						{
							"details": "Emitted when the process of adding liquidity to a liquidity pool fails."
						}
					],
					"NotClaimable()": [
						{
							"details": "Emitted when user with no contribution attempts to claim tokens."
						}
					],
					"NotInPurchasePeriod()": [
						{
							"details": "Emitted when a purchase or refund attempt is made outside the presale period."
						}
					],
					"NotRefundable()": [
						{
							"details": "Emitted when a refund is requested under conditions that do not permit refunds."
						}
					],
					"OwnableInvalidOwner(address)": [
						{
							"details": "The owner is not a valid owner account. (eg. `address(0)`)"
						}
					],
					"OwnableUnauthorizedAccount(address)": [
						{
							"details": "The caller account is not authorized to perform an operation."
						}
					],
					"PurchaseBelowMinimum()": [
						{
							"details": "Emitted when a purchase amount is below the minimum allowed."
						}
					],
					"PurchaseLimitExceed()": [
						{
							"details": "Emitted when a participant's purchase would exceed the maximum allowed contribution."
						}
					],
					"SafeERC20FailedOperation(address)": [
						{
							"details": "An operation with an ERC-20 token failed."
						}
					],
					"SoftCapNotReached()": [
						{
							"details": "Emitted when attempting to finalize a presale that has not reached its soft cap."
						}
					],
					"Unauthorized()": [
						{
							"details": "Emitted when an unauthorized address attempts an action requiring specific permissions."
						}
					]
				},
				"events": {
					"Cancel(address,uint256)": {
						"details": "Emitted when the presale is cancelled by the contract owner. A cancellation may allow participants to claim refunds for their contributions.",
						"params": {
							"creator": "Address of the contract owner who cancelled the presale.",
							"timestamp": "Block timestamp when the cancellation occurred."
						}
					},
					"Deposit(address,uint256,uint256)": {
						"details": "Emitted when the presale contract owner deposits tokens for sale. This is usually done before the presale starts to ensure tokens are available for purchase.",
						"params": {
							"amount": "Amount of tokens deposited.",
							"creator": "Address of the contract owner who performs the deposit.",
							"timestamp": "Block timestamp when the deposit occurred."
						}
					},
					"Finalized(address,uint256,uint256)": {
						"details": "Emitted when the presale is successfully finalized. Finalization may involve distributing tokens, transferring raised funds to a designated wallet, and/or enabling token claim functionality.",
						"params": {
							"amount": "Total amount of ETH raised in the presale.",
							"creator": "Address of the contract owner who finalized the presale.",
							"timestamp": "Block timestamp when the finalization occurred."
						}
					},
					"Purchase(address,uint256)": {
						"details": "Emitted for each purchase made during the presale. Tracks the buyer, the amount of ETH contributed, and the amount of tokens purchased.",
						"params": {
							"beneficiary": "Address of the participant who made the purchase.",
							"contribution": "Amount of ETH contributed by the participant."
						}
					},
					"Refund(address,uint256,uint256)": {
						"details": "Emitted when a participant successfully claims a refund. This is typically allowed when the presale is cancelled or does not meet its funding goals.",
						"params": {
							"amount": "Amount of wei refunded.",
							"beneficiary": "Address of the participant receiving the refund.",
							"timestamp": "Block timestamp when the refund occurred."
						}
					},
					"TokenClaim(address,uint256,uint256)": {
						"details": "Emitted when participants claim their purchased tokens after the presale is finalized. ",
						"params": {
							"amount": "Amount of tokens claimed.",
							"beneficiary": "Address of the participant claiming tokens.",
							"timestamp": "Block timestamp when the claim occurred."
						}
					}
				},
				"kind": "dev",
				"methods": {
					"constructor": {
						"params": {
							"_options": "Параметры пресейла (PresaleOptions).",
							"_token": "Адрес токена, который продаём.",
							"_uniswapV2Router02": "Адрес роутера (PancakeSwap/Uniswap).",
							"_weth": "Адрес WBNB в сети BSC (или WETH, если это другая EVM-сеть)."
						}
					},
					"deposit()": {
						"returns": {
							"_0": "Количество внесённых токенов."
						}
					},
					"owner()": {
						"details": "Returns the address of the current owner."
					},
					"renounceOwnership()": {
						"details": "Leaves the contract without owner. It will not be possible to call `onlyOwner` functions. Can only be called by the current owner. NOTE: Renouncing ownership will leave the contract without an owner, thereby disabling any functionality that is only available to the owner."
					},
					"transferOwnership(address)": {
						"details": "Transfers ownership of the contract to a new account (`newOwner`). Can only be called by the current owner."
					},
					"userTokens(address)": {
						"details": "Считаем, сколько токенов причитается конкретному участнику (пропорционально вкладу)."
					}
				},
				"title": "Presale contract",
				"version": 1
			},
			"evm": {
				"assembly": "    /* \"SDC-Presale.sol\":695:15907  contract Presale is IPresale, Ownable, ReentrancyGuard {... */\n  mstore(0x40, 0x80)\n    /* \"SDC-Presale.sol\":3696:3701  false */\n  0x00\n    /* \"SDC-Presale.sol\":3663:3701  bool public isWhitelistEnabled = false */\n  0x10\n  exp(0x0100, 0x00)\n  dup2\n  sload\n  dup2\n  0xff\n  mul\n  not\n  and\n  swap1\n  dup4\n  iszero\n  iszero\n  mul\n  or\n  swap1\n  sstore\n  pop\n    /* \"SDC-Presale.sol\":4556:4982  constructor(... */\n  callvalue\n  dup1\n  iszero\n  tag_1\n  jumpi\n  revert(0x00, 0x00)\ntag_1:\n  pop\n  mload(0x40)\n  sub(codesize, bytecodeSize)\n  dup1\n  bytecodeSize\n  dup4\n  codecopy\n  dup2\n  dup2\n  add\n  0x40\n  mstore\n  dup2\n  add\n  swap1\n  tag_2\n  swap2\n  swap1\n  tag_3\n  jump\t// in\ntag_2:\n    /* \"SDC-Presale.sol\":4713:4723  msg.sender */\n  caller\n    /* \"@openzeppelin/contracts/access/Ownable.sol\":1297:1298  0 */\n  0x00\n    /* \"@openzeppelin/contracts/access/Ownable.sol\":1273:1299  initialOwner == address(0) */\n  0xffffffffffffffffffffffffffffffffffffffff\n  and\n    /* \"@openzeppelin/contracts/access/Ownable.sol\":1273:1285  initialOwner */\n  dup2\n    /* \"@openzeppelin/contracts/access/Ownable.sol\":1273:1299  initialOwner == address(0) */\n  0xffffffffffffffffffffffffffffffffffffffff\n  and\n  sub\n    /* \"@openzeppelin/contracts/access/Ownable.sol\":1269:1364  if (initialOwner == address(0)) {... */\n  tag_8\n  jumpi\n    /* \"@openzeppelin/contracts/access/Ownable.sol\":1350:1351  0 */\n  0x00\n    /* \"@openzeppelin/contracts/access/Ownable.sol\":1322:1353  OwnableInvalidOwner(address(0)) */\n  mload(0x40)\n  0x1e4fbdf700000000000000000000000000000000000000000000000000000000\n  dup2\n  mstore\n  0x04\n  add\n  tag_9\n  swap2\n  swap1\n  tag_10\n  jump\t// in\ntag_9:\n  mload(0x40)\n  dup1\n  swap2\n  sub\n  swap1\n  revert\n    /* \"@openzeppelin/contracts/access/Ownable.sol\":1269:1364  if (initialOwner == address(0)) {... */\ntag_8:\n    /* \"@openzeppelin/contracts/access/Ownable.sol\":1373:1405  _transferOwnership(initialOwner) */\n  tag_11\n    /* \"@openzeppelin/contracts/access/Ownable.sol\":1392:1404  initialOwner */\n  dup2\n    /* \"@openzeppelin/contracts/access/Ownable.sol\":1373:1391  _transferOwnership */\n  shl(0x20, tag_12)\n    /* \"@openzeppelin/contracts/access/Ownable.sol\":1373:1405  _transferOwnership(initialOwner) */\n  0x20\n  shr\n  jump\t// in\ntag_11:\n    /* \"@openzeppelin/contracts/access/Ownable.sol\":1225:1412  constructor(address initialOwner) {... */\n  pop\n    /* \"@openzeppelin/contracts/security/ReentrancyGuard.sol\":1716:1717  1 */\n  0x01\n    /* \"@openzeppelin/contracts/security/ReentrancyGuard.sol\":1821:1828  _status */\n  dup1\n    /* \"@openzeppelin/contracts/security/ReentrancyGuard.sol\":1821:1843  _status = _NOT_ENTERED */\n  dup2\n  swap1\n  sstore\n  pop\n    /* \"SDC-Presale.sol\":4739:4765  _prevalidatePool(_options) */\n  tag_15\n    /* \"SDC-Presale.sol\":4756:4764  _options */\n  dup2\n    /* \"SDC-Presale.sol\":4739:4755  _prevalidatePool */\n  shl(0x20, tag_16)\n    /* \"SDC-Presale.sol\":4739:4765  _prevalidatePool(_options) */\n  0x20\n  shr\n  jump\t// in\ntag_15:\n    /* \"SDC-Presale.sol\":4820:4838  _uniswapV2Router02 */\n  dup2\n    /* \"SDC-Presale.sol\":4776:4780  pool */\n  0x03\n    /* \"SDC-Presale.sol\":4776:4798  pool.uniswapV2Router02 */\n  0x01\n  add\n  0x00\n    /* \"SDC-Presale.sol\":4776:4839  pool.uniswapV2Router02 = IUniswapV2Router02(_uniswapV2Router02) */\n  0x0100\n  exp\n  dup2\n  sload\n  dup2\n  0xffffffffffffffffffffffffffffffffffffffff\n  mul\n  not\n  and\n  swap1\n  dup4\n  0xffffffffffffffffffffffffffffffffffffffff\n  and\n  mul\n  or\n  swap1\n  sstore\n  pop\n    /* \"SDC-Presale.sol\":4869:4875  _token */\n  dup3\n    /* \"SDC-Presale.sol\":4849:4853  pool */\n  0x03\n    /* \"SDC-Presale.sol\":4849:4859  pool.token */\n  0x00\n  add\n  0x00\n    /* \"SDC-Presale.sol\":4849:4876  pool.token = IERC20(_token) */\n  0x0100\n  exp\n  dup2\n  sload\n  dup2\n  0xffffffffffffffffffffffffffffffffffffffff\n  mul\n  not\n  and\n  swap1\n  dup4\n  0xffffffffffffffffffffffffffffffffffffffff\n  and\n  mul\n  or\n  swap1\n  sstore\n  pop\n    /* \"SDC-Presale.sol\":4899:4900  1 */\n  0x01\n    /* \"SDC-Presale.sol\":4886:4890  pool */\n  0x03\n    /* \"SDC-Presale.sol\":4886:4896  pool.state */\n  0x06\n  add\n  0x14\n    /* \"SDC-Presale.sol\":4886:4900  pool.state = 1 */\n  0x0100\n  exp\n  dup2\n  sload\n  dup2\n  0xff\n  mul\n  not\n  and\n  swap1\n  dup4\n  0xff\n  and\n  mul\n  or\n  swap1\n  sstore\n  pop\n    /* \"SDC-Presale.sol\":4937:4942  _weth */\n  dup4\n    /* \"SDC-Presale.sol\":4925:4929  pool */\n  0x03\n    /* \"SDC-Presale.sol\":4925:4934  pool.weth */\n  0x06\n  add\n  0x00\n    /* \"SDC-Presale.sol\":4925:4942  pool.weth = _weth */\n  0x0100\n  exp\n  dup2\n  sload\n  dup2\n  0xffffffffffffffffffffffffffffffffffffffff\n  mul\n  not\n  and\n  swap1\n  dup4\n  0xffffffffffffffffffffffffffffffffffffffff\n  and\n  mul\n  or\n  swap1\n  sstore\n  pop\n    /* \"SDC-Presale.sol\":4967:4975  _options */\n  dup1\n    /* \"SDC-Presale.sol\":4952:4956  pool */\n  0x03\n    /* \"SDC-Presale.sol\":4952:4964  pool.options */\n  0x07\n  add\n    /* \"SDC-Presale.sol\":4952:4975  pool.options = _options */\n  0x00\n  dup3\n  add\n  mload\n  dup2\n  0x00\n  add\n  sstore\n  0x20\n  dup3\n  add\n  mload\n  dup2\n  0x01\n  add\n  sstore\n  0x40\n  dup3\n  add\n  mload\n  dup2\n  0x02\n  add\n  sstore\n  0x60\n  dup3\n  add\n  mload\n  dup2\n  0x03\n  add\n  sstore\n  0x80\n  dup3\n  add\n  mload\n  dup2\n  0x04\n  add\n  sstore\n  0xa0\n  dup3\n  add\n  mload\n  dup2\n  0x05\n  add\n  exp(0x0100, 0x00)\n  dup2\n  sload\n  dup2\n  0xffffffffffffffffffffffffffff\n  mul\n  not\n  and\n  swap1\n  dup4\n  0xffffffffffffffffffffffffffff\n  and\n  mul\n  or\n  swap1\n  sstore\n  pop\n  0xc0\n  dup3\n  add\n  mload\n  dup2\n  0x05\n  add\n  exp(0x0100, 0x0e)\n  dup2\n  sload\n  dup2\n  0xffffffffffffffffffffffffffff\n  mul\n  not\n  and\n  swap1\n  dup4\n  0xffffffffffffffffffffffffffff\n  and\n  mul\n  or\n  swap1\n  sstore\n  pop\n  0xe0\n  dup3\n  add\n  mload\n  dup2\n  0x05\n  add\n  exp(0x0100, 0x1c)\n  dup2\n  sload\n  dup2\n  0xffffffff\n  mul\n  not\n  and\n  swap1\n  dup4\n  0xffffffff\n  and\n  mul\n  or\n  swap1\n  sstore\n  pop\n  swap1\n  pop\n  pop\n    /* \"SDC-Presale.sol\":4556:4982  constructor(... */\n  pop\n  pop\n  pop\n  pop\n    /* \"SDC-Presale.sol\":695:15907  contract Presale is IPresale, Ownable, ReentrancyGuard {... */\n  jump(tag_17)\n    /* \"@openzeppelin/contracts/access/Ownable.sol\":2912:3099  function _transferOwnership(address newOwner) internal virtual {... */\ntag_12:\n    /* \"@openzeppelin/contracts/access/Ownable.sol\":2985:3001  address oldOwner */\n  0x00\n    /* \"@openzeppelin/contracts/access/Ownable.sol\":3004:3010  _owner */\n  0x00\n  0x00\n  swap1\n  sload\n  swap1\n  0x0100\n  exp\n  swap1\n  div\n  0xffffffffffffffffffffffffffffffffffffffff\n  and\n    /* \"@openzeppelin/contracts/access/Ownable.sol\":2985:3010  address oldOwner = _owner */\n  swap1\n  pop\n    /* \"@openzeppelin/contracts/access/Ownable.sol\":3029:3037  newOwner */\n  dup2\n    /* \"@openzeppelin/contracts/access/Ownable.sol\":3020:3026  _owner */\n  0x00\n  0x00\n    /* \"@openzeppelin/contracts/access/Ownable.sol\":3020:3037  _owner = newOwner */\n  0x0100\n  exp\n  dup2\n  sload\n  dup2\n  0xffffffffffffffffffffffffffffffffffffffff\n  mul\n  not\n  and\n  swap1\n  dup4\n  0xffffffffffffffffffffffffffffffffffffffff\n  and\n  mul\n  or\n  swap1\n  sstore\n  pop\n    /* \"@openzeppelin/contracts/access/Ownable.sol\":3083:3091  newOwner */\n  dup2\n    /* \"@openzeppelin/contracts/access/Ownable.sol\":3052:3092  OwnershipTransferred(oldOwner, newOwner) */\n  0xffffffffffffffffffffffffffffffffffffffff\n  and\n    /* \"@openzeppelin/contracts/access/Ownable.sol\":3073:3081  oldOwner */\n  dup2\n    /* \"@openzeppelin/contracts/access/Ownable.sol\":3052:3092  OwnershipTransferred(oldOwner, newOwner) */\n  0xffffffffffffffffffffffffffffffffffffffff\n  and\n  0x8be0079c531659141344cd1fd0a4f28419497f9722a3daafe3b4186f6b6457e0\n  mload(0x40)\n  mload(0x40)\n  dup1\n  swap2\n  sub\n  swap1\n  log3\n    /* \"@openzeppelin/contracts/access/Ownable.sol\":2975:3099  {... */\n  pop\n    /* \"@openzeppelin/contracts/access/Ownable.sol\":2912:3099  function _transferOwnership(address newOwner) internal virtual {... */\n  pop\n  jump\t// out\n    /* \"SDC-Presale.sol\":13564:13863  function _prevalidatePool(PresaleOptions memory _options) internal pure {... */\ntag_16:\n    /* \"SDC-Presale.sol\":13669:13677  _options */\n  dup1\n    /* \"SDC-Presale.sol\":13669:13685  _options.hardCap */\n  0x20\n  add\n  mload\n    /* \"SDC-Presale.sol\":13650:13658  _options */\n  dup2\n    /* \"SDC-Presale.sol\":13650:13666  _options.softCap */\n  0x40\n  add\n  mload\n    /* \"SDC-Presale.sol\":13650:13685  _options.softCap > _options.hardCap */\n  gt\n    /* \"SDC-Presale.sol\":13646:13711  if (_options.softCap > _options.hardCap) revert InvalidCapValue() */\n  iszero\n  tag_20\n  jumpi\n    /* \"SDC-Presale.sol\":13694:13711  InvalidCapValue() */\n  mload(0x40)\n  0xa606ca7800000000000000000000000000000000000000000000000000000000\n  dup2\n  mstore\n  0x04\n  add\n  mload(0x40)\n  dup1\n  swap2\n  sub\n  swap1\n  revert\n    /* \"SDC-Presale.sol\":13646:13711  if (_options.softCap > _options.hardCap) revert InvalidCapValue() */\ntag_20:\n    /* \"SDC-Presale.sol\":13740:13748  _options */\n  dup1\n    /* \"SDC-Presale.sol\":13740:13752  _options.max */\n  0x60\n  add\n  mload\n    /* \"SDC-Presale.sol\":13725:13733  _options */\n  dup2\n    /* \"SDC-Presale.sol\":13725:13737  _options.min */\n  0x80\n  add\n  mload\n    /* \"SDC-Presale.sol\":13725:13752  _options.min > _options.max */\n  gt\n    /* \"SDC-Presale.sol\":13721:13780  if (_options.min > _options.max) revert InvalidLimitValue() */\n  iszero\n  tag_21\n  jumpi\n    /* \"SDC-Presale.sol\":13761:13780  InvalidLimitValue() */\n  mload(0x40)\n  0xb581346100000000000000000000000000000000000000000000000000000000\n  dup2\n  mstore\n  0x04\n  add\n  mload(0x40)\n  dup1\n  swap2\n  sub\n  swap1\n  revert\n    /* \"SDC-Presale.sol\":13721:13780  if (_options.min > _options.max) revert InvalidLimitValue() */\ntag_21:\n    /* \"SDC-Presale.sol\":13812:13820  _options */\n  dup1\n    /* \"SDC-Presale.sol\":13812:13824  _options.end */\n  0xc0\n  add\n  mload\n    /* \"SDC-Presale.sol\":13794:13824  _options.start >= _options.end */\n  0xffffffffffffffffffffffffffff\n  and\n    /* \"SDC-Presale.sol\":13794:13802  _options */\n  dup2\n    /* \"SDC-Presale.sol\":13794:13808  _options.start */\n  0xa0\n  add\n  mload\n    /* \"SDC-Presale.sol\":13794:13824  _options.start >= _options.end */\n  0xffffffffffffffffffffffffffff\n  and\n  lt\n    /* \"SDC-Presale.sol\":13790:13856  if (_options.start >= _options.end) revert InvalidTimestampValue() */\n  tag_22\n  jumpi\n    /* \"SDC-Presale.sol\":13833:13856  InvalidTimestampValue() */\n  mload(0x40)\n  0xeff2c18200000000000000000000000000000000000000000000000000000000\n  dup2\n  mstore\n  0x04\n  add\n  mload(0x40)\n  dup1\n  swap2\n  sub\n  swap1\n  revert\n    /* \"SDC-Presale.sol\":13790:13856  if (_options.start >= _options.end) revert InvalidTimestampValue() */\ntag_22:\n    /* \"SDC-Presale.sol\":13564:13863  function _prevalidatePool(PresaleOptions memory _options) internal pure {... */\n  pop\n  jump\t// out\n    /* \"#utility.yul\":7:82   */\ntag_23:\n    /* \"#utility.yul\":40:46   */\n  0x00\n    /* \"#utility.yul\":73:75   */\n  0x40\n    /* \"#utility.yul\":67:76   */\n  mload\n    /* \"#utility.yul\":57:76   */\n  swap1\n  pop\n    /* \"#utility.yul\":7:82   */\n  swap1\n  jump\t// out\n    /* \"#utility.yul\":88:205   */\ntag_24:\n    /* \"#utility.yul\":197:198   */\n  0x00\n    /* \"#utility.yul\":194:195   */\n  0x00\n    /* \"#utility.yul\":187:199   */\n  revert\n    /* \"#utility.yul\":334:460   */\ntag_26:\n    /* \"#utility.yul\":371:378   */\n  0x00\n    /* \"#utility.yul\":411:453   */\n  0xffffffffffffffffffffffffffffffffffffffff\n    /* \"#utility.yul\":404:409   */\n  dup3\n    /* \"#utility.yul\":400:454   */\n  and\n    /* \"#utility.yul\":389:454   */\n  swap1\n  pop\n    /* \"#utility.yul\":334:460   */\n  swap2\n  swap1\n  pop\n  jump\t// out\n    /* \"#utility.yul\":466:562   */\ntag_27:\n    /* \"#utility.yul\":503:510   */\n  0x00\n    /* \"#utility.yul\":532:556   */\n  tag_53\n    /* \"#utility.yul\":550:555   */\n  dup3\n    /* \"#utility.yul\":532:556   */\n  tag_26\n  jump\t// in\ntag_53:\n    /* \"#utility.yul\":521:556   */\n  swap1\n  pop\n    /* \"#utility.yul\":466:562   */\n  swap2\n  swap1\n  pop\n  jump\t// out\n    /* \"#utility.yul\":568:690   */\ntag_28:\n    /* \"#utility.yul\":641:665   */\n  tag_55\n    /* \"#utility.yul\":659:664   */\n  dup2\n    /* \"#utility.yul\":641:665   */\n  tag_27\n  jump\t// in\ntag_55:\n    /* \"#utility.yul\":634:639   */\n  dup2\n    /* \"#utility.yul\":631:666   */\n  eq\n    /* \"#utility.yul\":621:684   */\n  tag_56\n  jumpi\n    /* \"#utility.yul\":680:681   */\n  0x00\n    /* \"#utility.yul\":677:678   */\n  0x00\n    /* \"#utility.yul\":670:682   */\n  revert\n    /* \"#utility.yul\":621:684   */\ntag_56:\n    /* \"#utility.yul\":568:690   */\n  pop\n  jump\t// out\n    /* \"#utility.yul\":696:839   */\ntag_29:\n    /* \"#utility.yul\":753:758   */\n  0x00\n    /* \"#utility.yul\":784:790   */\n  dup2\n    /* \"#utility.yul\":778:791   */\n  mload\n    /* \"#utility.yul\":769:791   */\n  swap1\n  pop\n    /* \"#utility.yul\":800:833   */\n  tag_58\n    /* \"#utility.yul\":827:832   */\n  dup2\n    /* \"#utility.yul\":800:833   */\n  tag_28\n  jump\t// in\ntag_58:\n    /* \"#utility.yul\":696:839   */\n  swap3\n  swap2\n  pop\n  pop\n  jump\t// out\n    /* \"#utility.yul\":845:962   */\ntag_30:\n    /* \"#utility.yul\":954:955   */\n  0x00\n    /* \"#utility.yul\":951:952   */\n  0x00\n    /* \"#utility.yul\":944:956   */\n  revert\n    /* \"#utility.yul\":968:1070   */\ntag_31:\n    /* \"#utility.yul\":1009:1015   */\n  0x00\n    /* \"#utility.yul\":1060:1062   */\n  0x1f\n    /* \"#utility.yul\":1056:1063   */\n  not\n    /* \"#utility.yul\":1051:1053   */\n  0x1f\n    /* \"#utility.yul\":1044:1049   */\n  dup4\n    /* \"#utility.yul\":1040:1054   */\n  add\n    /* \"#utility.yul\":1036:1064   */\n  and\n    /* \"#utility.yul\":1026:1064   */\n  swap1\n  pop\n    /* \"#utility.yul\":968:1070   */\n  swap2\n  swap1\n  pop\n  jump\t// out\n    /* \"#utility.yul\":1076:1256   */\ntag_32:\n    /* \"#utility.yul\":1124:1201   */\n  0x4e487b7100000000000000000000000000000000000000000000000000000000\n    /* \"#utility.yul\":1121:1122   */\n  0x00\n    /* \"#utility.yul\":1114:1202   */\n  mstore\n    /* \"#utility.yul\":1221:1225   */\n  0x41\n    /* \"#utility.yul\":1218:1219   */\n  0x04\n    /* \"#utility.yul\":1211:1226   */\n  mstore\n    /* \"#utility.yul\":1245:1249   */\n  0x24\n    /* \"#utility.yul\":1242:1243   */\n  0x00\n    /* \"#utility.yul\":1235:1250   */\n  revert\n    /* \"#utility.yul\":1262:1543   */\ntag_33:\n    /* \"#utility.yul\":1345:1372   */\n  tag_63\n    /* \"#utility.yul\":1367:1371   */\n  dup3\n    /* \"#utility.yul\":1345:1372   */\n  tag_31\n  jump\t// in\ntag_63:\n    /* \"#utility.yul\":1337:1343   */\n  dup2\n    /* \"#utility.yul\":1333:1373   */\n  add\n    /* \"#utility.yul\":1475:1481   */\n  dup2\n    /* \"#utility.yul\":1463:1473   */\n  dup2\n    /* \"#utility.yul\":1460:1482   */\n  lt\n    /* \"#utility.yul\":1439:1457   */\n  0xffffffffffffffff\n    /* \"#utility.yul\":1427:1437   */\n  dup3\n    /* \"#utility.yul\":1424:1458   */\n  gt\n    /* \"#utility.yul\":1421:1483   */\n  or\n    /* \"#utility.yul\":1418:1506   */\n  iszero\n  tag_64\n  jumpi\n    /* \"#utility.yul\":1486:1504   */\n  tag_65\n  tag_32\n  jump\t// in\ntag_65:\n    /* \"#utility.yul\":1418:1506   */\ntag_64:\n    /* \"#utility.yul\":1526:1536   */\n  dup1\n    /* \"#utility.yul\":1522:1524   */\n  0x40\n    /* \"#utility.yul\":1515:1537   */\n  mstore\n    /* \"#utility.yul\":1305:1543   */\n  pop\n    /* \"#utility.yul\":1262:1543   */\n  pop\n  pop\n  jump\t// out\n    /* \"#utility.yul\":1549:1678   */\ntag_34:\n    /* \"#utility.yul\":1583:1589   */\n  0x00\n    /* \"#utility.yul\":1610:1630   */\n  tag_67\n  tag_23\n  jump\t// in\ntag_67:\n    /* \"#utility.yul\":1600:1630   */\n  swap1\n  pop\n    /* \"#utility.yul\":1639:1672   */\n  tag_68\n    /* \"#utility.yul\":1667:1671   */\n  dup3\n    /* \"#utility.yul\":1659:1665   */\n  dup3\n    /* \"#utility.yul\":1639:1672   */\n  tag_33\n  jump\t// in\ntag_68:\n    /* \"#utility.yul\":1549:1678   */\n  swap2\n  swap1\n  pop\n  jump\t// out\n    /* \"#utility.yul\":1807:1884   */\ntag_36:\n    /* \"#utility.yul\":1844:1851   */\n  0x00\n    /* \"#utility.yul\":1873:1878   */\n  dup2\n    /* \"#utility.yul\":1862:1878   */\n  swap1\n  pop\n    /* \"#utility.yul\":1807:1884   */\n  swap2\n  swap1\n  pop\n  jump\t// out\n    /* \"#utility.yul\":1890:2012   */\ntag_37:\n    /* \"#utility.yul\":1963:1987   */\n  tag_72\n    /* \"#utility.yul\":1981:1986   */\n  dup2\n    /* \"#utility.yul\":1963:1987   */\n  tag_36\n  jump\t// in\ntag_72:\n    /* \"#utility.yul\":1956:1961   */\n  dup2\n    /* \"#utility.yul\":1953:1988   */\n  eq\n    /* \"#utility.yul\":1943:2006   */\n  tag_73\n  jumpi\n    /* \"#utility.yul\":2002:2003   */\n  0x00\n    /* \"#utility.yul\":1999:2000   */\n  0x00\n    /* \"#utility.yul\":1992:2004   */\n  revert\n    /* \"#utility.yul\":1943:2006   */\ntag_73:\n    /* \"#utility.yul\":1890:2012   */\n  pop\n  jump\t// out\n    /* \"#utility.yul\":2018:2161   */\ntag_38:\n    /* \"#utility.yul\":2075:2080   */\n  0x00\n    /* \"#utility.yul\":2106:2112   */\n  dup2\n    /* \"#utility.yul\":2100:2113   */\n  mload\n    /* \"#utility.yul\":2091:2113   */\n  swap1\n  pop\n    /* \"#utility.yul\":2122:2155   */\n  tag_75\n    /* \"#utility.yul\":2149:2154   */\n  dup2\n    /* \"#utility.yul\":2122:2155   */\n  tag_37\n  jump\t// in\ntag_75:\n    /* \"#utility.yul\":2018:2161   */\n  swap3\n  swap2\n  pop\n  pop\n  jump\t// out\n    /* \"#utility.yul\":2167:2281   */\ntag_39:\n    /* \"#utility.yul\":2204:2211   */\n  0x00\n    /* \"#utility.yul\":2244:2274   */\n  0xffffffffffffffffffffffffffff\n    /* \"#utility.yul\":2237:2242   */\n  dup3\n    /* \"#utility.yul\":2233:2275   */\n  and\n    /* \"#utility.yul\":2222:2275   */\n  swap1\n  pop\n    /* \"#utility.yul\":2167:2281   */\n  swap2\n  swap1\n  pop\n  jump\t// out\n    /* \"#utility.yul\":2287:2409   */\ntag_40:\n    /* \"#utility.yul\":2360:2384   */\n  tag_78\n    /* \"#utility.yul\":2378:2383   */\n  dup2\n    /* \"#utility.yul\":2360:2384   */\n  tag_39\n  jump\t// in\ntag_78:\n    /* \"#utility.yul\":2353:2358   */\n  dup2\n    /* \"#utility.yul\":2350:2385   */\n  eq\n    /* \"#utility.yul\":2340:2403   */\n  tag_79\n  jumpi\n    /* \"#utility.yul\":2399:2400   */\n  0x00\n    /* \"#utility.yul\":2396:2397   */\n  0x00\n    /* \"#utility.yul\":2389:2401   */\n  revert\n    /* \"#utility.yul\":2340:2403   */\ntag_79:\n    /* \"#utility.yul\":2287:2409   */\n  pop\n  jump\t// out\n    /* \"#utility.yul\":2415:2558   */\ntag_41:\n    /* \"#utility.yul\":2472:2477   */\n  0x00\n    /* \"#utility.yul\":2503:2509   */\n  dup2\n    /* \"#utility.yul\":2497:2510   */\n  mload\n    /* \"#utility.yul\":2488:2510   */\n  swap1\n  pop\n    /* \"#utility.yul\":2519:2552   */\n  tag_81\n    /* \"#utility.yul\":2546:2551   */\n  dup2\n    /* \"#utility.yul\":2519:2552   */\n  tag_40\n  jump\t// in\ntag_81:\n    /* \"#utility.yul\":2415:2558   */\n  swap3\n  swap2\n  pop\n  pop\n  jump\t// out\n    /* \"#utility.yul\":2564:2657   */\ntag_42:\n    /* \"#utility.yul\":2600:2607   */\n  0x00\n    /* \"#utility.yul\":2640:2650   */\n  0xffffffff\n    /* \"#utility.yul\":2633:2638   */\n  dup3\n    /* \"#utility.yul\":2629:2651   */\n  and\n    /* \"#utility.yul\":2618:2651   */\n  swap1\n  pop\n    /* \"#utility.yul\":2564:2657   */\n  swap2\n  swap1\n  pop\n  jump\t// out\n    /* \"#utility.yul\":2663:2783   */\ntag_43:\n    /* \"#utility.yul\":2735:2758   */\n  tag_84\n    /* \"#utility.yul\":2752:2757   */\n  dup2\n    /* \"#utility.yul\":2735:2758   */\n  tag_42\n  jump\t// in\ntag_84:\n    /* \"#utility.yul\":2728:2733   */\n  dup2\n    /* \"#utility.yul\":2725:2759   */\n  eq\n    /* \"#utility.yul\":2715:2777   */\n  tag_85\n  jumpi\n    /* \"#utility.yul\":2773:2774   */\n  0x00\n    /* \"#utility.yul\":2770:2771   */\n  0x00\n    /* \"#utility.yul\":2763:2775   */\n  revert\n    /* \"#utility.yul\":2715:2777   */\ntag_85:\n    /* \"#utility.yul\":2663:2783   */\n  pop\n  jump\t// out\n    /* \"#utility.yul\":2789:2930   */\ntag_44:\n    /* \"#utility.yul\":2845:2850   */\n  0x00\n    /* \"#utility.yul\":2876:2882   */\n  dup2\n    /* \"#utility.yul\":2870:2883   */\n  mload\n    /* \"#utility.yul\":2861:2883   */\n  swap1\n  pop\n    /* \"#utility.yul\":2892:2924   */\n  tag_87\n    /* \"#utility.yul\":2918:2923   */\n  dup2\n    /* \"#utility.yul\":2892:2924   */\n  tag_43\n  jump\t// in\ntag_87:\n    /* \"#utility.yul\":2789:2930   */\n  swap3\n  swap2\n  pop\n  pop\n  jump\t// out\n    /* \"#utility.yul\":2973:4646   */\ntag_45:\n    /* \"#utility.yul\":3065:3070   */\n  0x00\n    /* \"#utility.yul\":3109:3115   */\n  0x0100\n    /* \"#utility.yul\":3097:3106   */\n  dup3\n    /* \"#utility.yul\":3092:3095   */\n  dup5\n    /* \"#utility.yul\":3088:3107   */\n  sub\n    /* \"#utility.yul\":3084:3116   */\n  slt\n    /* \"#utility.yul\":3081:3200   */\n  iszero\n  tag_89\n  jumpi\n    /* \"#utility.yul\":3119:3198   */\n  tag_90\n  tag_30\n  jump\t// in\ntag_90:\n    /* \"#utility.yul\":3081:3200   */\ntag_89:\n    /* \"#utility.yul\":3218:3241   */\n  tag_91\n    /* \"#utility.yul\":3234:3240   */\n  0x0100\n    /* \"#utility.yul\":3218:3241   */\n  tag_34\n  jump\t// in\ntag_91:\n    /* \"#utility.yul\":3209:3241   */\n  swap1\n  pop\n    /* \"#utility.yul\":3308:3309   */\n  0x00\n    /* \"#utility.yul\":3348:3408   */\n  tag_92\n    /* \"#utility.yul\":3404:3407   */\n  dup5\n    /* \"#utility.yul\":3395:3401   */\n  dup3\n    /* \"#utility.yul\":3384:3393   */\n  dup6\n    /* \"#utility.yul\":3380:3402   */\n  add\n    /* \"#utility.yul\":3348:3408   */\n  tag_38\n  jump\t// in\ntag_92:\n    /* \"#utility.yul\":3341:3345   */\n  0x00\n    /* \"#utility.yul\":3334:3339   */\n  dup4\n    /* \"#utility.yul\":3330:3346   */\n  add\n    /* \"#utility.yul\":3323:3409   */\n  mstore\n    /* \"#utility.yul\":3251:3420   */\n  pop\n    /* \"#utility.yul\":3482:3484   */\n  0x20\n    /* \"#utility.yul\":3523:3583   */\n  tag_93\n    /* \"#utility.yul\":3579:3582   */\n  dup5\n    /* \"#utility.yul\":3570:3576   */\n  dup3\n    /* \"#utility.yul\":3559:3568   */\n  dup6\n    /* \"#utility.yul\":3555:3577   */\n  add\n    /* \"#utility.yul\":3523:3583   */\n  tag_38\n  jump\t// in\ntag_93:\n    /* \"#utility.yul\":3516:3520   */\n  0x20\n    /* \"#utility.yul\":3509:3514   */\n  dup4\n    /* \"#utility.yul\":3505:3521   */\n  add\n    /* \"#utility.yul\":3498:3584   */\n  mstore\n    /* \"#utility.yul\":3430:3595   */\n  pop\n    /* \"#utility.yul\":3657:3659   */\n  0x40\n    /* \"#utility.yul\":3698:3758   */\n  tag_94\n    /* \"#utility.yul\":3754:3757   */\n  dup5\n    /* \"#utility.yul\":3745:3751   */\n  dup3\n    /* \"#utility.yul\":3734:3743   */\n  dup6\n    /* \"#utility.yul\":3730:3752   */\n  add\n    /* \"#utility.yul\":3698:3758   */\n  tag_38\n  jump\t// in\ntag_94:\n    /* \"#utility.yul\":3691:3695   */\n  0x40\n    /* \"#utility.yul\":3684:3689   */\n  dup4\n    /* \"#utility.yul\":3680:3696   */\n  add\n    /* \"#utility.yul\":3673:3759   */\n  mstore\n    /* \"#utility.yul\":3605:3770   */\n  pop\n    /* \"#utility.yul\":3828:3830   */\n  0x60\n    /* \"#utility.yul\":3869:3929   */\n  tag_95\n    /* \"#utility.yul\":3925:3928   */\n  dup5\n    /* \"#utility.yul\":3916:3922   */\n  dup3\n    /* \"#utility.yul\":3905:3914   */\n  dup6\n    /* \"#utility.yul\":3901:3923   */\n  add\n    /* \"#utility.yul\":3869:3929   */\n  tag_38\n  jump\t// in\ntag_95:\n    /* \"#utility.yul\":3862:3866   */\n  0x60\n    /* \"#utility.yul\":3855:3860   */\n  dup4\n    /* \"#utility.yul\":3851:3867   */\n  add\n    /* \"#utility.yul\":3844:3930   */\n  mstore\n    /* \"#utility.yul\":3780:3941   */\n  pop\n    /* \"#utility.yul\":3999:4002   */\n  0x80\n    /* \"#utility.yul\":4041:4101   */\n  tag_96\n    /* \"#utility.yul\":4097:4100   */\n  dup5\n    /* \"#utility.yul\":4088:4094   */\n  dup3\n    /* \"#utility.yul\":4077:4086   */\n  dup6\n    /* \"#utility.yul\":4073:4095   */\n  add\n    /* \"#utility.yul\":4041:4101   */\n  tag_38\n  jump\t// in\ntag_96:\n    /* \"#utility.yul\":4034:4038   */\n  0x80\n    /* \"#utility.yul\":4027:4032   */\n  dup4\n    /* \"#utility.yul\":4023:4039   */\n  add\n    /* \"#utility.yul\":4016:4102   */\n  mstore\n    /* \"#utility.yul\":3951:4113   */\n  pop\n    /* \"#utility.yul\":4173:4176   */\n  0xa0\n    /* \"#utility.yul\":4215:4275   */\n  tag_97\n    /* \"#utility.yul\":4271:4274   */\n  dup5\n    /* \"#utility.yul\":4262:4268   */\n  dup3\n    /* \"#utility.yul\":4251:4260   */\n  dup6\n    /* \"#utility.yul\":4247:4269   */\n  add\n    /* \"#utility.yul\":4215:4275   */\n  tag_41\n  jump\t// in\ntag_97:\n    /* \"#utility.yul\":4208:4212   */\n  0xa0\n    /* \"#utility.yul\":4201:4206   */\n  dup4\n    /* \"#utility.yul\":4197:4213   */\n  add\n    /* \"#utility.yul\":4190:4276   */\n  mstore\n    /* \"#utility.yul\":4123:4287   */\n  pop\n    /* \"#utility.yul\":4345:4348   */\n  0xc0\n    /* \"#utility.yul\":4387:4447   */\n  tag_98\n    /* \"#utility.yul\":4443:4446   */\n  dup5\n    /* \"#utility.yul\":4434:4440   */\n  dup3\n    /* \"#utility.yul\":4423:4432   */\n  dup6\n    /* \"#utility.yul\":4419:4441   */\n  add\n    /* \"#utility.yul\":4387:4447   */\n  tag_41\n  jump\t// in\ntag_98:\n    /* \"#utility.yul\":4380:4384   */\n  0xc0\n    /* \"#utility.yul\":4373:4378   */\n  dup4\n    /* \"#utility.yul\":4369:4385   */\n  add\n    /* \"#utility.yul\":4362:4448   */\n  mstore\n    /* \"#utility.yul\":4297:4459   */\n  pop\n    /* \"#utility.yul\":4526:4529   */\n  0xe0\n    /* \"#utility.yul\":4568:4627   */\n  tag_99\n    /* \"#utility.yul\":4623:4626   */\n  dup5\n    /* \"#utility.yul\":4614:4620   */\n  dup3\n    /* \"#utility.yul\":4603:4612   */\n  dup6\n    /* \"#utility.yul\":4599:4621   */\n  add\n    /* \"#utility.yul\":4568:4627   */\n  tag_44\n  jump\t// in\ntag_99:\n    /* \"#utility.yul\":4561:4565   */\n  0xe0\n    /* \"#utility.yul\":4554:4559   */\n  dup4\n    /* \"#utility.yul\":4550:4566   */\n  add\n    /* \"#utility.yul\":4543:4628   */\n  mstore\n    /* \"#utility.yul\":4469:4639   */\n  pop\n    /* \"#utility.yul\":2973:4646   */\n  swap3\n  swap2\n  pop\n  pop\n  jump\t// out\n    /* \"#utility.yul\":4652:5536   */\ntag_3:\n    /* \"#utility.yul\":4781:4787   */\n  0x00\n    /* \"#utility.yul\":4789:4795   */\n  0x00\n    /* \"#utility.yul\":4797:4803   */\n  0x00\n    /* \"#utility.yul\":4805:4811   */\n  0x00\n    /* \"#utility.yul\":4854:4857   */\n  0x0160\n    /* \"#utility.yul\":4842:4851   */\n  dup6\n    /* \"#utility.yul\":4833:4840   */\n  dup8\n    /* \"#utility.yul\":4829:4852   */\n  sub\n    /* \"#utility.yul\":4825:4858   */\n  slt\n    /* \"#utility.yul\":4822:4942   */\n  iszero\n  tag_101\n  jumpi\n    /* \"#utility.yul\":4861:4940   */\n  tag_102\n  tag_24\n  jump\t// in\ntag_102:\n    /* \"#utility.yul\":4822:4942   */\ntag_101:\n    /* \"#utility.yul\":4981:4982   */\n  0x00\n    /* \"#utility.yul\":5006:5070   */\n  tag_103\n    /* \"#utility.yul\":5062:5069   */\n  dup8\n    /* \"#utility.yul\":5053:5059   */\n  dup3\n    /* \"#utility.yul\":5042:5051   */\n  dup9\n    /* \"#utility.yul\":5038:5060   */\n  add\n    /* \"#utility.yul\":5006:5070   */\n  tag_29\n  jump\t// in\ntag_103:\n    /* \"#utility.yul\":4996:5070   */\n  swap5\n  pop\n    /* \"#utility.yul\":4952:5080   */\n  pop\n    /* \"#utility.yul\":5119:5121   */\n  0x20\n    /* \"#utility.yul\":5145:5209   */\n  tag_104\n    /* \"#utility.yul\":5201:5208   */\n  dup8\n    /* \"#utility.yul\":5192:5198   */\n  dup3\n    /* \"#utility.yul\":5181:5190   */\n  dup9\n    /* \"#utility.yul\":5177:5199   */\n  add\n    /* \"#utility.yul\":5145:5209   */\n  tag_29\n  jump\t// in\ntag_104:\n    /* \"#utility.yul\":5135:5209   */\n  swap4\n  pop\n    /* \"#utility.yul\":5090:5219   */\n  pop\n    /* \"#utility.yul\":5258:5260   */\n  0x40\n    /* \"#utility.yul\":5284:5348   */\n  tag_105\n    /* \"#utility.yul\":5340:5347   */\n  dup8\n    /* \"#utility.yul\":5331:5337   */\n  dup3\n    /* \"#utility.yul\":5320:5329   */\n  dup9\n    /* \"#utility.yul\":5316:5338   */\n  add\n    /* \"#utility.yul\":5284:5348   */\n  tag_29\n  jump\t// in\ntag_105:\n    /* \"#utility.yul\":5274:5348   */\n  swap3\n  pop\n    /* \"#utility.yul\":5229:5358   */\n  pop\n    /* \"#utility.yul\":5397:5399   */\n  0x60\n    /* \"#utility.yul\":5423:5519   */\n  tag_106\n    /* \"#utility.yul\":5511:5518   */\n  dup8\n    /* \"#utility.yul\":5502:5508   */\n  dup3\n    /* \"#utility.yul\":5491:5500   */\n  dup9\n    /* \"#utility.yul\":5487:5509   */\n  add\n    /* \"#utility.yul\":5423:5519   */\n  tag_45\n  jump\t// in\ntag_106:\n    /* \"#utility.yul\":5413:5519   */\n  swap2\n  pop\n    /* \"#utility.yul\":5368:5529   */\n  pop\n    /* \"#utility.yul\":4652:5536   */\n  swap3\n  swap6\n  swap2\n  swap5\n  pop\n  swap3\n  pop\n  jump\t// out\n    /* \"#utility.yul\":5542:5660   */\ntag_46:\n    /* \"#utility.yul\":5629:5653   */\n  tag_108\n    /* \"#utility.yul\":5647:5652   */\n  dup2\n    /* \"#utility.yul\":5629:5653   */\n  tag_27\n  jump\t// in\ntag_108:\n    /* \"#utility.yul\":5624:5627   */\n  dup3\n    /* \"#utility.yul\":5617:5654   */\n  mstore\n    /* \"#utility.yul\":5542:5660   */\n  pop\n  pop\n  jump\t// out\n    /* \"#utility.yul\":5666:5888   */\ntag_10:\n    /* \"#utility.yul\":5759:5763   */\n  0x00\n    /* \"#utility.yul\":5797:5799   */\n  0x20\n    /* \"#utility.yul\":5786:5795   */\n  dup3\n    /* \"#utility.yul\":5782:5800   */\n  add\n    /* \"#utility.yul\":5774:5800   */\n  swap1\n  pop\n    /* \"#utility.yul\":5810:5881   */\n  tag_110\n    /* \"#utility.yul\":5878:5879   */\n  0x00\n    /* \"#utility.yul\":5867:5876   */\n  dup4\n    /* \"#utility.yul\":5863:5880   */\n  add\n    /* \"#utility.yul\":5854:5860   */\n  dup5\n    /* \"#utility.yul\":5810:5881   */\n  tag_46\n  jump\t// in\ntag_110:\n    /* \"#utility.yul\":5666:5888   */\n  swap3\n  swap2\n  pop\n  pop\n  jump\t// out\n    /* \"SDC-Presale.sol\":695:15907  contract Presale is IPresale, Ownable, ReentrancyGuard {... */\ntag_17:\n  dataSize(sub_0)\n  dup1\n  dataOffset(sub_0)\n  0x00\n  codecopy\n  0x00\n  return\nstop\n\nsub_0: assembly {\n        /* \"SDC-Presale.sol\":695:15907  contract Presale is IPresale, Ownable, ReentrancyGuard {... */\n      mstore(0x40, 0x80)\n      jumpi(tag_1, lt(calldatasize, 0x04))\n      shr(0xe0, calldataload(0x00))\n      dup1\n      0x715018a6\n      gt\n      tag_19\n      jumpi\n      dup1\n      0xd0e30db0\n      gt\n      tag_20\n      jumpi\n      dup1\n      0xd0e30db0\n      eq\n      tag_15\n      jumpi\n      dup1\n      0xea8a1af0\n      eq\n      tag_16\n      jumpi\n      dup1\n      0xed498fa8\n      eq\n      tag_17\n      jumpi\n      dup1\n      0xf2fde38b\n      eq\n      tag_18\n      jumpi\n      jump(tag_2)\n    tag_20:\n      dup1\n      0x715018a6\n      eq\n      tag_11\n      jumpi\n      dup1\n      0x7f649783\n      eq\n      tag_12\n      jumpi\n      dup1\n      0x8da5cb5b\n      eq\n      tag_13\n      jumpi\n      dup1\n      0x9b19251a\n      eq\n      tag_14\n      jumpi\n      jump(tag_2)\n    tag_19:\n      dup1\n      0x4bb278f3\n      gt\n      tag_21\n      jumpi\n      dup1\n      0x4bb278f3\n      eq\n      tag_7\n      jumpi\n      dup1\n      0x4e71d92d\n      eq\n      tag_8\n      jumpi\n      dup1\n      0x548db174\n      eq\n      tag_9\n      jumpi\n      dup1\n      0x590e1ae3\n      eq\n      tag_10\n      jumpi\n      jump(tag_2)\n    tag_21:\n      dup1\n      0x052d9e7e\n      eq\n      tag_3\n      jumpi\n      dup1\n      0x16f0115b\n      eq\n      tag_4\n      jumpi\n      dup1\n      0x184d69ab\n      eq\n      tag_5\n      jumpi\n      dup1\n      0x42e94c90\n      eq\n      tag_6\n      jumpi\n      jump(tag_2)\n    tag_1:\n      jumpi(tag_2, calldatasize)\n        /* \"SDC-Presale.sol\":5120:5152  _purchase(msg.sender, msg.value) */\n      tag_24\n        /* \"SDC-Presale.sol\":5130:5140  msg.sender */\n      caller\n        /* \"SDC-Presale.sol\":5142:5151  msg.value */\n      callvalue\n        /* \"SDC-Presale.sol\":5120:5129  _purchase */\n      tag_25\n        /* \"SDC-Presale.sol\":5120:5152  _purchase(msg.sender, msg.value) */\n      jump\t// in\n    tag_24:\n        /* \"SDC-Presale.sol\":695:15907  contract Presale is IPresale, Ownable, ReentrancyGuard {... */\n      stop\n    tag_2:\n      revert(0x00, 0x00)\n        /* \"SDC-Presale.sol\":11467:11576  function setWhitelistEnabled(bool _enabled) external onlyOwner {... */\n    tag_3:\n      callvalue\n      dup1\n      iszero\n      tag_26\n      jumpi\n      revert(0x00, 0x00)\n    tag_26:\n      pop\n      tag_27\n      0x04\n      dup1\n      calldatasize\n      sub\n      dup2\n      add\n      swap1\n      tag_28\n      swap2\n      swap1\n      tag_29\n      jump\t// in\n    tag_28:\n      tag_30\n      jump\t// in\n    tag_27:\n      stop\n        /* \"SDC-Presale.sol\":3536:3552  Pool public pool */\n    tag_4:\n      callvalue\n      dup1\n      iszero\n      tag_31\n      jumpi\n      revert(0x00, 0x00)\n    tag_31:\n      pop\n      tag_32\n      tag_33\n      jump\t// in\n    tag_32:\n      mload(0x40)\n      tag_34\n      swap10\n      swap9\n      swap8\n      swap7\n      swap6\n      swap5\n      swap4\n      swap3\n      swap2\n      swap1\n      tag_35\n      jump\t// in\n    tag_34:\n      mload(0x40)\n      dup1\n      swap2\n      sub\n      swap1\n      return\n        /* \"SDC-Presale.sol\":3663:3701  bool public isWhitelistEnabled = false */\n    tag_5:\n      callvalue\n      dup1\n      iszero\n      tag_36\n      jumpi\n      revert(0x00, 0x00)\n    tag_36:\n      pop\n      tag_37\n      tag_38\n      jump\t// in\n    tag_37:\n      mload(0x40)\n      tag_39\n      swap2\n      swap1\n      tag_40\n      jump\t// in\n    tag_39:\n      mload(0x40)\n      dup1\n      swap2\n      sub\n      swap1\n      return\n        /* \"SDC-Presale.sol\":3403:3451  mapping(address => uint256) public contributions */\n    tag_6:\n      callvalue\n      dup1\n      iszero\n      tag_41\n      jumpi\n      revert(0x00, 0x00)\n    tag_41:\n      pop\n      tag_42\n      0x04\n      dup1\n      calldatasize\n      sub\n      dup2\n      add\n      swap1\n      tag_43\n      swap2\n      swap1\n      tag_44\n      jump\t// in\n    tag_43:\n      tag_45\n      jump\t// in\n    tag_42:\n      mload(0x40)\n      tag_46\n      swap2\n      swap1\n      tag_47\n      jump\t// in\n    tag_46:\n      mload(0x40)\n      dup1\n      swap2\n      sub\n      swap1\n      return\n        /* \"SDC-Presale.sol\":9297:10411  function finalize() external onlyOwner nonReentrant returns (bool) {... */\n    tag_7:\n      callvalue\n      dup1\n      iszero\n      tag_48\n      jumpi\n      revert(0x00, 0x00)\n    tag_48:\n      pop\n      tag_49\n      tag_50\n      jump\t// in\n    tag_49:\n      mload(0x40)\n      tag_51\n      swap2\n      swap1\n      tag_40\n      jump\t// in\n    tag_51:\n      mload(0x40)\n      dup1\n      swap2\n      sub\n      swap1\n      return\n        /* \"SDC-Presale.sol\":7536:8237  function claim() external nonReentrant returns (uint256) {... */\n    tag_8:\n      callvalue\n      dup1\n      iszero\n      tag_52\n      jumpi\n      revert(0x00, 0x00)\n    tag_52:\n      pop\n      tag_53\n      tag_54\n      jump\t// in\n    tag_53:\n      mload(0x40)\n      tag_55\n      swap2\n      swap1\n      tag_47\n      jump\t// in\n    tag_55:\n      mload(0x40)\n      dup1\n      swap2\n      sub\n      swap1\n      return\n        /* \"SDC-Presale.sol\":11928:12122  function removeFromWhitelist(address[] calldata accounts) external onlyOwner {... */\n    tag_9:\n      callvalue\n      dup1\n      iszero\n      tag_56\n      jumpi\n      revert(0x00, 0x00)\n    tag_56:\n      pop\n      tag_57\n      0x04\n      dup1\n      calldatasize\n      sub\n      dup2\n      add\n      swap1\n      tag_58\n      swap2\n      swap1\n      tag_59\n      jump\t// in\n    tag_58:\n      tag_60\n      jump\t// in\n    tag_57:\n      stop\n        /* \"SDC-Presale.sol\":8399:8805  function refund() external onlyRefundable nonReentrant returns (uint256) {... */\n    tag_10:\n      callvalue\n      dup1\n      iszero\n      tag_61\n      jumpi\n      revert(0x00, 0x00)\n    tag_61:\n      pop\n      tag_62\n      tag_63\n      jump\t// in\n    tag_62:\n      mload(0x40)\n      tag_64\n      swap2\n      swap1\n      tag_47\n      jump\t// in\n    tag_64:\n      mload(0x40)\n      dup1\n      swap2\n      sub\n      swap1\n      return\n        /* \"@openzeppelin/contracts/access/Ownable.sol\":2293:2394  function renounceOwnership() public virtual onlyOwner {... */\n    tag_11:\n      callvalue\n      dup1\n      iszero\n      tag_65\n      jumpi\n      revert(0x00, 0x00)\n    tag_65:\n      pop\n      tag_66\n      tag_67\n      jump\t// in\n    tag_66:\n      stop\n        /* \"SDC-Presale.sol\":11659:11847  function addToWhitelist(address[] calldata accounts) external onlyOwner {... */\n    tag_12:\n      callvalue\n      dup1\n      iszero\n      tag_68\n      jumpi\n      revert(0x00, 0x00)\n    tag_68:\n      pop\n      tag_69\n      0x04\n      dup1\n      calldatasize\n      sub\n      dup2\n      add\n      swap1\n      tag_70\n      swap2\n      swap1\n      tag_59\n      jump\t// in\n    tag_70:\n      tag_71\n      jump\t// in\n    tag_69:\n      stop\n        /* \"@openzeppelin/contracts/access/Ownable.sol\":1638:1723  function owner() public view virtual returns (address) {... */\n    tag_13:\n      callvalue\n      dup1\n      iszero\n      tag_72\n      jumpi\n      revert(0x00, 0x00)\n    tag_72:\n      pop\n      tag_73\n      tag_74\n      jump\t// in\n    tag_73:\n      mload(0x40)\n      tag_75\n      swap2\n      swap1\n      tag_76\n      jump\t// in\n    tag_75:\n      mload(0x40)\n      dup1\n      swap2\n      sub\n      swap1\n      return\n        /* \"SDC-Presale.sol\":3707:3748  mapping(address => bool) public whitelist */\n    tag_14:\n      callvalue\n      dup1\n      iszero\n      tag_77\n      jumpi\n      revert(0x00, 0x00)\n    tag_77:\n      pop\n      tag_78\n      0x04\n      dup1\n      calldatasize\n      sub\n      dup2\n      add\n      swap1\n      tag_79\n      swap2\n      swap1\n      tag_44\n      jump\t// in\n    tag_79:\n      tag_80\n      jump\t// in\n    tag_78:\n      mload(0x40)\n      tag_81\n      swap2\n      swap1\n      tag_40\n      jump\t// in\n    tag_81:\n      mload(0x40)\n      dup1\n      swap2\n      sub\n      swap1\n      return\n        /* \"SDC-Presale.sol\":5722:6668  function deposit() external onlyOwner returns (uint256) {... */\n    tag_15:\n      callvalue\n      dup1\n      iszero\n      tag_82\n      jumpi\n      revert(0x00, 0x00)\n    tag_82:\n      pop\n      tag_83\n      tag_84\n      jump\t// in\n    tag_83:\n      mload(0x40)\n      tag_85\n      swap2\n      swap1\n      tag_47\n      jump\t// in\n    tag_85:\n      mload(0x40)\n      dup1\n      swap2\n      sub\n      swap1\n      return\n        /* \"SDC-Presale.sol\":10659:11172  function cancel() external onlyOwner returns(bool) {... */\n    tag_16:\n      callvalue\n      dup1\n      iszero\n      tag_86\n      jumpi\n      revert(0x00, 0x00)\n    tag_86:\n      pop\n      tag_87\n      tag_88\n      jump\t// in\n    tag_87:\n      mload(0x40)\n      tag_89\n      swap2\n      swap1\n      tag_40\n      jump\t// in\n    tag_89:\n      mload(0x40)\n      dup1\n      swap2\n      sub\n      swap1\n      return\n        /* \"SDC-Presale.sol\":14056:14393  function userTokens(address contributor) public view returns (uint256) {... */\n    tag_17:\n      callvalue\n      dup1\n      iszero\n      tag_90\n      jumpi\n      revert(0x00, 0x00)\n    tag_90:\n      pop\n      tag_91\n      0x04\n      dup1\n      calldatasize\n      sub\n      dup2\n      add\n      swap1\n      tag_92\n      swap2\n      swap1\n      tag_44\n      jump\t// in\n    tag_92:\n      tag_93\n      jump\t// in\n    tag_91:\n      mload(0x40)\n      tag_94\n      swap2\n      swap1\n      tag_47\n      jump\t// in\n    tag_94:\n      mload(0x40)\n      dup1\n      swap2\n      sub\n      swap1\n      return\n        /* \"@openzeppelin/contracts/access/Ownable.sol\":2543:2758  function transferOwnership(address newOwner) public virtual onlyOwner {... */\n    tag_18:\n      callvalue\n      dup1\n      iszero\n      tag_95\n      jumpi\n      revert(0x00, 0x00)\n    tag_95:\n      pop\n      tag_96\n      0x04\n      dup1\n      calldatasize\n      sub\n      dup2\n      add\n      swap1\n      tag_97\n      swap2\n      swap1\n      tag_44\n      jump\t// in\n    tag_97:\n      tag_98\n      jump\t// in\n    tag_96:\n      stop\n        /* \"SDC-Presale.sol\":7082:7351  function _purchase(address beneficiary, uint256 amount) private nonReentrant {... */\n    tag_25:\n        /* \"@openzeppelin/contracts/security/ReentrancyGuard.sol\":2261:2282  _nonReentrantBefore() */\n      tag_100\n        /* \"@openzeppelin/contracts/security/ReentrancyGuard.sol\":2261:2280  _nonReentrantBefore */\n      tag_101\n        /* \"@openzeppelin/contracts/security/ReentrancyGuard.sol\":2261:2282  _nonReentrantBefore() */\n      jump\t// in\n    tag_100:\n        /* \"SDC-Presale.sol\":7169:7210  _prevalidatePurchase(beneficiary, amount) */\n      tag_103\n        /* \"SDC-Presale.sol\":7190:7201  beneficiary */\n      dup3\n        /* \"SDC-Presale.sol\":7203:7209  amount */\n      dup3\n        /* \"SDC-Presale.sol\":7169:7189  _prevalidatePurchase */\n      tag_104\n        /* \"SDC-Presale.sol\":7169:7210  _prevalidatePurchase(beneficiary, amount) */\n      jump\t// in\n    tag_103:\n        /* \"SDC-Presale.sol\":7239:7245  amount */\n      dup1\n        /* \"SDC-Presale.sol\":7221:7225  pool */\n      0x03\n        /* \"SDC-Presale.sol\":7221:7235  pool.weiRaised */\n      0x05\n      add\n      0x00\n        /* \"SDC-Presale.sol\":7221:7245  pool.weiRaised += amount */\n      dup3\n      dup3\n      sload\n      tag_105\n      swap2\n      swap1\n      tag_106\n      jump\t// in\n    tag_105:\n      swap3\n      pop\n      pop\n      dup2\n      swap1\n      sstore\n      pop\n        /* \"SDC-Presale.sol\":7285:7291  amount */\n      dup1\n        /* \"SDC-Presale.sol\":7255:7268  contributions */\n      0x02\n        /* \"SDC-Presale.sol\":7255:7281  contributions[beneficiary] */\n      0x00\n        /* \"SDC-Presale.sol\":7269:7280  beneficiary */\n      dup5\n        /* \"SDC-Presale.sol\":7255:7281  contributions[beneficiary] */\n      0xffffffffffffffffffffffffffffffffffffffff\n      and\n      0xffffffffffffffffffffffffffffffffffffffff\n      and\n      dup2\n      mstore\n      0x20\n      add\n      swap1\n      dup2\n      mstore\n      0x20\n      add\n      0x00\n      keccak256\n      0x00\n        /* \"SDC-Presale.sol\":7255:7291  contributions[beneficiary] += amount */\n      dup3\n      dup3\n      sload\n      tag_107\n      swap2\n      swap1\n      tag_106\n      jump\t// in\n    tag_107:\n      swap3\n      pop\n      pop\n      dup2\n      swap1\n      sstore\n      pop\n        /* \"SDC-Presale.sol\":7324:7335  beneficiary */\n      dup2\n        /* \"SDC-Presale.sol\":7315:7344  Purchase(beneficiary, amount) */\n      0xffffffffffffffffffffffffffffffffffffffff\n      and\n      0x2499a5330ab0979cc612135e7883ebc3cd5c9f7a8508f042540c34723348f632\n        /* \"SDC-Presale.sol\":7337:7343  amount */\n      dup3\n        /* \"SDC-Presale.sol\":7315:7344  Purchase(beneficiary, amount) */\n      mload(0x40)\n      tag_108\n      swap2\n      swap1\n      tag_47\n      jump\t// in\n    tag_108:\n      mload(0x40)\n      dup1\n      swap2\n      sub\n      swap1\n      log2\n        /* \"@openzeppelin/contracts/security/ReentrancyGuard.sol\":2303:2323  _nonReentrantAfter() */\n      tag_109\n        /* \"@openzeppelin/contracts/security/ReentrancyGuard.sol\":2303:2321  _nonReentrantAfter */\n      tag_110\n        /* \"@openzeppelin/contracts/security/ReentrancyGuard.sol\":2303:2323  _nonReentrantAfter() */\n      jump\t// in\n    tag_109:\n        /* \"SDC-Presale.sol\":7082:7351  function _purchase(address beneficiary, uint256 amount) private nonReentrant {... */\n      pop\n      pop\n      jump\t// out\n        /* \"SDC-Presale.sol\":11467:11576  function setWhitelistEnabled(bool _enabled) external onlyOwner {... */\n    tag_30:\n        /* \"@openzeppelin/contracts/access/Ownable.sol\":1531:1544  _checkOwner() */\n      tag_112\n        /* \"@openzeppelin/contracts/access/Ownable.sol\":1531:1542  _checkOwner */\n      tag_113\n        /* \"@openzeppelin/contracts/access/Ownable.sol\":1531:1544  _checkOwner() */\n      jump\t// in\n    tag_112:\n        /* \"SDC-Presale.sol\":11561:11569  _enabled */\n      dup1\n        /* \"SDC-Presale.sol\":11540:11558  isWhitelistEnabled */\n      0x10\n      0x00\n        /* \"SDC-Presale.sol\":11540:11569  isWhitelistEnabled = _enabled */\n      0x0100\n      exp\n      dup2\n      sload\n      dup2\n      0xff\n      mul\n      not\n      and\n      swap1\n      dup4\n      iszero\n      iszero\n      mul\n      or\n      swap1\n      sstore\n      pop\n        /* \"SDC-Presale.sol\":11467:11576  function setWhitelistEnabled(bool _enabled) external onlyOwner {... */\n      pop\n      jump\t// out\n        /* \"SDC-Presale.sol\":3536:3552  Pool public pool */\n    tag_33:\n      0x03\n      dup1\n      0x00\n      add\n      0x00\n      swap1\n      sload\n      swap1\n      0x0100\n      exp\n      swap1\n      div\n      0xffffffffffffffffffffffffffffffffffffffff\n      and\n      swap1\n      dup1\n      0x01\n      add\n      0x00\n      swap1\n      sload\n      swap1\n      0x0100\n      exp\n      swap1\n      div\n      0xffffffffffffffffffffffffffffffffffffffff\n      and\n      swap1\n      dup1\n      0x02\n      add\n      sload\n      swap1\n      dup1\n      0x03\n      add\n      sload\n      swap1\n      dup1\n      0x04\n      add\n      sload\n      swap1\n      dup1\n      0x05\n      add\n      sload\n      swap1\n      dup1\n      0x06\n      add\n      0x00\n      swap1\n      sload\n      swap1\n      0x0100\n      exp\n      swap1\n      div\n      0xffffffffffffffffffffffffffffffffffffffff\n      and\n      swap1\n      dup1\n      0x06\n      add\n      0x14\n      swap1\n      sload\n      swap1\n      0x0100\n      exp\n      swap1\n      div\n      0xff\n      and\n      swap1\n      dup1\n      0x07\n      add\n      mload(0x40)\n      dup1\n      0x0100\n      add\n      0x40\n      mstore\n      swap1\n      dup2\n      0x00\n      dup3\n      add\n      sload\n      dup2\n      mstore\n      0x20\n      add\n      0x01\n      dup3\n      add\n      sload\n      dup2\n      mstore\n      0x20\n      add\n      0x02\n      dup3\n      add\n      sload\n      dup2\n      mstore\n      0x20\n      add\n      0x03\n      dup3\n      add\n      sload\n      dup2\n      mstore\n      0x20\n      add\n      0x04\n      dup3\n      add\n      sload\n      dup2\n      mstore\n      0x20\n      add\n      0x05\n      dup3\n      add\n      0x00\n      swap1\n      sload\n      swap1\n      0x0100\n      exp\n      swap1\n      div\n      0xffffffffffffffffffffffffffff\n      and\n      0xffffffffffffffffffffffffffff\n      and\n      0xffffffffffffffffffffffffffff\n      and\n      dup2\n      mstore\n      0x20\n      add\n      0x05\n      dup3\n      add\n      0x0e\n      swap1\n      sload\n      swap1\n      0x0100\n      exp\n      swap1\n      div\n      0xffffffffffffffffffffffffffff\n      and\n      0xffffffffffffffffffffffffffff\n      and\n      0xffffffffffffffffffffffffffff\n      and\n      dup2\n      mstore\n      0x20\n      add\n      0x05\n      dup3\n      add\n      0x1c\n      swap1\n      sload\n      swap1\n      0x0100\n      exp\n      swap1\n      div\n      0xffffffff\n      and\n      0xffffffff\n      and\n      0xffffffff\n      and\n      dup2\n      mstore\n      pop\n      pop\n      swap1\n      pop\n      dup10\n      jump\t// out\n        /* \"SDC-Presale.sol\":3663:3701  bool public isWhitelistEnabled = false */\n    tag_38:\n      0x10\n      0x00\n      swap1\n      sload\n      swap1\n      0x0100\n      exp\n      swap1\n      div\n      0xff\n      and\n      dup2\n      jump\t// out\n        /* \"SDC-Presale.sol\":3403:3451  mapping(address => uint256) public contributions */\n    tag_45:\n      mstore(0x20, 0x02)\n      dup1\n      0x00\n      mstore\n      keccak256(0x00, 0x40)\n      0x00\n      swap2\n      pop\n      swap1\n      pop\n      sload\n      dup2\n      jump\t// out\n        /* \"SDC-Presale.sol\":9297:10411  function finalize() external onlyOwner nonReentrant returns (bool) {... */\n    tag_50:\n        /* \"SDC-Presale.sol\":9358:9362  bool */\n      0x00\n        /* \"@openzeppelin/contracts/access/Ownable.sol\":1531:1544  _checkOwner() */\n      tag_116\n        /* \"@openzeppelin/contracts/access/Ownable.sol\":1531:1542  _checkOwner */\n      tag_113\n        /* \"@openzeppelin/contracts/access/Ownable.sol\":1531:1544  _checkOwner() */\n      jump\t// in\n    tag_116:\n        /* \"@openzeppelin/contracts/security/ReentrancyGuard.sol\":2261:2282  _nonReentrantBefore() */\n      tag_118\n        /* \"@openzeppelin/contracts/security/ReentrancyGuard.sol\":2261:2280  _nonReentrantBefore */\n      tag_101\n        /* \"@openzeppelin/contracts/security/ReentrancyGuard.sol\":2261:2282  _nonReentrantBefore() */\n      jump\t// in\n    tag_118:\n        /* \"SDC-Presale.sol\":9392:9393  2 */\n      0x02\n        /* \"SDC-Presale.sol\":9378:9382  pool */\n      0x03\n        /* \"SDC-Presale.sol\":9378:9388  pool.state */\n      0x06\n      add\n      0x14\n      swap1\n      sload\n      swap1\n      0x0100\n      exp\n      swap1\n      div\n      0xff\n      and\n        /* \"SDC-Presale.sol\":9378:9393  pool.state != 2 */\n      0xff\n      and\n      eq\n        /* \"SDC-Presale.sol\":9374:9426  if (pool.state != 2) revert InvalidState(pool.state) */\n      tag_120\n      jumpi\n        /* \"SDC-Presale.sol\":9415:9419  pool */\n      0x03\n        /* \"SDC-Presale.sol\":9415:9425  pool.state */\n      0x06\n      add\n      0x14\n      swap1\n      sload\n      swap1\n      0x0100\n      exp\n      swap1\n      div\n      0xff\n      and\n        /* \"SDC-Presale.sol\":9402:9426  InvalidState(pool.state) */\n      mload(0x40)\n      0xd07e897600000000000000000000000000000000000000000000000000000000\n      dup2\n      mstore\n      0x04\n      add\n      tag_121\n      swap2\n      swap1\n      tag_122\n      jump\t// in\n    tag_121:\n      mload(0x40)\n      dup1\n      swap2\n      sub\n      swap1\n      revert\n        /* \"SDC-Presale.sol\":9374:9426  if (pool.state != 2) revert InvalidState(pool.state) */\n    tag_120:\n        /* \"SDC-Presale.sol\":9598:9602  pool */\n      0x03\n        /* \"SDC-Presale.sol\":9598:9610  pool.options */\n      0x07\n      add\n        /* \"SDC-Presale.sol\":9598:9618  pool.options.softCap */\n      0x02\n      add\n      sload\n        /* \"SDC-Presale.sol\":9581:9585  pool */\n      0x03\n        /* \"SDC-Presale.sol\":9581:9595  pool.weiRaised */\n      0x05\n      add\n      sload\n        /* \"SDC-Presale.sol\":9581:9618  pool.weiRaised < pool.options.softCap */\n      lt\n        /* \"SDC-Presale.sol\":9581:9656  pool.weiRaised < pool.options.softCap && block.timestamp < pool.options.end */\n      dup1\n      iszero\n      tag_123\n      jumpi\n      pop\n        /* \"SDC-Presale.sol\":9640:9644  pool */\n      0x03\n        /* \"SDC-Presale.sol\":9640:9652  pool.options */\n      0x07\n      add\n        /* \"SDC-Presale.sol\":9640:9656  pool.options.end */\n      0x05\n      add\n      0x0e\n      swap1\n      sload\n      swap1\n      0x0100\n      exp\n      swap1\n      div\n      0xffffffffffffffffffffffffffff\n      and\n        /* \"SDC-Presale.sol\":9622:9656  block.timestamp < pool.options.end */\n      0xffffffffffffffffffffffffffff\n      and\n        /* \"SDC-Presale.sol\":9622:9637  block.timestamp */\n      timestamp\n        /* \"SDC-Presale.sol\":9622:9656  block.timestamp < pool.options.end */\n      lt\n        /* \"SDC-Presale.sol\":9581:9656  pool.weiRaised < pool.options.softCap && block.timestamp < pool.options.end */\n    tag_123:\n        /* \"SDC-Presale.sol\":9577:9709  if (pool.weiRaised < pool.options.softCap && block.timestamp < pool.options.end) {... */\n      iszero\n      tag_124\n      jumpi\n        /* \"SDC-Presale.sol\":9679:9698  SoftCapNotReached() */\n      mload(0x40)\n      0x2bdc91ad00000000000000000000000000000000000000000000000000000000\n      dup2\n      mstore\n      0x04\n      add\n      mload(0x40)\n      dup1\n      swap2\n      sub\n      swap1\n      revert\n        /* \"SDC-Presale.sol\":9577:9709  if (pool.weiRaised < pool.options.softCap && block.timestamp < pool.options.end) {... */\n    tag_124:\n        /* \"SDC-Presale.sol\":9796:9797  4 */\n      0x04\n        /* \"SDC-Presale.sol\":9783:9787  pool */\n      0x03\n        /* \"SDC-Presale.sol\":9783:9793  pool.state */\n      0x06\n      add\n      0x14\n        /* \"SDC-Presale.sol\":9783:9797  pool.state = 4 */\n      0x0100\n      exp\n      dup2\n      sload\n      dup2\n      0xff\n      mul\n      not\n      and\n      swap1\n      dup4\n      0xff\n      and\n      mul\n      or\n      swap1\n      sstore\n      pop\n        /* \"SDC-Presale.sol\":9905:9925  uint256 liquidityWei */\n      0x00\n        /* \"SDC-Presale.sol\":9928:9946  _weiForLiquidity() */\n      tag_125\n        /* \"SDC-Presale.sol\":9928:9944  _weiForLiquidity */\n      tag_126\n        /* \"SDC-Presale.sol\":9928:9946  _weiForLiquidity() */\n      jump\t// in\n    tag_125:\n        /* \"SDC-Presale.sol\":9905:9946  uint256 liquidityWei = _weiForLiquidity() */\n      swap1\n      pop\n        /* \"SDC-Presale.sol\":9956:10000  _liquify(liquidityWei, pool.tokensLiquidity) */\n      tag_127\n        /* \"SDC-Presale.sol\":9965:9977  liquidityWei */\n      dup2\n        /* \"SDC-Presale.sol\":9979:9983  pool */\n      0x03\n        /* \"SDC-Presale.sol\":9979:9999  pool.tokensLiquidity */\n      0x04\n      add\n      sload\n        /* \"SDC-Presale.sol\":9956:9964  _liquify */\n      tag_128\n        /* \"SDC-Presale.sol\":9956:10000  _liquify(liquidityWei, pool.tokensLiquidity) */\n      jump\t// in\n    tag_127:\n        /* \"SDC-Presale.sol\":10031:10035  pool */\n      0x03\n        /* \"SDC-Presale.sol\":10031:10051  pool.tokensLiquidity */\n      0x04\n      add\n      sload\n        /* \"SDC-Presale.sol\":10010:10014  pool */\n      0x03\n        /* \"SDC-Presale.sol\":10010:10027  pool.tokenBalance */\n      0x02\n      add\n      0x00\n        /* \"SDC-Presale.sol\":10010:10051  pool.tokenBalance -= pool.tokensLiquidity */\n      dup3\n      dup3\n      sload\n      tag_129\n      swap2\n      swap1\n      tag_130\n      jump\t// in\n    tag_129:\n      swap3\n      pop\n      pop\n      dup2\n      swap1\n      sstore\n      pop\n        /* \"SDC-Presale.sol\":10162:10182  uint256 withdrawable */\n      0x00\n        /* \"SDC-Presale.sol\":10202:10214  liquidityWei */\n      dup2\n        /* \"SDC-Presale.sol\":10185:10189  pool */\n      0x03\n        /* \"SDC-Presale.sol\":10185:10199  pool.weiRaised */\n      0x05\n      add\n      sload\n        /* \"SDC-Presale.sol\":10185:10214  pool.weiRaised - liquidityWei */\n      tag_131\n      swap2\n      swap1\n      tag_130\n      jump\t// in\n    tag_131:\n        /* \"SDC-Presale.sol\":10162:10214  uint256 withdrawable = pool.weiRaised - liquidityWei */\n      swap1\n      pop\n        /* \"SDC-Presale.sol\":10243:10244  0 */\n      0x00\n        /* \"SDC-Presale.sol\":10228:10240  withdrawable */\n      dup2\n        /* \"SDC-Presale.sol\":10228:10244  withdrawable > 0 */\n      gt\n        /* \"SDC-Presale.sol\":10224:10314  if (withdrawable > 0) {... */\n      iszero\n      tag_132\n      jumpi\n        /* \"SDC-Presale.sol\":10260:10303  payable(msg.sender).sendValue(withdrawable) */\n      tag_133\n        /* \"SDC-Presale.sol\":10290:10302  withdrawable */\n      dup2\n        /* \"SDC-Presale.sol\":10268:10278  msg.sender */\n      caller\n        /* \"SDC-Presale.sol\":10260:10289  payable(msg.sender).sendValue */\n      0xffffffffffffffffffffffffffffffffffffffff\n      and\n      tag_134\n      swap1\n        /* \"SDC-Presale.sol\":10260:10303  payable(msg.sender).sendValue(withdrawable) */\n      swap2\n      swap1\n      0xffffffff\n      and\n      jump\t// in\n    tag_133:\n        /* \"SDC-Presale.sol\":10224:10314  if (withdrawable > 0) {... */\n    tag_132:\n        /* \"SDC-Presale.sol\":10339:10349  msg.sender */\n      caller\n        /* \"SDC-Presale.sol\":10329:10383  Finalized(msg.sender, pool.weiRaised, block.timestamp) */\n      0xffffffffffffffffffffffffffffffffffffffff\n      and\n      0x616c9469db50815ae0f1d0a020d9fc9060da7c57f03559afb0d4ebdaa0a3a05e\n        /* \"SDC-Presale.sol\":10351:10355  pool */\n      0x03\n        /* \"SDC-Presale.sol\":10351:10365  pool.weiRaised */\n      0x05\n      add\n      sload\n        /* \"SDC-Presale.sol\":10367:10382  block.timestamp */\n      timestamp\n        /* \"SDC-Presale.sol\":10329:10383  Finalized(msg.sender, pool.weiRaised, block.timestamp) */\n      mload(0x40)\n      tag_135\n      swap3\n      swap2\n      swap1\n      tag_136\n      jump\t// in\n    tag_135:\n      mload(0x40)\n      dup1\n      swap2\n      sub\n      swap1\n      log2\n        /* \"SDC-Presale.sol\":10400:10404  true */\n      0x01\n        /* \"SDC-Presale.sol\":10393:10404  return true */\n      swap3\n      pop\n      pop\n      pop\n        /* \"@openzeppelin/contracts/security/ReentrancyGuard.sol\":2303:2323  _nonReentrantAfter() */\n      tag_137\n        /* \"@openzeppelin/contracts/security/ReentrancyGuard.sol\":2303:2321  _nonReentrantAfter */\n      tag_110\n        /* \"@openzeppelin/contracts/security/ReentrancyGuard.sol\":2303:2323  _nonReentrantAfter() */\n      jump\t// in\n    tag_137:\n        /* \"SDC-Presale.sol\":9297:10411  function finalize() external onlyOwner nonReentrant returns (bool) {... */\n      swap1\n      jump\t// out\n        /* \"SDC-Presale.sol\":7536:8237  function claim() external nonReentrant returns (uint256) {... */\n    tag_54:\n        /* \"SDC-Presale.sol\":7584:7591  uint256 */\n      0x00\n        /* \"@openzeppelin/contracts/security/ReentrancyGuard.sol\":2261:2282  _nonReentrantBefore() */\n      tag_139\n        /* \"@openzeppelin/contracts/security/ReentrancyGuard.sol\":2261:2280  _nonReentrantBefore */\n      tag_101\n        /* \"@openzeppelin/contracts/security/ReentrancyGuard.sol\":2261:2282  _nonReentrantBefore() */\n      jump\t// in\n    tag_139:\n        /* \"SDC-Presale.sol\":7704:7705  4 */\n      0x04\n        /* \"SDC-Presale.sol\":7690:7694  pool */\n      0x03\n        /* \"SDC-Presale.sol\":7690:7700  pool.state */\n      0x06\n      add\n      0x14\n      swap1\n      sload\n      swap1\n      0x0100\n      exp\n      swap1\n      div\n      0xff\n      and\n        /* \"SDC-Presale.sol\":7690:7705  pool.state != 4 */\n      0xff\n      and\n      eq\n        /* \"SDC-Presale.sol\":7686:7738  if (pool.state != 4) revert InvalidState(pool.state) */\n      tag_141\n      jumpi\n        /* \"SDC-Presale.sol\":7727:7731  pool */\n      0x03\n        /* \"SDC-Presale.sol\":7727:7737  pool.state */\n      0x06\n      add\n      0x14\n      swap1\n      sload\n      swap1\n      0x0100\n      exp\n      swap1\n      div\n      0xff\n      and\n        /* \"SDC-Presale.sol\":7714:7738  InvalidState(pool.state) */\n      mload(0x40)\n      0xd07e897600000000000000000000000000000000000000000000000000000000\n      dup2\n      mstore\n      0x04\n      add\n      tag_142\n      swap2\n      swap1\n      tag_122\n      jump\t// in\n    tag_142:\n      mload(0x40)\n      dup1\n      swap2\n      sub\n      swap1\n      revert\n        /* \"SDC-Presale.sol\":7686:7738  if (pool.state != 4) revert InvalidState(pool.state) */\n    tag_141:\n        /* \"SDC-Presale.sol\":7839:7840  0 */\n      0x00\n        /* \"SDC-Presale.sol\":7810:7823  contributions */\n      0x02\n        /* \"SDC-Presale.sol\":7810:7835  contributions[msg.sender] */\n      0x00\n        /* \"SDC-Presale.sol\":7824:7834  msg.sender */\n      caller\n        /* \"SDC-Presale.sol\":7810:7835  contributions[msg.sender] */\n      0xffffffffffffffffffffffffffffffffffffffff\n      and\n      0xffffffffffffffffffffffffffffffffffffffff\n      and\n      dup2\n      mstore\n      0x20\n      add\n      swap1\n      dup2\n      mstore\n      0x20\n      add\n      0x00\n      keccak256\n      sload\n        /* \"SDC-Presale.sol\":7810:7840  contributions[msg.sender] == 0 */\n      sub\n        /* \"SDC-Presale.sol\":7806:7863  if (contributions[msg.sender] == 0) revert NotClaimable() */\n      tag_143\n      jumpi\n        /* \"SDC-Presale.sol\":7849:7863  NotClaimable() */\n      mload(0x40)\n      0x6247a84e00000000000000000000000000000000000000000000000000000000\n      dup2\n      mstore\n      0x04\n      add\n      mload(0x40)\n      dup1\n      swap2\n      sub\n      swap1\n      revert\n        /* \"SDC-Presale.sol\":7806:7863  if (contributions[msg.sender] == 0) revert NotClaimable() */\n    tag_143:\n        /* \"SDC-Presale.sol\":7874:7888  uint256 amount */\n      0x00\n        /* \"SDC-Presale.sol\":7891:7913  userTokens(msg.sender) */\n      tag_144\n        /* \"SDC-Presale.sol\":7902:7912  msg.sender */\n      caller\n        /* \"SDC-Presale.sol\":7891:7901  userTokens */\n      tag_93\n        /* \"SDC-Presale.sol\":7891:7913  userTokens(msg.sender) */\n      jump\t// in\n    tag_144:\n        /* \"SDC-Presale.sol\":7874:7913  uint256 amount = userTokens(msg.sender) */\n      swap1\n      pop\n        /* \"SDC-Presale.sol\":7951:7952  0 */\n      0x00\n        /* \"SDC-Presale.sol\":7923:7936  contributions */\n      0x02\n        /* \"SDC-Presale.sol\":7923:7948  contributions[msg.sender] */\n      0x00\n        /* \"SDC-Presale.sol\":7937:7947  msg.sender */\n      caller\n        /* \"SDC-Presale.sol\":7923:7948  contributions[msg.sender] */\n      0xffffffffffffffffffffffffffffffffffffffff\n      and\n      0xffffffffffffffffffffffffffffffffffffffff\n      and\n      dup2\n      mstore\n      0x20\n      add\n      swap1\n      dup2\n      mstore\n      0x20\n      add\n      0x00\n      keccak256\n        /* \"SDC-Presale.sol\":7923:7952  contributions[msg.sender] = 0 */\n      dup2\n      swap1\n      sstore\n      pop\n        /* \"SDC-Presale.sol\":8076:8082  amount */\n      dup1\n        /* \"SDC-Presale.sol\":8055:8059  pool */\n      0x03\n        /* \"SDC-Presale.sol\":8055:8072  pool.tokenBalance */\n      0x02\n      add\n      0x00\n        /* \"SDC-Presale.sol\":8055:8082  pool.tokenBalance -= amount */\n      dup3\n      dup3\n      sload\n      tag_145\n      swap2\n      swap1\n      tag_130\n      jump\t// in\n    tag_145:\n      swap3\n      pop\n      pop\n      dup2\n      swap1\n      sstore\n      pop\n        /* \"SDC-Presale.sol\":8101:8144  pool.token.safeTransfer(msg.sender, amount) */\n      tag_146\n        /* \"SDC-Presale.sol\":8125:8135  msg.sender */\n      caller\n        /* \"SDC-Presale.sol\":8137:8143  amount */\n      dup3\n        /* \"SDC-Presale.sol\":8101:8105  pool */\n      0x03\n        /* \"SDC-Presale.sol\":8101:8111  pool.token */\n      0x00\n      add\n      0x00\n      swap1\n      sload\n      swap1\n      0x0100\n      exp\n      swap1\n      div\n      0xffffffffffffffffffffffffffffffffffffffff\n      and\n        /* \"SDC-Presale.sol\":8101:8124  pool.token.safeTransfer */\n      0xffffffffffffffffffffffffffffffffffffffff\n      and\n      tag_147\n      swap1\n        /* \"SDC-Presale.sol\":8101:8144  pool.token.safeTransfer(msg.sender, amount) */\n      swap3\n      swap2\n      swap1\n      0xffffffff\n      and\n      jump\t// in\n    tag_146:\n        /* \"SDC-Presale.sol\":8171:8181  msg.sender */\n      caller\n        /* \"SDC-Presale.sol\":8160:8207  TokenClaim(msg.sender, amount, block.timestamp) */\n      0xffffffffffffffffffffffffffffffffffffffff\n      and\n      0x30c2341ba3f2142e78472f07dcf018a42044ae1c2c2e7ce867b327257f07ef2b\n        /* \"SDC-Presale.sol\":8183:8189  amount */\n      dup3\n        /* \"SDC-Presale.sol\":8191:8206  block.timestamp */\n      timestamp\n        /* \"SDC-Presale.sol\":8160:8207  TokenClaim(msg.sender, amount, block.timestamp) */\n      mload(0x40)\n      tag_148\n      swap3\n      swap2\n      swap1\n      tag_136\n      jump\t// in\n    tag_148:\n      mload(0x40)\n      dup1\n      swap2\n      sub\n      swap1\n      log2\n        /* \"SDC-Presale.sol\":8224:8230  amount */\n      dup1\n        /* \"SDC-Presale.sol\":8217:8230  return amount */\n      swap2\n      pop\n      pop\n        /* \"@openzeppelin/contracts/security/ReentrancyGuard.sol\":2303:2323  _nonReentrantAfter() */\n      tag_149\n        /* \"@openzeppelin/contracts/security/ReentrancyGuard.sol\":2303:2321  _nonReentrantAfter */\n      tag_110\n        /* \"@openzeppelin/contracts/security/ReentrancyGuard.sol\":2303:2323  _nonReentrantAfter() */\n      jump\t// in\n    tag_149:\n        /* \"SDC-Presale.sol\":7536:8237  function claim() external nonReentrant returns (uint256) {... */\n      swap1\n      jump\t// out\n        /* \"SDC-Presale.sol\":11928:12122  function removeFromWhitelist(address[] calldata accounts) external onlyOwner {... */\n    tag_60:\n        /* \"@openzeppelin/contracts/access/Ownable.sol\":1531:1544  _checkOwner() */\n      tag_151\n        /* \"@openzeppelin/contracts/access/Ownable.sol\":1531:1542  _checkOwner */\n      tag_113\n        /* \"@openzeppelin/contracts/access/Ownable.sol\":1531:1544  _checkOwner() */\n      jump\t// in\n    tag_151:\n        /* \"SDC-Presale.sol\":12020:12029  uint256 i */\n      0x00\n        /* \"SDC-Presale.sol\":12032:12033  0 */\n      0x00\n        /* \"SDC-Presale.sol\":12020:12033  uint256 i = 0 */\n      swap1\n      pop\n        /* \"SDC-Presale.sol\":12015:12116  for (uint256 i = 0; i < accounts.length; i++) {... */\n    tag_153:\n        /* \"SDC-Presale.sol\":12039:12047  accounts */\n      dup3\n      dup3\n        /* \"SDC-Presale.sol\":12039:12054  accounts.length */\n      swap1\n      pop\n        /* \"SDC-Presale.sol\":12035:12036  i */\n      dup2\n        /* \"SDC-Presale.sol\":12035:12054  i < accounts.length */\n      lt\n        /* \"SDC-Presale.sol\":12015:12116  for (uint256 i = 0; i < accounts.length; i++) {... */\n      iszero\n      tag_154\n      jumpi\n        /* \"SDC-Presale.sol\":12100:12105  false */\n      0x00\n        /* \"SDC-Presale.sol\":12075:12084  whitelist */\n      0x11\n        /* \"SDC-Presale.sol\":12075:12097  whitelist[accounts[i]] */\n      0x00\n        /* \"SDC-Presale.sol\":12085:12093  accounts */\n      dup6\n      dup6\n        /* \"SDC-Presale.sol\":12094:12095  i */\n      dup6\n        /* \"SDC-Presale.sol\":12085:12096  accounts[i] */\n      dup2\n      dup2\n      lt\n      tag_156\n      jumpi\n      tag_157\n      tag_158\n      jump\t// in\n    tag_157:\n    tag_156:\n      swap1\n      pop\n      0x20\n      mul\n      add\n      0x20\n      dup2\n      add\n      swap1\n      tag_159\n      swap2\n      swap1\n      tag_44\n      jump\t// in\n    tag_159:\n        /* \"SDC-Presale.sol\":12075:12097  whitelist[accounts[i]] */\n      0xffffffffffffffffffffffffffffffffffffffff\n      and\n      0xffffffffffffffffffffffffffffffffffffffff\n      and\n      dup2\n      mstore\n      0x20\n      add\n      swap1\n      dup2\n      mstore\n      0x20\n      add\n      0x00\n      keccak256\n      0x00\n        /* \"SDC-Presale.sol\":12075:12105  whitelist[accounts[i]] = false */\n      0x0100\n      exp\n      dup2\n      sload\n      dup2\n      0xff\n      mul\n      not\n      and\n      swap1\n      dup4\n      iszero\n      iszero\n      mul\n      or\n      swap1\n      sstore\n      pop\n        /* \"SDC-Presale.sol\":12056:12059  i++ */\n      dup1\n      dup1\n      0x01\n      add\n      swap2\n      pop\n      pop\n        /* \"SDC-Presale.sol\":12015:12116  for (uint256 i = 0; i < accounts.length; i++) {... */\n      jump(tag_153)\n    tag_154:\n      pop\n        /* \"SDC-Presale.sol\":11928:12122  function removeFromWhitelist(address[] calldata accounts) external onlyOwner {... */\n      pop\n      pop\n      jump\t// out\n        /* \"SDC-Presale.sol\":8399:8805  function refund() external onlyRefundable nonReentrant returns (uint256) {... */\n    tag_63:\n        /* \"SDC-Presale.sol\":8463:8470  uint256 */\n      0x00\n        /* \"SDC-Presale.sol\":3973:3987  bool canRefund */\n      0x00\n        /* \"SDC-Presale.sol\":4018:4019  3 */\n      0x03\n        /* \"SDC-Presale.sol\":4004:4008  pool */\n      dup1\n        /* \"SDC-Presale.sol\":4004:4014  pool.state */\n      0x06\n      add\n      0x14\n      swap1\n      sload\n      swap1\n      0x0100\n      exp\n      swap1\n      div\n      0xff\n      and\n        /* \"SDC-Presale.sol\":4004:4019  pool.state == 3 */\n      0xff\n      and\n      eq\n        /* \"SDC-Presale.sol\":4004:4112  pool.state == 3 ||... */\n      dup1\n      tag_161\n      jumpi\n      pop\n        /* \"SDC-Presale.sol\":4054:4058  pool */\n      0x03\n        /* \"SDC-Presale.sol\":4054:4066  pool.options */\n      0x07\n      add\n        /* \"SDC-Presale.sol\":4054:4070  pool.options.end */\n      0x05\n      add\n      0x0e\n      swap1\n      sload\n      swap1\n      0x0100\n      exp\n      swap1\n      div\n      0xffffffffffffffffffffffffffff\n      and\n        /* \"SDC-Presale.sol\":4036:4070  block.timestamp > pool.options.end */\n      0xffffffffffffffffffffffffffff\n      and\n        /* \"SDC-Presale.sol\":4036:4051  block.timestamp */\n      timestamp\n        /* \"SDC-Presale.sol\":4036:4070  block.timestamp > pool.options.end */\n      gt\n        /* \"SDC-Presale.sol\":4036:4111  block.timestamp > pool.options.end && pool.weiRaised < pool.options.softCap */\n      dup1\n      iszero\n      tag_162\n      jumpi\n      pop\n        /* \"SDC-Presale.sol\":4091:4095  pool */\n      0x03\n        /* \"SDC-Presale.sol\":4091:4103  pool.options */\n      0x07\n      add\n        /* \"SDC-Presale.sol\":4091:4111  pool.options.softCap */\n      0x02\n      add\n      sload\n        /* \"SDC-Presale.sol\":4074:4078  pool */\n      0x03\n        /* \"SDC-Presale.sol\":4074:4088  pool.weiRaised */\n      0x05\n      add\n      sload\n        /* \"SDC-Presale.sol\":4074:4111  pool.weiRaised < pool.options.softCap */\n      lt\n        /* \"SDC-Presale.sol\":4036:4111  block.timestamp > pool.options.end && pool.weiRaised < pool.options.softCap */\n    tag_162:\n        /* \"SDC-Presale.sol\":4004:4112  pool.state == 3 ||... */\n    tag_161:\n        /* \"SDC-Presale.sol\":3973:4122  bool canRefund = (... */\n      swap1\n      pop\n        /* \"SDC-Presale.sol\":4137:4146  canRefund */\n      dup1\n        /* \"SDC-Presale.sol\":4132:4170  if (!canRefund) revert NotRefundable() */\n      tag_163\n      jumpi\n        /* \"SDC-Presale.sol\":4155:4170  NotRefundable() */\n      mload(0x40)\n      0x3742d1f600000000000000000000000000000000000000000000000000000000\n      dup2\n      mstore\n      0x04\n      add\n      mload(0x40)\n      dup1\n      swap2\n      sub\n      swap1\n      revert\n        /* \"SDC-Presale.sol\":4132:4170  if (!canRefund) revert NotRefundable() */\n    tag_163:\n        /* \"@openzeppelin/contracts/security/ReentrancyGuard.sol\":2261:2282  _nonReentrantBefore() */\n      tag_165\n        /* \"@openzeppelin/contracts/security/ReentrancyGuard.sol\":2261:2280  _nonReentrantBefore */\n      tag_101\n        /* \"@openzeppelin/contracts/security/ReentrancyGuard.sol\":2261:2282  _nonReentrantBefore() */\n      jump\t// in\n    tag_165:\n        /* \"SDC-Presale.sol\":8515:8516  0 */\n      0x00\n        /* \"SDC-Presale.sol\":8486:8499  contributions */\n      0x02\n        /* \"SDC-Presale.sol\":8486:8511  contributions[msg.sender] */\n      0x00\n        /* \"SDC-Presale.sol\":8500:8510  msg.sender */\n      caller\n        /* \"SDC-Presale.sol\":8486:8511  contributions[msg.sender] */\n      0xffffffffffffffffffffffffffffffffffffffff\n      and\n      0xffffffffffffffffffffffffffffffffffffffff\n      and\n      dup2\n      mstore\n      0x20\n      add\n      swap1\n      dup2\n      mstore\n      0x20\n      add\n      0x00\n      keccak256\n      sload\n        /* \"SDC-Presale.sol\":8486:8516  contributions[msg.sender] == 0 */\n      sub\n        /* \"SDC-Presale.sol\":8482:8540  if (contributions[msg.sender] == 0) revert NotRefundable() */\n      tag_167\n      jumpi\n        /* \"SDC-Presale.sol\":8525:8540  NotRefundable() */\n      mload(0x40)\n      0x3742d1f600000000000000000000000000000000000000000000000000000000\n      dup2\n      mstore\n      0x04\n      add\n      mload(0x40)\n      dup1\n      swap2\n      sub\n      swap1\n      revert\n        /* \"SDC-Presale.sol\":8482:8540  if (contributions[msg.sender] == 0) revert NotRefundable() */\n    tag_167:\n        /* \"SDC-Presale.sol\":8551:8565  uint256 amount */\n      0x00\n        /* \"SDC-Presale.sol\":8568:8581  contributions */\n      0x02\n        /* \"SDC-Presale.sol\":8568:8593  contributions[msg.sender] */\n      0x00\n        /* \"SDC-Presale.sol\":8582:8592  msg.sender */\n      caller\n        /* \"SDC-Presale.sol\":8568:8593  contributions[msg.sender] */\n      0xffffffffffffffffffffffffffffffffffffffff\n      and\n      0xffffffffffffffffffffffffffffffffffffffff\n      and\n      dup2\n      mstore\n      0x20\n      add\n      swap1\n      dup2\n      mstore\n      0x20\n      add\n      0x00\n      keccak256\n      sload\n        /* \"SDC-Presale.sol\":8551:8593  uint256 amount = contributions[msg.sender] */\n      swap1\n      pop\n        /* \"SDC-Presale.sol\":8631:8632  0 */\n      0x00\n        /* \"SDC-Presale.sol\":8603:8616  contributions */\n      0x02\n        /* \"SDC-Presale.sol\":8603:8628  contributions[msg.sender] */\n      0x00\n        /* \"SDC-Presale.sol\":8617:8627  msg.sender */\n      caller\n        /* \"SDC-Presale.sol\":8603:8628  contributions[msg.sender] */\n      0xffffffffffffffffffffffffffffffffffffffff\n      and\n      0xffffffffffffffffffffffffffffffffffffffff\n      and\n      dup2\n      mstore\n      0x20\n      add\n      swap1\n      dup2\n      mstore\n      0x20\n      add\n      0x00\n      keccak256\n        /* \"SDC-Presale.sol\":8603:8632  contributions[msg.sender] = 0 */\n      dup2\n      swap1\n      sstore\n      pop\n        /* \"SDC-Presale.sol\":8679:8716  payable(msg.sender).sendValue(amount) */\n      tag_168\n        /* \"SDC-Presale.sol\":8709:8715  amount */\n      dup2\n        /* \"SDC-Presale.sol\":8687:8697  msg.sender */\n      caller\n        /* \"SDC-Presale.sol\":8679:8708  payable(msg.sender).sendValue */\n      0xffffffffffffffffffffffffffffffffffffffff\n      and\n      tag_134\n      swap1\n        /* \"SDC-Presale.sol\":8679:8716  payable(msg.sender).sendValue(amount) */\n      swap2\n      swap1\n      0xffffffff\n      and\n      jump\t// in\n    tag_168:\n        /* \"SDC-Presale.sol\":8739:8749  msg.sender */\n      caller\n        /* \"SDC-Presale.sol\":8732:8775  Refund(msg.sender, amount, block.timestamp) */\n      0xffffffffffffffffffffffffffffffffffffffff\n      and\n      0x73f04af9dcc582a923ec15d3eea990fe34adabfff2879e28d44572e01a54abb6\n        /* \"SDC-Presale.sol\":8751:8757  amount */\n      dup3\n        /* \"SDC-Presale.sol\":8759:8774  block.timestamp */\n      timestamp\n        /* \"SDC-Presale.sol\":8732:8775  Refund(msg.sender, amount, block.timestamp) */\n      mload(0x40)\n      tag_169\n      swap3\n      swap2\n      swap1\n      tag_136\n      jump\t// in\n    tag_169:\n      mload(0x40)\n      dup1\n      swap2\n      sub\n      swap1\n      log2\n        /* \"SDC-Presale.sol\":8792:8798  amount */\n      dup1\n        /* \"SDC-Presale.sol\":8785:8798  return amount */\n      swap3\n      pop\n      pop\n        /* \"@openzeppelin/contracts/security/ReentrancyGuard.sol\":2303:2323  _nonReentrantAfter() */\n      tag_170\n        /* \"@openzeppelin/contracts/security/ReentrancyGuard.sol\":2303:2321  _nonReentrantAfter */\n      tag_110\n        /* \"@openzeppelin/contracts/security/ReentrancyGuard.sol\":2303:2323  _nonReentrantAfter() */\n      jump\t// in\n    tag_170:\n        /* \"SDC-Presale.sol\":3963:4188  {... */\n      pop\n        /* \"SDC-Presale.sol\":8399:8805  function refund() external onlyRefundable nonReentrant returns (uint256) {... */\n      swap1\n      jump\t// out\n        /* \"@openzeppelin/contracts/access/Ownable.sol\":2293:2394  function renounceOwnership() public virtual onlyOwner {... */\n    tag_67:\n        /* \"@openzeppelin/contracts/access/Ownable.sol\":1531:1544  _checkOwner() */\n      tag_172\n        /* \"@openzeppelin/contracts/access/Ownable.sol\":1531:1542  _checkOwner */\n      tag_113\n        /* \"@openzeppelin/contracts/access/Ownable.sol\":1531:1544  _checkOwner() */\n      jump\t// in\n    tag_172:\n        /* \"@openzeppelin/contracts/access/Ownable.sol\":2357:2387  _transferOwnership(address(0)) */\n      tag_174\n        /* \"@openzeppelin/contracts/access/Ownable.sol\":2384:2385  0 */\n      0x00\n        /* \"@openzeppelin/contracts/access/Ownable.sol\":2357:2375  _transferOwnership */\n      tag_175\n        /* \"@openzeppelin/contracts/access/Ownable.sol\":2357:2387  _transferOwnership(address(0)) */\n      jump\t// in\n    tag_174:\n        /* \"@openzeppelin/contracts/access/Ownable.sol\":2293:2394  function renounceOwnership() public virtual onlyOwner {... */\n      jump\t// out\n        /* \"SDC-Presale.sol\":11659:11847  function addToWhitelist(address[] calldata accounts) external onlyOwner {... */\n    tag_71:\n        /* \"@openzeppelin/contracts/access/Ownable.sol\":1531:1544  _checkOwner() */\n      tag_177\n        /* \"@openzeppelin/contracts/access/Ownable.sol\":1531:1542  _checkOwner */\n      tag_113\n        /* \"@openzeppelin/contracts/access/Ownable.sol\":1531:1544  _checkOwner() */\n      jump\t// in\n    tag_177:\n        /* \"SDC-Presale.sol\":11746:11755  uint256 i */\n      0x00\n        /* \"SDC-Presale.sol\":11758:11759  0 */\n      0x00\n        /* \"SDC-Presale.sol\":11746:11759  uint256 i = 0 */\n      swap1\n      pop\n        /* \"SDC-Presale.sol\":11741:11841  for (uint256 i = 0; i < accounts.length; i++) {... */\n    tag_179:\n        /* \"SDC-Presale.sol\":11765:11773  accounts */\n      dup3\n      dup3\n        /* \"SDC-Presale.sol\":11765:11780  accounts.length */\n      swap1\n      pop\n        /* \"SDC-Presale.sol\":11761:11762  i */\n      dup2\n        /* \"SDC-Presale.sol\":11761:11780  i < accounts.length */\n      lt\n        /* \"SDC-Presale.sol\":11741:11841  for (uint256 i = 0; i < accounts.length; i++) {... */\n      iszero\n      tag_180\n      jumpi\n        /* \"SDC-Presale.sol\":11826:11830  true */\n      0x01\n        /* \"SDC-Presale.sol\":11801:11810  whitelist */\n      0x11\n        /* \"SDC-Presale.sol\":11801:11823  whitelist[accounts[i]] */\n      0x00\n        /* \"SDC-Presale.sol\":11811:11819  accounts */\n      dup6\n      dup6\n        /* \"SDC-Presale.sol\":11820:11821  i */\n      dup6\n        /* \"SDC-Presale.sol\":11811:11822  accounts[i] */\n      dup2\n      dup2\n      lt\n      tag_182\n      jumpi\n      tag_183\n      tag_158\n      jump\t// in\n    tag_183:\n    tag_182:\n      swap1\n      pop\n      0x20\n      mul\n      add\n      0x20\n      dup2\n      add\n      swap1\n      tag_184\n      swap2\n      swap1\n      tag_44\n      jump\t// in\n    tag_184:\n        /* \"SDC-Presale.sol\":11801:11823  whitelist[accounts[i]] */\n      0xffffffffffffffffffffffffffffffffffffffff\n      and\n      0xffffffffffffffffffffffffffffffffffffffff\n      and\n      dup2\n      mstore\n      0x20\n      add\n      swap1\n      dup2\n      mstore\n      0x20\n      add\n      0x00\n      keccak256\n      0x00\n        /* \"SDC-Presale.sol\":11801:11830  whitelist[accounts[i]] = true */\n      0x0100\n      exp\n      dup2\n      sload\n      dup2\n      0xff\n      mul\n      not\n      and\n      swap1\n      dup4\n      iszero\n      iszero\n      mul\n      or\n      swap1\n      sstore\n      pop\n        /* \"SDC-Presale.sol\":11782:11785  i++ */\n      dup1\n      dup1\n      0x01\n      add\n      swap2\n      pop\n      pop\n        /* \"SDC-Presale.sol\":11741:11841  for (uint256 i = 0; i < accounts.length; i++) {... */\n      jump(tag_179)\n    tag_180:\n      pop\n        /* \"SDC-Presale.sol\":11659:11847  function addToWhitelist(address[] calldata accounts) external onlyOwner {... */\n      pop\n      pop\n      jump\t// out\n        /* \"@openzeppelin/contracts/access/Ownable.sol\":1638:1723  function owner() public view virtual returns (address) {... */\n    tag_74:\n        /* \"@openzeppelin/contracts/access/Ownable.sol\":1684:1691  address */\n      0x00\n        /* \"@openzeppelin/contracts/access/Ownable.sol\":1710:1716  _owner */\n      0x00\n      0x00\n      swap1\n      sload\n      swap1\n      0x0100\n      exp\n      swap1\n      div\n      0xffffffffffffffffffffffffffffffffffffffff\n      and\n        /* \"@openzeppelin/contracts/access/Ownable.sol\":1703:1716  return _owner */\n      swap1\n      pop\n        /* \"@openzeppelin/contracts/access/Ownable.sol\":1638:1723  function owner() public view virtual returns (address) {... */\n      swap1\n      jump\t// out\n        /* \"SDC-Presale.sol\":3707:3748  mapping(address => bool) public whitelist */\n    tag_80:\n      mstore(0x20, 0x11)\n      dup1\n      0x00\n      mstore\n      keccak256(0x00, 0x40)\n      0x00\n      swap2\n      pop\n      sload\n      swap1\n      0x0100\n      exp\n      swap1\n      div\n      0xff\n      and\n      dup2\n      jump\t// out\n        /* \"SDC-Presale.sol\":5722:6668  function deposit() external onlyOwner returns (uint256) {... */\n    tag_84:\n        /* \"SDC-Presale.sol\":5769:5776  uint256 */\n      0x00\n        /* \"@openzeppelin/contracts/access/Ownable.sol\":1531:1544  _checkOwner() */\n      tag_187\n        /* \"@openzeppelin/contracts/access/Ownable.sol\":1531:1542  _checkOwner */\n      tag_113\n        /* \"@openzeppelin/contracts/access/Ownable.sol\":1531:1544  _checkOwner() */\n      jump\t// in\n    tag_187:\n        /* \"SDC-Presale.sol\":5907:5908  1 */\n      0x01\n        /* \"SDC-Presale.sol\":5893:5897  pool */\n      0x03\n        /* \"SDC-Presale.sol\":5893:5903  pool.state */\n      0x06\n      add\n      0x14\n      swap1\n      sload\n      swap1\n      0x0100\n      exp\n      swap1\n      div\n      0xff\n      and\n        /* \"SDC-Presale.sol\":5893:5908  pool.state != 1 */\n      0xff\n      and\n      eq\n        /* \"SDC-Presale.sol\":5889:5941  if (pool.state != 1) revert InvalidState(pool.state) */\n      tag_189\n      jumpi\n        /* \"SDC-Presale.sol\":5930:5934  pool */\n      0x03\n        /* \"SDC-Presale.sol\":5930:5940  pool.state */\n      0x06\n      add\n      0x14\n      swap1\n      sload\n      swap1\n      0x0100\n      exp\n      swap1\n      div\n      0xff\n      and\n        /* \"SDC-Presale.sol\":5917:5941  InvalidState(pool.state) */\n      mload(0x40)\n      0xd07e897600000000000000000000000000000000000000000000000000000000\n      dup2\n      mstore\n      0x04\n      add\n      tag_190\n      swap2\n      swap1\n      tag_122\n      jump\t// in\n    tag_190:\n      mload(0x40)\n      dup1\n      swap2\n      sub\n      swap1\n      revert\n        /* \"SDC-Presale.sol\":5889:5941  if (pool.state != 1) revert InvalidState(pool.state) */\n    tag_189:\n        /* \"SDC-Presale.sol\":6026:6027  2 */\n      0x02\n        /* \"SDC-Presale.sol\":6013:6017  pool */\n      0x03\n        /* \"SDC-Presale.sol\":6013:6023  pool.state */\n      0x06\n      add\n      0x14\n        /* \"SDC-Presale.sol\":6013:6027  pool.state = 2 */\n      0x0100\n      exp\n      dup2\n      sload\n      dup2\n      0xff\n      mul\n      not\n      and\n      swap1\n      dup4\n      0xff\n      and\n      mul\n      or\n      swap1\n      sstore\n      pop\n        /* \"SDC-Presale.sol\":6198:6202  pool */\n      0x03\n        /* \"SDC-Presale.sol\":6198:6210  pool.options */\n      0x07\n      add\n        /* \"SDC-Presale.sol\":6198:6223  pool.options.tokenDeposit */\n      0x00\n      add\n      sload\n        /* \"SDC-Presale.sol\":6177:6181  pool */\n      0x03\n        /* \"SDC-Presale.sol\":6177:6194  pool.tokenBalance */\n      0x02\n      add\n      0x00\n        /* \"SDC-Presale.sol\":6177:6223  pool.tokenBalance += pool.options.tokenDeposit */\n      dup3\n      dup3\n      sload\n      tag_191\n      swap2\n      swap1\n      tag_106\n      jump\t// in\n    tag_191:\n      swap3\n      pop\n      pop\n      dup2\n      swap1\n      sstore\n      pop\n        /* \"SDC-Presale.sol\":6256:6277  _tokensForLiquidity() */\n      tag_192\n        /* \"SDC-Presale.sol\":6256:6275  _tokensForLiquidity */\n      tag_193\n        /* \"SDC-Presale.sol\":6256:6277  _tokensForLiquidity() */\n      jump\t// in\n    tag_192:\n        /* \"SDC-Presale.sol\":6233:6237  pool */\n      0x03\n        /* \"SDC-Presale.sol\":6233:6253  pool.tokensLiquidity */\n      0x04\n      add\n        /* \"SDC-Presale.sol\":6233:6277  pool.tokensLiquidity = _tokensForLiquidity() */\n      dup2\n      swap1\n      sstore\n      pop\n        /* \"SDC-Presale.sol\":6310:6329  _tokensForPresale() */\n      tag_194\n        /* \"SDC-Presale.sol\":6310:6327  _tokensForPresale */\n      tag_195\n        /* \"SDC-Presale.sol\":6310:6329  _tokensForPresale() */\n      jump\t// in\n    tag_194:\n        /* \"SDC-Presale.sol\":6287:6291  pool */\n      0x03\n        /* \"SDC-Presale.sol\":6287:6307  pool.tokensClaimable */\n      dup1\n      add\n        /* \"SDC-Presale.sol\":6287:6329  pool.tokensClaimable = _tokensForPresale() */\n      dup2\n      swap1\n      sstore\n      pop\n        /* \"SDC-Presale.sol\":6459:6540  pool.token.safeTransferFrom(msg.sender, address(this), pool.options.tokenDeposit) */\n      tag_196\n        /* \"SDC-Presale.sol\":6487:6497  msg.sender */\n      caller\n        /* \"SDC-Presale.sol\":6507:6511  this */\n      address\n        /* \"SDC-Presale.sol\":6514:6518  pool */\n      0x03\n        /* \"SDC-Presale.sol\":6514:6526  pool.options */\n      0x07\n      add\n        /* \"SDC-Presale.sol\":6514:6539  pool.options.tokenDeposit */\n      0x00\n      add\n      sload\n        /* \"SDC-Presale.sol\":6459:6463  pool */\n      0x03\n        /* \"SDC-Presale.sol\":6459:6469  pool.token */\n      0x00\n      add\n      0x00\n      swap1\n      sload\n      swap1\n      0x0100\n      exp\n      swap1\n      div\n      0xffffffffffffffffffffffffffffffffffffffff\n      and\n        /* \"SDC-Presale.sol\":6459:6486  pool.token.safeTransferFrom */\n      0xffffffffffffffffffffffffffffffffffffffff\n      and\n      tag_197\n      swap1\n        /* \"SDC-Presale.sol\":6459:6540  pool.token.safeTransferFrom(msg.sender, address(this), pool.options.tokenDeposit) */\n      swap4\n      swap3\n      swap2\n      swap1\n      0xffffffff\n      and\n      jump\t// in\n    tag_196:\n        /* \"SDC-Presale.sol\":6564:6574  msg.sender */\n      caller\n        /* \"SDC-Presale.sol\":6556:6619  Deposit(msg.sender, pool.options.tokenDeposit, block.timestamp) */\n      0xffffffffffffffffffffffffffffffffffffffff\n      and\n      0x90890809c654f11d6e72a28fa60149770a0d11ec6c92319d6ceb2bb0a4ea1a15\n        /* \"SDC-Presale.sol\":6576:6580  pool */\n      0x03\n        /* \"SDC-Presale.sol\":6576:6588  pool.options */\n      0x07\n      add\n        /* \"SDC-Presale.sol\":6576:6601  pool.options.tokenDeposit */\n      0x00\n      add\n      sload\n        /* \"SDC-Presale.sol\":6603:6618  block.timestamp */\n      timestamp\n        /* \"SDC-Presale.sol\":6556:6619  Deposit(msg.sender, pool.options.tokenDeposit, block.timestamp) */\n      mload(0x40)\n      tag_198\n      swap3\n      swap2\n      swap1\n      tag_136\n      jump\t// in\n    tag_198:\n      mload(0x40)\n      dup1\n      swap2\n      sub\n      swap1\n      log2\n        /* \"SDC-Presale.sol\":6636:6640  pool */\n      0x03\n        /* \"SDC-Presale.sol\":6636:6648  pool.options */\n      0x07\n      add\n        /* \"SDC-Presale.sol\":6636:6661  pool.options.tokenDeposit */\n      0x00\n      add\n      sload\n        /* \"SDC-Presale.sol\":6629:6661  return pool.options.tokenDeposit */\n      swap1\n      pop\n        /* \"SDC-Presale.sol\":5722:6668  function deposit() external onlyOwner returns (uint256) {... */\n      swap1\n      jump\t// out\n        /* \"SDC-Presale.sol\":10659:11172  function cancel() external onlyOwner returns(bool) {... */\n    tag_88:\n        /* \"SDC-Presale.sol\":10704:10708  bool */\n      0x00\n        /* \"@openzeppelin/contracts/access/Ownable.sol\":1531:1544  _checkOwner() */\n      tag_200\n        /* \"@openzeppelin/contracts/access/Ownable.sol\":1531:1542  _checkOwner */\n      tag_113\n        /* \"@openzeppelin/contracts/access/Ownable.sol\":1531:1544  _checkOwner() */\n      jump\t// in\n    tag_200:\n        /* \"SDC-Presale.sol\":10737:10738  3 */\n      0x03\n        /* \"SDC-Presale.sol\":10724:10728  pool */\n      dup1\n        /* \"SDC-Presale.sol\":10724:10734  pool.state */\n      0x06\n      add\n      0x14\n      swap1\n      sload\n      swap1\n      0x0100\n      exp\n      swap1\n      div\n      0xff\n      and\n        /* \"SDC-Presale.sol\":10724:10738  pool.state > 3 */\n      0xff\n      and\n      gt\n        /* \"SDC-Presale.sol\":10720:10771  if (pool.state > 3) revert InvalidState(pool.state) */\n      iszero\n      tag_202\n      jumpi\n        /* \"SDC-Presale.sol\":10760:10764  pool */\n      0x03\n        /* \"SDC-Presale.sol\":10760:10770  pool.state */\n      0x06\n      add\n      0x14\n      swap1\n      sload\n      swap1\n      0x0100\n      exp\n      swap1\n      div\n      0xff\n      and\n        /* \"SDC-Presale.sol\":10747:10771  InvalidState(pool.state) */\n      mload(0x40)\n      0xd07e897600000000000000000000000000000000000000000000000000000000\n      dup2\n      mstore\n      0x04\n      add\n      tag_203\n      swap2\n      swap1\n      tag_122\n      jump\t// in\n    tag_203:\n      mload(0x40)\n      dup1\n      swap2\n      sub\n      swap1\n      revert\n        /* \"SDC-Presale.sol\":10720:10771  if (pool.state > 3) revert InvalidState(pool.state) */\n    tag_202:\n        /* \"SDC-Presale.sol\":10795:10796  3 */\n      0x03\n        /* \"SDC-Presale.sol\":10782:10786  pool */\n      dup1\n        /* \"SDC-Presale.sol\":10782:10792  pool.state */\n      0x06\n      add\n      0x14\n        /* \"SDC-Presale.sol\":10782:10796  pool.state = 3 */\n      0x0100\n      exp\n      dup2\n      sload\n      dup2\n      0xff\n      mul\n      not\n      and\n      swap1\n      dup4\n      0xff\n      and\n      mul\n      or\n      swap1\n      sstore\n      pop\n        /* \"SDC-Presale.sol\":10940:10941  0 */\n      0x00\n        /* \"SDC-Presale.sol\":10920:10924  pool */\n      0x03\n        /* \"SDC-Presale.sol\":10920:10937  pool.tokenBalance */\n      0x02\n      add\n      sload\n        /* \"SDC-Presale.sol\":10920:10941  pool.tokenBalance > 0 */\n      gt\n        /* \"SDC-Presale.sol\":10916:11094  if (pool.tokenBalance > 0) {... */\n      iszero\n      tag_204\n      jumpi\n        /* \"SDC-Presale.sol\":10957:10971  uint256 amount */\n      0x00\n        /* \"SDC-Presale.sol\":10974:10978  pool */\n      0x03\n        /* \"SDC-Presale.sol\":10974:10991  pool.tokenBalance */\n      0x02\n      add\n      sload\n        /* \"SDC-Presale.sol\":10957:10991  uint256 amount = pool.tokenBalance */\n      swap1\n      pop\n        /* \"SDC-Presale.sol\":11025:11026  0 */\n      0x00\n        /* \"SDC-Presale.sol\":11005:11009  pool */\n      0x03\n        /* \"SDC-Presale.sol\":11005:11022  pool.tokenBalance */\n      0x02\n      add\n        /* \"SDC-Presale.sol\":11005:11026  pool.tokenBalance = 0 */\n      dup2\n      swap1\n      sstore\n      pop\n        /* \"SDC-Presale.sol\":11040:11083  pool.token.safeTransfer(msg.sender, amount) */\n      tag_205\n        /* \"SDC-Presale.sol\":11064:11074  msg.sender */\n      caller\n        /* \"SDC-Presale.sol\":11076:11082  amount */\n      dup3\n        /* \"SDC-Presale.sol\":11040:11044  pool */\n      0x03\n        /* \"SDC-Presale.sol\":11040:11050  pool.token */\n      0x00\n      add\n      0x00\n      swap1\n      sload\n      swap1\n      0x0100\n      exp\n      swap1\n      div\n      0xffffffffffffffffffffffffffffffffffffffff\n      and\n        /* \"SDC-Presale.sol\":11040:11063  pool.token.safeTransfer */\n      0xffffffffffffffffffffffffffffffffffffffff\n      and\n      tag_147\n      swap1\n        /* \"SDC-Presale.sol\":11040:11083  pool.token.safeTransfer(msg.sender, amount) */\n      swap3\n      swap2\n      swap1\n      0xffffffff\n      and\n      jump\t// in\n    tag_205:\n        /* \"SDC-Presale.sol\":10943:11094  {... */\n      pop\n        /* \"SDC-Presale.sol\":10916:11094  if (pool.tokenBalance > 0) {... */\n    tag_204:\n        /* \"SDC-Presale.sol\":11116:11126  msg.sender */\n      caller\n        /* \"SDC-Presale.sol\":11109:11144  Cancel(msg.sender, block.timestamp) */\n      0xffffffffffffffffffffffffffffffffffffffff\n      and\n      0x27f83af92b39768b17fe0c8d6922452702717efb8626d97e7a754e0b27d4f6d2\n        /* \"SDC-Presale.sol\":11128:11143  block.timestamp */\n      timestamp\n        /* \"SDC-Presale.sol\":11109:11144  Cancel(msg.sender, block.timestamp) */\n      mload(0x40)\n      tag_206\n      swap2\n      swap1\n      tag_47\n      jump\t// in\n    tag_206:\n      mload(0x40)\n      dup1\n      swap2\n      sub\n      swap1\n      log2\n        /* \"SDC-Presale.sol\":11161:11165  true */\n      0x01\n        /* \"SDC-Presale.sol\":11154:11165  return true */\n      swap1\n      pop\n        /* \"SDC-Presale.sol\":10659:11172  function cancel() external onlyOwner returns(bool) {... */\n      swap1\n      jump\t// out\n        /* \"SDC-Presale.sol\":14056:14393  function userTokens(address contributor) public view returns (uint256) {... */\n    tag_93:\n        /* \"SDC-Presale.sol\":14118:14125  uint256 */\n      0x00\n        /* \"SDC-Presale.sol\":14248:14249  0 */\n      0x00\n        /* \"SDC-Presale.sol\":14230:14234  pool */\n      0x03\n        /* \"SDC-Presale.sol\":14230:14244  pool.weiRaised */\n      0x05\n      add\n      sload\n        /* \"SDC-Presale.sol\":14230:14249  pool.weiRaised == 0 */\n      sub\n        /* \"SDC-Presale.sol\":14226:14259  if (pool.weiRaised == 0) return 0 */\n      tag_208\n      jumpi\n        /* \"SDC-Presale.sol\":14258:14259  0 */\n      0x00\n        /* \"SDC-Presale.sol\":14251:14259  return 0 */\n      swap1\n      pop\n      jump(tag_207)\n        /* \"SDC-Presale.sol\":14226:14259  if (pool.weiRaised == 0) return 0 */\n    tag_208:\n        /* \"SDC-Presale.sol\":947:953  10**18 */\n      0x0de0b6b3a7640000\n        /* \"SDC-Presale.sol\":14346:14350  pool */\n      0x03\n        /* \"SDC-Presale.sol\":14346:14366  pool.tokensClaimable */\n      dup1\n      add\n      sload\n        /* \"SDC-Presale.sol\":14316:14320  pool */\n      0x03\n        /* \"SDC-Presale.sol\":14316:14330  pool.weiRaised */\n      0x05\n      add\n      sload\n        /* \"SDC-Presale.sol\":947:953  10**18 */\n      0x0de0b6b3a7640000\n        /* \"SDC-Presale.sol\":14278:14291  contributions */\n      0x02\n        /* \"SDC-Presale.sol\":14278:14304  contributions[contributor] */\n      0x00\n        /* \"SDC-Presale.sol\":14292:14303  contributor */\n      dup8\n        /* \"SDC-Presale.sol\":14278:14304  contributions[contributor] */\n      0xffffffffffffffffffffffffffffffffffffffff\n      and\n      0xffffffffffffffffffffffffffffffffffffffff\n      and\n      dup2\n      mstore\n      0x20\n      add\n      swap1\n      dup2\n      mstore\n      0x20\n      add\n      0x00\n      keccak256\n      sload\n        /* \"SDC-Presale.sol\":14278:14312  contributions[contributor] * SCALE */\n      tag_209\n      swap2\n      swap1\n      tag_210\n      jump\t// in\n    tag_209:\n        /* \"SDC-Presale.sol\":14277:14330  (contributions[contributor] * SCALE) / pool.weiRaised */\n      tag_211\n      swap2\n      swap1\n      tag_212\n      jump\t// in\n    tag_211:\n        /* \"SDC-Presale.sol\":14276:14366  ((contributions[contributor] * SCALE) / pool.weiRaised)... */\n      tag_213\n      swap2\n      swap1\n      tag_210\n      jump\t// in\n    tag_213:\n        /* \"SDC-Presale.sol\":14276:14386  ((contributions[contributor] * SCALE) / pool.weiRaised)... */\n      tag_214\n      swap2\n      swap1\n      tag_212\n      jump\t// in\n    tag_214:\n        /* \"SDC-Presale.sol\":14269:14386  return ((contributions[contributor] * SCALE) / pool.weiRaised)... */\n      swap1\n      pop\n        /* \"SDC-Presale.sol\":14056:14393  function userTokens(address contributor) public view returns (uint256) {... */\n    tag_207:\n      swap2\n      swap1\n      pop\n      jump\t// out\n        /* \"@openzeppelin/contracts/access/Ownable.sol\":2543:2758  function transferOwnership(address newOwner) public virtual onlyOwner {... */\n    tag_98:\n        /* \"@openzeppelin/contracts/access/Ownable.sol\":1531:1544  _checkOwner() */\n      tag_216\n        /* \"@openzeppelin/contracts/access/Ownable.sol\":1531:1542  _checkOwner */\n      tag_113\n        /* \"@openzeppelin/contracts/access/Ownable.sol\":1531:1544  _checkOwner() */\n      jump\t// in\n    tag_216:\n        /* \"@openzeppelin/contracts/access/Ownable.sol\":2647:2648  0 */\n      0x00\n        /* \"@openzeppelin/contracts/access/Ownable.sol\":2627:2649  newOwner == address(0) */\n      0xffffffffffffffffffffffffffffffffffffffff\n      and\n        /* \"@openzeppelin/contracts/access/Ownable.sol\":2627:2635  newOwner */\n      dup2\n        /* \"@openzeppelin/contracts/access/Ownable.sol\":2627:2649  newOwner == address(0) */\n      0xffffffffffffffffffffffffffffffffffffffff\n      and\n      sub\n        /* \"@openzeppelin/contracts/access/Ownable.sol\":2623:2714  if (newOwner == address(0)) {... */\n      tag_218\n      jumpi\n        /* \"@openzeppelin/contracts/access/Ownable.sol\":2700:2701  0 */\n      0x00\n        /* \"@openzeppelin/contracts/access/Ownable.sol\":2672:2703  OwnableInvalidOwner(address(0)) */\n      mload(0x40)\n      0x1e4fbdf700000000000000000000000000000000000000000000000000000000\n      dup2\n      mstore\n      0x04\n      add\n      tag_219\n      swap2\n      swap1\n      tag_76\n      jump\t// in\n    tag_219:\n      mload(0x40)\n      dup1\n      swap2\n      sub\n      swap1\n      revert\n        /* \"@openzeppelin/contracts/access/Ownable.sol\":2623:2714  if (newOwner == address(0)) {... */\n    tag_218:\n        /* \"@openzeppelin/contracts/access/Ownable.sol\":2723:2751  _transferOwnership(newOwner) */\n      tag_220\n        /* \"@openzeppelin/contracts/access/Ownable.sol\":2742:2750  newOwner */\n      dup2\n        /* \"@openzeppelin/contracts/access/Ownable.sol\":2723:2741  _transferOwnership */\n      tag_175\n        /* \"@openzeppelin/contracts/access/Ownable.sol\":2723:2751  _transferOwnership(newOwner) */\n      jump\t// in\n    tag_220:\n        /* \"@openzeppelin/contracts/access/Ownable.sol\":2543:2758  function transferOwnership(address newOwner) public virtual onlyOwner {... */\n      pop\n      jump\t// out\n        /* \"@openzeppelin/contracts/security/ReentrancyGuard.sol\":2336:2623  function _nonReentrantBefore() private {... */\n    tag_101:\n        /* \"@openzeppelin/contracts/security/ReentrancyGuard.sol\":1759:1760  2 */\n      0x02\n        /* \"@openzeppelin/contracts/security/ReentrancyGuard.sol\":2468:2475  _status */\n      sload(0x01)\n        /* \"@openzeppelin/contracts/security/ReentrancyGuard.sol\":2468:2487  _status != _ENTERED */\n      sub\n        /* \"@openzeppelin/contracts/security/ReentrancyGuard.sol\":2460:2523  require(_status != _ENTERED, \"ReentrancyGuard: reentrant call\") */\n      tag_222\n      jumpi\n      mload(0x40)\n      0x08c379a000000000000000000000000000000000000000000000000000000000\n      dup2\n      mstore\n      0x04\n      add\n      tag_223\n      swap1\n      tag_224\n      jump\t// in\n    tag_223:\n      mload(0x40)\n      dup1\n      swap2\n      sub\n      swap1\n      revert\n    tag_222:\n        /* \"@openzeppelin/contracts/security/ReentrancyGuard.sol\":1759:1760  2 */\n      0x02\n        /* \"@openzeppelin/contracts/security/ReentrancyGuard.sol\":2598:2605  _status */\n      0x01\n        /* \"@openzeppelin/contracts/security/ReentrancyGuard.sol\":2598:2616  _status = _ENTERED */\n      dup2\n      swap1\n      sstore\n      pop\n        /* \"@openzeppelin/contracts/security/ReentrancyGuard.sol\":2336:2623  function _nonReentrantBefore() private {... */\n      jump\t// out\n        /* \"SDC-Presale.sol\":12414:13363  function _prevalidatePurchase(address _beneficiary, uint256 _amount) internal view {... */\n    tag_104:\n        /* \"SDC-Presale.sol\":12525:12526  2 */\n      0x02\n        /* \"SDC-Presale.sol\":12511:12515  pool */\n      0x03\n        /* \"SDC-Presale.sol\":12511:12521  pool.state */\n      0x06\n      add\n      0x14\n      swap1\n      sload\n      swap1\n      0x0100\n      exp\n      swap1\n      div\n      0xff\n      and\n        /* \"SDC-Presale.sol\":12511:12526  pool.state != 2 */\n      0xff\n      and\n      eq\n        /* \"SDC-Presale.sol\":12507:12559  if (pool.state != 2) revert InvalidState(pool.state) */\n      tag_226\n      jumpi\n        /* \"SDC-Presale.sol\":12548:12552  pool */\n      0x03\n        /* \"SDC-Presale.sol\":12548:12558  pool.state */\n      0x06\n      add\n      0x14\n      swap1\n      sload\n      swap1\n      0x0100\n      exp\n      swap1\n      div\n      0xff\n      and\n        /* \"SDC-Presale.sol\":12535:12559  InvalidState(pool.state) */\n      mload(0x40)\n      0xd07e897600000000000000000000000000000000000000000000000000000000\n      dup2\n      mstore\n      0x04\n      add\n      tag_227\n      swap2\n      swap1\n      tag_122\n      jump\t// in\n    tag_227:\n      mload(0x40)\n      dup1\n      swap2\n      sub\n      swap1\n      revert\n        /* \"SDC-Presale.sol\":12507:12559  if (pool.state != 2) revert InvalidState(pool.state) */\n    tag_226:\n        /* \"SDC-Presale.sol\":12634:12638  pool */\n      0x03\n        /* \"SDC-Presale.sol\":12634:12646  pool.options */\n      0x07\n      add\n        /* \"SDC-Presale.sol\":12634:12652  pool.options.start */\n      0x05\n      add\n      0x00\n      swap1\n      sload\n      swap1\n      0x0100\n      exp\n      swap1\n      div\n      0xffffffffffffffffffffffffffff\n      and\n        /* \"SDC-Presale.sol\":12616:12652  block.timestamp < pool.options.start */\n      0xffffffffffffffffffffffffffff\n      and\n        /* \"SDC-Presale.sol\":12616:12631  block.timestamp */\n      timestamp\n        /* \"SDC-Presale.sol\":12616:12652  block.timestamp < pool.options.start */\n      lt\n        /* \"SDC-Presale.sol\":12616:12690  block.timestamp < pool.options.start || block.timestamp > pool.options.end */\n      dup1\n      tag_228\n      jumpi\n      pop\n        /* \"SDC-Presale.sol\":12674:12678  pool */\n      0x03\n        /* \"SDC-Presale.sol\":12674:12686  pool.options */\n      0x07\n      add\n        /* \"SDC-Presale.sol\":12674:12690  pool.options.end */\n      0x05\n      add\n      0x0e\n      swap1\n      sload\n      swap1\n      0x0100\n      exp\n      swap1\n      div\n      0xffffffffffffffffffffffffffff\n      and\n        /* \"SDC-Presale.sol\":12656:12690  block.timestamp > pool.options.end */\n      0xffffffffffffffffffffffffffff\n      and\n        /* \"SDC-Presale.sol\":12656:12671  block.timestamp */\n      timestamp\n        /* \"SDC-Presale.sol\":12656:12690  block.timestamp > pool.options.end */\n      gt\n        /* \"SDC-Presale.sol\":12616:12690  block.timestamp < pool.options.start || block.timestamp > pool.options.end */\n    tag_228:\n        /* \"SDC-Presale.sol\":12612:12745  if (block.timestamp < pool.options.start || block.timestamp > pool.options.end) {... */\n      iszero\n      tag_229\n      jumpi\n        /* \"SDC-Presale.sol\":12713:12734  NotInPurchasePeriod() */\n      mload(0x40)\n      0xe3840bc400000000000000000000000000000000000000000000000000000000\n      dup2\n      mstore\n      0x04\n      add\n      mload(0x40)\n      dup1\n      swap2\n      sub\n      swap1\n      revert\n        /* \"SDC-Presale.sol\":12612:12745  if (block.timestamp < pool.options.start || block.timestamp > pool.options.end) {... */\n    tag_229:\n        /* \"SDC-Presale.sol\":12823:12827  pool */\n      0x03\n        /* \"SDC-Presale.sol\":12823:12835  pool.options */\n      0x07\n      add\n        /* \"SDC-Presale.sol\":12823:12843  pool.options.hardCap */\n      0x01\n      add\n      sload\n        /* \"SDC-Presale.sol\":12813:12820  _amount */\n      dup2\n        /* \"SDC-Presale.sol\":12796:12800  pool */\n      0x03\n        /* \"SDC-Presale.sol\":12796:12810  pool.weiRaised */\n      0x05\n      add\n      sload\n        /* \"SDC-Presale.sol\":12796:12820  pool.weiRaised + _amount */\n      tag_230\n      swap2\n      swap1\n      tag_106\n      jump\t// in\n    tag_230:\n        /* \"SDC-Presale.sol\":12796:12843  pool.weiRaised + _amount > pool.options.hardCap */\n      gt\n        /* \"SDC-Presale.sol\":12792:12892  if (pool.weiRaised + _amount > pool.options.hardCap) {... */\n      iszero\n      tag_231\n      jumpi\n        /* \"SDC-Presale.sol\":12866:12881  HardCapExceed() */\n      mload(0x40)\n      0x283452da00000000000000000000000000000000000000000000000000000000\n      dup2\n      mstore\n      0x04\n      add\n      mload(0x40)\n      dup1\n      swap2\n      sub\n      swap1\n      revert\n        /* \"SDC-Presale.sol\":12792:12892  if (pool.weiRaised + _amount > pool.options.hardCap) {... */\n    tag_231:\n        /* \"SDC-Presale.sol\":12949:12953  pool */\n      0x03\n        /* \"SDC-Presale.sol\":12949:12961  pool.options */\n      0x07\n      add\n        /* \"SDC-Presale.sol\":12949:12965  pool.options.min */\n      0x04\n      add\n      sload\n        /* \"SDC-Presale.sol\":12939:12946  _amount */\n      dup2\n        /* \"SDC-Presale.sol\":12939:12965  _amount < pool.options.min */\n      lt\n        /* \"SDC-Presale.sol\":12935:13021  if (_amount < pool.options.min) {... */\n      iszero\n      tag_232\n      jumpi\n        /* \"SDC-Presale.sol\":12988:13010  PurchaseBelowMinimum() */\n      mload(0x40)\n      0xbd70f35d00000000000000000000000000000000000000000000000000000000\n      dup2\n      mstore\n      0x04\n      add\n      mload(0x40)\n      dup1\n      swap2\n      sub\n      swap1\n      revert\n        /* \"SDC-Presale.sol\":12935:13021  if (_amount < pool.options.min) {... */\n    tag_232:\n        /* \"SDC-Presale.sol\":13108:13112  pool */\n      0x03\n        /* \"SDC-Presale.sol\":13108:13120  pool.options */\n      0x07\n      add\n        /* \"SDC-Presale.sol\":13108:13124  pool.options.max */\n      0x03\n      add\n      sload\n        /* \"SDC-Presale.sol\":13078:13091  contributions */\n      0x02\n        /* \"SDC-Presale.sol\":13078:13105  contributions[_beneficiary] */\n      0x00\n        /* \"SDC-Presale.sol\":13092:13104  _beneficiary */\n      dup5\n        /* \"SDC-Presale.sol\":13078:13105  contributions[_beneficiary] */\n      0xffffffffffffffffffffffffffffffffffffffff\n      and\n      0xffffffffffffffffffffffffffffffffffffffff\n      and\n      dup2\n      mstore\n      0x20\n      add\n      swap1\n      dup2\n      mstore\n      0x20\n      add\n      0x00\n      keccak256\n      sload\n        /* \"SDC-Presale.sol\":13068:13075  _amount */\n      dup3\n        /* \"SDC-Presale.sol\":13068:13105  _amount + contributions[_beneficiary] */\n      tag_233\n      swap2\n      swap1\n      tag_106\n      jump\t// in\n    tag_233:\n        /* \"SDC-Presale.sol\":13068:13124  _amount + contributions[_beneficiary] > pool.options.max */\n      gt\n        /* \"SDC-Presale.sol\":13064:13179  if (_amount + contributions[_beneficiary] > pool.options.max) {... */\n      iszero\n      tag_234\n      jumpi\n        /* \"SDC-Presale.sol\":13147:13168  PurchaseLimitExceed() */\n      mload(0x40)\n      0x5a99681c00000000000000000000000000000000000000000000000000000000\n      dup2\n      mstore\n      0x04\n      add\n      mload(0x40)\n      dup1\n      swap2\n      sub\n      swap1\n      revert\n        /* \"SDC-Presale.sol\":13064:13179  if (_amount + contributions[_beneficiary] > pool.options.max) {... */\n    tag_234:\n        /* \"SDC-Presale.sol\":13260:13278  isWhitelistEnabled */\n      0x10\n      0x00\n      swap1\n      sload\n      swap1\n      0x0100\n      exp\n      swap1\n      div\n      0xff\n      and\n        /* \"SDC-Presale.sol\":13260:13306  isWhitelistEnabled && !whitelist[_beneficiary] */\n      dup1\n      iszero\n      tag_235\n      jumpi\n      pop\n        /* \"SDC-Presale.sol\":13283:13292  whitelist */\n      0x11\n        /* \"SDC-Presale.sol\":13283:13306  whitelist[_beneficiary] */\n      0x00\n        /* \"SDC-Presale.sol\":13293:13305  _beneficiary */\n      dup4\n        /* \"SDC-Presale.sol\":13283:13306  whitelist[_beneficiary] */\n      0xffffffffffffffffffffffffffffffffffffffff\n      and\n      0xffffffffffffffffffffffffffffffffffffffff\n      and\n      dup2\n      mstore\n      0x20\n      add\n      swap1\n      dup2\n      mstore\n      0x20\n      add\n      0x00\n      keccak256\n      0x00\n      swap1\n      sload\n      swap1\n      0x0100\n      exp\n      swap1\n      div\n      0xff\n      and\n        /* \"SDC-Presale.sol\":13282:13306  !whitelist[_beneficiary] */\n      iszero\n        /* \"SDC-Presale.sol\":13260:13306  isWhitelistEnabled && !whitelist[_beneficiary] */\n    tag_235:\n        /* \"SDC-Presale.sol\":13256:13357  if (isWhitelistEnabled && !whitelist[_beneficiary]) {... */\n      iszero\n      tag_236\n      jumpi\n        /* \"SDC-Presale.sol\":13322:13346  revert(\"NotWhitelisted\") */\n      mload(0x40)\n      0x08c379a000000000000000000000000000000000000000000000000000000000\n      dup2\n      mstore\n      0x04\n      add\n      tag_237\n      swap1\n      tag_238\n      jump\t// in\n    tag_237:\n      mload(0x40)\n      dup1\n      swap2\n      sub\n      swap1\n      revert\n        /* \"SDC-Presale.sol\":13256:13357  if (isWhitelistEnabled && !whitelist[_beneficiary]) {... */\n    tag_236:\n        /* \"SDC-Presale.sol\":12414:13363  function _prevalidatePurchase(address _beneficiary, uint256 _amount) internal view {... */\n      pop\n      pop\n      jump\t// out\n        /* \"@openzeppelin/contracts/security/ReentrancyGuard.sol\":2629:2838  function _nonReentrantAfter() private {... */\n    tag_110:\n        /* \"@openzeppelin/contracts/security/ReentrancyGuard.sol\":1716:1717  1 */\n      0x01\n        /* \"@openzeppelin/contracts/security/ReentrancyGuard.sol\":2809:2816  _status */\n      dup1\n        /* \"@openzeppelin/contracts/security/ReentrancyGuard.sol\":2809:2831  _status = _NOT_ENTERED */\n      dup2\n      swap1\n      sstore\n      pop\n        /* \"@openzeppelin/contracts/security/ReentrancyGuard.sol\":2629:2838  function _nonReentrantAfter() private {... */\n      jump\t// out\n        /* \"@openzeppelin/contracts/access/Ownable.sol\":1796:1958  function _checkOwner() internal view virtual {... */\n    tag_113:\n        /* \"@openzeppelin/contracts/access/Ownable.sol\":1866:1878  _msgSender() */\n      tag_241\n        /* \"@openzeppelin/contracts/access/Ownable.sol\":1866:1876  _msgSender */\n      tag_242\n        /* \"@openzeppelin/contracts/access/Ownable.sol\":1866:1878  _msgSender() */\n      jump\t// in\n    tag_241:\n        /* \"@openzeppelin/contracts/access/Ownable.sol\":1855:1878  owner() != _msgSender() */\n      0xffffffffffffffffffffffffffffffffffffffff\n      and\n        /* \"@openzeppelin/contracts/access/Ownable.sol\":1855:1862  owner() */\n      tag_243\n        /* \"@openzeppelin/contracts/access/Ownable.sol\":1855:1860  owner */\n      tag_74\n        /* \"@openzeppelin/contracts/access/Ownable.sol\":1855:1862  owner() */\n      jump\t// in\n    tag_243:\n        /* \"@openzeppelin/contracts/access/Ownable.sol\":1855:1878  owner() != _msgSender() */\n      0xffffffffffffffffffffffffffffffffffffffff\n      and\n      eq\n        /* \"@openzeppelin/contracts/access/Ownable.sol\":1851:1952  if (owner() != _msgSender()) {... */\n      tag_244\n      jumpi\n        /* \"@openzeppelin/contracts/access/Ownable.sol\":1928:1940  _msgSender() */\n      tag_245\n        /* \"@openzeppelin/contracts/access/Ownable.sol\":1928:1938  _msgSender */\n      tag_242\n        /* \"@openzeppelin/contracts/access/Ownable.sol\":1928:1940  _msgSender() */\n      jump\t// in\n    tag_245:\n        /* \"@openzeppelin/contracts/access/Ownable.sol\":1901:1941  OwnableUnauthorizedAccount(_msgSender()) */\n      mload(0x40)\n      0x118cdaa700000000000000000000000000000000000000000000000000000000\n      dup2\n      mstore\n      0x04\n      add\n      tag_246\n      swap2\n      swap1\n      tag_76\n      jump\t// in\n    tag_246:\n      mload(0x40)\n      dup1\n      swap2\n      sub\n      swap1\n      revert\n        /* \"@openzeppelin/contracts/access/Ownable.sol\":1851:1952  if (owner() != _msgSender()) {... */\n    tag_244:\n        /* \"@openzeppelin/contracts/access/Ownable.sol\":1796:1958  function _checkOwner() internal view virtual {... */\n      jump\t// out\n        /* \"SDC-Presale.sol\":14998:15132  function _weiForLiquidity() internal view returns (uint256) {... */\n    tag_126:\n        /* \"SDC-Presale.sol\":15049:15056  uint256 */\n      0x00\n        /* \"SDC-Presale.sol\":15120:15125  10000 */\n      0x2710\n        /* \"SDC-Presale.sol\":15092:15096  pool */\n      0x03\n        /* \"SDC-Presale.sol\":15092:15104  pool.options */\n      0x07\n      add\n        /* \"SDC-Presale.sol\":15092:15117  pool.options.liquidityBps */\n      0x05\n      add\n      0x1c\n      swap1\n      sload\n      swap1\n      0x0100\n      exp\n      swap1\n      div\n      0xffffffff\n      and\n        /* \"SDC-Presale.sol\":15075:15117  pool.weiRaised * pool.options.liquidityBps */\n      0xffffffff\n      and\n        /* \"SDC-Presale.sol\":15075:15079  pool */\n      0x03\n        /* \"SDC-Presale.sol\":15075:15089  pool.weiRaised */\n      0x05\n      add\n      sload\n        /* \"SDC-Presale.sol\":15075:15117  pool.weiRaised * pool.options.liquidityBps */\n      tag_248\n      swap2\n      swap1\n      tag_210\n      jump\t// in\n    tag_248:\n        /* \"SDC-Presale.sol\":15075:15125  pool.weiRaised * pool.options.liquidityBps / 10000 */\n      tag_249\n      swap2\n      swap1\n      tag_212\n      jump\t// in\n    tag_249:\n        /* \"SDC-Presale.sol\":15068:15125  return pool.weiRaised * pool.options.liquidityBps / 10000 */\n      swap1\n      pop\n        /* \"SDC-Presale.sol\":14998:15132  function _weiForLiquidity() internal view returns (uint256) {... */\n      swap1\n      jump\t// out\n        /* \"SDC-Presale.sol\":15262:15905  function _liquify(uint256 _weiAmount, uint256 _tokenAmount) private {... */\n    tag_128:\n        /* \"SDC-Presale.sol\":15341:15357  uint amountToken */\n      0x00\n        /* \"SDC-Presale.sol\":15359:15373  uint amountETH */\n      0x00\n        /* \"SDC-Presale.sol\":15391:15395  pool */\n      0x03\n        /* \"SDC-Presale.sol\":15391:15413  pool.uniswapV2Router02 */\n      0x01\n      add\n      0x00\n      swap1\n      sload\n      swap1\n      0x0100\n      exp\n      swap1\n      div\n      0xffffffffffffffffffffffffffffffffffffffff\n      and\n        /* \"SDC-Presale.sol\":15391:15429  pool.uniswapV2Router02.addLiquidityETH */\n      0xffffffffffffffffffffffffffffffffffffffff\n      and\n      0xf305d719\n        /* \"SDC-Presale.sol\":15438:15448  _weiAmount */\n      dup6\n        /* \"SDC-Presale.sol\":15475:15479  pool */\n      0x03\n        /* \"SDC-Presale.sol\":15475:15485  pool.token */\n      0x00\n      add\n      0x00\n      swap1\n      sload\n      swap1\n      0x0100\n      exp\n      swap1\n      div\n      0xffffffffffffffffffffffffffffffffffffffff\n      and\n        /* \"SDC-Presale.sol\":15504:15516  _tokenAmount */\n      dup7\n        /* \"SDC-Presale.sol\":15534:15546  _tokenAmount */\n      dup8\n        /* \"SDC-Presale.sol\":15653:15663  _weiAmount */\n      dup10\n        /* \"SDC-Presale.sol\":15707:15714  owner() */\n      tag_251\n        /* \"SDC-Presale.sol\":15707:15712  owner */\n      tag_74\n        /* \"SDC-Presale.sol\":15707:15714  owner() */\n      jump\t// in\n    tag_251:\n        /* \"SDC-Presale.sol\":15750:15753  600 */\n      0x0258\n        /* \"SDC-Presale.sol\":15732:15747  block.timestamp */\n      timestamp\n        /* \"SDC-Presale.sol\":15732:15753  block.timestamp + 600 */\n      tag_252\n      swap2\n      swap1\n      tag_106\n      jump\t// in\n    tag_252:\n        /* \"SDC-Presale.sol\":15391:15767  pool.uniswapV2Router02.addLiquidityETH{value : _weiAmount}(... */\n      mload(0x40)\n      dup9\n      0xffffffff\n      and\n      0xe0\n      shl\n      dup2\n      mstore\n      0x04\n      add\n      tag_253\n      swap7\n      swap6\n      swap5\n      swap4\n      swap3\n      swap2\n      swap1\n      tag_254\n      jump\t// in\n    tag_253:\n      0x60\n      mload(0x40)\n      dup1\n      dup4\n      sub\n      dup2\n      dup6\n      dup9\n      gas\n      call\n      iszero\n      dup1\n      iszero\n      tag_256\n      jumpi\n      returndatacopy(0x00, 0x00, returndatasize)\n      revert(0x00, returndatasize)\n    tag_256:\n      pop\n      pop\n      pop\n      pop\n      pop\n      mload(0x40)\n      returndatasize\n      not(0x1f)\n      0x1f\n      dup3\n      add\n      and\n      dup3\n      add\n      dup1\n      0x40\n      mstore\n      pop\n      dup2\n      add\n      swap1\n      tag_257\n      swap2\n      swap1\n      tag_258\n      jump\t// in\n    tag_257:\n        /* \"SDC-Presale.sol\":15340:15767  (uint amountToken, uint amountETH, ) =... */\n      pop\n      swap2\n      pop\n      swap2\n      pop\n        /* \"SDC-Presale.sol\":15805:15817  _tokenAmount */\n      dup3\n        /* \"SDC-Presale.sol\":15790:15801  amountToken */\n      dup3\n        /* \"SDC-Presale.sol\":15790:15817  amountToken != _tokenAmount */\n      eq\n      iszero\n        /* \"SDC-Presale.sol\":15790:15844  amountToken != _tokenAmount && amountETH != _weiAmount */\n      dup1\n      iszero\n      tag_259\n      jumpi\n      pop\n        /* \"SDC-Presale.sol\":15834:15844  _weiAmount */\n      dup4\n        /* \"SDC-Presale.sol\":15821:15830  amountETH */\n      dup2\n        /* \"SDC-Presale.sol\":15821:15844  amountETH != _weiAmount */\n      eq\n      iszero\n        /* \"SDC-Presale.sol\":15790:15844  amountToken != _tokenAmount && amountETH != _weiAmount */\n    tag_259:\n        /* \"SDC-Presale.sol\":15786:15899  if (amountToken != _tokenAmount && amountETH != _weiAmount) {... */\n      iszero\n      tag_260\n      jumpi\n        /* \"SDC-Presale.sol\":15867:15888  LiquificationFailed() */\n      mload(0x40)\n      0xeda12fe600000000000000000000000000000000000000000000000000000000\n      dup2\n      mstore\n      0x04\n      add\n      mload(0x40)\n      dup1\n      swap2\n      sub\n      swap1\n      revert\n        /* \"SDC-Presale.sol\":15786:15899  if (amountToken != _tokenAmount && amountETH != _weiAmount) {... */\n    tag_260:\n        /* \"SDC-Presale.sol\":15330:15905  {... */\n      pop\n      pop\n        /* \"SDC-Presale.sol\":15262:15905  function _liquify(uint256 _weiAmount, uint256 _tokenAmount) private {... */\n      pop\n      pop\n      jump\t// out\n        /* \"@openzeppelin/contracts/utils/Address.sol\":1290:1655  function sendValue(address payable recipient, uint256 amount) internal {... */\n    tag_134:\n        /* \"@openzeppelin/contracts/utils/Address.sol\":1399:1405  amount */\n      dup1\n        /* \"@openzeppelin/contracts/utils/Address.sol\":1375:1396  address(this).balance */\n      selfbalance\n        /* \"@openzeppelin/contracts/utils/Address.sol\":1375:1405  address(this).balance < amount */\n      lt\n        /* \"@openzeppelin/contracts/utils/Address.sol\":1371:1496  if (address(this).balance < amount) {... */\n      iszero\n      tag_262\n      jumpi\n        /* \"@openzeppelin/contracts/utils/Address.sol\":1455:1476  address(this).balance */\n      selfbalance\n        /* \"@openzeppelin/contracts/utils/Address.sol\":1478:1484  amount */\n      dup2\n        /* \"@openzeppelin/contracts/utils/Address.sol\":1428:1485  Errors.InsufficientBalance(address(this).balance, amount) */\n      mload(0x40)\n      0xcf47918100000000000000000000000000000000000000000000000000000000\n      dup2\n      mstore\n      0x04\n      add\n      tag_263\n      swap3\n      swap2\n      swap1\n      tag_136\n      jump\t// in\n    tag_263:\n      mload(0x40)\n      dup1\n      swap2\n      sub\n      swap1\n      revert\n        /* \"@openzeppelin/contracts/utils/Address.sol\":1371:1496  if (address(this).balance < amount) {... */\n    tag_262:\n        /* \"@openzeppelin/contracts/utils/Address.sol\":1507:1519  bool success */\n      0x00\n        /* \"@openzeppelin/contracts/utils/Address.sol\":1521:1544  bytes memory returndata */\n      0x00\n        /* \"@openzeppelin/contracts/utils/Address.sol\":1548:1557  recipient */\n      dup4\n        /* \"@openzeppelin/contracts/utils/Address.sol\":1548:1562  recipient.call */\n      0xffffffffffffffffffffffffffffffffffffffff\n      and\n        /* \"@openzeppelin/contracts/utils/Address.sol\":1570:1576  amount */\n      dup4\n        /* \"@openzeppelin/contracts/utils/Address.sol\":1548:1581  recipient.call{value: amount}(\"\") */\n      mload(0x40)\n      tag_264\n      swap1\n      tag_265\n      jump\t// in\n    tag_264:\n      0x00\n      mload(0x40)\n      dup1\n      dup4\n      sub\n      dup2\n      dup6\n      dup8\n      gas\n      call\n      swap3\n      pop\n      pop\n      pop\n      returndatasize\n      dup1\n      0x00\n      dup2\n      eq\n      tag_268\n      jumpi\n      mload(0x40)\n      swap2\n      pop\n      and(add(returndatasize, 0x3f), not(0x1f))\n      dup3\n      add\n      0x40\n      mstore\n      returndatasize\n      dup3\n      mstore\n      returndatasize\n      0x00\n      0x20\n      dup5\n      add\n      returndatacopy\n      jump(tag_267)\n    tag_268:\n      0x60\n      swap2\n      pop\n    tag_267:\n      pop\n        /* \"@openzeppelin/contracts/utils/Address.sol\":1506:1581  (bool success, bytes memory returndata) = recipient.call{value: amount}(\"\") */\n      swap2\n      pop\n      swap2\n      pop\n        /* \"@openzeppelin/contracts/utils/Address.sol\":1596:1603  success */\n      dup2\n        /* \"@openzeppelin/contracts/utils/Address.sol\":1591:1649  if (!success) {... */\n      tag_269\n      jumpi\n        /* \"@openzeppelin/contracts/utils/Address.sol\":1619:1638  _revert(returndata) */\n      tag_270\n        /* \"@openzeppelin/contracts/utils/Address.sol\":1627:1637  returndata */\n      dup2\n        /* \"@openzeppelin/contracts/utils/Address.sol\":1619:1626  _revert */\n      tag_271\n        /* \"@openzeppelin/contracts/utils/Address.sol\":1619:1638  _revert(returndata) */\n      jump\t// in\n    tag_270:\n        /* \"@openzeppelin/contracts/utils/Address.sol\":1591:1649  if (!success) {... */\n    tag_269:\n        /* \"@openzeppelin/contracts/utils/Address.sol\":1361:1655  {... */\n      pop\n      pop\n        /* \"@openzeppelin/contracts/utils/Address.sol\":1290:1655  function sendValue(address payable recipient, uint256 amount) internal {... */\n      pop\n      pop\n      jump\t// out\n        /* \"@openzeppelin/contracts/token/ERC20/utils/SafeERC20.sol\":1219:1379  function safeTransfer(IERC20 token, address to, uint256 value) internal {... */\n    tag_147:\n        /* \"@openzeppelin/contracts/token/ERC20/utils/SafeERC20.sol\":1301:1372  _callOptionalReturn(token, abi.encodeCall(token.transfer, (to, value))) */\n      tag_273\n        /* \"@openzeppelin/contracts/token/ERC20/utils/SafeERC20.sol\":1321:1326  token */\n      dup4\n        /* \"@openzeppelin/contracts/token/ERC20/utils/SafeERC20.sol\":1343:1348  token */\n      dup5\n        /* \"@openzeppelin/contracts/token/ERC20/utils/SafeERC20.sol\":1343:1357  token.transfer */\n      0xffffffffffffffffffffffffffffffffffffffff\n      and\n      0xa9059cbb\n        /* \"@openzeppelin/contracts/token/ERC20/utils/SafeERC20.sol\":1360:1362  to */\n      dup6\n        /* \"@openzeppelin/contracts/token/ERC20/utils/SafeERC20.sol\":1364:1369  value */\n      dup6\n        /* \"@openzeppelin/contracts/token/ERC20/utils/SafeERC20.sol\":1328:1371  abi.encodeCall(token.transfer, (to, value)) */\n      add(0x24, mload(0x40))\n      tag_274\n      swap3\n      swap2\n      swap1\n      tag_275\n      jump\t// in\n    tag_274:\n      mload(0x40)\n      0x20\n      dup2\n      dup4\n      sub\n      sub\n      dup2\n      mstore\n      swap1\n      0x40\n      mstore\n      swap2\n      pop\n      0xe0\n      shl\n      0x20\n      dup3\n      add\n      dup1\n      mload\n      0xffffffffffffffffffffffffffffffffffffffffffffffffffffffff\n      dup4\n      dup2\n      dup4\n      and\n      or\n      dup4\n      mstore\n      pop\n      pop\n      pop\n      pop\n        /* \"@openzeppelin/contracts/token/ERC20/utils/SafeERC20.sol\":1301:1320  _callOptionalReturn */\n      tag_276\n        /* \"@openzeppelin/contracts/token/ERC20/utils/SafeERC20.sol\":1301:1372  _callOptionalReturn(token, abi.encodeCall(token.transfer, (to, value))) */\n      jump\t// in\n    tag_273:\n        /* \"@openzeppelin/contracts/token/ERC20/utils/SafeERC20.sol\":1219:1379  function safeTransfer(IERC20 token, address to, uint256 value) internal {... */\n      pop\n      pop\n      pop\n      jump\t// out\n        /* \"@openzeppelin/contracts/access/Ownable.sol\":2912:3099  function _transferOwnership(address newOwner) internal virtual {... */\n    tag_175:\n        /* \"@openzeppelin/contracts/access/Ownable.sol\":2985:3001  address oldOwner */\n      0x00\n        /* \"@openzeppelin/contracts/access/Ownable.sol\":3004:3010  _owner */\n      0x00\n      0x00\n      swap1\n      sload\n      swap1\n      0x0100\n      exp\n      swap1\n      div\n      0xffffffffffffffffffffffffffffffffffffffff\n      and\n        /* \"@openzeppelin/contracts/access/Ownable.sol\":2985:3010  address oldOwner = _owner */\n      swap1\n      pop\n        /* \"@openzeppelin/contracts/access/Ownable.sol\":3029:3037  newOwner */\n      dup2\n        /* \"@openzeppelin/contracts/access/Ownable.sol\":3020:3026  _owner */\n      0x00\n      0x00\n        /* \"@openzeppelin/contracts/access/Ownable.sol\":3020:3037  _owner = newOwner */\n      0x0100\n      exp\n      dup2\n      sload\n      dup2\n      0xffffffffffffffffffffffffffffffffffffffff\n      mul\n      not\n      and\n      swap1\n      dup4\n      0xffffffffffffffffffffffffffffffffffffffff\n      and\n      mul\n      or\n      swap1\n      sstore\n      pop\n        /* \"@openzeppelin/contracts/access/Ownable.sol\":3083:3091  newOwner */\n      dup2\n        /* \"@openzeppelin/contracts/access/Ownable.sol\":3052:3092  OwnershipTransferred(oldOwner, newOwner) */\n      0xffffffffffffffffffffffffffffffffffffffff\n      and\n        /* \"@openzeppelin/contracts/access/Ownable.sol\":3073:3081  oldOwner */\n      dup2\n        /* \"@openzeppelin/contracts/access/Ownable.sol\":3052:3092  OwnershipTransferred(oldOwner, newOwner) */\n      0xffffffffffffffffffffffffffffffffffffffff\n      and\n      0x8be0079c531659141344cd1fd0a4f28419497f9722a3daafe3b4186f6b6457e0\n      mload(0x40)\n      mload(0x40)\n      dup1\n      swap2\n      sub\n      swap1\n      log3\n        /* \"@openzeppelin/contracts/access/Ownable.sol\":2975:3099  {... */\n      pop\n        /* \"@openzeppelin/contracts/access/Ownable.sol\":2912:3099  function _transferOwnership(address newOwner) internal virtual {... */\n      pop\n      jump\t// out\n        /* \"SDC-Presale.sol\":14494:14642  function _tokensForLiquidity() internal view returns (uint256) {... */\n    tag_193:\n        /* \"SDC-Presale.sol\":14548:14555  uint256 */\n      0x00\n        /* \"SDC-Presale.sol\":14630:14635  10000 */\n      0x2710\n        /* \"SDC-Presale.sol\":14602:14606  pool */\n      0x03\n        /* \"SDC-Presale.sol\":14602:14614  pool.options */\n      0x07\n      add\n        /* \"SDC-Presale.sol\":14602:14627  pool.options.liquidityBps */\n      0x05\n      add\n      0x1c\n      swap1\n      sload\n      swap1\n      0x0100\n      exp\n      swap1\n      div\n      0xffffffff\n      and\n        /* \"SDC-Presale.sol\":14574:14627  pool.options.tokenDeposit * pool.options.liquidityBps */\n      0xffffffff\n      and\n        /* \"SDC-Presale.sol\":14574:14578  pool */\n      0x03\n        /* \"SDC-Presale.sol\":14574:14586  pool.options */\n      0x07\n      add\n        /* \"SDC-Presale.sol\":14574:14599  pool.options.tokenDeposit */\n      0x00\n      add\n      sload\n        /* \"SDC-Presale.sol\":14574:14627  pool.options.tokenDeposit * pool.options.liquidityBps */\n      tag_279\n      swap2\n      swap1\n      tag_210\n      jump\t// in\n    tag_279:\n        /* \"SDC-Presale.sol\":14574:14635  pool.options.tokenDeposit * pool.options.liquidityBps / 10000 */\n      tag_280\n      swap2\n      swap1\n      tag_212\n      jump\t// in\n    tag_280:\n        /* \"SDC-Presale.sol\":14567:14635  return pool.options.tokenDeposit * pool.options.liquidityBps / 10000 */\n      swap1\n      pop\n        /* \"SDC-Presale.sol\":14494:14642  function _tokensForLiquidity() internal view returns (uint256) {... */\n      swap1\n      jump\t// out\n        /* \"SDC-Presale.sol\":14765:14899  function _tokensForPresale() internal view returns (uint256) {... */\n    tag_195:\n        /* \"SDC-Presale.sol\":14817:14824  uint256 */\n      0x00\n        /* \"SDC-Presale.sol\":14871:14892  _tokensForLiquidity() */\n      tag_282\n        /* \"SDC-Presale.sol\":14871:14890  _tokensForLiquidity */\n      tag_193\n        /* \"SDC-Presale.sol\":14871:14892  _tokensForLiquidity() */\n      jump\t// in\n    tag_282:\n        /* \"SDC-Presale.sol\":14843:14847  pool */\n      0x03\n        /* \"SDC-Presale.sol\":14843:14855  pool.options */\n      0x07\n      add\n        /* \"SDC-Presale.sol\":14843:14868  pool.options.tokenDeposit */\n      0x00\n      add\n      sload\n        /* \"SDC-Presale.sol\":14843:14892  pool.options.tokenDeposit - _tokensForLiquidity() */\n      tag_283\n      swap2\n      swap1\n      tag_130\n      jump\t// in\n    tag_283:\n        /* \"SDC-Presale.sol\":14836:14892  return pool.options.tokenDeposit - _tokensForLiquidity() */\n      swap1\n      pop\n        /* \"SDC-Presale.sol\":14765:14899  function _tokensForPresale() internal view returns (uint256) {... */\n      swap1\n      jump\t// out\n        /* \"@openzeppelin/contracts/token/ERC20/utils/SafeERC20.sol\":1618:1806  function safeTransferFrom(IERC20 token, address from, address to, uint256 value) internal {... */\n    tag_197:\n        /* \"@openzeppelin/contracts/token/ERC20/utils/SafeERC20.sol\":1718:1799  _callOptionalReturn(token, abi.encodeCall(token.transferFrom, (from, to, value))) */\n      tag_285\n        /* \"@openzeppelin/contracts/token/ERC20/utils/SafeERC20.sol\":1738:1743  token */\n      dup5\n        /* \"@openzeppelin/contracts/token/ERC20/utils/SafeERC20.sol\":1760:1765  token */\n      dup6\n        /* \"@openzeppelin/contracts/token/ERC20/utils/SafeERC20.sol\":1760:1778  token.transferFrom */\n      0xffffffffffffffffffffffffffffffffffffffff\n      and\n      0x23b872dd\n        /* \"@openzeppelin/contracts/token/ERC20/utils/SafeERC20.sol\":1781:1785  from */\n      dup7\n        /* \"@openzeppelin/contracts/token/ERC20/utils/SafeERC20.sol\":1787:1789  to */\n      dup7\n        /* \"@openzeppelin/contracts/token/ERC20/utils/SafeERC20.sol\":1791:1796  value */\n      dup7\n        /* \"@openzeppelin/contracts/token/ERC20/utils/SafeERC20.sol\":1745:1798  abi.encodeCall(token.transferFrom, (from, to, value)) */\n      add(0x24, mload(0x40))\n      tag_286\n      swap4\n      swap3\n      swap2\n      swap1\n      tag_287\n      jump\t// in\n    tag_286:\n      mload(0x40)\n      0x20\n      dup2\n      dup4\n      sub\n      sub\n      dup2\n      mstore\n      swap1\n      0x40\n      mstore\n      swap2\n      pop\n      0xe0\n      shl\n      0x20\n      dup3\n      add\n      dup1\n      mload\n      0xffffffffffffffffffffffffffffffffffffffffffffffffffffffff\n      dup4\n      dup2\n      dup4\n      and\n      or\n      dup4\n      mstore\n      pop\n      pop\n      pop\n      pop\n        /* \"@openzeppelin/contracts/token/ERC20/utils/SafeERC20.sol\":1718:1737  _callOptionalReturn */\n      tag_276\n        /* \"@openzeppelin/contracts/token/ERC20/utils/SafeERC20.sol\":1718:1799  _callOptionalReturn(token, abi.encodeCall(token.transferFrom, (from, to, value))) */\n      jump\t// in\n    tag_285:\n        /* \"@openzeppelin/contracts/token/ERC20/utils/SafeERC20.sol\":1618:1806  function safeTransferFrom(IERC20 token, address from, address to, uint256 value) internal {... */\n      pop\n      pop\n      pop\n      pop\n      jump\t// out\n        /* \"@openzeppelin/contracts/utils/Context.sol\":656:752  function _msgSender() internal view virtual returns (address) {... */\n    tag_242:\n        /* \"@openzeppelin/contracts/utils/Context.sol\":709:716  address */\n      0x00\n        /* \"@openzeppelin/contracts/utils/Context.sol\":735:745  msg.sender */\n      caller\n        /* \"@openzeppelin/contracts/utils/Context.sol\":728:745  return msg.sender */\n      swap1\n      pop\n        /* \"@openzeppelin/contracts/utils/Context.sol\":656:752  function _msgSender() internal view virtual returns (address) {... */\n      swap1\n      jump\t// out\n        /* \"@openzeppelin/contracts/utils/Address.sol\":5559:6046  function _revert(bytes memory returndata) private pure {... */\n    tag_271:\n        /* \"@openzeppelin/contracts/utils/Address.sol\":5710:5711  0 */\n      0x00\n        /* \"@openzeppelin/contracts/utils/Address.sol\":5690:5700  returndata */\n      dup2\n        /* \"@openzeppelin/contracts/utils/Address.sol\":5690:5707  returndata.length */\n      mload\n        /* \"@openzeppelin/contracts/utils/Address.sol\":5690:5711  returndata.length > 0 */\n      gt\n        /* \"@openzeppelin/contracts/utils/Address.sol\":5686:6040  if (returndata.length > 0) {... */\n      iszero\n      tag_290\n      jumpi\n        /* \"@openzeppelin/contracts/utils/Address.sol\":5887:5897  returndata */\n      dup1\n        /* \"@openzeppelin/contracts/utils/Address.sol\":5881:5898  mload(returndata) */\n      mload\n        /* \"@openzeppelin/contracts/utils/Address.sol\":5943:5958  returndata_size */\n      dup1\n        /* \"@openzeppelin/contracts/utils/Address.sol\":5930:5940  returndata */\n      dup3\n        /* \"@openzeppelin/contracts/utils/Address.sol\":5926:5928  32 */\n      0x20\n        /* \"@openzeppelin/contracts/utils/Address.sol\":5922:5941  add(32, returndata) */\n      add\n        /* \"@openzeppelin/contracts/utils/Address.sol\":5915:5959  revert(add(32, returndata), returndata_size) */\n      revert\n        /* \"@openzeppelin/contracts/utils/Address.sol\":5686:6040  if (returndata.length > 0) {... */\n    tag_290:\n        /* \"@openzeppelin/contracts/utils/Address.sol\":6010:6029  Errors.FailedCall() */\n      mload(0x40)\n      0xd6bda27500000000000000000000000000000000000000000000000000000000\n      dup2\n      mstore\n      0x04\n      add\n      mload(0x40)\n      dup1\n      swap2\n      sub\n      swap1\n      revert\n        /* \"@openzeppelin/contracts/token/ERC20/utils/SafeERC20.sol\":7686:8406  function _callOptionalReturn(IERC20 token, bytes memory data) private {... */\n    tag_276:\n        /* \"@openzeppelin/contracts/token/ERC20/utils/SafeERC20.sol\":7766:7784  uint256 returnSize */\n      0x00\n        /* \"@openzeppelin/contracts/token/ERC20/utils/SafeERC20.sol\":7794:7813  uint256 returnValue */\n      0x00\n        /* \"@openzeppelin/contracts/token/ERC20/utils/SafeERC20.sol\":7932:7936  0x20 */\n      0x20\n        /* \"@openzeppelin/contracts/token/ERC20/utils/SafeERC20.sol\":7929:7930  0 */\n      0x00\n        /* \"@openzeppelin/contracts/token/ERC20/utils/SafeERC20.sol\":7922:7926  data */\n      dup5\n        /* \"@openzeppelin/contracts/token/ERC20/utils/SafeERC20.sol\":7916:7927  mload(data) */\n      mload\n        /* \"@openzeppelin/contracts/token/ERC20/utils/SafeERC20.sol\":7909:7913  0x20 */\n      0x20\n        /* \"@openzeppelin/contracts/token/ERC20/utils/SafeERC20.sol\":7903:7907  data */\n      dup7\n        /* \"@openzeppelin/contracts/token/ERC20/utils/SafeERC20.sol\":7899:7914  add(data, 0x20) */\n      add\n        /* \"@openzeppelin/contracts/token/ERC20/utils/SafeERC20.sol\":7896:7897  0 */\n      0x00\n        /* \"@openzeppelin/contracts/token/ERC20/utils/SafeERC20.sol\":7889:7894  token */\n      dup9\n        /* \"@openzeppelin/contracts/token/ERC20/utils/SafeERC20.sol\":7882:7887  gas() */\n      gas\n        /* \"@openzeppelin/contracts/token/ERC20/utils/SafeERC20.sol\":7877:7937  call(gas(), token, 0, add(data, 0x20), mload(data), 0, 0x20) */\n      call\n        /* \"@openzeppelin/contracts/token/ERC20/utils/SafeERC20.sol\":7989:7996  success */\n      dup1\n        /* \"@openzeppelin/contracts/token/ERC20/utils/SafeERC20.sol\":7979:8155  if iszero(success) {... */\n      tag_293\n      jumpi\n        /* \"@openzeppelin/contracts/token/ERC20/utils/SafeERC20.sol\":8033:8037  0x40 */\n      0x40\n        /* \"@openzeppelin/contracts/token/ERC20/utils/SafeERC20.sol\":8027:8038  mload(0x40) */\n      mload\n        /* \"@openzeppelin/contracts/token/ERC20/utils/SafeERC20.sol\":8078:8094  returndatasize() */\n      returndatasize\n        /* \"@openzeppelin/contracts/token/ERC20/utils/SafeERC20.sol\":8075:8076  0 */\n      0x00\n        /* \"@openzeppelin/contracts/token/ERC20/utils/SafeERC20.sol\":8070:8073  ptr */\n      dup3\n        /* \"@openzeppelin/contracts/token/ERC20/utils/SafeERC20.sol\":8055:8095  returndatacopy(ptr, 0, returndatasize()) */\n      returndatacopy\n        /* \"@openzeppelin/contracts/token/ERC20/utils/SafeERC20.sol\":8124:8140  returndatasize() */\n      returndatasize\n        /* \"@openzeppelin/contracts/token/ERC20/utils/SafeERC20.sol\":8119:8122  ptr */\n      dup2\n        /* \"@openzeppelin/contracts/token/ERC20/utils/SafeERC20.sol\":8112:8141  revert(ptr, returndatasize()) */\n      revert\n        /* \"@openzeppelin/contracts/token/ERC20/utils/SafeERC20.sol\":7979:8155  if iszero(success) {... */\n    tag_293:\n        /* \"@openzeppelin/contracts/token/ERC20/utils/SafeERC20.sol\":8182:8198  returndatasize() */\n      returndatasize\n        /* \"@openzeppelin/contracts/token/ERC20/utils/SafeERC20.sol\":8168:8198  returnSize := returndatasize() */\n      swap3\n      pop\n        /* \"@openzeppelin/contracts/token/ERC20/utils/SafeERC20.sol\":8232:8233  0 */\n      0x00\n        /* \"@openzeppelin/contracts/token/ERC20/utils/SafeERC20.sol\":8226:8234  mload(0) */\n      mload\n        /* \"@openzeppelin/contracts/token/ERC20/utils/SafeERC20.sol\":8211:8234  returnValue := mload(0) */\n      swap2\n      pop\n        /* \"@openzeppelin/contracts/token/ERC20/utils/SafeERC20.sol\":7848:8244  {... */\n      pop\n        /* \"@openzeppelin/contracts/token/ERC20/utils/SafeERC20.sol\":8272:8273  0 */\n      0x00\n        /* \"@openzeppelin/contracts/token/ERC20/utils/SafeERC20.sol\":8258:8268  returnSize */\n      dup3\n        /* \"@openzeppelin/contracts/token/ERC20/utils/SafeERC20.sol\":8258:8273  returnSize == 0 */\n      eq\n        /* \"@openzeppelin/contracts/token/ERC20/utils/SafeERC20.sol\":8258:8326  returnSize == 0 ? address(token).code.length == 0 : returnValue != 1 */\n      tag_294\n      jumpi\n        /* \"@openzeppelin/contracts/token/ERC20/utils/SafeERC20.sol\":8325:8326  1 */\n      0x01\n        /* \"@openzeppelin/contracts/token/ERC20/utils/SafeERC20.sol\":8310:8321  returnValue */\n      dup2\n        /* \"@openzeppelin/contracts/token/ERC20/utils/SafeERC20.sol\":8310:8326  returnValue != 1 */\n      eq\n      iszero\n        /* \"@openzeppelin/contracts/token/ERC20/utils/SafeERC20.sol\":8258:8326  returnSize == 0 ? address(token).code.length == 0 : returnValue != 1 */\n      jump(tag_295)\n    tag_294:\n        /* \"@openzeppelin/contracts/token/ERC20/utils/SafeERC20.sol\":8306:8307  0 */\n      0x00\n        /* \"@openzeppelin/contracts/token/ERC20/utils/SafeERC20.sol\":8284:8289  token */\n      dup5\n        /* \"@openzeppelin/contracts/token/ERC20/utils/SafeERC20.sol\":8276:8302  address(token).code.length */\n      0xffffffffffffffffffffffffffffffffffffffff\n      and\n      extcodesize\n        /* \"@openzeppelin/contracts/token/ERC20/utils/SafeERC20.sol\":8276:8307  address(token).code.length == 0 */\n      eq\n        /* \"@openzeppelin/contracts/token/ERC20/utils/SafeERC20.sol\":8258:8326  returnSize == 0 ? address(token).code.length == 0 : returnValue != 1 */\n    tag_295:\n        /* \"@openzeppelin/contracts/token/ERC20/utils/SafeERC20.sol\":8254:8400  if (returnSize == 0 ? address(token).code.length == 0 : returnValue != 1) {... */\n      iszero\n      tag_296\n      jumpi\n        /* \"@openzeppelin/contracts/token/ERC20/utils/SafeERC20.sol\":8382:8387  token */\n      dup4\n        /* \"@openzeppelin/contracts/token/ERC20/utils/SafeERC20.sol\":8349:8389  SafeERC20FailedOperation(address(token)) */\n      mload(0x40)\n      0x5274afe700000000000000000000000000000000000000000000000000000000\n      dup2\n      mstore\n      0x04\n      add\n      tag_297\n      swap2\n      swap1\n      tag_76\n      jump\t// in\n    tag_297:\n      mload(0x40)\n      dup1\n      swap2\n      sub\n      swap1\n      revert\n        /* \"@openzeppelin/contracts/token/ERC20/utils/SafeERC20.sol\":8254:8400  if (returnSize == 0 ? address(token).code.length == 0 : returnValue != 1) {... */\n    tag_296:\n        /* \"@openzeppelin/contracts/token/ERC20/utils/SafeERC20.sol\":7756:8406  {... */\n      pop\n      pop\n        /* \"@openzeppelin/contracts/token/ERC20/utils/SafeERC20.sol\":7686:8406  function _callOptionalReturn(IERC20 token, bytes memory data) private {... */\n      pop\n      pop\n      jump\t// out\n        /* \"#utility.yul\":88:205   */\n    tag_299:\n        /* \"#utility.yul\":197:198   */\n      0x00\n        /* \"#utility.yul\":194:195   */\n      0x00\n        /* \"#utility.yul\":187:199   */\n      revert\n        /* \"#utility.yul\":211:328   */\n    tag_300:\n        /* \"#utility.yul\":320:321   */\n      0x00\n        /* \"#utility.yul\":317:318   */\n      0x00\n        /* \"#utility.yul\":310:322   */\n      revert\n        /* \"#utility.yul\":334:424   */\n    tag_301:\n        /* \"#utility.yul\":368:375   */\n      0x00\n        /* \"#utility.yul\":411:416   */\n      dup2\n        /* \"#utility.yul\":404:417   */\n      iszero\n        /* \"#utility.yul\":397:418   */\n      iszero\n        /* \"#utility.yul\":386:418   */\n      swap1\n      pop\n        /* \"#utility.yul\":334:424   */\n      swap2\n      swap1\n      pop\n      jump\t// out\n        /* \"#utility.yul\":430:546   */\n    tag_302:\n        /* \"#utility.yul\":500:521   */\n      tag_349\n        /* \"#utility.yul\":515:520   */\n      dup2\n        /* \"#utility.yul\":500:521   */\n      tag_301\n      jump\t// in\n    tag_349:\n        /* \"#utility.yul\":493:498   */\n      dup2\n        /* \"#utility.yul\":490:522   */\n      eq\n        /* \"#utility.yul\":480:540   */\n      tag_350\n      jumpi\n        /* \"#utility.yul\":536:537   */\n      0x00\n        /* \"#utility.yul\":533:534   */\n      0x00\n        /* \"#utility.yul\":526:538   */\n      revert\n        /* \"#utility.yul\":480:540   */\n    tag_350:\n        /* \"#utility.yul\":430:546   */\n      pop\n      jump\t// out\n        /* \"#utility.yul\":552:685   */\n    tag_303:\n        /* \"#utility.yul\":595:600   */\n      0x00\n        /* \"#utility.yul\":633:639   */\n      dup2\n        /* \"#utility.yul\":620:640   */\n      calldataload\n        /* \"#utility.yul\":611:640   */\n      swap1\n      pop\n        /* \"#utility.yul\":649:679   */\n      tag_352\n        /* \"#utility.yul\":673:678   */\n      dup2\n        /* \"#utility.yul\":649:679   */\n      tag_302\n      jump\t// in\n    tag_352:\n        /* \"#utility.yul\":552:685   */\n      swap3\n      swap2\n      pop\n      pop\n      jump\t// out\n        /* \"#utility.yul\":691:1014   */\n    tag_29:\n        /* \"#utility.yul\":747:753   */\n      0x00\n        /* \"#utility.yul\":796:798   */\n      0x20\n        /* \"#utility.yul\":784:793   */\n      dup3\n        /* \"#utility.yul\":775:782   */\n      dup5\n        /* \"#utility.yul\":771:794   */\n      sub\n        /* \"#utility.yul\":767:799   */\n      slt\n        /* \"#utility.yul\":764:883   */\n      iszero\n      tag_354\n      jumpi\n        /* \"#utility.yul\":802:881   */\n      tag_355\n      tag_299\n      jump\t// in\n    tag_355:\n        /* \"#utility.yul\":764:883   */\n    tag_354:\n        /* \"#utility.yul\":922:923   */\n      0x00\n        /* \"#utility.yul\":947:997   */\n      tag_356\n        /* \"#utility.yul\":989:996   */\n      dup5\n        /* \"#utility.yul\":980:986   */\n      dup3\n        /* \"#utility.yul\":969:978   */\n      dup6\n        /* \"#utility.yul\":965:987   */\n      add\n        /* \"#utility.yul\":947:997   */\n      tag_303\n      jump\t// in\n    tag_356:\n        /* \"#utility.yul\":937:997   */\n      swap2\n      pop\n        /* \"#utility.yul\":893:1007   */\n      pop\n        /* \"#utility.yul\":691:1014   */\n      swap3\n      swap2\n      pop\n      pop\n      jump\t// out\n        /* \"#utility.yul\":1020:1146   */\n    tag_304:\n        /* \"#utility.yul\":1057:1064   */\n      0x00\n        /* \"#utility.yul\":1097:1139   */\n      0xffffffffffffffffffffffffffffffffffffffff\n        /* \"#utility.yul\":1090:1095   */\n      dup3\n        /* \"#utility.yul\":1086:1140   */\n      and\n        /* \"#utility.yul\":1075:1140   */\n      swap1\n      pop\n        /* \"#utility.yul\":1020:1146   */\n      swap2\n      swap1\n      pop\n      jump\t// out\n        /* \"#utility.yul\":1152:1212   */\n    tag_305:\n        /* \"#utility.yul\":1180:1183   */\n      0x00\n        /* \"#utility.yul\":1201:1206   */\n      dup2\n        /* \"#utility.yul\":1194:1206   */\n      swap1\n      pop\n        /* \"#utility.yul\":1152:1212   */\n      swap2\n      swap1\n      pop\n      jump\t// out\n        /* \"#utility.yul\":1218:1360   */\n    tag_306:\n        /* \"#utility.yul\":1268:1277   */\n      0x00\n        /* \"#utility.yul\":1301:1354   */\n      tag_360\n        /* \"#utility.yul\":1319:1353   */\n      tag_361\n        /* \"#utility.yul\":1328:1352   */\n      tag_362\n        /* \"#utility.yul\":1346:1351   */\n      dup5\n        /* \"#utility.yul\":1328:1352   */\n      tag_304\n      jump\t// in\n    tag_362:\n        /* \"#utility.yul\":1319:1353   */\n      tag_305\n      jump\t// in\n    tag_361:\n        /* \"#utility.yul\":1301:1354   */\n      tag_304\n      jump\t// in\n    tag_360:\n        /* \"#utility.yul\":1288:1354   */\n      swap1\n      pop\n        /* \"#utility.yul\":1218:1360   */\n      swap2\n      swap1\n      pop\n      jump\t// out\n        /* \"#utility.yul\":1366:1492   */\n    tag_307:\n        /* \"#utility.yul\":1416:1425   */\n      0x00\n        /* \"#utility.yul\":1449:1486   */\n      tag_364\n        /* \"#utility.yul\":1480:1485   */\n      dup3\n        /* \"#utility.yul\":1449:1486   */\n      tag_306\n      jump\t// in\n    tag_364:\n        /* \"#utility.yul\":1436:1486   */\n      swap1\n      pop\n        /* \"#utility.yul\":1366:1492   */\n      swap2\n      swap1\n      pop\n      jump\t// out\n        /* \"#utility.yul\":1498:1638   */\n    tag_308:\n        /* \"#utility.yul\":1562:1571   */\n      0x00\n        /* \"#utility.yul\":1595:1632   */\n      tag_366\n        /* \"#utility.yul\":1626:1631   */\n      dup3\n        /* \"#utility.yul\":1595:1632   */\n      tag_307\n      jump\t// in\n    tag_366:\n        /* \"#utility.yul\":1582:1632   */\n      swap1\n      pop\n        /* \"#utility.yul\":1498:1638   */\n      swap2\n      swap1\n      pop\n      jump\t// out\n        /* \"#utility.yul\":1644:1803   */\n    tag_309:\n        /* \"#utility.yul\":1745:1796   */\n      tag_368\n        /* \"#utility.yul\":1790:1795   */\n      dup2\n        /* \"#utility.yul\":1745:1796   */\n      tag_308\n      jump\t// in\n    tag_368:\n        /* \"#utility.yul\":1740:1743   */\n      dup3\n        /* \"#utility.yul\":1733:1797   */\n      mstore\n        /* \"#utility.yul\":1644:1803   */\n      pop\n      pop\n      jump\t// out\n        /* \"#utility.yul\":1809:1962   */\n    tag_310:\n        /* \"#utility.yul\":1886:1895   */\n      0x00\n        /* \"#utility.yul\":1919:1956   */\n      tag_370\n        /* \"#utility.yul\":1950:1955   */\n      dup3\n        /* \"#utility.yul\":1919:1956   */\n      tag_307\n      jump\t// in\n    tag_370:\n        /* \"#utility.yul\":1906:1956   */\n      swap1\n      pop\n        /* \"#utility.yul\":1809:1962   */\n      swap2\n      swap1\n      pop\n      jump\t// out\n        /* \"#utility.yul\":1968:2153   */\n    tag_311:\n        /* \"#utility.yul\":2082:2146   */\n      tag_372\n        /* \"#utility.yul\":2140:2145   */\n      dup2\n        /* \"#utility.yul\":2082:2146   */\n      tag_310\n      jump\t// in\n    tag_372:\n        /* \"#utility.yul\":2077:2080   */\n      dup3\n        /* \"#utility.yul\":2070:2147   */\n      mstore\n        /* \"#utility.yul\":1968:2153   */\n      pop\n      pop\n      jump\t// out\n        /* \"#utility.yul\":2159:2236   */\n    tag_312:\n        /* \"#utility.yul\":2196:2203   */\n      0x00\n        /* \"#utility.yul\":2225:2230   */\n      dup2\n        /* \"#utility.yul\":2214:2230   */\n      swap1\n      pop\n        /* \"#utility.yul\":2159:2236   */\n      swap2\n      swap1\n      pop\n      jump\t// out\n        /* \"#utility.yul\":2242:2360   */\n    tag_313:\n        /* \"#utility.yul\":2329:2353   */\n      tag_375\n        /* \"#utility.yul\":2347:2352   */\n      dup2\n        /* \"#utility.yul\":2329:2353   */\n      tag_312\n      jump\t// in\n    tag_375:\n        /* \"#utility.yul\":2324:2327   */\n      dup3\n        /* \"#utility.yul\":2317:2354   */\n      mstore\n        /* \"#utility.yul\":2242:2360   */\n      pop\n      pop\n      jump\t// out\n        /* \"#utility.yul\":2366:2462   */\n    tag_314:\n        /* \"#utility.yul\":2403:2410   */\n      0x00\n        /* \"#utility.yul\":2432:2456   */\n      tag_377\n        /* \"#utility.yul\":2450:2455   */\n      dup3\n        /* \"#utility.yul\":2432:2456   */\n      tag_304\n      jump\t// in\n    tag_377:\n        /* \"#utility.yul\":2421:2456   */\n      swap1\n      pop\n        /* \"#utility.yul\":2366:2462   */\n      swap2\n      swap1\n      pop\n      jump\t// out\n        /* \"#utility.yul\":2468:2586   */\n    tag_315:\n        /* \"#utility.yul\":2555:2579   */\n      tag_379\n        /* \"#utility.yul\":2573:2578   */\n      dup2\n        /* \"#utility.yul\":2555:2579   */\n      tag_314\n      jump\t// in\n    tag_379:\n        /* \"#utility.yul\":2550:2553   */\n      dup3\n        /* \"#utility.yul\":2543:2580   */\n      mstore\n        /* \"#utility.yul\":2468:2586   */\n      pop\n      pop\n      jump\t// out\n        /* \"#utility.yul\":2592:2678   */\n    tag_316:\n        /* \"#utility.yul\":2627:2634   */\n      0x00\n        /* \"#utility.yul\":2667:2671   */\n      0xff\n        /* \"#utility.yul\":2660:2665   */\n      dup3\n        /* \"#utility.yul\":2656:2672   */\n      and\n        /* \"#utility.yul\":2645:2672   */\n      swap1\n      pop\n        /* \"#utility.yul\":2592:2678   */\n      swap2\n      swap1\n      pop\n      jump\t// out\n        /* \"#utility.yul\":2684:2796   */\n    tag_317:\n        /* \"#utility.yul\":2767:2789   */\n      tag_382\n        /* \"#utility.yul\":2783:2788   */\n      dup2\n        /* \"#utility.yul\":2767:2789   */\n      tag_316\n      jump\t// in\n    tag_382:\n        /* \"#utility.yul\":2762:2765   */\n      dup3\n        /* \"#utility.yul\":2755:2790   */\n      mstore\n        /* \"#utility.yul\":2684:2796   */\n      pop\n      pop\n      jump\t// out\n        /* \"#utility.yul\":2802:2910   */\n    tag_318:\n        /* \"#utility.yul\":2879:2903   */\n      tag_384\n        /* \"#utility.yul\":2897:2902   */\n      dup2\n        /* \"#utility.yul\":2879:2903   */\n      tag_312\n      jump\t// in\n    tag_384:\n        /* \"#utility.yul\":2874:2877   */\n      dup3\n        /* \"#utility.yul\":2867:2904   */\n      mstore\n        /* \"#utility.yul\":2802:2910   */\n      pop\n      pop\n      jump\t// out\n        /* \"#utility.yul\":2916:3030   */\n    tag_319:\n        /* \"#utility.yul\":2953:2960   */\n      0x00\n        /* \"#utility.yul\":2993:3023   */\n      0xffffffffffffffffffffffffffff\n        /* \"#utility.yul\":2986:2991   */\n      dup3\n        /* \"#utility.yul\":2982:3024   */\n      and\n        /* \"#utility.yul\":2971:3024   */\n      swap1\n      pop\n        /* \"#utility.yul\":2916:3030   */\n      swap2\n      swap1\n      pop\n      jump\t// out\n        /* \"#utility.yul\":3036:3144   */\n    tag_320:\n        /* \"#utility.yul\":3113:3137   */\n      tag_387\n        /* \"#utility.yul\":3131:3136   */\n      dup2\n        /* \"#utility.yul\":3113:3137   */\n      tag_319\n      jump\t// in\n    tag_387:\n        /* \"#utility.yul\":3108:3111   */\n      dup3\n        /* \"#utility.yul\":3101:3138   */\n      mstore\n        /* \"#utility.yul\":3036:3144   */\n      pop\n      pop\n      jump\t// out\n        /* \"#utility.yul\":3150:3243   */\n    tag_321:\n        /* \"#utility.yul\":3186:3193   */\n      0x00\n        /* \"#utility.yul\":3226:3236   */\n      0xffffffff\n        /* \"#utility.yul\":3219:3224   */\n      dup3\n        /* \"#utility.yul\":3215:3237   */\n      and\n        /* \"#utility.yul\":3204:3237   */\n      swap1\n      pop\n        /* \"#utility.yul\":3150:3243   */\n      swap2\n      swap1\n      pop\n      jump\t// out\n        /* \"#utility.yul\":3249:3354   */\n    tag_322:\n        /* \"#utility.yul\":3324:3347   */\n      tag_390\n        /* \"#utility.yul\":3341:3346   */\n      dup2\n        /* \"#utility.yul\":3324:3347   */\n      tag_321\n      jump\t// in\n    tag_390:\n        /* \"#utility.yul\":3319:3322   */\n      dup3\n        /* \"#utility.yul\":3312:3348   */\n      mstore\n        /* \"#utility.yul\":3249:3354   */\n      pop\n      pop\n      jump\t// out\n        /* \"#utility.yul\":3430:5015   */\n    tag_323:\n        /* \"#utility.yul\":3591:3597   */\n      0x0100\n        /* \"#utility.yul\":3586:3589   */\n      dup3\n        /* \"#utility.yul\":3582:3598   */\n      add\n        /* \"#utility.yul\":3688:3692   */\n      0x00\n        /* \"#utility.yul\":3681:3686   */\n      dup3\n        /* \"#utility.yul\":3677:3693   */\n      add\n        /* \"#utility.yul\":3671:3694   */\n      mload\n        /* \"#utility.yul\":3707:3770   */\n      tag_392\n        /* \"#utility.yul\":3764:3768   */\n      0x00\n        /* \"#utility.yul\":3759:3762   */\n      dup6\n        /* \"#utility.yul\":3755:3769   */\n      add\n        /* \"#utility.yul\":3741:3753   */\n      dup3\n        /* \"#utility.yul\":3707:3770   */\n      tag_318\n      jump\t// in\n    tag_392:\n        /* \"#utility.yul\":3608:3780   */\n      pop\n        /* \"#utility.yul\":3865:3869   */\n      0x20\n        /* \"#utility.yul\":3858:3863   */\n      dup3\n        /* \"#utility.yul\":3854:3870   */\n      add\n        /* \"#utility.yul\":3848:3871   */\n      mload\n        /* \"#utility.yul\":3884:3947   */\n      tag_393\n        /* \"#utility.yul\":3941:3945   */\n      0x20\n        /* \"#utility.yul\":3936:3939   */\n      dup6\n        /* \"#utility.yul\":3932:3946   */\n      add\n        /* \"#utility.yul\":3918:3930   */\n      dup3\n        /* \"#utility.yul\":3884:3947   */\n      tag_318\n      jump\t// in\n    tag_393:\n        /* \"#utility.yul\":3790:3957   */\n      pop\n        /* \"#utility.yul\":4042:4046   */\n      0x40\n        /* \"#utility.yul\":4035:4040   */\n      dup3\n        /* \"#utility.yul\":4031:4047   */\n      add\n        /* \"#utility.yul\":4025:4048   */\n      mload\n        /* \"#utility.yul\":4061:4124   */\n      tag_394\n        /* \"#utility.yul\":4118:4122   */\n      0x40\n        /* \"#utility.yul\":4113:4116   */\n      dup6\n        /* \"#utility.yul\":4109:4123   */\n      add\n        /* \"#utility.yul\":4095:4107   */\n      dup3\n        /* \"#utility.yul\":4061:4124   */\n      tag_318\n      jump\t// in\n    tag_394:\n        /* \"#utility.yul\":3967:4134   */\n      pop\n        /* \"#utility.yul\":4215:4219   */\n      0x60\n        /* \"#utility.yul\":4208:4213   */\n      dup3\n        /* \"#utility.yul\":4204:4220   */\n      add\n        /* \"#utility.yul\":4198:4221   */\n      mload\n        /* \"#utility.yul\":4234:4297   */\n      tag_395\n        /* \"#utility.yul\":4291:4295   */\n      0x60\n        /* \"#utility.yul\":4286:4289   */\n      dup6\n        /* \"#utility.yul\":4282:4296   */\n      add\n        /* \"#utility.yul\":4268:4280   */\n      dup3\n        /* \"#utility.yul\":4234:4297   */\n      tag_318\n      jump\t// in\n    tag_395:\n        /* \"#utility.yul\":4144:4307   */\n      pop\n        /* \"#utility.yul\":4388:4392   */\n      0x80\n        /* \"#utility.yul\":4381:4386   */\n      dup3\n        /* \"#utility.yul\":4377:4393   */\n      add\n        /* \"#utility.yul\":4371:4394   */\n      mload\n        /* \"#utility.yul\":4407:4470   */\n      tag_396\n        /* \"#utility.yul\":4464:4468   */\n      0x80\n        /* \"#utility.yul\":4459:4462   */\n      dup6\n        /* \"#utility.yul\":4455:4469   */\n      add\n        /* \"#utility.yul\":4441:4453   */\n      dup3\n        /* \"#utility.yul\":4407:4470   */\n      tag_318\n      jump\t// in\n    tag_396:\n        /* \"#utility.yul\":4317:4480   */\n      pop\n        /* \"#utility.yul\":4563:4567   */\n      0xa0\n        /* \"#utility.yul\":4556:4561   */\n      dup3\n        /* \"#utility.yul\":4552:4568   */\n      add\n        /* \"#utility.yul\":4546:4569   */\n      mload\n        /* \"#utility.yul\":4582:4645   */\n      tag_397\n        /* \"#utility.yul\":4639:4643   */\n      0xa0\n        /* \"#utility.yul\":4634:4637   */\n      dup6\n        /* \"#utility.yul\":4630:4644   */\n      add\n        /* \"#utility.yul\":4616:4628   */\n      dup3\n        /* \"#utility.yul\":4582:4645   */\n      tag_320\n      jump\t// in\n    tag_397:\n        /* \"#utility.yul\":4490:4655   */\n      pop\n        /* \"#utility.yul\":4736:4740   */\n      0xc0\n        /* \"#utility.yul\":4729:4734   */\n      dup3\n        /* \"#utility.yul\":4725:4741   */\n      add\n        /* \"#utility.yul\":4719:4742   */\n      mload\n        /* \"#utility.yul\":4755:4818   */\n      tag_398\n        /* \"#utility.yul\":4812:4816   */\n      0xc0\n        /* \"#utility.yul\":4807:4810   */\n      dup6\n        /* \"#utility.yul\":4803:4817   */\n      add\n        /* \"#utility.yul\":4789:4801   */\n      dup3\n        /* \"#utility.yul\":4755:4818   */\n      tag_320\n      jump\t// in\n    tag_398:\n        /* \"#utility.yul\":4665:4828   */\n      pop\n        /* \"#utility.yul\":4918:4922   */\n      0xe0\n        /* \"#utility.yul\":4911:4916   */\n      dup3\n        /* \"#utility.yul\":4907:4923   */\n      add\n        /* \"#utility.yul\":4901:4924   */\n      mload\n        /* \"#utility.yul\":4937:4998   */\n      tag_399\n        /* \"#utility.yul\":4992:4996   */\n      0xe0\n        /* \"#utility.yul\":4987:4990   */\n      dup6\n        /* \"#utility.yul\":4983:4997   */\n      add\n        /* \"#utility.yul\":4969:4981   */\n      dup3\n        /* \"#utility.yul\":4937:4998   */\n      tag_322\n      jump\t// in\n    tag_399:\n        /* \"#utility.yul\":4838:5008   */\n      pop\n        /* \"#utility.yul\":3560:5015   */\n      pop\n        /* \"#utility.yul\":3430:5015   */\n      pop\n      pop\n      jump\t// out\n        /* \"#utility.yul\":5021:6331   */\n    tag_35:\n        /* \"#utility.yul\":5439:5443   */\n      0x00\n        /* \"#utility.yul\":5477:5480   */\n      0x0200\n        /* \"#utility.yul\":5466:5475   */\n      dup3\n        /* \"#utility.yul\":5462:5481   */\n      add\n        /* \"#utility.yul\":5454:5481   */\n      swap1\n      pop\n        /* \"#utility.yul\":5491:5576   */\n      tag_401\n        /* \"#utility.yul\":5573:5574   */\n      0x00\n        /* \"#utility.yul\":5562:5571   */\n      dup4\n        /* \"#utility.yul\":5558:5575   */\n      add\n        /* \"#utility.yul\":5549:5555   */\n      dup13\n        /* \"#utility.yul\":5491:5576   */\n      tag_309\n      jump\t// in\n    tag_401:\n        /* \"#utility.yul\":5586:5685   */\n      tag_402\n        /* \"#utility.yul\":5681:5683   */\n      0x20\n        /* \"#utility.yul\":5670:5679   */\n      dup4\n        /* \"#utility.yul\":5666:5684   */\n      add\n        /* \"#utility.yul\":5657:5663   */\n      dup12\n        /* \"#utility.yul\":5586:5685   */\n      tag_311\n      jump\t// in\n    tag_402:\n        /* \"#utility.yul\":5695:5767   */\n      tag_403\n        /* \"#utility.yul\":5763:5765   */\n      0x40\n        /* \"#utility.yul\":5752:5761   */\n      dup4\n        /* \"#utility.yul\":5748:5766   */\n      add\n        /* \"#utility.yul\":5739:5745   */\n      dup11\n        /* \"#utility.yul\":5695:5767   */\n      tag_313\n      jump\t// in\n    tag_403:\n        /* \"#utility.yul\":5777:5849   */\n      tag_404\n        /* \"#utility.yul\":5845:5847   */\n      0x60\n        /* \"#utility.yul\":5834:5843   */\n      dup4\n        /* \"#utility.yul\":5830:5848   */\n      add\n        /* \"#utility.yul\":5821:5827   */\n      dup10\n        /* \"#utility.yul\":5777:5849   */\n      tag_313\n      jump\t// in\n    tag_404:\n        /* \"#utility.yul\":5859:5932   */\n      tag_405\n        /* \"#utility.yul\":5927:5930   */\n      0x80\n        /* \"#utility.yul\":5916:5925   */\n      dup4\n        /* \"#utility.yul\":5912:5931   */\n      add\n        /* \"#utility.yul\":5903:5909   */\n      dup9\n        /* \"#utility.yul\":5859:5932   */\n      tag_313\n      jump\t// in\n    tag_405:\n        /* \"#utility.yul\":5942:6015   */\n      tag_406\n        /* \"#utility.yul\":6010:6013   */\n      0xa0\n        /* \"#utility.yul\":5999:6008   */\n      dup4\n        /* \"#utility.yul\":5995:6014   */\n      add\n        /* \"#utility.yul\":5986:5992   */\n      dup8\n        /* \"#utility.yul\":5942:6015   */\n      tag_313\n      jump\t// in\n    tag_406:\n        /* \"#utility.yul\":6025:6098   */\n      tag_407\n        /* \"#utility.yul\":6093:6096   */\n      0xc0\n        /* \"#utility.yul\":6082:6091   */\n      dup4\n        /* \"#utility.yul\":6078:6097   */\n      add\n        /* \"#utility.yul\":6069:6075   */\n      dup7\n        /* \"#utility.yul\":6025:6098   */\n      tag_315\n      jump\t// in\n    tag_407:\n        /* \"#utility.yul\":6108:6177   */\n      tag_408\n        /* \"#utility.yul\":6172:6175   */\n      0xe0\n        /* \"#utility.yul\":6161:6170   */\n      dup4\n        /* \"#utility.yul\":6157:6176   */\n      add\n        /* \"#utility.yul\":6148:6154   */\n      dup6\n        /* \"#utility.yul\":6108:6177   */\n      tag_317\n      jump\t// in\n    tag_408:\n        /* \"#utility.yul\":6187:6324   */\n      tag_409\n        /* \"#utility.yul\":6319:6322   */\n      0x0100\n        /* \"#utility.yul\":6308:6317   */\n      dup4\n        /* \"#utility.yul\":6304:6323   */\n      add\n        /* \"#utility.yul\":6295:6301   */\n      dup5\n        /* \"#utility.yul\":6187:6324   */\n      tag_323\n      jump\t// in\n    tag_409:\n        /* \"#utility.yul\":5021:6331   */\n      swap11\n      swap10\n      pop\n      pop\n      pop\n      pop\n      pop\n      pop\n      pop\n      pop\n      pop\n      pop\n      jump\t// out\n        /* \"#utility.yul\":6337:6446   */\n    tag_324:\n        /* \"#utility.yul\":6418:6439   */\n      tag_411\n        /* \"#utility.yul\":6433:6438   */\n      dup2\n        /* \"#utility.yul\":6418:6439   */\n      tag_301\n      jump\t// in\n    tag_411:\n        /* \"#utility.yul\":6413:6416   */\n      dup3\n        /* \"#utility.yul\":6406:6440   */\n      mstore\n        /* \"#utility.yul\":6337:6446   */\n      pop\n      pop\n      jump\t// out\n        /* \"#utility.yul\":6452:6662   */\n    tag_40:\n        /* \"#utility.yul\":6539:6543   */\n      0x00\n        /* \"#utility.yul\":6577:6579   */\n      0x20\n        /* \"#utility.yul\":6566:6575   */\n      dup3\n        /* \"#utility.yul\":6562:6580   */\n      add\n        /* \"#utility.yul\":6554:6580   */\n      swap1\n      pop\n        /* \"#utility.yul\":6590:6655   */\n      tag_413\n        /* \"#utility.yul\":6652:6653   */\n      0x00\n        /* \"#utility.yul\":6641:6650   */\n      dup4\n        /* \"#utility.yul\":6637:6654   */\n      add\n        /* \"#utility.yul\":6628:6634   */\n      dup5\n        /* \"#utility.yul\":6590:6655   */\n      tag_324\n      jump\t// in\n    tag_413:\n        /* \"#utility.yul\":6452:6662   */\n      swap3\n      swap2\n      pop\n      pop\n      jump\t// out\n        /* \"#utility.yul\":6668:6790   */\n    tag_325:\n        /* \"#utility.yul\":6741:6765   */\n      tag_415\n        /* \"#utility.yul\":6759:6764   */\n      dup2\n        /* \"#utility.yul\":6741:6765   */\n      tag_314\n      jump\t// in\n    tag_415:\n        /* \"#utility.yul\":6734:6739   */\n      dup2\n        /* \"#utility.yul\":6731:6766   */\n      eq\n        /* \"#utility.yul\":6721:6784   */\n      tag_416\n      jumpi\n        /* \"#utility.yul\":6780:6781   */\n      0x00\n        /* \"#utility.yul\":6777:6778   */\n      0x00\n        /* \"#utility.yul\":6770:6782   */\n      revert\n        /* \"#utility.yul\":6721:6784   */\n    tag_416:\n        /* \"#utility.yul\":6668:6790   */\n      pop\n      jump\t// out\n        /* \"#utility.yul\":6796:6935   */\n    tag_326:\n        /* \"#utility.yul\":6842:6847   */\n      0x00\n        /* \"#utility.yul\":6880:6886   */\n      dup2\n        /* \"#utility.yul\":6867:6887   */\n      calldataload\n        /* \"#utility.yul\":6858:6887   */\n      swap1\n      pop\n        /* \"#utility.yul\":6896:6929   */\n      tag_418\n        /* \"#utility.yul\":6923:6928   */\n      dup2\n        /* \"#utility.yul\":6896:6929   */\n      tag_325\n      jump\t// in\n    tag_418:\n        /* \"#utility.yul\":6796:6935   */\n      swap3\n      swap2\n      pop\n      pop\n      jump\t// out\n        /* \"#utility.yul\":6941:7270   */\n    tag_44:\n        /* \"#utility.yul\":7000:7006   */\n      0x00\n        /* \"#utility.yul\":7049:7051   */\n      0x20\n        /* \"#utility.yul\":7037:7046   */\n      dup3\n        /* \"#utility.yul\":7028:7035   */\n      dup5\n        /* \"#utility.yul\":7024:7047   */\n      sub\n        /* \"#utility.yul\":7020:7052   */\n      slt\n        /* \"#utility.yul\":7017:7136   */\n      iszero\n      tag_420\n      jumpi\n        /* \"#utility.yul\":7055:7134   */\n      tag_421\n      tag_299\n      jump\t// in\n    tag_421:\n        /* \"#utility.yul\":7017:7136   */\n    tag_420:\n        /* \"#utility.yul\":7175:7176   */\n      0x00\n        /* \"#utility.yul\":7200:7253   */\n      tag_422\n        /* \"#utility.yul\":7245:7252   */\n      dup5\n        /* \"#utility.yul\":7236:7242   */\n      dup3\n        /* \"#utility.yul\":7225:7234   */\n      dup6\n        /* \"#utility.yul\":7221:7243   */\n      add\n        /* \"#utility.yul\":7200:7253   */\n      tag_326\n      jump\t// in\n    tag_422:\n        /* \"#utility.yul\":7190:7253   */\n      swap2\n      pop\n        /* \"#utility.yul\":7146:7263   */\n      pop\n        /* \"#utility.yul\":6941:7270   */\n      swap3\n      swap2\n      pop\n      pop\n      jump\t// out\n        /* \"#utility.yul\":7276:7498   */\n    tag_47:\n        /* \"#utility.yul\":7369:7373   */\n      0x00\n        /* \"#utility.yul\":7407:7409   */\n      0x20\n        /* \"#utility.yul\":7396:7405   */\n      dup3\n        /* \"#utility.yul\":7392:7410   */\n      add\n        /* \"#utility.yul\":7384:7410   */\n      swap1\n      pop\n        /* \"#utility.yul\":7420:7491   */\n      tag_424\n        /* \"#utility.yul\":7488:7489   */\n      0x00\n        /* \"#utility.yul\":7477:7486   */\n      dup4\n        /* \"#utility.yul\":7473:7490   */\n      add\n        /* \"#utility.yul\":7464:7470   */\n      dup5\n        /* \"#utility.yul\":7420:7491   */\n      tag_313\n      jump\t// in\n    tag_424:\n        /* \"#utility.yul\":7276:7498   */\n      swap3\n      swap2\n      pop\n      pop\n      jump\t// out\n        /* \"#utility.yul\":7504:7621   */\n    tag_327:\n        /* \"#utility.yul\":7613:7614   */\n      0x00\n        /* \"#utility.yul\":7610:7611   */\n      0x00\n        /* \"#utility.yul\":7603:7615   */\n      revert\n        /* \"#utility.yul\":7627:7744   */\n    tag_328:\n        /* \"#utility.yul\":7736:7737   */\n      0x00\n        /* \"#utility.yul\":7733:7734   */\n      0x00\n        /* \"#utility.yul\":7726:7738   */\n      revert\n        /* \"#utility.yul\":7750:7867   */\n    tag_329:\n        /* \"#utility.yul\":7859:7860   */\n      0x00\n        /* \"#utility.yul\":7856:7857   */\n      0x00\n        /* \"#utility.yul\":7849:7861   */\n      revert\n        /* \"#utility.yul\":7890:8458   */\n    tag_330:\n        /* \"#utility.yul\":7963:7971   */\n      0x00\n        /* \"#utility.yul\":7973:7979   */\n      0x00\n        /* \"#utility.yul\":8023:8026   */\n      dup4\n        /* \"#utility.yul\":8016:8020   */\n      0x1f\n        /* \"#utility.yul\":8008:8014   */\n      dup5\n        /* \"#utility.yul\":8004:8021   */\n      add\n        /* \"#utility.yul\":8000:8027   */\n      slt\n        /* \"#utility.yul\":7990:8112   */\n      tag_429\n      jumpi\n        /* \"#utility.yul\":8031:8110   */\n      tag_430\n      tag_327\n      jump\t// in\n    tag_430:\n        /* \"#utility.yul\":7990:8112   */\n    tag_429:\n        /* \"#utility.yul\":8144:8150   */\n      dup3\n        /* \"#utility.yul\":8131:8151   */\n      calldataload\n        /* \"#utility.yul\":8121:8151   */\n      swap1\n      pop\n        /* \"#utility.yul\":8174:8192   */\n      0xffffffffffffffff\n        /* \"#utility.yul\":8166:8172   */\n      dup2\n        /* \"#utility.yul\":8163:8193   */\n      gt\n        /* \"#utility.yul\":8160:8277   */\n      iszero\n      tag_431\n      jumpi\n        /* \"#utility.yul\":8196:8275   */\n      tag_432\n      tag_328\n      jump\t// in\n    tag_432:\n        /* \"#utility.yul\":8160:8277   */\n    tag_431:\n        /* \"#utility.yul\":8310:8314   */\n      0x20\n        /* \"#utility.yul\":8302:8308   */\n      dup4\n        /* \"#utility.yul\":8298:8315   */\n      add\n        /* \"#utility.yul\":8286:8315   */\n      swap2\n      pop\n        /* \"#utility.yul\":8364:8367   */\n      dup4\n        /* \"#utility.yul\":8356:8360   */\n      0x20\n        /* \"#utility.yul\":8348:8354   */\n      dup3\n        /* \"#utility.yul\":8344:8361   */\n      mul\n        /* \"#utility.yul\":8334:8342   */\n      dup4\n        /* \"#utility.yul\":8330:8362   */\n      add\n        /* \"#utility.yul\":8327:8368   */\n      gt\n        /* \"#utility.yul\":8324:8452   */\n      iszero\n      tag_433\n      jumpi\n        /* \"#utility.yul\":8371:8450   */\n      tag_434\n      tag_329\n      jump\t// in\n    tag_434:\n        /* \"#utility.yul\":8324:8452   */\n    tag_433:\n        /* \"#utility.yul\":7890:8458   */\n      swap3\n      pop\n      swap3\n      swap1\n      pop\n      jump\t// out\n        /* \"#utility.yul\":8464:9023   */\n    tag_59:\n        /* \"#utility.yul\":8550:8556   */\n      0x00\n        /* \"#utility.yul\":8558:8564   */\n      0x00\n        /* \"#utility.yul\":8607:8609   */\n      0x20\n        /* \"#utility.yul\":8595:8604   */\n      dup4\n        /* \"#utility.yul\":8586:8593   */\n      dup6\n        /* \"#utility.yul\":8582:8605   */\n      sub\n        /* \"#utility.yul\":8578:8610   */\n      slt\n        /* \"#utility.yul\":8575:8694   */\n      iszero\n      tag_436\n      jumpi\n        /* \"#utility.yul\":8613:8692   */\n      tag_437\n      tag_299\n      jump\t// in\n    tag_437:\n        /* \"#utility.yul\":8575:8694   */\n    tag_436:\n        /* \"#utility.yul\":8761:8762   */\n      0x00\n        /* \"#utility.yul\":8750:8759   */\n      dup4\n        /* \"#utility.yul\":8746:8763   */\n      add\n        /* \"#utility.yul\":8733:8764   */\n      calldataload\n        /* \"#utility.yul\":8791:8809   */\n      0xffffffffffffffff\n        /* \"#utility.yul\":8783:8789   */\n      dup2\n        /* \"#utility.yul\":8780:8810   */\n      gt\n        /* \"#utility.yul\":8777:8894   */\n      iszero\n      tag_438\n      jumpi\n        /* \"#utility.yul\":8813:8892   */\n      tag_439\n      tag_300\n      jump\t// in\n    tag_439:\n        /* \"#utility.yul\":8777:8894   */\n    tag_438:\n        /* \"#utility.yul\":8926:9006   */\n      tag_440\n        /* \"#utility.yul\":8998:9005   */\n      dup6\n        /* \"#utility.yul\":8989:8995   */\n      dup3\n        /* \"#utility.yul\":8978:8987   */\n      dup7\n        /* \"#utility.yul\":8974:8996   */\n      add\n        /* \"#utility.yul\":8926:9006   */\n      tag_330\n      jump\t// in\n    tag_440:\n        /* \"#utility.yul\":8908:9006   */\n      swap3\n      pop\n      swap3\n      pop\n        /* \"#utility.yul\":8704:9016   */\n      pop\n        /* \"#utility.yul\":8464:9023   */\n      swap3\n      pop\n      swap3\n      swap1\n      pop\n      jump\t// out\n        /* \"#utility.yul\":9029:9251   */\n    tag_76:\n        /* \"#utility.yul\":9122:9126   */\n      0x00\n        /* \"#utility.yul\":9160:9162   */\n      0x20\n        /* \"#utility.yul\":9149:9158   */\n      dup3\n        /* \"#utility.yul\":9145:9163   */\n      add\n        /* \"#utility.yul\":9137:9163   */\n      swap1\n      pop\n        /* \"#utility.yul\":9173:9244   */\n      tag_442\n        /* \"#utility.yul\":9241:9242   */\n      0x00\n        /* \"#utility.yul\":9230:9239   */\n      dup4\n        /* \"#utility.yul\":9226:9243   */\n      add\n        /* \"#utility.yul\":9217:9223   */\n      dup5\n        /* \"#utility.yul\":9173:9244   */\n      tag_315\n      jump\t// in\n    tag_442:\n        /* \"#utility.yul\":9029:9251   */\n      swap3\n      swap2\n      pop\n      pop\n      jump\t// out\n        /* \"#utility.yul\":9257:9437   */\n    tag_331:\n        /* \"#utility.yul\":9305:9382   */\n      0x4e487b7100000000000000000000000000000000000000000000000000000000\n        /* \"#utility.yul\":9302:9303   */\n      0x00\n        /* \"#utility.yul\":9295:9383   */\n      mstore\n        /* \"#utility.yul\":9402:9406   */\n      0x11\n        /* \"#utility.yul\":9399:9400   */\n      0x04\n        /* \"#utility.yul\":9392:9407   */\n      mstore\n        /* \"#utility.yul\":9426:9430   */\n      0x24\n        /* \"#utility.yul\":9423:9424   */\n      0x00\n        /* \"#utility.yul\":9416:9431   */\n      revert\n        /* \"#utility.yul\":9443:9634   */\n    tag_106:\n        /* \"#utility.yul\":9483:9486   */\n      0x00\n        /* \"#utility.yul\":9502:9522   */\n      tag_445\n        /* \"#utility.yul\":9520:9521   */\n      dup3\n        /* \"#utility.yul\":9502:9522   */\n      tag_312\n      jump\t// in\n    tag_445:\n        /* \"#utility.yul\":9497:9522   */\n      swap2\n      pop\n        /* \"#utility.yul\":9536:9556   */\n      tag_446\n        /* \"#utility.yul\":9554:9555   */\n      dup4\n        /* \"#utility.yul\":9536:9556   */\n      tag_312\n      jump\t// in\n    tag_446:\n        /* \"#utility.yul\":9531:9556   */\n      swap3\n      pop\n        /* \"#utility.yul\":9579:9580   */\n      dup3\n        /* \"#utility.yul\":9576:9577   */\n      dup3\n        /* \"#utility.yul\":9572:9581   */\n      add\n        /* \"#utility.yul\":9565:9581   */\n      swap1\n      pop\n        /* \"#utility.yul\":9600:9603   */\n      dup1\n        /* \"#utility.yul\":9597:9598   */\n      dup3\n        /* \"#utility.yul\":9594:9604   */\n      gt\n        /* \"#utility.yul\":9591:9627   */\n      iszero\n      tag_447\n      jumpi\n        /* \"#utility.yul\":9607:9625   */\n      tag_448\n      tag_331\n      jump\t// in\n    tag_448:\n        /* \"#utility.yul\":9591:9627   */\n    tag_447:\n        /* \"#utility.yul\":9443:9634   */\n      swap3\n      swap2\n      pop\n      pop\n      jump\t// out\n        /* \"#utility.yul\":9640:9854   */\n    tag_122:\n        /* \"#utility.yul\":9729:9733   */\n      0x00\n        /* \"#utility.yul\":9767:9769   */\n      0x20\n        /* \"#utility.yul\":9756:9765   */\n      dup3\n        /* \"#utility.yul\":9752:9770   */\n      add\n        /* \"#utility.yul\":9744:9770   */\n      swap1\n      pop\n        /* \"#utility.yul\":9780:9847   */\n      tag_450\n        /* \"#utility.yul\":9844:9845   */\n      0x00\n        /* \"#utility.yul\":9833:9842   */\n      dup4\n        /* \"#utility.yul\":9829:9846   */\n      add\n        /* \"#utility.yul\":9820:9826   */\n      dup5\n        /* \"#utility.yul\":9780:9847   */\n      tag_317\n      jump\t// in\n    tag_450:\n        /* \"#utility.yul\":9640:9854   */\n      swap3\n      swap2\n      pop\n      pop\n      jump\t// out\n        /* \"#utility.yul\":9860:10054   */\n    tag_130:\n        /* \"#utility.yul\":9900:9904   */\n      0x00\n        /* \"#utility.yul\":9920:9940   */\n      tag_452\n        /* \"#utility.yul\":9938:9939   */\n      dup3\n        /* \"#utility.yul\":9920:9940   */\n      tag_312\n      jump\t// in\n    tag_452:\n        /* \"#utility.yul\":9915:9940   */\n      swap2\n      pop\n        /* \"#utility.yul\":9954:9974   */\n      tag_453\n        /* \"#utility.yul\":9972:9973   */\n      dup4\n        /* \"#utility.yul\":9954:9974   */\n      tag_312\n      jump\t// in\n    tag_453:\n        /* \"#utility.yul\":9949:9974   */\n      swap3\n      pop\n        /* \"#utility.yul\":9998:9999   */\n      dup3\n        /* \"#utility.yul\":9995:9996   */\n      dup3\n        /* \"#utility.yul\":9991:10000   */\n      sub\n        /* \"#utility.yul\":9983:10000   */\n      swap1\n      pop\n        /* \"#utility.yul\":10022:10023   */\n      dup2\n        /* \"#utility.yul\":10016:10020   */\n      dup2\n        /* \"#utility.yul\":10013:10024   */\n      gt\n        /* \"#utility.yul\":10010:10047   */\n      iszero\n      tag_454\n      jumpi\n        /* \"#utility.yul\":10027:10045   */\n      tag_455\n      tag_331\n      jump\t// in\n    tag_455:\n        /* \"#utility.yul\":10010:10047   */\n    tag_454:\n        /* \"#utility.yul\":9860:10054   */\n      swap3\n      swap2\n      pop\n      pop\n      jump\t// out\n        /* \"#utility.yul\":10060:10392   */\n    tag_136:\n        /* \"#utility.yul\":10181:10185   */\n      0x00\n        /* \"#utility.yul\":10219:10221   */\n      0x40\n        /* \"#utility.yul\":10208:10217   */\n      dup3\n        /* \"#utility.yul\":10204:10222   */\n      add\n        /* \"#utility.yul\":10196:10222   */\n      swap1\n      pop\n        /* \"#utility.yul\":10232:10303   */\n      tag_457\n        /* \"#utility.yul\":10300:10301   */\n      0x00\n        /* \"#utility.yul\":10289:10298   */\n      dup4\n        /* \"#utility.yul\":10285:10302   */\n      add\n        /* \"#utility.yul\":10276:10282   */\n      dup6\n        /* \"#utility.yul\":10232:10303   */\n      tag_313\n      jump\t// in\n    tag_457:\n        /* \"#utility.yul\":10313:10385   */\n      tag_458\n        /* \"#utility.yul\":10381:10383   */\n      0x20\n        /* \"#utility.yul\":10370:10379   */\n      dup4\n        /* \"#utility.yul\":10366:10384   */\n      add\n        /* \"#utility.yul\":10357:10363   */\n      dup5\n        /* \"#utility.yul\":10313:10385   */\n      tag_313\n      jump\t// in\n    tag_458:\n        /* \"#utility.yul\":10060:10392   */\n      swap4\n      swap3\n      pop\n      pop\n      pop\n      jump\t// out\n        /* \"#utility.yul\":10398:10578   */\n    tag_158:\n        /* \"#utility.yul\":10446:10523   */\n      0x4e487b7100000000000000000000000000000000000000000000000000000000\n        /* \"#utility.yul\":10443:10444   */\n      0x00\n        /* \"#utility.yul\":10436:10524   */\n      mstore\n        /* \"#utility.yul\":10543:10547   */\n      0x32\n        /* \"#utility.yul\":10540:10541   */\n      0x04\n        /* \"#utility.yul\":10533:10548   */\n      mstore\n        /* \"#utility.yul\":10567:10571   */\n      0x24\n        /* \"#utility.yul\":10564:10565   */\n      0x00\n        /* \"#utility.yul\":10557:10572   */\n      revert\n        /* \"#utility.yul\":10584:10994   */\n    tag_210:\n        /* \"#utility.yul\":10624:10631   */\n      0x00\n        /* \"#utility.yul\":10647:10667   */\n      tag_461\n        /* \"#utility.yul\":10665:10666   */\n      dup3\n        /* \"#utility.yul\":10647:10667   */\n      tag_312\n      jump\t// in\n    tag_461:\n        /* \"#utility.yul\":10642:10667   */\n      swap2\n      pop\n        /* \"#utility.yul\":10681:10701   */\n      tag_462\n        /* \"#utility.yul\":10699:10700   */\n      dup4\n        /* \"#utility.yul\":10681:10701   */\n      tag_312\n      jump\t// in\n    tag_462:\n        /* \"#utility.yul\":10676:10701   */\n      swap3\n      pop\n        /* \"#utility.yul\":10736:10737   */\n      dup3\n        /* \"#utility.yul\":10733:10734   */\n      dup3\n        /* \"#utility.yul\":10729:10738   */\n      mul\n        /* \"#utility.yul\":10758:10788   */\n      tag_463\n        /* \"#utility.yul\":10776:10787   */\n      dup2\n        /* \"#utility.yul\":10758:10788   */\n      tag_312\n      jump\t// in\n    tag_463:\n        /* \"#utility.yul\":10747:10788   */\n      swap2\n      pop\n        /* \"#utility.yul\":10937:10938   */\n      dup3\n        /* \"#utility.yul\":10928:10935   */\n      dup3\n        /* \"#utility.yul\":10924:10939   */\n      div\n        /* \"#utility.yul\":10921:10922   */\n      dup5\n        /* \"#utility.yul\":10918:10940   */\n      eq\n        /* \"#utility.yul\":10898:10899   */\n      dup4\n        /* \"#utility.yul\":10891:10900   */\n      iszero\n        /* \"#utility.yul\":10871:10954   */\n      or\n        /* \"#utility.yul\":10848:10987   */\n      tag_464\n      jumpi\n        /* \"#utility.yul\":10967:10985   */\n      tag_465\n      tag_331\n      jump\t// in\n    tag_465:\n        /* \"#utility.yul\":10848:10987   */\n    tag_464:\n        /* \"#utility.yul\":10632:10994   */\n      pop\n        /* \"#utility.yul\":10584:10994   */\n      swap3\n      swap2\n      pop\n      pop\n      jump\t// out\n        /* \"#utility.yul\":11000:11180   */\n    tag_332:\n        /* \"#utility.yul\":11048:11125   */\n      0x4e487b7100000000000000000000000000000000000000000000000000000000\n        /* \"#utility.yul\":11045:11046   */\n      0x00\n        /* \"#utility.yul\":11038:11126   */\n      mstore\n        /* \"#utility.yul\":11145:11149   */\n      0x12\n        /* \"#utility.yul\":11142:11143   */\n      0x04\n        /* \"#utility.yul\":11135:11150   */\n      mstore\n        /* \"#utility.yul\":11169:11173   */\n      0x24\n        /* \"#utility.yul\":11166:11167   */\n      0x00\n        /* \"#utility.yul\":11159:11174   */\n      revert\n        /* \"#utility.yul\":11186:11371   */\n    tag_212:\n        /* \"#utility.yul\":11226:11227   */\n      0x00\n        /* \"#utility.yul\":11243:11263   */\n      tag_468\n        /* \"#utility.yul\":11261:11262   */\n      dup3\n        /* \"#utility.yul\":11243:11263   */\n      tag_312\n      jump\t// in\n    tag_468:\n        /* \"#utility.yul\":11238:11263   */\n      swap2\n      pop\n        /* \"#utility.yul\":11277:11297   */\n      tag_469\n        /* \"#utility.yul\":11295:11296   */\n      dup4\n        /* \"#utility.yul\":11277:11297   */\n      tag_312\n      jump\t// in\n    tag_469:\n        /* \"#utility.yul\":11272:11297   */\n      swap3\n      pop\n        /* \"#utility.yul\":11316:11317   */\n      dup3\n        /* \"#utility.yul\":11306:11341   */\n      tag_470\n      jumpi\n        /* \"#utility.yul\":11321:11339   */\n      tag_471\n      tag_332\n      jump\t// in\n    tag_471:\n        /* \"#utility.yul\":11306:11341   */\n    tag_470:\n        /* \"#utility.yul\":11363:11364   */\n      dup3\n        /* \"#utility.yul\":11360:11361   */\n      dup3\n        /* \"#utility.yul\":11356:11365   */\n      div\n        /* \"#utility.yul\":11351:11365   */\n      swap1\n      pop\n        /* \"#utility.yul\":11186:11371   */\n      swap3\n      swap2\n      pop\n      pop\n      jump\t// out\n        /* \"#utility.yul\":11377:11546   */\n    tag_333:\n        /* \"#utility.yul\":11461:11472   */\n      0x00\n        /* \"#utility.yul\":11495:11501   */\n      dup3\n        /* \"#utility.yul\":11490:11493   */\n      dup3\n        /* \"#utility.yul\":11483:11502   */\n      mstore\n        /* \"#utility.yul\":11535:11539   */\n      0x20\n        /* \"#utility.yul\":11530:11533   */\n      dup3\n        /* \"#utility.yul\":11526:11540   */\n      add\n        /* \"#utility.yul\":11511:11540   */\n      swap1\n      pop\n        /* \"#utility.yul\":11377:11546   */\n      swap3\n      swap2\n      pop\n      pop\n      jump\t// out\n        /* \"#utility.yul\":11552:11733   */\n    tag_334:\n        /* \"#utility.yul\":11692:11725   */\n      0x5265656e7472616e637947756172643a207265656e7472616e742063616c6c00\n        /* \"#utility.yul\":11688:11689   */\n      0x00\n        /* \"#utility.yul\":11680:11686   */\n      dup3\n        /* \"#utility.yul\":11676:11690   */\n      add\n        /* \"#utility.yul\":11669:11726   */\n      mstore\n        /* \"#utility.yul\":11552:11733   */\n      pop\n      jump\t// out\n        /* \"#utility.yul\":11739:12105   */\n    tag_335:\n        /* \"#utility.yul\":11881:11884   */\n      0x00\n        /* \"#utility.yul\":11902:11969   */\n      tag_475\n        /* \"#utility.yul\":11966:11968   */\n      0x1f\n        /* \"#utility.yul\":11961:11964   */\n      dup4\n        /* \"#utility.yul\":11902:11969   */\n      tag_333\n      jump\t// in\n    tag_475:\n        /* \"#utility.yul\":11895:11969   */\n      swap2\n      pop\n        /* \"#utility.yul\":11978:12071   */\n      tag_476\n        /* \"#utility.yul\":12067:12070   */\n      dup3\n        /* \"#utility.yul\":11978:12071   */\n      tag_334\n      jump\t// in\n    tag_476:\n        /* \"#utility.yul\":12096:12098   */\n      0x20\n        /* \"#utility.yul\":12091:12094   */\n      dup3\n        /* \"#utility.yul\":12087:12099   */\n      add\n        /* \"#utility.yul\":12080:12099   */\n      swap1\n      pop\n        /* \"#utility.yul\":11739:12105   */\n      swap2\n      swap1\n      pop\n      jump\t// out\n        /* \"#utility.yul\":12111:12530   */\n    tag_224:\n        /* \"#utility.yul\":12277:12281   */\n      0x00\n        /* \"#utility.yul\":12315:12317   */\n      0x20\n        /* \"#utility.yul\":12304:12313   */\n      dup3\n        /* \"#utility.yul\":12300:12318   */\n      add\n        /* \"#utility.yul\":12292:12318   */\n      swap1\n      pop\n        /* \"#utility.yul\":12364:12373   */\n      dup2\n        /* \"#utility.yul\":12358:12362   */\n      dup2\n        /* \"#utility.yul\":12354:12374   */\n      sub\n        /* \"#utility.yul\":12350:12351   */\n      0x00\n        /* \"#utility.yul\":12339:12348   */\n      dup4\n        /* \"#utility.yul\":12335:12352   */\n      add\n        /* \"#utility.yul\":12328:12375   */\n      mstore\n        /* \"#utility.yul\":12392:12523   */\n      tag_478\n        /* \"#utility.yul\":12518:12522   */\n      dup2\n        /* \"#utility.yul\":12392:12523   */\n      tag_335\n      jump\t// in\n    tag_478:\n        /* \"#utility.yul\":12384:12523   */\n      swap1\n      pop\n        /* \"#utility.yul\":12111:12530   */\n      swap2\n      swap1\n      pop\n      jump\t// out\n        /* \"#utility.yul\":12536:12700   */\n    tag_336:\n        /* \"#utility.yul\":12676:12692   */\n      0x4e6f7457686974656c6973746564000000000000000000000000000000000000\n        /* \"#utility.yul\":12672:12673   */\n      0x00\n        /* \"#utility.yul\":12664:12670   */\n      dup3\n        /* \"#utility.yul\":12660:12674   */\n      add\n        /* \"#utility.yul\":12653:12693   */\n      mstore\n        /* \"#utility.yul\":12536:12700   */\n      pop\n      jump\t// out\n        /* \"#utility.yul\":12706:13072   */\n    tag_337:\n        /* \"#utility.yul\":12848:12851   */\n      0x00\n        /* \"#utility.yul\":12869:12936   */\n      tag_481\n        /* \"#utility.yul\":12933:12935   */\n      0x0e\n        /* \"#utility.yul\":12928:12931   */\n      dup4\n        /* \"#utility.yul\":12869:12936   */\n      tag_333\n      jump\t// in\n    tag_481:\n        /* \"#utility.yul\":12862:12936   */\n      swap2\n      pop\n        /* \"#utility.yul\":12945:13038   */\n      tag_482\n        /* \"#utility.yul\":13034:13037   */\n      dup3\n        /* \"#utility.yul\":12945:13038   */\n      tag_336\n      jump\t// in\n    tag_482:\n        /* \"#utility.yul\":13063:13065   */\n      0x20\n        /* \"#utility.yul\":13058:13061   */\n      dup3\n        /* \"#utility.yul\":13054:13066   */\n      add\n        /* \"#utility.yul\":13047:13066   */\n      swap1\n      pop\n        /* \"#utility.yul\":12706:13072   */\n      swap2\n      swap1\n      pop\n      jump\t// out\n        /* \"#utility.yul\":13078:13497   */\n    tag_238:\n        /* \"#utility.yul\":13244:13248   */\n      0x00\n        /* \"#utility.yul\":13282:13284   */\n      0x20\n        /* \"#utility.yul\":13271:13280   */\n      dup3\n        /* \"#utility.yul\":13267:13285   */\n      add\n        /* \"#utility.yul\":13259:13285   */\n      swap1\n      pop\n        /* \"#utility.yul\":13331:13340   */\n      dup2\n        /* \"#utility.yul\":13325:13329   */\n      dup2\n        /* \"#utility.yul\":13321:13341   */\n      sub\n        /* \"#utility.yul\":13317:13318   */\n      0x00\n        /* \"#utility.yul\":13306:13315   */\n      dup4\n        /* \"#utility.yul\":13302:13319   */\n      add\n        /* \"#utility.yul\":13295:13342   */\n      mstore\n        /* \"#utility.yul\":13359:13490   */\n      tag_484\n        /* \"#utility.yul\":13485:13489   */\n      dup2\n        /* \"#utility.yul\":13359:13490   */\n      tag_337\n      jump\t// in\n    tag_484:\n        /* \"#utility.yul\":13351:13490   */\n      swap1\n      pop\n        /* \"#utility.yul\":13078:13497   */\n      swap2\n      swap1\n      pop\n      jump\t// out\n        /* \"#utility.yul\":13503:14278   */\n    tag_254:\n        /* \"#utility.yul\":13736:13740   */\n      0x00\n        /* \"#utility.yul\":13774:13777   */\n      0xc0\n        /* \"#utility.yul\":13763:13772   */\n      dup3\n        /* \"#utility.yul\":13759:13778   */\n      add\n        /* \"#utility.yul\":13751:13778   */\n      swap1\n      pop\n        /* \"#utility.yul\":13788:13859   */\n      tag_486\n        /* \"#utility.yul\":13856:13857   */\n      0x00\n        /* \"#utility.yul\":13845:13854   */\n      dup4\n        /* \"#utility.yul\":13841:13858   */\n      add\n        /* \"#utility.yul\":13832:13838   */\n      dup10\n        /* \"#utility.yul\":13788:13859   */\n      tag_315\n      jump\t// in\n    tag_486:\n        /* \"#utility.yul\":13869:13941   */\n      tag_487\n        /* \"#utility.yul\":13937:13939   */\n      0x20\n        /* \"#utility.yul\":13926:13935   */\n      dup4\n        /* \"#utility.yul\":13922:13940   */\n      add\n        /* \"#utility.yul\":13913:13919   */\n      dup9\n        /* \"#utility.yul\":13869:13941   */\n      tag_313\n      jump\t// in\n    tag_487:\n        /* \"#utility.yul\":13951:14023   */\n      tag_488\n        /* \"#utility.yul\":14019:14021   */\n      0x40\n        /* \"#utility.yul\":14008:14017   */\n      dup4\n        /* \"#utility.yul\":14004:14022   */\n      add\n        /* \"#utility.yul\":13995:14001   */\n      dup8\n        /* \"#utility.yul\":13951:14023   */\n      tag_313\n      jump\t// in\n    tag_488:\n        /* \"#utility.yul\":14033:14105   */\n      tag_489\n        /* \"#utility.yul\":14101:14103   */\n      0x60\n        /* \"#utility.yul\":14090:14099   */\n      dup4\n        /* \"#utility.yul\":14086:14104   */\n      add\n        /* \"#utility.yul\":14077:14083   */\n      dup7\n        /* \"#utility.yul\":14033:14105   */\n      tag_313\n      jump\t// in\n    tag_489:\n        /* \"#utility.yul\":14115:14188   */\n      tag_490\n        /* \"#utility.yul\":14183:14186   */\n      0x80\n        /* \"#utility.yul\":14172:14181   */\n      dup4\n        /* \"#utility.yul\":14168:14187   */\n      add\n        /* \"#utility.yul\":14159:14165   */\n      dup6\n        /* \"#utility.yul\":14115:14188   */\n      tag_315\n      jump\t// in\n    tag_490:\n        /* \"#utility.yul\":14198:14271   */\n      tag_491\n        /* \"#utility.yul\":14266:14269   */\n      0xa0\n        /* \"#utility.yul\":14255:14264   */\n      dup4\n        /* \"#utility.yul\":14251:14270   */\n      add\n        /* \"#utility.yul\":14242:14248   */\n      dup5\n        /* \"#utility.yul\":14198:14271   */\n      tag_313\n      jump\t// in\n    tag_491:\n        /* \"#utility.yul\":13503:14278   */\n      swap8\n      swap7\n      pop\n      pop\n      pop\n      pop\n      pop\n      pop\n      pop\n      jump\t// out\n        /* \"#utility.yul\":14284:14406   */\n    tag_338:\n        /* \"#utility.yul\":14357:14381   */\n      tag_493\n        /* \"#utility.yul\":14375:14380   */\n      dup2\n        /* \"#utility.yul\":14357:14381   */\n      tag_312\n      jump\t// in\n    tag_493:\n        /* \"#utility.yul\":14350:14355   */\n      dup2\n        /* \"#utility.yul\":14347:14382   */\n      eq\n        /* \"#utility.yul\":14337:14400   */\n      tag_494\n      jumpi\n        /* \"#utility.yul\":14396:14397   */\n      0x00\n        /* \"#utility.yul\":14393:14394   */\n      0x00\n        /* \"#utility.yul\":14386:14398   */\n      revert\n        /* \"#utility.yul\":14337:14400   */\n    tag_494:\n        /* \"#utility.yul\":14284:14406   */\n      pop\n      jump\t// out\n        /* \"#utility.yul\":14412:14555   */\n    tag_339:\n        /* \"#utility.yul\":14469:14474   */\n      0x00\n        /* \"#utility.yul\":14500:14506   */\n      dup2\n        /* \"#utility.yul\":14494:14507   */\n      mload\n        /* \"#utility.yul\":14485:14507   */\n      swap1\n      pop\n        /* \"#utility.yul\":14516:14549   */\n      tag_496\n        /* \"#utility.yul\":14543:14548   */\n      dup2\n        /* \"#utility.yul\":14516:14549   */\n      tag_338\n      jump\t// in\n    tag_496:\n        /* \"#utility.yul\":14412:14555   */\n      swap3\n      swap2\n      pop\n      pop\n      jump\t// out\n        /* \"#utility.yul\":14561:15224   */\n    tag_258:\n        /* \"#utility.yul\":14649:14655   */\n      0x00\n        /* \"#utility.yul\":14657:14663   */\n      0x00\n        /* \"#utility.yul\":14665:14671   */\n      0x00\n        /* \"#utility.yul\":14714:14716   */\n      0x60\n        /* \"#utility.yul\":14702:14711   */\n      dup5\n        /* \"#utility.yul\":14693:14700   */\n      dup7\n        /* \"#utility.yul\":14689:14712   */\n      sub\n        /* \"#utility.yul\":14685:14717   */\n      slt\n        /* \"#utility.yul\":14682:14801   */\n      iszero\n      tag_498\n      jumpi\n        /* \"#utility.yul\":14720:14799   */\n      tag_499\n      tag_299\n      jump\t// in\n    tag_499:\n        /* \"#utility.yul\":14682:14801   */\n    tag_498:\n        /* \"#utility.yul\":14840:14841   */\n      0x00\n        /* \"#utility.yul\":14865:14929   */\n      tag_500\n        /* \"#utility.yul\":14921:14928   */\n      dup7\n        /* \"#utility.yul\":14912:14918   */\n      dup3\n        /* \"#utility.yul\":14901:14910   */\n      dup8\n        /* \"#utility.yul\":14897:14919   */\n      add\n        /* \"#utility.yul\":14865:14929   */\n      tag_339\n      jump\t// in\n    tag_500:\n        /* \"#utility.yul\":14855:14929   */\n      swap4\n      pop\n        /* \"#utility.yul\":14811:14939   */\n      pop\n        /* \"#utility.yul\":14978:14980   */\n      0x20\n        /* \"#utility.yul\":15004:15068   */\n      tag_501\n        /* \"#utility.yul\":15060:15067   */\n      dup7\n        /* \"#utility.yul\":15051:15057   */\n      dup3\n        /* \"#utility.yul\":15040:15049   */\n      dup8\n        /* \"#utility.yul\":15036:15058   */\n      add\n        /* \"#utility.yul\":15004:15068   */\n      tag_339\n      jump\t// in\n    tag_501:\n        /* \"#utility.yul\":14994:15068   */\n      swap3\n      pop\n        /* \"#utility.yul\":14949:15078   */\n      pop\n        /* \"#utility.yul\":15117:15119   */\n      0x40\n        /* \"#utility.yul\":15143:15207   */\n      tag_502\n        /* \"#utility.yul\":15199:15206   */\n      dup7\n        /* \"#utility.yul\":15190:15196   */\n      dup3\n        /* \"#utility.yul\":15179:15188   */\n      dup8\n        /* \"#utility.yul\":15175:15197   */\n      add\n        /* \"#utility.yul\":15143:15207   */\n      tag_339\n      jump\t// in\n    tag_502:\n        /* \"#utility.yul\":15133:15207   */\n      swap2\n      pop\n        /* \"#utility.yul\":15088:15217   */\n      pop\n        /* \"#utility.yul\":14561:15224   */\n      swap3\n      pop\n      swap3\n      pop\n      swap3\n      jump\t// out\n        /* \"#utility.yul\":15230:15377   */\n    tag_340:\n        /* \"#utility.yul\":15331:15342   */\n      0x00\n        /* \"#utility.yul\":15368:15371   */\n      dup2\n        /* \"#utility.yul\":15353:15371   */\n      swap1\n      pop\n        /* \"#utility.yul\":15230:15377   */\n      swap3\n      swap2\n      pop\n      pop\n      jump\t// out\n        /* \"#utility.yul\":15383:15497   */\n    tag_341:\n      pop\n      jump\t// out\n        /* \"#utility.yul\":15503:15901   */\n    tag_342:\n        /* \"#utility.yul\":15662:15665   */\n      0x00\n        /* \"#utility.yul\":15683:15766   */\n      tag_506\n        /* \"#utility.yul\":15764:15765   */\n      0x00\n        /* \"#utility.yul\":15759:15762   */\n      dup4\n        /* \"#utility.yul\":15683:15766   */\n      tag_340\n      jump\t// in\n    tag_506:\n        /* \"#utility.yul\":15676:15766   */\n      swap2\n      pop\n        /* \"#utility.yul\":15775:15868   */\n      tag_507\n        /* \"#utility.yul\":15864:15867   */\n      dup3\n        /* \"#utility.yul\":15775:15868   */\n      tag_341\n      jump\t// in\n    tag_507:\n        /* \"#utility.yul\":15893:15894   */\n      0x00\n        /* \"#utility.yul\":15888:15891   */\n      dup3\n        /* \"#utility.yul\":15884:15895   */\n      add\n        /* \"#utility.yul\":15877:15895   */\n      swap1\n      pop\n        /* \"#utility.yul\":15503:15901   */\n      swap2\n      swap1\n      pop\n      jump\t// out\n        /* \"#utility.yul\":15907:16286   */\n    tag_265:\n        /* \"#utility.yul\":16091:16094   */\n      0x00\n        /* \"#utility.yul\":16113:16260   */\n      tag_509\n        /* \"#utility.yul\":16256:16259   */\n      dup3\n        /* \"#utility.yul\":16113:16260   */\n      tag_342\n      jump\t// in\n    tag_509:\n        /* \"#utility.yul\":16106:16260   */\n      swap2\n      pop\n        /* \"#utility.yul\":16277:16280   */\n      dup2\n        /* \"#utility.yul\":16270:16280   */\n      swap1\n      pop\n        /* \"#utility.yul\":15907:16286   */\n      swap2\n      swap1\n      pop\n      jump\t// out\n        /* \"#utility.yul\":16292:16624   */\n    tag_275:\n        /* \"#utility.yul\":16413:16417   */\n      0x00\n        /* \"#utility.yul\":16451:16453   */\n      0x40\n        /* \"#utility.yul\":16440:16449   */\n      dup3\n        /* \"#utility.yul\":16436:16454   */\n      add\n        /* \"#utility.yul\":16428:16454   */\n      swap1\n      pop\n        /* \"#utility.yul\":16464:16535   */\n      tag_511\n        /* \"#utility.yul\":16532:16533   */\n      0x00\n        /* \"#utility.yul\":16521:16530   */\n      dup4\n        /* \"#utility.yul\":16517:16534   */\n      add\n        /* \"#utility.yul\":16508:16514   */\n      dup6\n        /* \"#utility.yul\":16464:16535   */\n      tag_315\n      jump\t// in\n    tag_511:\n        /* \"#utility.yul\":16545:16617   */\n      tag_512\n        /* \"#utility.yul\":16613:16615   */\n      0x20\n        /* \"#utility.yul\":16602:16611   */\n      dup4\n        /* \"#utility.yul\":16598:16616   */\n      add\n        /* \"#utility.yul\":16589:16595   */\n      dup5\n        /* \"#utility.yul\":16545:16617   */\n      tag_313\n      jump\t// in\n    tag_512:\n        /* \"#utility.yul\":16292:16624   */\n      swap4\n      swap3\n      pop\n      pop\n      pop\n      jump\t// out\n        /* \"#utility.yul\":16630:17072   */\n    tag_287:\n        /* \"#utility.yul\":16779:16783   */\n      0x00\n        /* \"#utility.yul\":16817:16819   */\n      0x60\n        /* \"#utility.yul\":16806:16815   */\n      dup3\n        /* \"#utility.yul\":16802:16820   */\n      add\n        /* \"#utility.yul\":16794:16820   */\n      swap1\n      pop\n        /* \"#utility.yul\":16830:16901   */\n      tag_514\n        /* \"#utility.yul\":16898:16899   */\n      0x00\n        /* \"#utility.yul\":16887:16896   */\n      dup4\n        /* \"#utility.yul\":16883:16900   */\n      add\n        /* \"#utility.yul\":16874:16880   */\n      dup7\n        /* \"#utility.yul\":16830:16901   */\n      tag_315\n      jump\t// in\n    tag_514:\n        /* \"#utility.yul\":16911:16983   */\n      tag_515\n        /* \"#utility.yul\":16979:16981   */\n      0x20\n        /* \"#utility.yul\":16968:16977   */\n      dup4\n        /* \"#utility.yul\":16964:16982   */\n      add\n        /* \"#utility.yul\":16955:16961   */\n      dup6\n        /* \"#utility.yul\":16911:16983   */\n      tag_315\n      jump\t// in\n    tag_515:\n        /* \"#utility.yul\":16993:17065   */\n      tag_516\n        /* \"#utility.yul\":17061:17063   */\n      0x40\n        /* \"#utility.yul\":17050:17059   */\n      dup4\n        /* \"#utility.yul\":17046:17064   */\n      add\n        /* \"#utility.yul\":17037:17043   */\n      dup5\n        /* \"#utility.yul\":16993:17065   */\n      tag_313\n      jump\t// in\n    tag_516:\n        /* \"#utility.yul\":16630:17072   */\n      swap5\n      swap4\n      pop\n      pop\n      pop\n      pop\n      jump\t// out\n\n    auxdata: 0xa264697066735822122078ef971a7cea222bf3ed048b44a9612aa1142ba9d2b023511839a5410217c9ea64736f6c634300081c0033\n}\n",
				"bytecode": {
					"linkReferences": {},
					"object": "60806040525f60105f6101000a81548160ff021916908315150217905550348015610028575f5ffd5b50604051612b12380380612b12833981810160405281019061004a91906106b8565b335f73ffffffffffffffffffffffffffffffffffffffff168173ffffffffffffffffffffffffffffffffffffffff16036100bb575f6040517f1e4fbdf70000000000000000000000000000000000000000000000000000000081526004016100b2919061072c565b60405180910390fd5b6100ca816102a660201b60201c565b50600180819055506100e18161036760201b60201c565b8160036001015f6101000a81548173ffffffffffffffffffffffffffffffffffffffff021916908373ffffffffffffffffffffffffffffffffffffffff1602179055508260035f015f6101000a81548173ffffffffffffffffffffffffffffffffffffffff021916908373ffffffffffffffffffffffffffffffffffffffff1602179055506001600360060160146101000a81548160ff021916908360ff1602179055508360036006015f6101000a81548173ffffffffffffffffffffffffffffffffffffffff021916908373ffffffffffffffffffffffffffffffffffffffff1602179055508060036007015f820151815f01556020820151816001015560408201518160020155606082015181600301556080820151816004015560a0820151816005015f6101000a8154816dffffffffffffffffffffffffffff02191690836dffffffffffffffffffffffffffff16021790555060c082015181600501600e6101000a8154816dffffffffffffffffffffffffffff02191690836dffffffffffffffffffffffffffff16021790555060e082015181600501601c6101000a81548163ffffffff021916908363ffffffff16021790555090505050505050610745565b5f5f5f9054906101000a900473ffffffffffffffffffffffffffffffffffffffff169050815f5f6101000a81548173ffffffffffffffffffffffffffffffffffffffff021916908373ffffffffffffffffffffffffffffffffffffffff1602179055508173ffffffffffffffffffffffffffffffffffffffff168173ffffffffffffffffffffffffffffffffffffffff167f8be0079c531659141344cd1fd0a4f28419497f9722a3daafe3b4186f6b6457e060405160405180910390a35050565b8060200151816040015111156103a9576040517fa606ca7800000000000000000000000000000000000000000000000000000000815260040160405180910390fd5b8060600151816080015111156103eb576040517fb581346100000000000000000000000000000000000000000000000000000000815260040160405180910390fd5b8060c001516dffffffffffffffffffffffffffff168160a001516dffffffffffffffffffffffffffff161061044c576040517feff2c18200000000000000000000000000000000000000000000000000000000815260040160405180910390fd5b50565b5f604051905090565b5f5ffd5b5f73ffffffffffffffffffffffffffffffffffffffff82169050919050565b5f6104858261045c565b9050919050565b6104958161047b565b811461049f575f5ffd5b50565b5f815190506104b08161048c565b92915050565b5f5ffd5b5f601f19601f8301169050919050565b7f4e487b71000000000000000000000000000000000000000000000000000000005f52604160045260245ffd5b610500826104ba565b810181811067ffffffffffffffff8211171561051f5761051e6104ca565b5b80604052505050565b5f61053161044f565b905061053d82826104f7565b919050565b5f819050919050565b61055481610542565b811461055e575f5ffd5b50565b5f8151905061056f8161054b565b92915050565b5f6dffffffffffffffffffffffffffff82169050919050565b61059781610575565b81146105a1575f5ffd5b50565b5f815190506105b28161058e565b92915050565b5f63ffffffff82169050919050565b6105d0816105b8565b81146105da575f5ffd5b50565b5f815190506105eb816105c7565b92915050565b5f6101008284031215610607576106066104b6565b5b610612610100610528565b90505f61062184828501610561565b5f83015250602061063484828501610561565b602083015250604061064884828501610561565b604083015250606061065c84828501610561565b606083015250608061067084828501610561565b60808301525060a0610684848285016105a4565b60a08301525060c0610698848285016105a4565b60c08301525060e06106ac848285016105dd565b60e08301525092915050565b5f5f5f5f61016085870312156106d1576106d0610458565b5b5f6106de878288016104a2565b94505060206106ef878288016104a2565b9350506040610700878288016104a2565b9250506060610711878288016105f1565b91505092959194509250565b6107268161047b565b82525050565b5f60208201905061073f5f83018461071d565b92915050565b6123c0806107525f395ff3fe6080604052600436106100f6575f3560e01c8063715018a611610089578063d0e30db011610058578063d0e30db014610315578063ea8a1af01461033f578063ed498fa814610369578063f2fde38b146103a557610107565b8063715018a6146102715780637f649783146102875780638da5cb5b146102af5780639b19251a146102d957610107565b80634bb278f3116100c55780634bb278f3146101cb5780634e71d92d146101f5578063548db1741461021f578063590e1ae31461024757610107565b8063052d9e7e1461010b57806316f0115b14610133578063184d69ab1461016557806342e94c901461018f57610107565b366101075761010533346103cd565b005b5f5ffd5b348015610116575f5ffd5b50610131600480360381019061012c9190611ba3565b6104a7565b005b34801561013e575f5ffd5b506101476104cb565b60405161015c99989796959493929190611db0565b60405180910390f35b348015610170575f5ffd5b50610179610659565b6040516101869190611e4a565b60405180910390f35b34801561019a575f5ffd5b506101b560048036038101906101b09190611e8d565b61066b565b6040516101c29190611eb8565b60405180910390f35b3480156101d6575f5ffd5b506101df610680565b6040516101ec9190611e4a565b60405180910390f35b348015610200575f5ffd5b50610209610886565b6040516102169190611eb8565b60405180910390f35b34801561022a575f5ffd5b5061024560048036038101906102409190611f32565b610a87565b005b348015610252575f5ffd5b5061025b610b2c565b6040516102689190611eb8565b60405180910390f35b34801561027c575f5ffd5b50610285610d5d565b005b348015610292575f5ffd5b506102ad60048036038101906102a89190611f32565b610d70565b005b3480156102ba575f5ffd5b506102c3610e16565b6040516102d09190611f7d565b60405180910390f35b3480156102e4575f5ffd5b506102ff60048036038101906102fa9190611e8d565b610e3d565b60405161030c9190611e4a565b60405180910390f35b348015610320575f5ffd5b50610329610e5a565b6040516103369190611eb8565b60405180910390f35b34801561034a575f5ffd5b50610353610fec565b6040516103609190611e4a565b60405180910390f35b348015610374575f5ffd5b5061038f600480360381019061038a9190611e8d565b611144565b60405161039c9190611eb8565b60405180910390f35b3480156103b0575f5ffd5b506103cb60048036038101906103c69190611e8d565b6111e4565b005b6103d5611268565b6103df82826112b7565b8060036005015f8282546103f39190611fc3565b925050819055508060025f8473ffffffffffffffffffffffffffffffffffffffff1673ffffffffffffffffffffffffffffffffffffffff1681526020019081526020015f205f8282546104469190611fc3565b925050819055508173ffffffffffffffffffffffffffffffffffffffff167f2499a5330ab0979cc612135e7883ebc3cd5c9f7a8508f042540c34723348f632826040516104939190611eb8565b60405180910390a26104a361158e565b5050565b6104af611597565b8060105f6101000a81548160ff02191690831515021790555050565b6003805f015f9054906101000a900473ffffffffffffffffffffffffffffffffffffffff1690806001015f9054906101000a900473ffffffffffffffffffffffffffffffffffffffff1690806002015490806003015490806004015490806005015490806006015f9054906101000a900473ffffffffffffffffffffffffffffffffffffffff16908060060160149054906101000a900460ff169080600701604051806101000160405290815f820154815260200160018201548152602001600282015481526020016003820154815260200160048201548152602001600582015f9054906101000a90046dffffffffffffffffffffffffffff166dffffffffffffffffffffffffffff166dffffffffffffffffffffffffffff16815260200160058201600e9054906101000a90046dffffffffffffffffffffffffffff166dffffffffffffffffffffffffffff166dffffffffffffffffffffffffffff16815260200160058201601c9054906101000a900463ffffffff1663ffffffff1663ffffffff1681525050905089565b60105f9054906101000a900460ff1681565b6002602052805f5260405f205f915090505481565b5f610689611597565b610691611268565b6002600360060160149054906101000a900460ff1660ff16146106fd57600360060160149054906101000a900460ff166040517fd07e89760000000000000000000000000000000000000000000000000000000081526004016106f49190611ff6565b60405180910390fd5b60036007016002015460036005015410801561074a57506003600701600501600e9054906101000a90046dffffffffffffffffffffffffffff166dffffffffffffffffffffffffffff1642105b15610781576040517f2bdc91ad00000000000000000000000000000000000000000000000000000000815260040160405180910390fd5b6004600360060160146101000a81548160ff021916908360ff1602179055505f6107a961161e565b90506107ba81600360040154611660565b60036004015460036002015f8282546107d3919061200f565b925050819055505f816003600501546107ec919061200f565b90505f8111156108205761081f813373ffffffffffffffffffffffffffffffffffffffff1661179490919063ffffffff16565b5b3373ffffffffffffffffffffffffffffffffffffffff167f616c9469db50815ae0f1d0a020d9fc9060da7c57f03559afb0d4ebdaa0a3a05e6003600501544260405161086d929190612042565b60405180910390a260019250505061088361158e565b90565b5f61088f611268565b6004600360060160149054906101000a900460ff1660ff16146108fb57600360060160149054906101000a900460ff166040517fd07e89760000000000000000000000000000000000000000000000000000000081526004016108f29190611ff6565b60405180910390fd5b5f60025f3373ffffffffffffffffffffffffffffffffffffffff1673ffffffffffffffffffffffffffffffffffffffff1681526020019081526020015f205403610971576040517f6247a84e00000000000000000000000000000000000000000000000000000000815260040160405180910390fd5b5f61097b33611144565b90505f60025f3373ffffffffffffffffffffffffffffffffffffffff1673ffffffffffffffffffffffffffffffffffffffff1681526020019081526020015f20819055508060036002015f8282546109d3919061200f565b92505081905550610a28338260035f015f9054906101000a900473ffffffffffffffffffffffffffffffffffffffff1673ffffffffffffffffffffffffffffffffffffffff1661185a9092919063ffffffff16565b3373ffffffffffffffffffffffffffffffffffffffff167f30c2341ba3f2142e78472f07dcf018a42044ae1c2c2e7ce867b327257f07ef2b8242604051610a70929190612042565b60405180910390a280915050610a8461158e565b90565b610a8f611597565b5f5f90505b82829050811015610b27575f60115f858585818110610ab657610ab5612069565b5b9050602002016020810190610acb9190611e8d565b73ffffffffffffffffffffffffffffffffffffffff1673ffffffffffffffffffffffffffffffffffffffff1681526020019081526020015f205f6101000a81548160ff0219169083151502179055508080600101915050610a94565b505050565b5f5f60038060060160149054906101000a900460ff1660ff161480610b9a57506003600701600501600e9054906101000a90046dffffffffffffffffffffffffffff166dffffffffffffffffffffffffffff1642118015610b995750600360070160020154600360050154105b5b905080610bd3576040517f3742d1f600000000000000000000000000000000000000000000000000000000815260040160405180910390fd5b610bdb611268565b5f60025f3373ffffffffffffffffffffffffffffffffffffffff1673ffffffffffffffffffffffffffffffffffffffff1681526020019081526020015f205403610c51576040517f3742d1f600000000000000000000000000000000000000000000000000000000815260040160405180910390fd5b5f60025f3373ffffffffffffffffffffffffffffffffffffffff1673ffffffffffffffffffffffffffffffffffffffff1681526020019081526020015f205490505f60025f3373ffffffffffffffffffffffffffffffffffffffff1673ffffffffffffffffffffffffffffffffffffffff1681526020019081526020015f2081905550610cfd813373ffffffffffffffffffffffffffffffffffffffff1661179490919063ffffffff16565b3373ffffffffffffffffffffffffffffffffffffffff167f73f04af9dcc582a923ec15d3eea990fe34adabfff2879e28d44572e01a54abb68242604051610d45929190612042565b60405180910390a280925050610d5961158e565b5090565b610d65611597565b610d6e5f6118d9565b565b610d78611597565b5f5f90505b82829050811015610e1157600160115f858585818110610da057610d9f612069565b5b9050602002016020810190610db59190611e8d565b73ffffffffffffffffffffffffffffffffffffffff1673ffffffffffffffffffffffffffffffffffffffff1681526020019081526020015f205f6101000a81548160ff0219169083151502179055508080600101915050610d7d565b505050565b5f5f5f9054906101000a900473ffffffffffffffffffffffffffffffffffffffff16905090565b6011602052805f5260405f205f915054906101000a900460ff1681565b5f610e63611597565b6001600360060160149054906101000a900460ff1660ff1614610ecf57600360060160149054906101000a900460ff166040517fd07e8976000000000000000000000000000000000000000000000000000000008152600401610ec69190611ff6565b60405180910390fd5b6002600360060160146101000a81548160ff021916908360ff16021790555060036007015f015460036002015f828254610f099190611fc3565b92505081905550610f1861199a565b600360040181905550610f296119de565b6003800181905550610f88333060036007015f015460035f015f9054906101000a900473ffffffffffffffffffffffffffffffffffffffff1673ffffffffffffffffffffffffffffffffffffffff166119fe909392919063ffffffff16565b3373ffffffffffffffffffffffffffffffffffffffff167f90890809c654f11d6e72a28fa60149770a0d11ec6c92319d6ceb2bb0a4ea1a1560036007015f015442604051610fd7929190612042565b60405180910390a260036007015f0154905090565b5f610ff5611597565b60038060060160149054906101000a900460ff1660ff16111561106157600360060160149054906101000a900460ff166040517fd07e89760000000000000000000000000000000000000000000000000000000081526004016110589190611ff6565b60405180910390fd5b60038060060160146101000a81548160ff021916908360ff1602179055505f60036002015411156110ef575f60036002015490505f6003600201819055506110ed338260035f015f9054906101000a900473ffffffffffffffffffffffffffffffffffffffff1673ffffffffffffffffffffffffffffffffffffffff1661185a9092919063ffffffff16565b505b3373ffffffffffffffffffffffffffffffffffffffff167f27f83af92b39768b17fe0c8d6922452702717efb8626d97e7a754e0b27d4f6d2426040516111359190611eb8565b60405180910390a26001905090565b5f5f60036005015403611159575f90506111df565b670de0b6b3a76400006003800154600360050154670de0b6b3a764000060025f8773ffffffffffffffffffffffffffffffffffffffff1673ffffffffffffffffffffffffffffffffffffffff1681526020019081526020015f20546111be9190612096565b6111c89190612104565b6111d29190612096565b6111dc9190612104565b90505b919050565b6111ec611597565b5f73ffffffffffffffffffffffffffffffffffffffff168173ffffffffffffffffffffffffffffffffffffffff160361125c575f6040517f1e4fbdf70000000000000000000000000000000000000000000000000000000081526004016112539190611f7d565b60405180910390fd5b611265816118d9565b50565b6002600154036112ad576040517f08c379a00000000000000000000000000000000000000000000000000000000081526004016112a49061218e565b60405180910390fd5b6002600181905550565b6002600360060160149054906101000a900460ff1660ff161461132357600360060160149054906101000a900460ff166040517fd07e897600000000000000000000000000000000000000000000000000000000815260040161131a9190611ff6565b60405180910390fd5b60036007016005015f9054906101000a90046dffffffffffffffffffffffffffff166dffffffffffffffffffffffffffff1642108061139357506003600701600501600e9054906101000a90046dffffffffffffffffffffffffffff166dffffffffffffffffffffffffffff1642115b156113ca576040517fe3840bc400000000000000000000000000000000000000000000000000000000815260040160405180910390fd5b600360070160010154816003600501546113e49190611fc3565b111561141c576040517f283452da00000000000000000000000000000000000000000000000000000000815260040160405180910390fd5b60036007016004015481101561145e576040517fbd70f35d00000000000000000000000000000000000000000000000000000000815260040160405180910390fd5b60036007016003015460025f8473ffffffffffffffffffffffffffffffffffffffff1673ffffffffffffffffffffffffffffffffffffffff1681526020019081526020015f2054826114b09190611fc3565b11156114e8576040517f5a99681c00000000000000000000000000000000000000000000000000000000815260040160405180910390fd5b60105f9054906101000a900460ff16801561154a575060115f8373ffffffffffffffffffffffffffffffffffffffff1673ffffffffffffffffffffffffffffffffffffffff1681526020019081526020015f205f9054906101000a900460ff16155b1561158a576040517f08c379a0000000000000000000000000000000000000000000000000000000008152600401611581906121f6565b60405180910390fd5b5050565b60018081905550565b61159f611a80565b73ffffffffffffffffffffffffffffffffffffffff166115bd610e16565b73ffffffffffffffffffffffffffffffffffffffff161461161c576115e0611a80565b6040517f118cdaa70000000000000000000000000000000000000000000000000000000081526004016116139190611f7d565b60405180910390fd5b565b5f6127106003600701600501601c9054906101000a900463ffffffff1663ffffffff166003600501546116519190612096565b61165b9190612104565b905090565b5f5f60036001015f9054906101000a900473ffffffffffffffffffffffffffffffffffffffff1673ffffffffffffffffffffffffffffffffffffffff1663f305d7198560035f015f9054906101000a900473ffffffffffffffffffffffffffffffffffffffff168687896116d2610e16565b610258426116e09190611fc3565b6040518863ffffffff1660e01b815260040161170196959493929190612214565b60606040518083038185885af115801561171d573d5f5f3e3d5ffd5b50505050506040513d601f19601f82011682018060405250810190611742919061229d565b50915091508282141580156117575750838114155b1561178e576040517feda12fe600000000000000000000000000000000000000000000000000000000815260040160405180910390fd5b50505050565b804710156117db5747816040517fcf4791810000000000000000000000000000000000000000000000000000000081526004016117d2929190612042565b60405180910390fd5b5f5f8373ffffffffffffffffffffffffffffffffffffffff16836040516118019061231a565b5f6040518083038185875af1925050503d805f811461183b576040519150601f19603f3d011682016040523d82523d5f602084013e611840565b606091505b5091509150816118545761185381611a87565b5b50505050565b6118d4838473ffffffffffffffffffffffffffffffffffffffff1663a9059cbb858560405160240161188d92919061232e565b604051602081830303815290604052915060e01b6020820180517bffffffffffffffffffffffffffffffffffffffffffffffffffffffff8381831617835250505050611acb565b505050565b5f5f5f9054906101000a900473ffffffffffffffffffffffffffffffffffffffff169050815f5f6101000a81548173ffffffffffffffffffffffffffffffffffffffff021916908373ffffffffffffffffffffffffffffffffffffffff1602179055508173ffffffffffffffffffffffffffffffffffffffff168173ffffffffffffffffffffffffffffffffffffffff167f8be0079c531659141344cd1fd0a4f28419497f9722a3daafe3b4186f6b6457e060405160405180910390a35050565b5f6127106003600701600501601c9054906101000a900463ffffffff1663ffffffff1660036007015f01546119cf9190612096565b6119d99190612104565b905090565b5f6119e761199a565b60036007015f01546119f9919061200f565b905090565b611a7a848573ffffffffffffffffffffffffffffffffffffffff166323b872dd868686604051602401611a3393929190612355565b604051602081830303815290604052915060e01b6020820180517bffffffffffffffffffffffffffffffffffffffffffffffffffffffff8381831617835250505050611acb565b50505050565b5f33905090565b5f81511115611a995780518082602001fd5b6040517fd6bda27500000000000000000000000000000000000000000000000000000000815260040160405180910390fd5b5f5f60205f8451602086015f885af180611aea576040513d5f823e3d81fd5b3d92505f519150505f8214611b03576001811415611b1e565b5f8473ffffffffffffffffffffffffffffffffffffffff163b145b15611b6057836040517f5274afe7000000000000000000000000000000000000000000000000000000008152600401611b579190611f7d565b60405180910390fd5b50505050565b5f5ffd5b5f5ffd5b5f8115159050919050565b611b8281611b6e565b8114611b8c575f5ffd5b50565b5f81359050611b9d81611b79565b92915050565b5f60208284031215611bb857611bb7611b66565b5b5f611bc584828501611b8f565b91505092915050565b5f73ffffffffffffffffffffffffffffffffffffffff82169050919050565b5f819050919050565b5f611c10611c0b611c0684611bce565b611bed565b611bce565b9050919050565b5f611c2182611bf6565b9050919050565b5f611c3282611c17565b9050919050565b611c4281611c28565b82525050565b5f611c5282611c17565b9050919050565b611c6281611c48565b82525050565b5f819050919050565b611c7a81611c68565b82525050565b5f611c8a82611bce565b9050919050565b611c9a81611c80565b82525050565b5f60ff82169050919050565b611cb581611ca0565b82525050565b611cc481611c68565b82525050565b5f6dffffffffffffffffffffffffffff82169050919050565b611cec81611cca565b82525050565b5f63ffffffff82169050919050565b611d0a81611cf2565b82525050565b61010082015f820151611d255f850182611cbb565b506020820151611d386020850182611cbb565b506040820151611d4b6040850182611cbb565b506060820151611d5e6060850182611cbb565b506080820151611d716080850182611cbb565b5060a0820151611d8460a0850182611ce3565b5060c0820151611d9760c0850182611ce3565b5060e0820151611daa60e0850182611d01565b50505050565b5f61020082019050611dc45f83018c611c39565b611dd1602083018b611c59565b611dde604083018a611c71565b611deb6060830189611c71565b611df86080830188611c71565b611e0560a0830187611c71565b611e1260c0830186611c91565b611e1f60e0830185611cac565b611e2d610100830184611d10565b9a9950505050505050505050565b611e4481611b6e565b82525050565b5f602082019050611e5d5f830184611e3b565b92915050565b611e6c81611c80565b8114611e76575f5ffd5b50565b5f81359050611e8781611e63565b92915050565b5f60208284031215611ea257611ea1611b66565b5b5f611eaf84828501611e79565b91505092915050565b5f602082019050611ecb5f830184611c71565b92915050565b5f5ffd5b5f5ffd5b5f5ffd5b5f5f83601f840112611ef257611ef1611ed1565b5b8235905067ffffffffffffffff811115611f0f57611f0e611ed5565b5b602083019150836020820283011115611f2b57611f2a611ed9565b5b9250929050565b5f5f60208385031215611f4857611f47611b66565b5b5f83013567ffffffffffffffff811115611f6557611f64611b6a565b5b611f7185828601611edd565b92509250509250929050565b5f602082019050611f905f830184611c91565b92915050565b7f4e487b71000000000000000000000000000000000000000000000000000000005f52601160045260245ffd5b5f611fcd82611c68565b9150611fd883611c68565b9250828201905080821115611ff057611fef611f96565b5b92915050565b5f6020820190506120095f830184611cac565b92915050565b5f61201982611c68565b915061202483611c68565b925082820390508181111561203c5761203b611f96565b5b92915050565b5f6040820190506120555f830185611c71565b6120626020830184611c71565b9392505050565b7f4e487b71000000000000000000000000000000000000000000000000000000005f52603260045260245ffd5b5f6120a082611c68565b91506120ab83611c68565b92508282026120b981611c68565b915082820484148315176120d0576120cf611f96565b5b5092915050565b7f4e487b71000000000000000000000000000000000000000000000000000000005f52601260045260245ffd5b5f61210e82611c68565b915061211983611c68565b925082612129576121286120d7565b5b828204905092915050565b5f82825260208201905092915050565b7f5265656e7472616e637947756172643a207265656e7472616e742063616c6c005f82015250565b5f612178601f83612134565b915061218382612144565b602082019050919050565b5f6020820190508181035f8301526121a58161216c565b9050919050565b7f4e6f7457686974656c69737465640000000000000000000000000000000000005f82015250565b5f6121e0600e83612134565b91506121eb826121ac565b602082019050919050565b5f6020820190508181035f83015261220d816121d4565b9050919050565b5f60c0820190506122275f830189611c91565b6122346020830188611c71565b6122416040830187611c71565b61224e6060830186611c71565b61225b6080830185611c91565b61226860a0830184611c71565b979650505050505050565b61227c81611c68565b8114612286575f5ffd5b50565b5f8151905061229781612273565b92915050565b5f5f5f606084860312156122b4576122b3611b66565b5b5f6122c186828701612289565b93505060206122d286828701612289565b92505060406122e386828701612289565b9150509250925092565b5f81905092915050565b50565b5f6123055f836122ed565b9150612310826122f7565b5f82019050919050565b5f612324826122fa565b9150819050919050565b5f6040820190506123415f830185611c91565b61234e6020830184611c71565b9392505050565b5f6060820190506123685f830186611c91565b6123756020830185611c91565b6123826040830184611c71565b94935050505056fea264697066735822122078ef971a7cea222bf3ed048b44a9612aa1142ba9d2b023511839a5410217c9ea64736f6c634300081c0033",
					"opcodes": "PUSH1 0x80 PUSH1 0x40 MSTORE PUSH0 PUSH1 0x10 PUSH0 PUSH2 0x100 EXP DUP2 SLOAD DUP2 PUSH1 0xFF MUL NOT AND SWAP1 DUP4 ISZERO ISZERO MUL OR SWAP1 SSTORE POP CALLVALUE DUP1 ISZERO PUSH2 0x28 JUMPI PUSH0 PUSH0 REVERT JUMPDEST POP PUSH1 0x40 MLOAD PUSH2 0x2B12 CODESIZE SUB DUP1 PUSH2 0x2B12 DUP4 CODECOPY DUP2 DUP2 ADD PUSH1 0x40 MSTORE DUP2 ADD SWAP1 PUSH2 0x4A SWAP2 SWAP1 PUSH2 0x6B8 JUMP JUMPDEST CALLER PUSH0 PUSH20 0xFFFFFFFFFFFFFFFFFFFFFFFFFFFFFFFFFFFFFFFF AND DUP2 PUSH20 0xFFFFFFFFFFFFFFFFFFFFFFFFFFFFFFFFFFFFFFFF AND SUB PUSH2 0xBB JUMPI PUSH0 PUSH1 0x40 MLOAD PUSH32 0x1E4FBDF700000000000000000000000000000000000000000000000000000000 DUP2 MSTORE PUSH1 0x4 ADD PUSH2 0xB2 SWAP2 SWAP1 PUSH2 0x72C JUMP JUMPDEST PUSH1 0x40 MLOAD DUP1 SWAP2 SUB SWAP1 REVERT JUMPDEST PUSH2 0xCA DUP2 PUSH2 0x2A6 PUSH1 0x20 SHL PUSH1 0x20 SHR JUMP JUMPDEST POP PUSH1 0x1 DUP1 DUP2 SWAP1 SSTORE POP PUSH2 0xE1 DUP2 PUSH2 0x367 PUSH1 0x20 SHL PUSH1 0x20 SHR JUMP JUMPDEST DUP2 PUSH1 0x3 PUSH1 0x1 ADD PUSH0 PUSH2 0x100 EXP DUP2 SLOAD DUP2 PUSH20 0xFFFFFFFFFFFFFFFFFFFFFFFFFFFFFFFFFFFFFFFF MUL NOT AND SWAP1 DUP4 PUSH20 0xFFFFFFFFFFFFFFFFFFFFFFFFFFFFFFFFFFFFFFFF AND MUL OR SWAP1 SSTORE POP DUP3 PUSH1 0x3 PUSH0 ADD PUSH0 PUSH2 0x100 EXP DUP2 SLOAD DUP2 PUSH20 0xFFFFFFFFFFFFFFFFFFFFFFFFFFFFFFFFFFFFFFFF MUL NOT AND SWAP1 DUP4 PUSH20 0xFFFFFFFFFFFFFFFFFFFFFFFFFFFFFFFFFFFFFFFF AND MUL OR SWAP1 SSTORE POP PUSH1 0x1 PUSH1 0x3 PUSH1 0x6 ADD PUSH1 0x14 PUSH2 0x100 EXP DUP2 SLOAD DUP2 PUSH1 0xFF MUL NOT AND SWAP1 DUP4 PUSH1 0xFF AND MUL OR SWAP1 SSTORE POP DUP4 PUSH1 0x3 PUSH1 0x6 ADD PUSH0 PUSH2 0x100 EXP DUP2 SLOAD DUP2 PUSH20 0xFFFFFFFFFFFFFFFFFFFFFFFFFFFFFFFFFFFFFFFF MUL NOT AND SWAP1 DUP4 PUSH20 0xFFFFFFFFFFFFFFFFFFFFFFFFFFFFFFFFFFFFFFFF AND MUL OR SWAP1 SSTORE POP DUP1 PUSH1 0x3 PUSH1 0x7 ADD PUSH0 DUP3 ADD MLOAD DUP2 PUSH0 ADD SSTORE PUSH1 0x20 DUP3 ADD MLOAD DUP2 PUSH1 0x1 ADD SSTORE PUSH1 0x40 DUP3 ADD MLOAD DUP2 PUSH1 0x2 ADD SSTORE PUSH1 0x60 DUP3 ADD MLOAD DUP2 PUSH1 0x3 ADD SSTORE PUSH1 0x80 DUP3 ADD MLOAD DUP2 PUSH1 0x4 ADD SSTORE PUSH1 0xA0 DUP3 ADD MLOAD DUP2 PUSH1 0x5 ADD PUSH0 PUSH2 0x100 EXP DUP2 SLOAD DUP2 PUSH14 0xFFFFFFFFFFFFFFFFFFFFFFFFFFFF MUL NOT AND SWAP1 DUP4 PUSH14 0xFFFFFFFFFFFFFFFFFFFFFFFFFFFF AND MUL OR SWAP1 SSTORE POP PUSH1 0xC0 DUP3 ADD MLOAD DUP2 PUSH1 0x5 ADD PUSH1 0xE PUSH2 0x100 EXP DUP2 SLOAD DUP2 PUSH14 0xFFFFFFFFFFFFFFFFFFFFFFFFFFFF MUL NOT AND SWAP1 DUP4 PUSH14 0xFFFFFFFFFFFFFFFFFFFFFFFFFFFF AND MUL OR SWAP1 SSTORE POP PUSH1 0xE0 DUP3 ADD MLOAD DUP2 PUSH1 0x5 ADD PUSH1 0x1C PUSH2 0x100 EXP DUP2 SLOAD DUP2 PUSH4 0xFFFFFFFF MUL NOT AND SWAP1 DUP4 PUSH4 0xFFFFFFFF AND MUL OR SWAP1 SSTORE POP SWAP1 POP POP POP POP POP POP PUSH2 0x745 JUMP JUMPDEST PUSH0 PUSH0 PUSH0 SWAP1 SLOAD SWAP1 PUSH2 0x100 EXP SWAP1 DIV PUSH20 0xFFFFFFFFFFFFFFFFFFFFFFFFFFFFFFFFFFFFFFFF AND SWAP1 POP DUP2 PUSH0 PUSH0 PUSH2 0x100 EXP DUP2 SLOAD DUP2 PUSH20 0xFFFFFFFFFFFFFFFFFFFFFFFFFFFFFFFFFFFFFFFF MUL NOT AND SWAP1 DUP4 PUSH20 0xFFFFFFFFFFFFFFFFFFFFFFFFFFFFFFFFFFFFFFFF AND MUL OR SWAP1 SSTORE POP DUP2 PUSH20 0xFFFFFFFFFFFFFFFFFFFFFFFFFFFFFFFFFFFFFFFF AND DUP2 PUSH20 0xFFFFFFFFFFFFFFFFFFFFFFFFFFFFFFFFFFFFFFFF AND PUSH32 0x8BE0079C531659141344CD1FD0A4F28419497F9722A3DAAFE3B4186F6B6457E0 PUSH1 0x40 MLOAD PUSH1 0x40 MLOAD DUP1 SWAP2 SUB SWAP1 LOG3 POP POP JUMP JUMPDEST DUP1 PUSH1 0x20 ADD MLOAD DUP2 PUSH1 0x40 ADD MLOAD GT ISZERO PUSH2 0x3A9 JUMPI PUSH1 0x40 MLOAD PUSH32 0xA606CA7800000000000000000000000000000000000000000000000000000000 DUP2 MSTORE PUSH1 0x4 ADD PUSH1 0x40 MLOAD DUP1 SWAP2 SUB SWAP1 REVERT JUMPDEST DUP1 PUSH1 0x60 ADD MLOAD DUP2 PUSH1 0x80 ADD MLOAD GT ISZERO PUSH2 0x3EB JUMPI PUSH1 0x40 MLOAD PUSH32 0xB581346100000000000000000000000000000000000000000000000000000000 DUP2 MSTORE PUSH1 0x4 ADD PUSH1 0x40 MLOAD DUP1 SWAP2 SUB SWAP1 REVERT JUMPDEST DUP1 PUSH1 0xC0 ADD MLOAD PUSH14 0xFFFFFFFFFFFFFFFFFFFFFFFFFFFF AND DUP2 PUSH1 0xA0 ADD MLOAD PUSH14 0xFFFFFFFFFFFFFFFFFFFFFFFFFFFF AND LT PUSH2 0x44C JUMPI PUSH1 0x40 MLOAD PUSH32 0xEFF2C18200000000000000000000000000000000000000000000000000000000 DUP2 MSTORE PUSH1 0x4 ADD PUSH1 0x40 MLOAD DUP1 SWAP2 SUB SWAP1 REVERT JUMPDEST POP JUMP JUMPDEST PUSH0 PUSH1 0x40 MLOAD SWAP1 POP SWAP1 JUMP JUMPDEST PUSH0 PUSH0 REVERT JUMPDEST PUSH0 PUSH20 0xFFFFFFFFFFFFFFFFFFFFFFFFFFFFFFFFFFFFFFFF DUP3 AND SWAP1 POP SWAP2 SWAP1 POP JUMP JUMPDEST PUSH0 PUSH2 0x485 DUP3 PUSH2 0x45C JUMP JUMPDEST SWAP1 POP SWAP2 SWAP1 POP JUMP JUMPDEST PUSH2 0x495 DUP2 PUSH2 0x47B JUMP JUMPDEST DUP2 EQ PUSH2 0x49F JUMPI PUSH0 PUSH0 REVERT JUMPDEST POP JUMP JUMPDEST PUSH0 DUP2 MLOAD SWAP1 POP PUSH2 0x4B0 DUP2 PUSH2 0x48C JUMP JUMPDEST SWAP3 SWAP2 POP POP JUMP JUMPDEST PUSH0 PUSH0 REVERT JUMPDEST PUSH0 PUSH1 0x1F NOT PUSH1 0x1F DUP4 ADD AND SWAP1 POP SWAP2 SWAP1 POP JUMP JUMPDEST PUSH32 0x4E487B7100000000000000000000000000000000000000000000000000000000 PUSH0 MSTORE PUSH1 0x41 PUSH1 0x4 MSTORE PUSH1 0x24 PUSH0 REVERT JUMPDEST PUSH2 0x500 DUP3 PUSH2 0x4BA JUMP JUMPDEST DUP2 ADD DUP2 DUP2 LT PUSH8 0xFFFFFFFFFFFFFFFF DUP3 GT OR ISZERO PUSH2 0x51F JUMPI PUSH2 0x51E PUSH2 0x4CA JUMP JUMPDEST JUMPDEST DUP1 PUSH1 0x40 MSTORE POP POP POP JUMP JUMPDEST PUSH0 PUSH2 0x531 PUSH2 0x44F JUMP JUMPDEST SWAP1 POP PUSH2 0x53D DUP3 DUP3 PUSH2 0x4F7 JUMP JUMPDEST SWAP2 SWAP1 POP JUMP JUMPDEST PUSH0 DUP2 SWAP1 POP SWAP2 SWAP1 POP JUMP JUMPDEST PUSH2 0x554 DUP2 PUSH2 0x542 JUMP JUMPDEST DUP2 EQ PUSH2 0x55E JUMPI PUSH0 PUSH0 REVERT JUMPDEST POP JUMP JUMPDEST PUSH0 DUP2 MLOAD SWAP1 POP PUSH2 0x56F DUP2 PUSH2 0x54B JUMP JUMPDEST SWAP3 SWAP2 POP POP JUMP JUMPDEST PUSH0 PUSH14 0xFFFFFFFFFFFFFFFFFFFFFFFFFFFF DUP3 AND SWAP1 POP SWAP2 SWAP1 POP JUMP JUMPDEST PUSH2 0x597 DUP2 PUSH2 0x575 JUMP JUMPDEST DUP2 EQ PUSH2 0x5A1 JUMPI PUSH0 PUSH0 REVERT JUMPDEST POP JUMP JUMPDEST PUSH0 DUP2 MLOAD SWAP1 POP PUSH2 0x5B2 DUP2 PUSH2 0x58E JUMP JUMPDEST SWAP3 SWAP2 POP POP JUMP JUMPDEST PUSH0 PUSH4 0xFFFFFFFF DUP3 AND SWAP1 POP SWAP2 SWAP1 POP JUMP JUMPDEST PUSH2 0x5D0 DUP2 PUSH2 0x5B8 JUMP JUMPDEST DUP2 EQ PUSH2 0x5DA JUMPI PUSH0 PUSH0 REVERT JUMPDEST POP JUMP JUMPDEST PUSH0 DUP2 MLOAD SWAP1 POP PUSH2 0x5EB DUP2 PUSH2 0x5C7 JUMP JUMPDEST SWAP3 SWAP2 POP POP JUMP JUMPDEST PUSH0 PUSH2 0x100 DUP3 DUP5 SUB SLT ISZERO PUSH2 0x607 JUMPI PUSH2 0x606 PUSH2 0x4B6 JUMP JUMPDEST JUMPDEST PUSH2 0x612 PUSH2 0x100 PUSH2 0x528 JUMP JUMPDEST SWAP1 POP PUSH0 PUSH2 0x621 DUP5 DUP3 DUP6 ADD PUSH2 0x561 JUMP JUMPDEST PUSH0 DUP4 ADD MSTORE POP PUSH1 0x20 PUSH2 0x634 DUP5 DUP3 DUP6 ADD PUSH2 0x561 JUMP JUMPDEST PUSH1 0x20 DUP4 ADD MSTORE POP PUSH1 0x40 PUSH2 0x648 DUP5 DUP3 DUP6 ADD PUSH2 0x561 JUMP JUMPDEST PUSH1 0x40 DUP4 ADD MSTORE POP PUSH1 0x60 PUSH2 0x65C DUP5 DUP3 DUP6 ADD PUSH2 0x561 JUMP JUMPDEST PUSH1 0x60 DUP4 ADD MSTORE POP PUSH1 0x80 PUSH2 0x670 DUP5 DUP3 DUP6 ADD PUSH2 0x561 JUMP JUMPDEST PUSH1 0x80 DUP4 ADD MSTORE POP PUSH1 0xA0 PUSH2 0x684 DUP5 DUP3 DUP6 ADD PUSH2 0x5A4 JUMP JUMPDEST PUSH1 0xA0 DUP4 ADD MSTORE POP PUSH1 0xC0 PUSH2 0x698 DUP5 DUP3 DUP6 ADD PUSH2 0x5A4 JUMP JUMPDEST PUSH1 0xC0 DUP4 ADD MSTORE POP PUSH1 0xE0 PUSH2 0x6AC DUP5 DUP3 DUP6 ADD PUSH2 0x5DD JUMP JUMPDEST PUSH1 0xE0 DUP4 ADD MSTORE POP SWAP3 SWAP2 POP POP JUMP JUMPDEST PUSH0 PUSH0 PUSH0 PUSH0 PUSH2 0x160 DUP6 DUP8 SUB SLT ISZERO PUSH2 0x6D1 JUMPI PUSH2 0x6D0 PUSH2 0x458 JUMP JUMPDEST JUMPDEST PUSH0 PUSH2 0x6DE DUP8 DUP3 DUP9 ADD PUSH2 0x4A2 JUMP JUMPDEST SWAP5 POP POP PUSH1 0x20 PUSH2 0x6EF DUP8 DUP3 DUP9 ADD PUSH2 0x4A2 JUMP JUMPDEST SWAP4 POP POP PUSH1 0x40 PUSH2 0x700 DUP8 DUP3 DUP9 ADD PUSH2 0x4A2 JUMP JUMPDEST SWAP3 POP POP PUSH1 0x60 PUSH2 0x711 DUP8 DUP3 DUP9 ADD PUSH2 0x5F1 JUMP JUMPDEST SWAP2 POP POP SWAP3 SWAP6 SWAP2 SWAP5 POP SWAP3 POP JUMP JUMPDEST PUSH2 0x726 DUP2 PUSH2 0x47B JUMP JUMPDEST DUP3 MSTORE POP POP JUMP JUMPDEST PUSH0 PUSH1 0x20 DUP3 ADD SWAP1 POP PUSH2 0x73F PUSH0 DUP4 ADD DUP5 PUSH2 0x71D JUMP JUMPDEST SWAP3 SWAP2 POP POP JUMP JUMPDEST PUSH2 0x23C0 DUP1 PUSH2 0x752 PUSH0 CODECOPY PUSH0 RETURN INVALID PUSH1 0x80 PUSH1 0x40 MSTORE PUSH1 0x4 CALLDATASIZE LT PUSH2 0xF6 JUMPI PUSH0 CALLDATALOAD PUSH1 0xE0 SHR DUP1 PUSH4 0x715018A6 GT PUSH2 0x89 JUMPI DUP1 PUSH4 0xD0E30DB0 GT PUSH2 0x58 JUMPI DUP1 PUSH4 0xD0E30DB0 EQ PUSH2 0x315 JUMPI DUP1 PUSH4 0xEA8A1AF0 EQ PUSH2 0x33F JUMPI DUP1 PUSH4 0xED498FA8 EQ PUSH2 0x369 JUMPI DUP1 PUSH4 0xF2FDE38B EQ PUSH2 0x3A5 JUMPI PUSH2 0x107 JUMP JUMPDEST DUP1 PUSH4 0x715018A6 EQ PUSH2 0x271 JUMPI DUP1 PUSH4 0x7F649783 EQ PUSH2 0x287 JUMPI DUP1 PUSH4 0x8DA5CB5B EQ PUSH2 0x2AF JUMPI DUP1 PUSH4 0x9B19251A EQ PUSH2 0x2D9 JUMPI PUSH2 0x107 JUMP JUMPDEST DUP1 PUSH4 0x4BB278F3 GT PUSH2 0xC5 JUMPI DUP1 PUSH4 0x4BB278F3 EQ PUSH2 0x1CB JUMPI DUP1 PUSH4 0x4E71D92D EQ PUSH2 0x1F5 JUMPI DUP1 PUSH4 0x548DB174 EQ PUSH2 0x21F JUMPI DUP1 PUSH4 0x590E1AE3 EQ PUSH2 0x247 JUMPI PUSH2 0x107 JUMP JUMPDEST DUP1 PUSH4 0x52D9E7E EQ PUSH2 0x10B JUMPI DUP1 PUSH4 0x16F0115B EQ PUSH2 0x133 JUMPI DUP1 PUSH4 0x184D69AB EQ PUSH2 0x165 JUMPI DUP1 PUSH4 0x42E94C90 EQ PUSH2 0x18F JUMPI PUSH2 0x107 JUMP JUMPDEST CALLDATASIZE PUSH2 0x107 JUMPI PUSH2 0x105 CALLER CALLVALUE PUSH2 0x3CD JUMP JUMPDEST STOP JUMPDEST PUSH0 PUSH0 REVERT JUMPDEST CALLVALUE DUP1 ISZERO PUSH2 0x116 JUMPI PUSH0 PUSH0 REVERT JUMPDEST POP PUSH2 0x131 PUSH1 0x4 DUP1 CALLDATASIZE SUB DUP2 ADD SWAP1 PUSH2 0x12C SWAP2 SWAP1 PUSH2 0x1BA3 JUMP JUMPDEST PUSH2 0x4A7 JUMP JUMPDEST STOP JUMPDEST CALLVALUE DUP1 ISZERO PUSH2 0x13E JUMPI PUSH0 PUSH0 REVERT JUMPDEST POP PUSH2 0x147 PUSH2 0x4CB JUMP JUMPDEST PUSH1 0x40 MLOAD PUSH2 0x15C SWAP10 SWAP9 SWAP8 SWAP7 SWAP6 SWAP5 SWAP4 SWAP3 SWAP2 SWAP1 PUSH2 0x1DB0 JUMP JUMPDEST PUSH1 0x40 MLOAD DUP1 SWAP2 SUB SWAP1 RETURN JUMPDEST CALLVALUE DUP1 ISZERO PUSH2 0x170 JUMPI PUSH0 PUSH0 REVERT JUMPDEST POP PUSH2 0x179 PUSH2 0x659 JUMP JUMPDEST PUSH1 0x40 MLOAD PUSH2 0x186 SWAP2 SWAP1 PUSH2 0x1E4A JUMP JUMPDEST PUSH1 0x40 MLOAD DUP1 SWAP2 SUB SWAP1 RETURN JUMPDEST CALLVALUE DUP1 ISZERO PUSH2 0x19A JUMPI PUSH0 PUSH0 REVERT JUMPDEST POP PUSH2 0x1B5 PUSH1 0x4 DUP1 CALLDATASIZE SUB DUP2 ADD SWAP1 PUSH2 0x1B0 SWAP2 SWAP1 PUSH2 0x1E8D JUMP JUMPDEST PUSH2 0x66B JUMP JUMPDEST PUSH1 0x40 MLOAD PUSH2 0x1C2 SWAP2 SWAP1 PUSH2 0x1EB8 JUMP JUMPDEST PUSH1 0x40 MLOAD DUP1 SWAP2 SUB SWAP1 RETURN JUMPDEST CALLVALUE DUP1 ISZERO PUSH2 0x1D6 JUMPI PUSH0 PUSH0 REVERT JUMPDEST POP PUSH2 0x1DF PUSH2 0x680 JUMP JUMPDEST PUSH1 0x40 MLOAD PUSH2 0x1EC SWAP2 SWAP1 PUSH2 0x1E4A JUMP JUMPDEST PUSH1 0x40 MLOAD DUP1 SWAP2 SUB SWAP1 RETURN JUMPDEST CALLVALUE DUP1 ISZERO PUSH2 0x200 JUMPI PUSH0 PUSH0 REVERT JUMPDEST POP PUSH2 0x209 PUSH2 0x886 JUMP JUMPDEST PUSH1 0x40 MLOAD PUSH2 0x216 SWAP2 SWAP1 PUSH2 0x1EB8 JUMP JUMPDEST PUSH1 0x40 MLOAD DUP1 SWAP2 SUB SWAP1 RETURN JUMPDEST CALLVALUE DUP1 ISZERO PUSH2 0x22A JUMPI PUSH0 PUSH0 REVERT JUMPDEST POP PUSH2 0x245 PUSH1 0x4 DUP1 CALLDATASIZE SUB DUP2 ADD SWAP1 PUSH2 0x240 SWAP2 SWAP1 PUSH2 0x1F32 JUMP JUMPDEST PUSH2 0xA87 JUMP JUMPDEST STOP JUMPDEST CALLVALUE DUP1 ISZERO PUSH2 0x252 JUMPI PUSH0 PUSH0 REVERT JUMPDEST POP PUSH2 0x25B PUSH2 0xB2C JUMP JUMPDEST PUSH1 0x40 MLOAD PUSH2 0x268 SWAP2 SWAP1 PUSH2 0x1EB8 JUMP JUMPDEST PUSH1 0x40 MLOAD DUP1 SWAP2 SUB SWAP1 RETURN JUMPDEST CALLVALUE DUP1 ISZERO PUSH2 0x27C JUMPI PUSH0 PUSH0 REVERT JUMPDEST POP PUSH2 0x285 PUSH2 0xD5D JUMP JUMPDEST STOP JUMPDEST CALLVALUE DUP1 ISZERO PUSH2 0x292 JUMPI PUSH0 PUSH0 REVERT JUMPDEST POP PUSH2 0x2AD PUSH1 0x4 DUP1 CALLDATASIZE SUB DUP2 ADD SWAP1 PUSH2 0x2A8 SWAP2 SWAP1 PUSH2 0x1F32 JUMP JUMPDEST PUSH2 0xD70 JUMP JUMPDEST STOP JUMPDEST CALLVALUE DUP1 ISZERO PUSH2 0x2BA JUMPI PUSH0 PUSH0 REVERT JUMPDEST POP PUSH2 0x2C3 PUSH2 0xE16 JUMP JUMPDEST PUSH1 0x40 MLOAD PUSH2 0x2D0 SWAP2 SWAP1 PUSH2 0x1F7D JUMP JUMPDEST PUSH1 0x40 MLOAD DUP1 SWAP2 SUB SWAP1 RETURN JUMPDEST CALLVALUE DUP1 ISZERO PUSH2 0x2E4 JUMPI PUSH0 PUSH0 REVERT JUMPDEST POP PUSH2 0x2FF PUSH1 0x4 DUP1 CALLDATASIZE SUB DUP2 ADD SWAP1 PUSH2 0x2FA SWAP2 SWAP1 PUSH2 0x1E8D JUMP JUMPDEST PUSH2 0xE3D JUMP JUMPDEST PUSH1 0x40 MLOAD PUSH2 0x30C SWAP2 SWAP1 PUSH2 0x1E4A JUMP JUMPDEST PUSH1 0x40 MLOAD DUP1 SWAP2 SUB SWAP1 RETURN JUMPDEST CALLVALUE DUP1 ISZERO PUSH2 0x320 JUMPI PUSH0 PUSH0 REVERT JUMPDEST POP PUSH2 0x329 PUSH2 0xE5A JUMP JUMPDEST PUSH1 0x40 MLOAD PUSH2 0x336 SWAP2 SWAP1 PUSH2 0x1EB8 JUMP JUMPDEST PUSH1 0x40 MLOAD DUP1 SWAP2 SUB SWAP1 RETURN JUMPDEST CALLVALUE DUP1 ISZERO PUSH2 0x34A JUMPI PUSH0 PUSH0 REVERT JUMPDEST POP PUSH2 0x353 PUSH2 0xFEC JUMP JUMPDEST PUSH1 0x40 MLOAD PUSH2 0x360 SWAP2 SWAP1 PUSH2 0x1E4A JUMP JUMPDEST PUSH1 0x40 MLOAD DUP1 SWAP2 SUB SWAP1 RETURN JUMPDEST CALLVALUE DUP1 ISZERO PUSH2 0x374 JUMPI PUSH0 PUSH0 REVERT JUMPDEST POP PUSH2 0x38F PUSH1 0x4 DUP1 CALLDATASIZE SUB DUP2 ADD SWAP1 PUSH2 0x38A SWAP2 SWAP1 PUSH2 0x1E8D JUMP JUMPDEST PUSH2 0x1144 JUMP JUMPDEST PUSH1 0x40 MLOAD PUSH2 0x39C SWAP2 SWAP1 PUSH2 0x1EB8 JUMP JUMPDEST PUSH1 0x40 MLOAD DUP1 SWAP2 SUB SWAP1 RETURN JUMPDEST CALLVALUE DUP1 ISZERO PUSH2 0x3B0 JUMPI PUSH0 PUSH0 REVERT JUMPDEST POP PUSH2 0x3CB PUSH1 0x4 DUP1 CALLDATASIZE SUB DUP2 ADD SWAP1 PUSH2 0x3C6 SWAP2 SWAP1 PUSH2 0x1E8D JUMP JUMPDEST PUSH2 0x11E4 JUMP JUMPDEST STOP JUMPDEST PUSH2 0x3D5 PUSH2 0x1268 JUMP JUMPDEST PUSH2 0x3DF DUP3 DUP3 PUSH2 0x12B7 JUMP JUMPDEST DUP1 PUSH1 0x3 PUSH1 0x5 ADD PUSH0 DUP3 DUP3 SLOAD PUSH2 0x3F3 SWAP2 SWAP1 PUSH2 0x1FC3 JUMP JUMPDEST SWAP3 POP POP DUP2 SWAP1 SSTORE POP DUP1 PUSH1 0x2 PUSH0 DUP5 PUSH20 0xFFFFFFFFFFFFFFFFFFFFFFFFFFFFFFFFFFFFFFFF AND PUSH20 0xFFFFFFFFFFFFFFFFFFFFFFFFFFFFFFFFFFFFFFFF AND DUP2 MSTORE PUSH1 0x20 ADD SWAP1 DUP2 MSTORE PUSH1 0x20 ADD PUSH0 KECCAK256 PUSH0 DUP3 DUP3 SLOAD PUSH2 0x446 SWAP2 SWAP1 PUSH2 0x1FC3 JUMP JUMPDEST SWAP3 POP POP DUP2 SWAP1 SSTORE POP DUP2 PUSH20 0xFFFFFFFFFFFFFFFFFFFFFFFFFFFFFFFFFFFFFFFF AND PUSH32 0x2499A5330AB0979CC612135E7883EBC3CD5C9F7A8508F042540C34723348F632 DUP3 PUSH1 0x40 MLOAD PUSH2 0x493 SWAP2 SWAP1 PUSH2 0x1EB8 JUMP JUMPDEST PUSH1 0x40 MLOAD DUP1 SWAP2 SUB SWAP1 LOG2 PUSH2 0x4A3 PUSH2 0x158E JUMP JUMPDEST POP POP JUMP JUMPDEST PUSH2 0x4AF PUSH2 0x1597 JUMP JUMPDEST DUP1 PUSH1 0x10 PUSH0 PUSH2 0x100 EXP DUP2 SLOAD DUP2 PUSH1 0xFF MUL NOT AND SWAP1 DUP4 ISZERO ISZERO MUL OR SWAP1 SSTORE POP POP JUMP JUMPDEST PUSH1 0x3 DUP1 PUSH0 ADD PUSH0 SWAP1 SLOAD SWAP1 PUSH2 0x100 EXP SWAP1 DIV PUSH20 0xFFFFFFFFFFFFFFFFFFFFFFFFFFFFFFFFFFFFFFFF AND SWAP1 DUP1 PUSH1 0x1 ADD PUSH0 SWAP1 SLOAD SWAP1 PUSH2 0x100 EXP SWAP1 DIV PUSH20 0xFFFFFFFFFFFFFFFFFFFFFFFFFFFFFFFFFFFFFFFF AND SWAP1 DUP1 PUSH1 0x2 ADD SLOAD SWAP1 DUP1 PUSH1 0x3 ADD SLOAD SWAP1 DUP1 PUSH1 0x4 ADD SLOAD SWAP1 DUP1 PUSH1 0x5 ADD SLOAD SWAP1 DUP1 PUSH1 0x6 ADD PUSH0 SWAP1 SLOAD SWAP1 PUSH2 0x100 EXP SWAP1 DIV PUSH20 0xFFFFFFFFFFFFFFFFFFFFFFFFFFFFFFFFFFFFFFFF AND SWAP1 DUP1 PUSH1 0x6 ADD PUSH1 0x14 SWAP1 SLOAD SWAP1 PUSH2 0x100 EXP SWAP1 DIV PUSH1 0xFF AND SWAP1 DUP1 PUSH1 0x7 ADD PUSH1 0x40 MLOAD DUP1 PUSH2 0x100 ADD PUSH1 0x40 MSTORE SWAP1 DUP2 PUSH0 DUP3 ADD SLOAD DUP2 MSTORE PUSH1 0x20 ADD PUSH1 0x1 DUP3 ADD SLOAD DUP2 MSTORE PUSH1 0x20 ADD PUSH1 0x2 DUP3 ADD SLOAD DUP2 MSTORE PUSH1 0x20 ADD PUSH1 0x3 DUP3 ADD SLOAD DUP2 MSTORE PUSH1 0x20 ADD PUSH1 0x4 DUP3 ADD SLOAD DUP2 MSTORE PUSH1 0x20 ADD PUSH1 0x5 DUP3 ADD PUSH0 SWAP1 SLOAD SWAP1 PUSH2 0x100 EXP SWAP1 DIV PUSH14 0xFFFFFFFFFFFFFFFFFFFFFFFFFFFF AND PUSH14 0xFFFFFFFFFFFFFFFFFFFFFFFFFFFF AND PUSH14 0xFFFFFFFFFFFFFFFFFFFFFFFFFFFF AND DUP2 MSTORE PUSH1 0x20 ADD PUSH1 0x5 DUP3 ADD PUSH1 0xE SWAP1 SLOAD SWAP1 PUSH2 0x100 EXP SWAP1 DIV PUSH14 0xFFFFFFFFFFFFFFFFFFFFFFFFFFFF AND PUSH14 0xFFFFFFFFFFFFFFFFFFFFFFFFFFFF AND PUSH14 0xFFFFFFFFFFFFFFFFFFFFFFFFFFFF AND DUP2 MSTORE PUSH1 0x20 ADD PUSH1 0x5 DUP3 ADD PUSH1 0x1C SWAP1 SLOAD SWAP1 PUSH2 0x100 EXP SWAP1 DIV PUSH4 0xFFFFFFFF AND PUSH4 0xFFFFFFFF AND PUSH4 0xFFFFFFFF AND DUP2 MSTORE POP POP SWAP1 POP DUP10 JUMP JUMPDEST PUSH1 0x10 PUSH0 SWAP1 SLOAD SWAP1 PUSH2 0x100 EXP SWAP1 DIV PUSH1 0xFF AND DUP2 JUMP JUMPDEST PUSH1 0x2 PUSH1 0x20 MSTORE DUP1 PUSH0 MSTORE PUSH1 0x40 PUSH0 KECCAK256 PUSH0 SWAP2 POP SWAP1 POP SLOAD DUP2 JUMP JUMPDEST PUSH0 PUSH2 0x689 PUSH2 0x1597 JUMP JUMPDEST PUSH2 0x691 PUSH2 0x1268 JUMP JUMPDEST PUSH1 0x2 PUSH1 0x3 PUSH1 0x6 ADD PUSH1 0x14 SWAP1 SLOAD SWAP1 PUSH2 0x100 EXP SWAP1 DIV PUSH1 0xFF AND PUSH1 0xFF AND EQ PUSH2 0x6FD JUMPI PUSH1 0x3 PUSH1 0x6 ADD PUSH1 0x14 SWAP1 SLOAD SWAP1 PUSH2 0x100 EXP SWAP1 DIV PUSH1 0xFF AND PUSH1 0x40 MLOAD PUSH32 0xD07E897600000000000000000000000000000000000000000000000000000000 DUP2 MSTORE PUSH1 0x4 ADD PUSH2 0x6F4 SWAP2 SWAP1 PUSH2 0x1FF6 JUMP JUMPDEST PUSH1 0x40 MLOAD DUP1 SWAP2 SUB SWAP1 REVERT JUMPDEST PUSH1 0x3 PUSH1 0x7 ADD PUSH1 0x2 ADD SLOAD PUSH1 0x3 PUSH1 0x5 ADD SLOAD LT DUP1 ISZERO PUSH2 0x74A JUMPI POP PUSH1 0x3 PUSH1 0x7 ADD PUSH1 0x5 ADD PUSH1 0xE SWAP1 SLOAD SWAP1 PUSH2 0x100 EXP SWAP1 DIV PUSH14 0xFFFFFFFFFFFFFFFFFFFFFFFFFFFF AND PUSH14 0xFFFFFFFFFFFFFFFFFFFFFFFFFFFF AND TIMESTAMP LT JUMPDEST ISZERO PUSH2 0x781 JUMPI PUSH1 0x40 MLOAD PUSH32 0x2BDC91AD00000000000000000000000000000000000000000000000000000000 DUP2 MSTORE PUSH1 0x4 ADD PUSH1 0x40 MLOAD DUP1 SWAP2 SUB SWAP1 REVERT JUMPDEST PUSH1 0x4 PUSH1 0x3 PUSH1 0x6 ADD PUSH1 0x14 PUSH2 0x100 EXP DUP2 SLOAD DUP2 PUSH1 0xFF MUL NOT AND SWAP1 DUP4 PUSH1 0xFF AND MUL OR SWAP1 SSTORE POP PUSH0 PUSH2 0x7A9 PUSH2 0x161E JUMP JUMPDEST SWAP1 POP PUSH2 0x7BA DUP2 PUSH1 0x3 PUSH1 0x4 ADD SLOAD PUSH2 0x1660 JUMP JUMPDEST PUSH1 0x3 PUSH1 0x4 ADD SLOAD PUSH1 0x3 PUSH1 0x2 ADD PUSH0 DUP3 DUP3 SLOAD PUSH2 0x7D3 SWAP2 SWAP1 PUSH2 0x200F JUMP JUMPDEST SWAP3 POP POP DUP2 SWAP1 SSTORE POP PUSH0 DUP2 PUSH1 0x3 PUSH1 0x5 ADD SLOAD PUSH2 0x7EC SWAP2 SWAP1 PUSH2 0x200F JUMP JUMPDEST SWAP1 POP PUSH0 DUP2 GT ISZERO PUSH2 0x820 JUMPI PUSH2 0x81F DUP2 CALLER PUSH20 0xFFFFFFFFFFFFFFFFFFFFFFFFFFFFFFFFFFFFFFFF AND PUSH2 0x1794 SWAP1 SWAP2 SWAP1 PUSH4 0xFFFFFFFF AND JUMP JUMPDEST JUMPDEST CALLER PUSH20 0xFFFFFFFFFFFFFFFFFFFFFFFFFFFFFFFFFFFFFFFF AND PUSH32 0x616C9469DB50815AE0F1D0A020D9FC9060DA7C57F03559AFB0D4EBDAA0A3A05E PUSH1 0x3 PUSH1 0x5 ADD SLOAD TIMESTAMP PUSH1 0x40 MLOAD PUSH2 0x86D SWAP3 SWAP2 SWAP1 PUSH2 0x2042 JUMP JUMPDEST PUSH1 0x40 MLOAD DUP1 SWAP2 SUB SWAP1 LOG2 PUSH1 0x1 SWAP3 POP POP POP PUSH2 0x883 PUSH2 0x158E JUMP JUMPDEST SWAP1 JUMP JUMPDEST PUSH0 PUSH2 0x88F PUSH2 0x1268 JUMP JUMPDEST PUSH1 0x4 PUSH1 0x3 PUSH1 0x6 ADD PUSH1 0x14 SWAP1 SLOAD SWAP1 PUSH2 0x100 EXP SWAP1 DIV PUSH1 0xFF AND PUSH1 0xFF AND EQ PUSH2 0x8FB JUMPI PUSH1 0x3 PUSH1 0x6 ADD PUSH1 0x14 SWAP1 SLOAD SWAP1 PUSH2 0x100 EXP SWAP1 DIV PUSH1 0xFF AND PUSH1 0x40 MLOAD PUSH32 0xD07E897600000000000000000000000000000000000000000000000000000000 DUP2 MSTORE PUSH1 0x4 ADD PUSH2 0x8F2 SWAP2 SWAP1 PUSH2 0x1FF6 JUMP JUMPDEST PUSH1 0x40 MLOAD DUP1 SWAP2 SUB SWAP1 REVERT JUMPDEST PUSH0 PUSH1 0x2 PUSH0 CALLER PUSH20 0xFFFFFFFFFFFFFFFFFFFFFFFFFFFFFFFFFFFFFFFF AND PUSH20 0xFFFFFFFFFFFFFFFFFFFFFFFFFFFFFFFFFFFFFFFF AND DUP2 MSTORE PUSH1 0x20 ADD SWAP1 DUP2 MSTORE PUSH1 0x20 ADD PUSH0 KECCAK256 SLOAD SUB PUSH2 0x971 JUMPI PUSH1 0x40 MLOAD PUSH32 0x6247A84E00000000000000000000000000000000000000000000000000000000 DUP2 MSTORE PUSH1 0x4 ADD PUSH1 0x40 MLOAD DUP1 SWAP2 SUB SWAP1 REVERT JUMPDEST PUSH0 PUSH2 0x97B CALLER PUSH2 0x1144 JUMP JUMPDEST SWAP1 POP PUSH0 PUSH1 0x2 PUSH0 CALLER PUSH20 0xFFFFFFFFFFFFFFFFFFFFFFFFFFFFFFFFFFFFFFFF AND PUSH20 0xFFFFFFFFFFFFFFFFFFFFFFFFFFFFFFFFFFFFFFFF AND DUP2 MSTORE PUSH1 0x20 ADD SWAP1 DUP2 MSTORE PUSH1 0x20 ADD PUSH0 KECCAK256 DUP2 SWAP1 SSTORE POP DUP1 PUSH1 0x3 PUSH1 0x2 ADD PUSH0 DUP3 DUP3 SLOAD PUSH2 0x9D3 SWAP2 SWAP1 PUSH2 0x200F JUMP JUMPDEST SWAP3 POP POP DUP2 SWAP1 SSTORE POP PUSH2 0xA28 CALLER DUP3 PUSH1 0x3 PUSH0 ADD PUSH0 SWAP1 SLOAD SWAP1 PUSH2 0x100 EXP SWAP1 DIV PUSH20 0xFFFFFFFFFFFFFFFFFFFFFFFFFFFFFFFFFFFFFFFF AND PUSH20 0xFFFFFFFFFFFFFFFFFFFFFFFFFFFFFFFFFFFFFFFF AND PUSH2 0x185A SWAP1 SWAP3 SWAP2 SWAP1 PUSH4 0xFFFFFFFF AND JUMP JUMPDEST CALLER PUSH20 0xFFFFFFFFFFFFFFFFFFFFFFFFFFFFFFFFFFFFFFFF AND PUSH32 0x30C2341BA3F2142E78472F07DCF018A42044AE1C2C2E7CE867B327257F07EF2B DUP3 TIMESTAMP PUSH1 0x40 MLOAD PUSH2 0xA70 SWAP3 SWAP2 SWAP1 PUSH2 0x2042 JUMP JUMPDEST PUSH1 0x40 MLOAD DUP1 SWAP2 SUB SWAP1 LOG2 DUP1 SWAP2 POP POP PUSH2 0xA84 PUSH2 0x158E JUMP JUMPDEST SWAP1 JUMP JUMPDEST PUSH2 0xA8F PUSH2 0x1597 JUMP JUMPDEST PUSH0 PUSH0 SWAP1 POP JUMPDEST DUP3 DUP3 SWAP1 POP DUP2 LT ISZERO PUSH2 0xB27 JUMPI PUSH0 PUSH1 0x11 PUSH0 DUP6 DUP6 DUP6 DUP2 DUP2 LT PUSH2 0xAB6 JUMPI PUSH2 0xAB5 PUSH2 0x2069 JUMP JUMPDEST JUMPDEST SWAP1 POP PUSH1 0x20 MUL ADD PUSH1 0x20 DUP2 ADD SWAP1 PUSH2 0xACB SWAP2 SWAP1 PUSH2 0x1E8D JUMP JUMPDEST PUSH20 0xFFFFFFFFFFFFFFFFFFFFFFFFFFFFFFFFFFFFFFFF AND PUSH20 0xFFFFFFFFFFFFFFFFFFFFFFFFFFFFFFFFFFFFFFFF AND DUP2 MSTORE PUSH1 0x20 ADD SWAP1 DUP2 MSTORE PUSH1 0x20 ADD PUSH0 KECCAK256 PUSH0 PUSH2 0x100 EXP DUP2 SLOAD DUP2 PUSH1 0xFF MUL NOT AND SWAP1 DUP4 ISZERO ISZERO MUL OR SWAP1 SSTORE POP DUP1 DUP1 PUSH1 0x1 ADD SWAP2 POP POP PUSH2 0xA94 JUMP JUMPDEST POP POP POP JUMP JUMPDEST PUSH0 PUSH0 PUSH1 0x3 DUP1 PUSH1 0x6 ADD PUSH1 0x14 SWAP1 SLOAD SWAP1 PUSH2 0x100 EXP SWAP1 DIV PUSH1 0xFF AND PUSH1 0xFF AND EQ DUP1 PUSH2 0xB9A JUMPI POP PUSH1 0x3 PUSH1 0x7 ADD PUSH1 0x5 ADD PUSH1 0xE SWAP1 SLOAD SWAP1 PUSH2 0x100 EXP SWAP1 DIV PUSH14 0xFFFFFFFFFFFFFFFFFFFFFFFFFFFF AND PUSH14 0xFFFFFFFFFFFFFFFFFFFFFFFFFFFF AND TIMESTAMP GT DUP1 ISZERO PUSH2 0xB99 JUMPI POP PUSH1 0x3 PUSH1 0x7 ADD PUSH1 0x2 ADD SLOAD PUSH1 0x3 PUSH1 0x5 ADD SLOAD LT JUMPDEST JUMPDEST SWAP1 POP DUP1 PUSH2 0xBD3 JUMPI PUSH1 0x40 MLOAD PUSH32 0x3742D1F600000000000000000000000000000000000000000000000000000000 DUP2 MSTORE PUSH1 0x4 ADD PUSH1 0x40 MLOAD DUP1 SWAP2 SUB SWAP1 REVERT JUMPDEST PUSH2 0xBDB PUSH2 0x1268 JUMP JUMPDEST PUSH0 PUSH1 0x2 PUSH0 CALLER PUSH20 0xFFFFFFFFFFFFFFFFFFFFFFFFFFFFFFFFFFFFFFFF AND PUSH20 0xFFFFFFFFFFFFFFFFFFFFFFFFFFFFFFFFFFFFFFFF AND DUP2 MSTORE PUSH1 0x20 ADD SWAP1 DUP2 MSTORE PUSH1 0x20 ADD PUSH0 KECCAK256 SLOAD SUB PUSH2 0xC51 JUMPI PUSH1 0x40 MLOAD PUSH32 0x3742D1F600000000000000000000000000000000000000000000000000000000 DUP2 MSTORE PUSH1 0x4 ADD PUSH1 0x40 MLOAD DUP1 SWAP2 SUB SWAP1 REVERT JUMPDEST PUSH0 PUSH1 0x2 PUSH0 CALLER PUSH20 0xFFFFFFFFFFFFFFFFFFFFFFFFFFFFFFFFFFFFFFFF AND PUSH20 0xFFFFFFFFFFFFFFFFFFFFFFFFFFFFFFFFFFFFFFFF AND DUP2 MSTORE PUSH1 0x20 ADD SWAP1 DUP2 MSTORE PUSH1 0x20 ADD PUSH0 KECCAK256 SLOAD SWAP1 POP PUSH0 PUSH1 0x2 PUSH0 CALLER PUSH20 0xFFFFFFFFFFFFFFFFFFFFFFFFFFFFFFFFFFFFFFFF AND PUSH20 0xFFFFFFFFFFFFFFFFFFFFFFFFFFFFFFFFFFFFFFFF AND DUP2 MSTORE PUSH1 0x20 ADD SWAP1 DUP2 MSTORE PUSH1 0x20 ADD PUSH0 KECCAK256 DUP2 SWAP1 SSTORE POP PUSH2 0xCFD DUP2 CALLER PUSH20 0xFFFFFFFFFFFFFFFFFFFFFFFFFFFFFFFFFFFFFFFF AND PUSH2 0x1794 SWAP1 SWAP2 SWAP1 PUSH4 0xFFFFFFFF AND JUMP JUMPDEST CALLER PUSH20 0xFFFFFFFFFFFFFFFFFFFFFFFFFFFFFFFFFFFFFFFF AND PUSH32 0x73F04AF9DCC582A923EC15D3EEA990FE34ADABFFF2879E28D44572E01A54ABB6 DUP3 TIMESTAMP PUSH1 0x40 MLOAD PUSH2 0xD45 SWAP3 SWAP2 SWAP1 PUSH2 0x2042 JUMP JUMPDEST PUSH1 0x40 MLOAD DUP1 SWAP2 SUB SWAP1 LOG2 DUP1 SWAP3 POP POP PUSH2 0xD59 PUSH2 0x158E JUMP JUMPDEST POP SWAP1 JUMP JUMPDEST PUSH2 0xD65 PUSH2 0x1597 JUMP JUMPDEST PUSH2 0xD6E PUSH0 PUSH2 0x18D9 JUMP JUMPDEST JUMP JUMPDEST PUSH2 0xD78 PUSH2 0x1597 JUMP JUMPDEST PUSH0 PUSH0 SWAP1 POP JUMPDEST DUP3 DUP3 SWAP1 POP DUP2 LT ISZERO PUSH2 0xE11 JUMPI PUSH1 0x1 PUSH1 0x11 PUSH0 DUP6 DUP6 DUP6 DUP2 DUP2 LT PUSH2 0xDA0 JUMPI PUSH2 0xD9F PUSH2 0x2069 JUMP JUMPDEST JUMPDEST SWAP1 POP PUSH1 0x20 MUL ADD PUSH1 0x20 DUP2 ADD SWAP1 PUSH2 0xDB5 SWAP2 SWAP1 PUSH2 0x1E8D JUMP JUMPDEST PUSH20 0xFFFFFFFFFFFFFFFFFFFFFFFFFFFFFFFFFFFFFFFF AND PUSH20 0xFFFFFFFFFFFFFFFFFFFFFFFFFFFFFFFFFFFFFFFF AND DUP2 MSTORE PUSH1 0x20 ADD SWAP1 DUP2 MSTORE PUSH1 0x20 ADD PUSH0 KECCAK256 PUSH0 PUSH2 0x100 EXP DUP2 SLOAD DUP2 PUSH1 0xFF MUL NOT AND SWAP1 DUP4 ISZERO ISZERO MUL OR SWAP1 SSTORE POP DUP1 DUP1 PUSH1 0x1 ADD SWAP2 POP POP PUSH2 0xD7D JUMP JUMPDEST POP POP POP JUMP JUMPDEST PUSH0 PUSH0 PUSH0 SWAP1 SLOAD SWAP1 PUSH2 0x100 EXP SWAP1 DIV PUSH20 0xFFFFFFFFFFFFFFFFFFFFFFFFFFFFFFFFFFFFFFFF AND SWAP1 POP SWAP1 JUMP JUMPDEST PUSH1 0x11 PUSH1 0x20 MSTORE DUP1 PUSH0 MSTORE PUSH1 0x40 PUSH0 KECCAK256 PUSH0 SWAP2 POP SLOAD SWAP1 PUSH2 0x100 EXP SWAP1 DIV PUSH1 0xFF AND DUP2 JUMP JUMPDEST PUSH0 PUSH2 0xE63 PUSH2 0x1597 JUMP JUMPDEST PUSH1 0x1 PUSH1 0x3 PUSH1 0x6 ADD PUSH1 0x14 SWAP1 SLOAD SWAP1 PUSH2 0x100 EXP SWAP1 DIV PUSH1 0xFF AND PUSH1 0xFF AND EQ PUSH2 0xECF JUMPI PUSH1 0x3 PUSH1 0x6 ADD PUSH1 0x14 SWAP1 SLOAD SWAP1 PUSH2 0x100 EXP SWAP1 DIV PUSH1 0xFF AND PUSH1 0x40 MLOAD PUSH32 0xD07E897600000000000000000000000000000000000000000000000000000000 DUP2 MSTORE PUSH1 0x4 ADD PUSH2 0xEC6 SWAP2 SWAP1 PUSH2 0x1FF6 JUMP JUMPDEST PUSH1 0x40 MLOAD DUP1 SWAP2 SUB SWAP1 REVERT JUMPDEST PUSH1 0x2 PUSH1 0x3 PUSH1 0x6 ADD PUSH1 0x14 PUSH2 0x100 EXP DUP2 SLOAD DUP2 PUSH1 0xFF MUL NOT AND SWAP1 DUP4 PUSH1 0xFF AND MUL OR SWAP1 SSTORE POP PUSH1 0x3 PUSH1 0x7 ADD PUSH0 ADD SLOAD PUSH1 0x3 PUSH1 0x2 ADD PUSH0 DUP3 DUP3 SLOAD PUSH2 0xF09 SWAP2 SWAP1 PUSH2 0x1FC3 JUMP JUMPDEST SWAP3 POP POP DUP2 SWAP1 SSTORE POP PUSH2 0xF18 PUSH2 0x199A JUMP JUMPDEST PUSH1 0x3 PUSH1 0x4 ADD DUP2 SWAP1 SSTORE POP PUSH2 0xF29 PUSH2 0x19DE JUMP JUMPDEST PUSH1 0x3 DUP1 ADD DUP2 SWAP1 SSTORE POP PUSH2 0xF88 CALLER ADDRESS PUSH1 0x3 PUSH1 0x7 ADD PUSH0 ADD SLOAD PUSH1 0x3 PUSH0 ADD PUSH0 SWAP1 SLOAD SWAP1 PUSH2 0x100 EXP SWAP1 DIV PUSH20 0xFFFFFFFFFFFFFFFFFFFFFFFFFFFFFFFFFFFFFFFF AND PUSH20 0xFFFFFFFFFFFFFFFFFFFFFFFFFFFFFFFFFFFFFFFF AND PUSH2 0x19FE SWAP1 SWAP4 SWAP3 SWAP2 SWAP1 PUSH4 0xFFFFFFFF AND JUMP JUMPDEST CALLER PUSH20 0xFFFFFFFFFFFFFFFFFFFFFFFFFFFFFFFFFFFFFFFF AND PUSH32 0x90890809C654F11D6E72A28FA60149770A0D11EC6C92319D6CEB2BB0A4EA1A15 PUSH1 0x3 PUSH1 0x7 ADD PUSH0 ADD SLOAD TIMESTAMP PUSH1 0x40 MLOAD PUSH2 0xFD7 SWAP3 SWAP2 SWAP1 PUSH2 0x2042 JUMP JUMPDEST PUSH1 0x40 MLOAD DUP1 SWAP2 SUB SWAP1 LOG2 PUSH1 0x3 PUSH1 0x7 ADD PUSH0 ADD SLOAD SWAP1 POP SWAP1 JUMP JUMPDEST PUSH0 PUSH2 0xFF5 PUSH2 0x1597 JUMP JUMPDEST PUSH1 0x3 DUP1 PUSH1 0x6 ADD PUSH1 0x14 SWAP1 SLOAD SWAP1 PUSH2 0x100 EXP SWAP1 DIV PUSH1 0xFF AND PUSH1 0xFF AND GT ISZERO PUSH2 0x1061 JUMPI PUSH1 0x3 PUSH1 0x6 ADD PUSH1 0x14 SWAP1 SLOAD SWAP1 PUSH2 0x100 EXP SWAP1 DIV PUSH1 0xFF AND PUSH1 0x40 MLOAD PUSH32 0xD07E897600000000000000000000000000000000000000000000000000000000 DUP2 MSTORE PUSH1 0x4 ADD PUSH2 0x1058 SWAP2 SWAP1 PUSH2 0x1FF6 JUMP JUMPDEST PUSH1 0x40 MLOAD DUP1 SWAP2 SUB SWAP1 REVERT JUMPDEST PUSH1 0x3 DUP1 PUSH1 0x6 ADD PUSH1 0x14 PUSH2 0x100 EXP DUP2 SLOAD DUP2 PUSH1 0xFF MUL NOT AND SWAP1 DUP4 PUSH1 0xFF AND MUL OR SWAP1 SSTORE POP PUSH0 PUSH1 0x3 PUSH1 0x2 ADD SLOAD GT ISZERO PUSH2 0x10EF JUMPI PUSH0 PUSH1 0x3 PUSH1 0x2 ADD SLOAD SWAP1 POP PUSH0 PUSH1 0x3 PUSH1 0x2 ADD DUP2 SWAP1 SSTORE POP PUSH2 0x10ED CALLER DUP3 PUSH1 0x3 PUSH0 ADD PUSH0 SWAP1 SLOAD SWAP1 PUSH2 0x100 EXP SWAP1 DIV PUSH20 0xFFFFFFFFFFFFFFFFFFFFFFFFFFFFFFFFFFFFFFFF AND PUSH20 0xFFFFFFFFFFFFFFFFFFFFFFFFFFFFFFFFFFFFFFFF AND PUSH2 0x185A SWAP1 SWAP3 SWAP2 SWAP1 PUSH4 0xFFFFFFFF AND JUMP JUMPDEST POP JUMPDEST CALLER PUSH20 0xFFFFFFFFFFFFFFFFFFFFFFFFFFFFFFFFFFFFFFFF AND PUSH32 0x27F83AF92B39768B17FE0C8D6922452702717EFB8626D97E7A754E0B27D4F6D2 TIMESTAMP PUSH1 0x40 MLOAD PUSH2 0x1135 SWAP2 SWAP1 PUSH2 0x1EB8 JUMP JUMPDEST PUSH1 0x40 MLOAD DUP1 SWAP2 SUB SWAP1 LOG2 PUSH1 0x1 SWAP1 POP SWAP1 JUMP JUMPDEST PUSH0 PUSH0 PUSH1 0x3 PUSH1 0x5 ADD SLOAD SUB PUSH2 0x1159 JUMPI PUSH0 SWAP1 POP PUSH2 0x11DF JUMP JUMPDEST PUSH8 0xDE0B6B3A7640000 PUSH1 0x3 DUP1 ADD SLOAD PUSH1 0x3 PUSH1 0x5 ADD SLOAD PUSH8 0xDE0B6B3A7640000 PUSH1 0x2 PUSH0 DUP8 PUSH20 0xFFFFFFFFFFFFFFFFFFFFFFFFFFFFFFFFFFFFFFFF AND PUSH20 0xFFFFFFFFFFFFFFFFFFFFFFFFFFFFFFFFFFFFFFFF AND DUP2 MSTORE PUSH1 0x20 ADD SWAP1 DUP2 MSTORE PUSH1 0x20 ADD PUSH0 KECCAK256 SLOAD PUSH2 0x11BE SWAP2 SWAP1 PUSH2 0x2096 JUMP JUMPDEST PUSH2 0x11C8 SWAP2 SWAP1 PUSH2 0x2104 JUMP JUMPDEST PUSH2 0x11D2 SWAP2 SWAP1 PUSH2 0x2096 JUMP JUMPDEST PUSH2 0x11DC SWAP2 SWAP1 PUSH2 0x2104 JUMP JUMPDEST SWAP1 POP JUMPDEST SWAP2 SWAP1 POP JUMP JUMPDEST PUSH2 0x11EC PUSH2 0x1597 JUMP JUMPDEST PUSH0 PUSH20 0xFFFFFFFFFFFFFFFFFFFFFFFFFFFFFFFFFFFFFFFF AND DUP2 PUSH20 0xFFFFFFFFFFFFFFFFFFFFFFFFFFFFFFFFFFFFFFFF AND SUB PUSH2 0x125C JUMPI PUSH0 PUSH1 0x40 MLOAD PUSH32 0x1E4FBDF700000000000000000000000000000000000000000000000000000000 DUP2 MSTORE PUSH1 0x4 ADD PUSH2 0x1253 SWAP2 SWAP1 PUSH2 0x1F7D JUMP JUMPDEST PUSH1 0x40 MLOAD DUP1 SWAP2 SUB SWAP1 REVERT JUMPDEST PUSH2 0x1265 DUP2 PUSH2 0x18D9 JUMP JUMPDEST POP JUMP JUMPDEST PUSH1 0x2 PUSH1 0x1 SLOAD SUB PUSH2 0x12AD JUMPI PUSH1 0x40 MLOAD PUSH32 0x8C379A000000000000000000000000000000000000000000000000000000000 DUP2 MSTORE PUSH1 0x4 ADD PUSH2 0x12A4 SWAP1 PUSH2 0x218E JUMP JUMPDEST PUSH1 0x40 MLOAD DUP1 SWAP2 SUB SWAP1 REVERT JUMPDEST PUSH1 0x2 PUSH1 0x1 DUP2 SWAP1 SSTORE POP JUMP JUMPDEST PUSH1 0x2 PUSH1 0x3 PUSH1 0x6 ADD PUSH1 0x14 SWAP1 SLOAD SWAP1 PUSH2 0x100 EXP SWAP1 DIV PUSH1 0xFF AND PUSH1 0xFF AND EQ PUSH2 0x1323 JUMPI PUSH1 0x3 PUSH1 0x6 ADD PUSH1 0x14 SWAP1 SLOAD SWAP1 PUSH2 0x100 EXP SWAP1 DIV PUSH1 0xFF AND PUSH1 0x40 MLOAD PUSH32 0xD07E897600000000000000000000000000000000000000000000000000000000 DUP2 MSTORE PUSH1 0x4 ADD PUSH2 0x131A SWAP2 SWAP1 PUSH2 0x1FF6 JUMP JUMPDEST PUSH1 0x40 MLOAD DUP1 SWAP2 SUB SWAP1 REVERT JUMPDEST PUSH1 0x3 PUSH1 0x7 ADD PUSH1 0x5 ADD PUSH0 SWAP1 SLOAD SWAP1 PUSH2 0x100 EXP SWAP1 DIV PUSH14 0xFFFFFFFFFFFFFFFFFFFFFFFFFFFF AND PUSH14 0xFFFFFFFFFFFFFFFFFFFFFFFFFFFF AND TIMESTAMP LT DUP1 PUSH2 0x1393 JUMPI POP PUSH1 0x3 PUSH1 0x7 ADD PUSH1 0x5 ADD PUSH1 0xE SWAP1 SLOAD SWAP1 PUSH2 0x100 EXP SWAP1 DIV PUSH14 0xFFFFFFFFFFFFFFFFFFFFFFFFFFFF AND PUSH14 0xFFFFFFFFFFFFFFFFFFFFFFFFFFFF AND TIMESTAMP GT JUMPDEST ISZERO PUSH2 0x13CA JUMPI PUSH1 0x40 MLOAD PUSH32 0xE3840BC400000000000000000000000000000000000000000000000000000000 DUP2 MSTORE PUSH1 0x4 ADD PUSH1 0x40 MLOAD DUP1 SWAP2 SUB SWAP1 REVERT JUMPDEST PUSH1 0x3 PUSH1 0x7 ADD PUSH1 0x1 ADD SLOAD DUP2 PUSH1 0x3 PUSH1 0x5 ADD SLOAD PUSH2 0x13E4 SWAP2 SWAP1 PUSH2 0x1FC3 JUMP JUMPDEST GT ISZERO PUSH2 0x141C JUMPI PUSH1 0x40 MLOAD PUSH32 0x283452DA00000000000000000000000000000000000000000000000000000000 DUP2 MSTORE PUSH1 0x4 ADD PUSH1 0x40 MLOAD DUP1 SWAP2 SUB SWAP1 REVERT JUMPDEST PUSH1 0x3 PUSH1 0x7 ADD PUSH1 0x4 ADD SLOAD DUP2 LT ISZERO PUSH2 0x145E JUMPI PUSH1 0x40 MLOAD PUSH32 0xBD70F35D00000000000000000000000000000000000000000000000000000000 DUP2 MSTORE PUSH1 0x4 ADD PUSH1 0x40 MLOAD DUP1 SWAP2 SUB SWAP1 REVERT JUMPDEST PUSH1 0x3 PUSH1 0x7 ADD PUSH1 0x3 ADD SLOAD PUSH1 0x2 PUSH0 DUP5 PUSH20 0xFFFFFFFFFFFFFFFFFFFFFFFFFFFFFFFFFFFFFFFF AND PUSH20 0xFFFFFFFFFFFFFFFFFFFFFFFFFFFFFFFFFFFFFFFF AND DUP2 MSTORE PUSH1 0x20 ADD SWAP1 DUP2 MSTORE PUSH1 0x20 ADD PUSH0 KECCAK256 SLOAD DUP3 PUSH2 0x14B0 SWAP2 SWAP1 PUSH2 0x1FC3 JUMP JUMPDEST GT ISZERO PUSH2 0x14E8 JUMPI PUSH1 0x40 MLOAD PUSH32 0x5A99681C00000000000000000000000000000000000000000000000000000000 DUP2 MSTORE PUSH1 0x4 ADD PUSH1 0x40 MLOAD DUP1 SWAP2 SUB SWAP1 REVERT JUMPDEST PUSH1 0x10 PUSH0 SWAP1 SLOAD SWAP1 PUSH2 0x100 EXP SWAP1 DIV PUSH1 0xFF AND DUP1 ISZERO PUSH2 0x154A JUMPI POP PUSH1 0x11 PUSH0 DUP4 PUSH20 0xFFFFFFFFFFFFFFFFFFFFFFFFFFFFFFFFFFFFFFFF AND PUSH20 0xFFFFFFFFFFFFFFFFFFFFFFFFFFFFFFFFFFFFFFFF AND DUP2 MSTORE PUSH1 0x20 ADD SWAP1 DUP2 MSTORE PUSH1 0x20 ADD PUSH0 KECCAK256 PUSH0 SWAP1 SLOAD SWAP1 PUSH2 0x100 EXP SWAP1 DIV PUSH1 0xFF AND ISZERO JUMPDEST ISZERO PUSH2 0x158A JUMPI PUSH1 0x40 MLOAD PUSH32 0x8C379A000000000000000000000000000000000000000000000000000000000 DUP2 MSTORE PUSH1 0x4 ADD PUSH2 0x1581 SWAP1 PUSH2 0x21F6 JUMP JUMPDEST PUSH1 0x40 MLOAD DUP1 SWAP2 SUB SWAP1 REVERT JUMPDEST POP POP JUMP JUMPDEST PUSH1 0x1 DUP1 DUP2 SWAP1 SSTORE POP JUMP JUMPDEST PUSH2 0x159F PUSH2 0x1A80 JUMP JUMPDEST PUSH20 0xFFFFFFFFFFFFFFFFFFFFFFFFFFFFFFFFFFFFFFFF AND PUSH2 0x15BD PUSH2 0xE16 JUMP JUMPDEST PUSH20 0xFFFFFFFFFFFFFFFFFFFFFFFFFFFFFFFFFFFFFFFF AND EQ PUSH2 0x161C JUMPI PUSH2 0x15E0 PUSH2 0x1A80 JUMP JUMPDEST PUSH1 0x40 MLOAD PUSH32 0x118CDAA700000000000000000000000000000000000000000000000000000000 DUP2 MSTORE PUSH1 0x4 ADD PUSH2 0x1613 SWAP2 SWAP1 PUSH2 0x1F7D JUMP JUMPDEST PUSH1 0x40 MLOAD DUP1 SWAP2 SUB SWAP1 REVERT JUMPDEST JUMP JUMPDEST PUSH0 PUSH2 0x2710 PUSH1 0x3 PUSH1 0x7 ADD PUSH1 0x5 ADD PUSH1 0x1C SWAP1 SLOAD SWAP1 PUSH2 0x100 EXP SWAP1 DIV PUSH4 0xFFFFFFFF AND PUSH4 0xFFFFFFFF AND PUSH1 0x3 PUSH1 0x5 ADD SLOAD PUSH2 0x1651 SWAP2 SWAP1 PUSH2 0x2096 JUMP JUMPDEST PUSH2 0x165B SWAP2 SWAP1 PUSH2 0x2104 JUMP JUMPDEST SWAP1 POP SWAP1 JUMP JUMPDEST PUSH0 PUSH0 PUSH1 0x3 PUSH1 0x1 ADD PUSH0 SWAP1 SLOAD SWAP1 PUSH2 0x100 EXP SWAP1 DIV PUSH20 0xFFFFFFFFFFFFFFFFFFFFFFFFFFFFFFFFFFFFFFFF AND PUSH20 0xFFFFFFFFFFFFFFFFFFFFFFFFFFFFFFFFFFFFFFFF AND PUSH4 0xF305D719 DUP6 PUSH1 0x3 PUSH0 ADD PUSH0 SWAP1 SLOAD SWAP1 PUSH2 0x100 EXP SWAP1 DIV PUSH20 0xFFFFFFFFFFFFFFFFFFFFFFFFFFFFFFFFFFFFFFFF AND DUP7 DUP8 DUP10 PUSH2 0x16D2 PUSH2 0xE16 JUMP JUMPDEST PUSH2 0x258 TIMESTAMP PUSH2 0x16E0 SWAP2 SWAP1 PUSH2 0x1FC3 JUMP JUMPDEST PUSH1 0x40 MLOAD DUP9 PUSH4 0xFFFFFFFF AND PUSH1 0xE0 SHL DUP2 MSTORE PUSH1 0x4 ADD PUSH2 0x1701 SWAP7 SWAP6 SWAP5 SWAP4 SWAP3 SWAP2 SWAP1 PUSH2 0x2214 JUMP JUMPDEST PUSH1 0x60 PUSH1 0x40 MLOAD DUP1 DUP4 SUB DUP2 DUP6 DUP9 GAS CALL ISZERO DUP1 ISZERO PUSH2 0x171D JUMPI RETURNDATASIZE PUSH0 PUSH0 RETURNDATACOPY RETURNDATASIZE PUSH0 REVERT JUMPDEST POP POP POP POP POP PUSH1 0x40 MLOAD RETURNDATASIZE PUSH1 0x1F NOT PUSH1 0x1F DUP3 ADD AND DUP3 ADD DUP1 PUSH1 0x40 MSTORE POP DUP2 ADD SWAP1 PUSH2 0x1742 SWAP2 SWAP1 PUSH2 0x229D JUMP JUMPDEST POP SWAP2 POP SWAP2 POP DUP3 DUP3 EQ ISZERO DUP1 ISZERO PUSH2 0x1757 JUMPI POP DUP4 DUP2 EQ ISZERO JUMPDEST ISZERO PUSH2 0x178E JUMPI PUSH1 0x40 MLOAD PUSH32 0xEDA12FE600000000000000000000000000000000000000000000000000000000 DUP2 MSTORE PUSH1 0x4 ADD PUSH1 0x40 MLOAD DUP1 SWAP2 SUB SWAP1 REVERT JUMPDEST POP POP POP POP JUMP JUMPDEST DUP1 SELFBALANCE LT ISZERO PUSH2 0x17DB JUMPI SELFBALANCE DUP2 PUSH1 0x40 MLOAD PUSH32 0xCF47918100000000000000000000000000000000000000000000000000000000 DUP2 MSTORE PUSH1 0x4 ADD PUSH2 0x17D2 SWAP3 SWAP2 SWAP1 PUSH2 0x2042 JUMP JUMPDEST PUSH1 0x40 MLOAD DUP1 SWAP2 SUB SWAP1 REVERT JUMPDEST PUSH0 PUSH0 DUP4 PUSH20 0xFFFFFFFFFFFFFFFFFFFFFFFFFFFFFFFFFFFFFFFF AND DUP4 PUSH1 0x40 MLOAD PUSH2 0x1801 SWAP1 PUSH2 0x231A JUMP JUMPDEST PUSH0 PUSH1 0x40 MLOAD DUP1 DUP4 SUB DUP2 DUP6 DUP8 GAS CALL SWAP3 POP POP POP RETURNDATASIZE DUP1 PUSH0 DUP2 EQ PUSH2 0x183B JUMPI PUSH1 0x40 MLOAD SWAP2 POP PUSH1 0x1F NOT PUSH1 0x3F RETURNDATASIZE ADD AND DUP3 ADD PUSH1 0x40 MSTORE RETURNDATASIZE DUP3 MSTORE RETURNDATASIZE PUSH0 PUSH1 0x20 DUP5 ADD RETURNDATACOPY PUSH2 0x1840 JUMP JUMPDEST PUSH1 0x60 SWAP2 POP JUMPDEST POP SWAP2 POP SWAP2 POP DUP2 PUSH2 0x1854 JUMPI PUSH2 0x1853 DUP2 PUSH2 0x1A87 JUMP JUMPDEST JUMPDEST POP POP POP POP JUMP JUMPDEST PUSH2 0x18D4 DUP4 DUP5 PUSH20 0xFFFFFFFFFFFFFFFFFFFFFFFFFFFFFFFFFFFFFFFF AND PUSH4 0xA9059CBB DUP6 DUP6 PUSH1 0x40 MLOAD PUSH1 0x24 ADD PUSH2 0x188D SWAP3 SWAP2 SWAP1 PUSH2 0x232E JUMP JUMPDEST PUSH1 0x40 MLOAD PUSH1 0x20 DUP2 DUP4 SUB SUB DUP2 MSTORE SWAP1 PUSH1 0x40 MSTORE SWAP2 POP PUSH1 0xE0 SHL PUSH1 0x20 DUP3 ADD DUP1 MLOAD PUSH28 0xFFFFFFFFFFFFFFFFFFFFFFFFFFFFFFFFFFFFFFFFFFFFFFFFFFFFFFFF DUP4 DUP2 DUP4 AND OR DUP4 MSTORE POP POP POP POP PUSH2 0x1ACB JUMP JUMPDEST POP POP POP JUMP JUMPDEST PUSH0 PUSH0 PUSH0 SWAP1 SLOAD SWAP1 PUSH2 0x100 EXP SWAP1 DIV PUSH20 0xFFFFFFFFFFFFFFFFFFFFFFFFFFFFFFFFFFFFFFFF AND SWAP1 POP DUP2 PUSH0 PUSH0 PUSH2 0x100 EXP DUP2 SLOAD DUP2 PUSH20 0xFFFFFFFFFFFFFFFFFFFFFFFFFFFFFFFFFFFFFFFF MUL NOT AND SWAP1 DUP4 PUSH20 0xFFFFFFFFFFFFFFFFFFFFFFFFFFFFFFFFFFFFFFFF AND MUL OR SWAP1 SSTORE POP DUP2 PUSH20 0xFFFFFFFFFFFFFFFFFFFFFFFFFFFFFFFFFFFFFFFF AND DUP2 PUSH20 0xFFFFFFFFFFFFFFFFFFFFFFFFFFFFFFFFFFFFFFFF AND PUSH32 0x8BE0079C531659141344CD1FD0A4F28419497F9722A3DAAFE3B4186F6B6457E0 PUSH1 0x40 MLOAD PUSH1 0x40 MLOAD DUP1 SWAP2 SUB SWAP1 LOG3 POP POP JUMP JUMPDEST PUSH0 PUSH2 0x2710 PUSH1 0x3 PUSH1 0x7 ADD PUSH1 0x5 ADD PUSH1 0x1C SWAP1 SLOAD SWAP1 PUSH2 0x100 EXP SWAP1 DIV PUSH4 0xFFFFFFFF AND PUSH4 0xFFFFFFFF AND PUSH1 0x3 PUSH1 0x7 ADD PUSH0 ADD SLOAD PUSH2 0x19CF SWAP2 SWAP1 PUSH2 0x2096 JUMP JUMPDEST PUSH2 0x19D9 SWAP2 SWAP1 PUSH2 0x2104 JUMP JUMPDEST SWAP1 POP SWAP1 JUMP JUMPDEST PUSH0 PUSH2 0x19E7 PUSH2 0x199A JUMP JUMPDEST PUSH1 0x3 PUSH1 0x7 ADD PUSH0 ADD SLOAD PUSH2 0x19F9 SWAP2 SWAP1 PUSH2 0x200F JUMP JUMPDEST SWAP1 POP SWAP1 JUMP JUMPDEST PUSH2 0x1A7A DUP5 DUP6 PUSH20 0xFFFFFFFFFFFFFFFFFFFFFFFFFFFFFFFFFFFFFFFF AND PUSH4 0x23B872DD DUP7 DUP7 DUP7 PUSH1 0x40 MLOAD PUSH1 0x24 ADD PUSH2 0x1A33 SWAP4 SWAP3 SWAP2 SWAP1 PUSH2 0x2355 JUMP JUMPDEST PUSH1 0x40 MLOAD PUSH1 0x20 DUP2 DUP4 SUB SUB DUP2 MSTORE SWAP1 PUSH1 0x40 MSTORE SWAP2 POP PUSH1 0xE0 SHL PUSH1 0x20 DUP3 ADD DUP1 MLOAD PUSH28 0xFFFFFFFFFFFFFFFFFFFFFFFFFFFFFFFFFFFFFFFFFFFFFFFFFFFFFFFF DUP4 DUP2 DUP4 AND OR DUP4 MSTORE POP POP POP POP PUSH2 0x1ACB JUMP JUMPDEST POP POP POP POP JUMP JUMPDEST PUSH0 CALLER SWAP1 POP SWAP1 JUMP JUMPDEST PUSH0 DUP2 MLOAD GT ISZERO PUSH2 0x1A99 JUMPI DUP1 MLOAD DUP1 DUP3 PUSH1 0x20 ADD REVERT JUMPDEST PUSH1 0x40 MLOAD PUSH32 0xD6BDA27500000000000000000000000000000000000000000000000000000000 DUP2 MSTORE PUSH1 0x4 ADD PUSH1 0x40 MLOAD DUP1 SWAP2 SUB SWAP1 REVERT JUMPDEST PUSH0 PUSH0 PUSH1 0x20 PUSH0 DUP5 MLOAD PUSH1 0x20 DUP7 ADD PUSH0 DUP9 GAS CALL DUP1 PUSH2 0x1AEA JUMPI PUSH1 0x40 MLOAD RETURNDATASIZE PUSH0 DUP3 RETURNDATACOPY RETURNDATASIZE DUP2 REVERT JUMPDEST RETURNDATASIZE SWAP3 POP PUSH0 MLOAD SWAP2 POP POP PUSH0 DUP3 EQ PUSH2 0x1B03 JUMPI PUSH1 0x1 DUP2 EQ ISZERO PUSH2 0x1B1E JUMP JUMPDEST PUSH0 DUP5 PUSH20 0xFFFFFFFFFFFFFFFFFFFFFFFFFFFFFFFFFFFFFFFF AND EXTCODESIZE EQ JUMPDEST ISZERO PUSH2 0x1B60 JUMPI DUP4 PUSH1 0x40 MLOAD PUSH32 0x5274AFE700000000000000000000000000000000000000000000000000000000 DUP2 MSTORE PUSH1 0x4 ADD PUSH2 0x1B57 SWAP2 SWAP1 PUSH2 0x1F7D JUMP JUMPDEST PUSH1 0x40 MLOAD DUP1 SWAP2 SUB SWAP1 REVERT JUMPDEST POP POP POP POP JUMP JUMPDEST PUSH0 PUSH0 REVERT JUMPDEST PUSH0 PUSH0 REVERT JUMPDEST PUSH0 DUP2 ISZERO ISZERO SWAP1 POP SWAP2 SWAP1 POP JUMP JUMPDEST PUSH2 0x1B82 DUP2 PUSH2 0x1B6E JUMP JUMPDEST DUP2 EQ PUSH2 0x1B8C JUMPI PUSH0 PUSH0 REVERT JUMPDEST POP JUMP JUMPDEST PUSH0 DUP2 CALLDATALOAD SWAP1 POP PUSH2 0x1B9D DUP2 PUSH2 0x1B79 JUMP JUMPDEST SWAP3 SWAP2 POP POP JUMP JUMPDEST PUSH0 PUSH1 0x20 DUP3 DUP5 SUB SLT ISZERO PUSH2 0x1BB8 JUMPI PUSH2 0x1BB7 PUSH2 0x1B66 JUMP JUMPDEST JUMPDEST PUSH0 PUSH2 0x1BC5 DUP5 DUP3 DUP6 ADD PUSH2 0x1B8F JUMP JUMPDEST SWAP2 POP POP SWAP3 SWAP2 POP POP JUMP JUMPDEST PUSH0 PUSH20 0xFFFFFFFFFFFFFFFFFFFFFFFFFFFFFFFFFFFFFFFF DUP3 AND SWAP1 POP SWAP2 SWAP1 POP JUMP JUMPDEST PUSH0 DUP2 SWAP1 POP SWAP2 SWAP1 POP JUMP JUMPDEST PUSH0 PUSH2 0x1C10 PUSH2 0x1C0B PUSH2 0x1C06 DUP5 PUSH2 0x1BCE JUMP JUMPDEST PUSH2 0x1BED JUMP JUMPDEST PUSH2 0x1BCE JUMP JUMPDEST SWAP1 POP SWAP2 SWAP1 POP JUMP JUMPDEST PUSH0 PUSH2 0x1C21 DUP3 PUSH2 0x1BF6 JUMP JUMPDEST SWAP1 POP SWAP2 SWAP1 POP JUMP JUMPDEST PUSH0 PUSH2 0x1C32 DUP3 PUSH2 0x1C17 JUMP JUMPDEST SWAP1 POP SWAP2 SWAP1 POP JUMP JUMPDEST PUSH2 0x1C42 DUP2 PUSH2 0x1C28 JUMP JUMPDEST DUP3 MSTORE POP POP JUMP JUMPDEST PUSH0 PUSH2 0x1C52 DUP3 PUSH2 0x1C17 JUMP JUMPDEST SWAP1 POP SWAP2 SWAP1 POP JUMP JUMPDEST PUSH2 0x1C62 DUP2 PUSH2 0x1C48 JUMP JUMPDEST DUP3 MSTORE POP POP JUMP JUMPDEST PUSH0 DUP2 SWAP1 POP SWAP2 SWAP1 POP JUMP JUMPDEST PUSH2 0x1C7A DUP2 PUSH2 0x1C68 JUMP JUMPDEST DUP3 MSTORE POP POP JUMP JUMPDEST PUSH0 PUSH2 0x1C8A DUP3 PUSH2 0x1BCE JUMP JUMPDEST SWAP1 POP SWAP2 SWAP1 POP JUMP JUMPDEST PUSH2 0x1C9A DUP2 PUSH2 0x1C80 JUMP JUMPDEST DUP3 MSTORE POP POP JUMP JUMPDEST PUSH0 PUSH1 0xFF DUP3 AND SWAP1 POP SWAP2 SWAP1 POP JUMP JUMPDEST PUSH2 0x1CB5 DUP2 PUSH2 0x1CA0 JUMP JUMPDEST DUP3 MSTORE POP POP JUMP JUMPDEST PUSH2 0x1CC4 DUP2 PUSH2 0x1C68 JUMP JUMPDEST DUP3 MSTORE POP POP JUMP JUMPDEST PUSH0 PUSH14 0xFFFFFFFFFFFFFFFFFFFFFFFFFFFF DUP3 AND SWAP1 POP SWAP2 SWAP1 POP JUMP JUMPDEST PUSH2 0x1CEC DUP2 PUSH2 0x1CCA JUMP JUMPDEST DUP3 MSTORE POP POP JUMP JUMPDEST PUSH0 PUSH4 0xFFFFFFFF DUP3 AND SWAP1 POP SWAP2 SWAP1 POP JUMP JUMPDEST PUSH2 0x1D0A DUP2 PUSH2 0x1CF2 JUMP JUMPDEST DUP3 MSTORE POP POP JUMP JUMPDEST PUSH2 0x100 DUP3 ADD PUSH0 DUP3 ADD MLOAD PUSH2 0x1D25 PUSH0 DUP6 ADD DUP3 PUSH2 0x1CBB JUMP JUMPDEST POP PUSH1 0x20 DUP3 ADD MLOAD PUSH2 0x1D38 PUSH1 0x20 DUP6 ADD DUP3 PUSH2 0x1CBB JUMP JUMPDEST POP PUSH1 0x40 DUP3 ADD MLOAD PUSH2 0x1D4B PUSH1 0x40 DUP6 ADD DUP3 PUSH2 0x1CBB JUMP JUMPDEST POP PUSH1 0x60 DUP3 ADD MLOAD PUSH2 0x1D5E PUSH1 0x60 DUP6 ADD DUP3 PUSH2 0x1CBB JUMP JUMPDEST POP PUSH1 0x80 DUP3 ADD MLOAD PUSH2 0x1D71 PUSH1 0x80 DUP6 ADD DUP3 PUSH2 0x1CBB JUMP JUMPDEST POP PUSH1 0xA0 DUP3 ADD MLOAD PUSH2 0x1D84 PUSH1 0xA0 DUP6 ADD DUP3 PUSH2 0x1CE3 JUMP JUMPDEST POP PUSH1 0xC0 DUP3 ADD MLOAD PUSH2 0x1D97 PUSH1 0xC0 DUP6 ADD DUP3 PUSH2 0x1CE3 JUMP JUMPDEST POP PUSH1 0xE0 DUP3 ADD MLOAD PUSH2 0x1DAA PUSH1 0xE0 DUP6 ADD DUP3 PUSH2 0x1D01 JUMP JUMPDEST POP POP POP POP JUMP JUMPDEST PUSH0 PUSH2 0x200 DUP3 ADD SWAP1 POP PUSH2 0x1DC4 PUSH0 DUP4 ADD DUP13 PUSH2 0x1C39 JUMP JUMPDEST PUSH2 0x1DD1 PUSH1 0x20 DUP4 ADD DUP12 PUSH2 0x1C59 JUMP JUMPDEST PUSH2 0x1DDE PUSH1 0x40 DUP4 ADD DUP11 PUSH2 0x1C71 JUMP JUMPDEST PUSH2 0x1DEB PUSH1 0x60 DUP4 ADD DUP10 PUSH2 0x1C71 JUMP JUMPDEST PUSH2 0x1DF8 PUSH1 0x80 DUP4 ADD DUP9 PUSH2 0x1C71 JUMP JUMPDEST PUSH2 0x1E05 PUSH1 0xA0 DUP4 ADD DUP8 PUSH2 0x1C71 JUMP JUMPDEST PUSH2 0x1E12 PUSH1 0xC0 DUP4 ADD DUP7 PUSH2 0x1C91 JUMP JUMPDEST PUSH2 0x1E1F PUSH1 0xE0 DUP4 ADD DUP6 PUSH2 0x1CAC JUMP JUMPDEST PUSH2 0x1E2D PUSH2 0x100 DUP4 ADD DUP5 PUSH2 0x1D10 JUMP JUMPDEST SWAP11 SWAP10 POP POP POP POP POP POP POP POP POP POP JUMP JUMPDEST PUSH2 0x1E44 DUP2 PUSH2 0x1B6E JUMP JUMPDEST DUP3 MSTORE POP POP JUMP JUMPDEST PUSH0 PUSH1 0x20 DUP3 ADD SWAP1 POP PUSH2 0x1E5D PUSH0 DUP4 ADD DUP5 PUSH2 0x1E3B JUMP JUMPDEST SWAP3 SWAP2 POP POP JUMP JUMPDEST PUSH2 0x1E6C DUP2 PUSH2 0x1C80 JUMP JUMPDEST DUP2 EQ PUSH2 0x1E76 JUMPI PUSH0 PUSH0 REVERT JUMPDEST POP JUMP JUMPDEST PUSH0 DUP2 CALLDATALOAD SWAP1 POP PUSH2 0x1E87 DUP2 PUSH2 0x1E63 JUMP JUMPDEST SWAP3 SWAP2 POP POP JUMP JUMPDEST PUSH0 PUSH1 0x20 DUP3 DUP5 SUB SLT ISZERO PUSH2 0x1EA2 JUMPI PUSH2 0x1EA1 PUSH2 0x1B66 JUMP JUMPDEST JUMPDEST PUSH0 PUSH2 0x1EAF DUP5 DUP3 DUP6 ADD PUSH2 0x1E79 JUMP JUMPDEST SWAP2 POP POP SWAP3 SWAP2 POP POP JUMP JUMPDEST PUSH0 PUSH1 0x20 DUP3 ADD SWAP1 POP PUSH2 0x1ECB PUSH0 DUP4 ADD DUP5 PUSH2 0x1C71 JUMP JUMPDEST SWAP3 SWAP2 POP POP JUMP JUMPDEST PUSH0 PUSH0 REVERT JUMPDEST PUSH0 PUSH0 REVERT JUMPDEST PUSH0 PUSH0 REVERT JUMPDEST PUSH0 PUSH0 DUP4 PUSH1 0x1F DUP5 ADD SLT PUSH2 0x1EF2 JUMPI PUSH2 0x1EF1 PUSH2 0x1ED1 JUMP JUMPDEST JUMPDEST DUP3 CALLDATALOAD SWAP1 POP PUSH8 0xFFFFFFFFFFFFFFFF DUP2 GT ISZERO PUSH2 0x1F0F JUMPI PUSH2 0x1F0E PUSH2 0x1ED5 JUMP JUMPDEST JUMPDEST PUSH1 0x20 DUP4 ADD SWAP2 POP DUP4 PUSH1 0x20 DUP3 MUL DUP4 ADD GT ISZERO PUSH2 0x1F2B JUMPI PUSH2 0x1F2A PUSH2 0x1ED9 JUMP JUMPDEST JUMPDEST SWAP3 POP SWAP3 SWAP1 POP JUMP JUMPDEST PUSH0 PUSH0 PUSH1 0x20 DUP4 DUP6 SUB SLT ISZERO PUSH2 0x1F48 JUMPI PUSH2 0x1F47 PUSH2 0x1B66 JUMP JUMPDEST JUMPDEST PUSH0 DUP4 ADD CALLDATALOAD PUSH8 0xFFFFFFFFFFFFFFFF DUP2 GT ISZERO PUSH2 0x1F65 JUMPI PUSH2 0x1F64 PUSH2 0x1B6A JUMP JUMPDEST JUMPDEST PUSH2 0x1F71 DUP6 DUP3 DUP7 ADD PUSH2 0x1EDD JUMP JUMPDEST SWAP3 POP SWAP3 POP POP SWAP3 POP SWAP3 SWAP1 POP JUMP JUMPDEST PUSH0 PUSH1 0x20 DUP3 ADD SWAP1 POP PUSH2 0x1F90 PUSH0 DUP4 ADD DUP5 PUSH2 0x1C91 JUMP JUMPDEST SWAP3 SWAP2 POP POP JUMP JUMPDEST PUSH32 0x4E487B7100000000000000000000000000000000000000000000000000000000 PUSH0 MSTORE PUSH1 0x11 PUSH1 0x4 MSTORE PUSH1 0x24 PUSH0 REVERT JUMPDEST PUSH0 PUSH2 0x1FCD DUP3 PUSH2 0x1C68 JUMP JUMPDEST SWAP2 POP PUSH2 0x1FD8 DUP4 PUSH2 0x1C68 JUMP JUMPDEST SWAP3 POP DUP3 DUP3 ADD SWAP1 POP DUP1 DUP3 GT ISZERO PUSH2 0x1FF0 JUMPI PUSH2 0x1FEF PUSH2 0x1F96 JUMP JUMPDEST JUMPDEST SWAP3 SWAP2 POP POP JUMP JUMPDEST PUSH0 PUSH1 0x20 DUP3 ADD SWAP1 POP PUSH2 0x2009 PUSH0 DUP4 ADD DUP5 PUSH2 0x1CAC JUMP JUMPDEST SWAP3 SWAP2 POP POP JUMP JUMPDEST PUSH0 PUSH2 0x2019 DUP3 PUSH2 0x1C68 JUMP JUMPDEST SWAP2 POP PUSH2 0x2024 DUP4 PUSH2 0x1C68 JUMP JUMPDEST SWAP3 POP DUP3 DUP3 SUB SWAP1 POP DUP2 DUP2 GT ISZERO PUSH2 0x203C JUMPI PUSH2 0x203B PUSH2 0x1F96 JUMP JUMPDEST JUMPDEST SWAP3 SWAP2 POP POP JUMP JUMPDEST PUSH0 PUSH1 0x40 DUP3 ADD SWAP1 POP PUSH2 0x2055 PUSH0 DUP4 ADD DUP6 PUSH2 0x1C71 JUMP JUMPDEST PUSH2 0x2062 PUSH1 0x20 DUP4 ADD DUP5 PUSH2 0x1C71 JUMP JUMPDEST SWAP4 SWAP3 POP POP POP JUMP JUMPDEST PUSH32 0x4E487B7100000000000000000000000000000000000000000000000000000000 PUSH0 MSTORE PUSH1 0x32 PUSH1 0x4 MSTORE PUSH1 0x24 PUSH0 REVERT JUMPDEST PUSH0 PUSH2 0x20A0 DUP3 PUSH2 0x1C68 JUMP JUMPDEST SWAP2 POP PUSH2 0x20AB DUP4 PUSH2 0x1C68 JUMP JUMPDEST SWAP3 POP DUP3 DUP3 MUL PUSH2 0x20B9 DUP2 PUSH2 0x1C68 JUMP JUMPDEST SWAP2 POP DUP3 DUP3 DIV DUP5 EQ DUP4 ISZERO OR PUSH2 0x20D0 JUMPI PUSH2 0x20CF PUSH2 0x1F96 JUMP JUMPDEST JUMPDEST POP SWAP3 SWAP2 POP POP JUMP JUMPDEST PUSH32 0x4E487B7100000000000000000000000000000000000000000000000000000000 PUSH0 MSTORE PUSH1 0x12 PUSH1 0x4 MSTORE PUSH1 0x24 PUSH0 REVERT JUMPDEST PUSH0 PUSH2 0x210E DUP3 PUSH2 0x1C68 JUMP JUMPDEST SWAP2 POP PUSH2 0x2119 DUP4 PUSH2 0x1C68 JUMP JUMPDEST SWAP3 POP DUP3 PUSH2 0x2129 JUMPI PUSH2 0x2128 PUSH2 0x20D7 JUMP JUMPDEST JUMPDEST DUP3 DUP3 DIV SWAP1 POP SWAP3 SWAP2 POP POP JUMP JUMPDEST PUSH0 DUP3 DUP3 MSTORE PUSH1 0x20 DUP3 ADD SWAP1 POP SWAP3 SWAP2 POP POP JUMP JUMPDEST PUSH32 0x5265656E7472616E637947756172643A207265656E7472616E742063616C6C00 PUSH0 DUP3 ADD MSTORE POP JUMP JUMPDEST PUSH0 PUSH2 0x2178 PUSH1 0x1F DUP4 PUSH2 0x2134 JUMP JUMPDEST SWAP2 POP PUSH2 0x2183 DUP3 PUSH2 0x2144 JUMP JUMPDEST PUSH1 0x20 DUP3 ADD SWAP1 POP SWAP2 SWAP1 POP JUMP JUMPDEST PUSH0 PUSH1 0x20 DUP3 ADD SWAP1 POP DUP2 DUP2 SUB PUSH0 DUP4 ADD MSTORE PUSH2 0x21A5 DUP2 PUSH2 0x216C JUMP JUMPDEST SWAP1 POP SWAP2 SWAP1 POP JUMP JUMPDEST PUSH32 0x4E6F7457686974656C6973746564000000000000000000000000000000000000 PUSH0 DUP3 ADD MSTORE POP JUMP JUMPDEST PUSH0 PUSH2 0x21E0 PUSH1 0xE DUP4 PUSH2 0x2134 JUMP JUMPDEST SWAP2 POP PUSH2 0x21EB DUP3 PUSH2 0x21AC JUMP JUMPDEST PUSH1 0x20 DUP3 ADD SWAP1 POP SWAP2 SWAP1 POP JUMP JUMPDEST PUSH0 PUSH1 0x20 DUP3 ADD SWAP1 POP DUP2 DUP2 SUB PUSH0 DUP4 ADD MSTORE PUSH2 0x220D DUP2 PUSH2 0x21D4 JUMP JUMPDEST SWAP1 POP SWAP2 SWAP1 POP JUMP JUMPDEST PUSH0 PUSH1 0xC0 DUP3 ADD SWAP1 POP PUSH2 0x2227 PUSH0 DUP4 ADD DUP10 PUSH2 0x1C91 JUMP JUMPDEST PUSH2 0x2234 PUSH1 0x20 DUP4 ADD DUP9 PUSH2 0x1C71 JUMP JUMPDEST PUSH2 0x2241 PUSH1 0x40 DUP4 ADD DUP8 PUSH2 0x1C71 JUMP JUMPDEST PUSH2 0x224E PUSH1 0x60 DUP4 ADD DUP7 PUSH2 0x1C71 JUMP JUMPDEST PUSH2 0x225B PUSH1 0x80 DUP4 ADD DUP6 PUSH2 0x1C91 JUMP JUMPDEST PUSH2 0x2268 PUSH1 0xA0 DUP4 ADD DUP5 PUSH2 0x1C71 JUMP JUMPDEST SWAP8 SWAP7 POP POP POP POP POP POP POP JUMP JUMPDEST PUSH2 0x227C DUP2 PUSH2 0x1C68 JUMP JUMPDEST DUP2 EQ PUSH2 0x2286 JUMPI PUSH0 PUSH0 REVERT JUMPDEST POP JUMP JUMPDEST PUSH0 DUP2 MLOAD SWAP1 POP PUSH2 0x2297 DUP2 PUSH2 0x2273 JUMP JUMPDEST SWAP3 SWAP2 POP POP JUMP JUMPDEST PUSH0 PUSH0 PUSH0 PUSH1 0x60 DUP5 DUP7 SUB SLT ISZERO PUSH2 0x22B4 JUMPI PUSH2 0x22B3 PUSH2 0x1B66 JUMP JUMPDEST JUMPDEST PUSH0 PUSH2 0x22C1 DUP7 DUP3 DUP8 ADD PUSH2 0x2289 JUMP JUMPDEST SWAP4 POP POP PUSH1 0x20 PUSH2 0x22D2 DUP7 DUP3 DUP8 ADD PUSH2 0x2289 JUMP JUMPDEST SWAP3 POP POP PUSH1 0x40 PUSH2 0x22E3 DUP7 DUP3 DUP8 ADD PUSH2 0x2289 JUMP JUMPDEST SWAP2 POP POP SWAP3 POP SWAP3 POP SWAP3 JUMP JUMPDEST PUSH0 DUP2 SWAP1 POP SWAP3 SWAP2 POP POP JUMP JUMPDEST POP JUMP JUMPDEST PUSH0 PUSH2 0x2305 PUSH0 DUP4 PUSH2 0x22ED JUMP JUMPDEST SWAP2 POP PUSH2 0x2310 DUP3 PUSH2 0x22F7 JUMP JUMPDEST PUSH0 DUP3 ADD SWAP1 POP SWAP2 SWAP1 POP JUMP JUMPDEST PUSH0 PUSH2 0x2324 DUP3 PUSH2 0x22FA JUMP JUMPDEST SWAP2 POP DUP2 SWAP1 POP SWAP2 SWAP1 POP JUMP JUMPDEST PUSH0 PUSH1 0x40 DUP3 ADD SWAP1 POP PUSH2 0x2341 PUSH0 DUP4 ADD DUP6 PUSH2 0x1C91 JUMP JUMPDEST PUSH2 0x234E PUSH1 0x20 DUP4 ADD DUP5 PUSH2 0x1C71 JUMP JUMPDEST SWAP4 SWAP3 POP POP POP JUMP JUMPDEST PUSH0 PUSH1 0x60 DUP3 ADD SWAP1 POP PUSH2 0x2368 PUSH0 DUP4 ADD DUP7 PUSH2 0x1C91 JUMP JUMPDEST PUSH2 0x2375 PUSH1 0x20 DUP4 ADD DUP6 PUSH2 0x1C91 JUMP JUMPDEST PUSH2 0x2382 PUSH1 0x40 DUP4 ADD DUP5 PUSH2 0x1C71 JUMP JUMPDEST SWAP5 SWAP4 POP POP POP POP JUMP INVALID LOG2 PUSH5 0x6970667358 0x22 SLT KECCAK256 PUSH25 0xEF971A7CEA222BF3ED048B44A9612AA1142BA9D2B023511839 0xA5 COINBASE MUL OR 0xC9 0xEA PUSH5 0x736F6C6343 STOP ADDMOD SHR STOP CALLER "
				},
				"gasEstimates": {
					"creation": {
						"codeDepositCost": "1830400",
						"executionCost": "infinite",
						"totalCost": "infinite"
					},
					"external": {
						"addToWhitelist(address[])": "infinite",
						"cancel()": "infinite",
						"claim()": "infinite",
						"contributions(address)": "2892",
						"deposit()": "infinite",
						"finalize()": "infinite",
						"isWhitelistEnabled()": "2534",
						"owner()": "2581",
						"pool()": "infinite",
						"refund()": "infinite",
						"removeFromWhitelist(address[])": "infinite",
						"renounceOwnership()": "infinite",
						"setWhitelistEnabled(bool)": "infinite",
						"transferOwnership(address)": "infinite",
						"userTokens(address)": "infinite",
						"whitelist(address)": "2922"
					},
					"internal": {
						"_liquify(uint256,uint256)": "infinite",
						"_prevalidatePool(struct Presale.PresaleOptions memory)": "infinite",
						"_prevalidatePurchase(address,uint256)": "infinite",
						"_purchase(address,uint256)": "infinite",
						"_tokensForLiquidity()": "infinite",
						"_tokensForPresale()": "infinite",
						"_weiForLiquidity()": "infinite"
					}
				},
				"methodIdentifiers": {
					"addToWhitelist(address[])": "7f649783",
					"cancel()": "ea8a1af0",
					"claim()": "4e71d92d",
					"contributions(address)": "42e94c90",
					"deposit()": "d0e30db0",
					"finalize()": "4bb278f3",
					"isWhitelistEnabled()": "184d69ab",
					"owner()": "8da5cb5b",
					"pool()": "16f0115b",
					"refund()": "590e1ae3",
					"removeFromWhitelist(address[])": "548db174",
					"renounceOwnership()": "715018a6",
					"setWhitelistEnabled(bool)": "052d9e7e",
					"transferOwnership(address)": "f2fde38b",
					"userTokens(address)": "ed498fa8",
					"whitelist(address)": "9b19251a"
				}
			},
			"storageLayout": {
				"storage": [
					{
						"astId": 8,
						"contract": "SDC-Presale.sol:Presale",
						"label": "_owner",
						"offset": 0,
						"slot": "0",
						"type": "t_address"
					},
					{
						"astId": 248,
						"contract": "SDC-Presale.sol:Presale",
						"label": "_status",
						"offset": 0,
						"slot": "1",
						"type": "t_uint256"
					},
					{
						"astId": 1591,
						"contract": "SDC-Presale.sol:Presale",
						"label": "contributions",
						"offset": 0,
						"slot": "2",
						"type": "t_mapping(t_address,t_uint256)"
					},
					{
						"astId": 1595,
						"contract": "SDC-Presale.sol:Presale",
						"label": "pool",
						"offset": 0,
						"slot": "3",
						"type": "t_struct(Pool)1586_storage"
					},
					{
						"astId": 1599,
						"contract": "SDC-Presale.sol:Presale",
						"label": "isWhitelistEnabled",
						"offset": 0,
						"slot": "16",
						"type": "t_bool"
					},
					{
						"astId": 1603,
						"contract": "SDC-Presale.sol:Presale",
						"label": "whitelist",
						"offset": 0,
						"slot": "17",
						"type": "t_mapping(t_address,t_bool)"
					}
				],
				"types": {
					"t_address": {
						"encoding": "inplace",
						"label": "address",
						"numberOfBytes": "20"
					},
					"t_bool": {
						"encoding": "inplace",
						"label": "bool",
						"numberOfBytes": "1"
					},
					"t_contract(IERC20)380": {
						"encoding": "inplace",
						"label": "contract IERC20",
						"numberOfBytes": "20"
					},
					"t_contract(IUniswapV2Router02)1509": {
						"encoding": "inplace",
						"label": "contract IUniswapV2Router02",
						"numberOfBytes": "20"
					},
					"t_mapping(t_address,t_bool)": {
						"encoding": "mapping",
						"key": "t_address",
						"label": "mapping(address => bool)",
						"numberOfBytes": "32",
						"value": "t_bool"
					},
					"t_mapping(t_address,t_uint256)": {
						"encoding": "mapping",
						"key": "t_address",
						"label": "mapping(address => uint256)",
						"numberOfBytes": "32",
						"value": "t_uint256"
					},
					"t_struct(Pool)1586_storage": {
						"encoding": "inplace",
						"label": "struct Presale.Pool",
						"members": [
							{
								"astId": 1567,
								"contract": "SDC-Presale.sol:Presale",
								"label": "token",
								"offset": 0,
								"slot": "0",
								"type": "t_contract(IERC20)380"
							},
							{
								"astId": 1570,
								"contract": "SDC-Presale.sol:Presale",
								"label": "uniswapV2Router02",
								"offset": 0,
								"slot": "1",
								"type": "t_contract(IUniswapV2Router02)1509"
							},
							{
								"astId": 1572,
								"contract": "SDC-Presale.sol:Presale",
								"label": "tokenBalance",
								"offset": 0,
								"slot": "2",
								"type": "t_uint256"
							},
							{
								"astId": 1574,
								"contract": "SDC-Presale.sol:Presale",
								"label": "tokensClaimable",
								"offset": 0,
								"slot": "3",
								"type": "t_uint256"
							},
							{
								"astId": 1576,
								"contract": "SDC-Presale.sol:Presale",
								"label": "tokensLiquidity",
								"offset": 0,
								"slot": "4",
								"type": "t_uint256"
							},
							{
								"astId": 1578,
								"contract": "SDC-Presale.sol:Presale",
								"label": "weiRaised",
								"offset": 0,
								"slot": "5",
								"type": "t_uint256"
							},
							{
								"astId": 1580,
								"contract": "SDC-Presale.sol:Presale",
								"label": "weth",
								"offset": 0,
								"slot": "6",
								"type": "t_address"
							},
							{
								"astId": 1582,
								"contract": "SDC-Presale.sol:Presale",
								"label": "state",
								"offset": 20,
								"slot": "6",
								"type": "t_uint8"
							},
							{
								"astId": 1585,
								"contract": "SDC-Presale.sol:Presale",
								"label": "options",
								"offset": 0,
								"slot": "7",
								"type": "t_struct(PresaleOptions)1563_storage"
							}
						],
						"numberOfBytes": "416"
					},
					"t_struct(PresaleOptions)1563_storage": {
						"encoding": "inplace",
						"label": "struct Presale.PresaleOptions",
						"members": [
							{
								"astId": 1548,
								"contract": "SDC-Presale.sol:Presale",
								"label": "tokenDeposit",
								"offset": 0,
								"slot": "0",
								"type": "t_uint256"
							},
							{
								"astId": 1550,
								"contract": "SDC-Presale.sol:Presale",
								"label": "hardCap",
								"offset": 0,
								"slot": "1",
								"type": "t_uint256"
							},
							{
								"astId": 1552,
								"contract": "SDC-Presale.sol:Presale",
								"label": "softCap",
								"offset": 0,
								"slot": "2",
								"type": "t_uint256"
							},
							{
								"astId": 1554,
								"contract": "SDC-Presale.sol:Presale",
								"label": "max",
								"offset": 0,
								"slot": "3",
								"type": "t_uint256"
							},
							{
								"astId": 1556,
								"contract": "SDC-Presale.sol:Presale",
								"label": "min",
								"offset": 0,
								"slot": "4",
								"type": "t_uint256"
							},
							{
								"astId": 1558,
								"contract": "SDC-Presale.sol:Presale",
								"label": "start",
								"offset": 0,
								"slot": "5",
								"type": "t_uint112"
							},
							{
								"astId": 1560,
								"contract": "SDC-Presale.sol:Presale",
								"label": "end",
								"offset": 14,
								"slot": "5",
								"type": "t_uint112"
							},
							{
								"astId": 1562,
								"contract": "SDC-Presale.sol:Presale",
								"label": "liquidityBps",
								"offset": 28,
								"slot": "5",
								"type": "t_uint32"
							}
						],
						"numberOfBytes": "192"
					},
					"t_uint112": {
						"encoding": "inplace",
						"label": "uint112",
						"numberOfBytes": "14"
					},
					"t_uint256": {
						"encoding": "inplace",
						"label": "uint256",
						"numberOfBytes": "32"
					},
					"t_uint32": {
						"encoding": "inplace",
						"label": "uint32",
						"numberOfBytes": "4"
					},
					"t_uint8": {
						"encoding": "inplace",
						"label": "uint8",
						"numberOfBytes": "1"
					}
				}
			},
			"userdoc": {
				"kind": "user",
				"methods": {
					"addToWhitelist(address[])": {
						"notice": "Добавляет адреса в whitelist."
					},
					"cancel()": {
						"notice": "Владелец может отменить пресейл (если он ещё не завершён).         Тогда участники смогут вызвать refund() и вернуть BNB."
					},
					"claim()": {
						"notice": "Позволяет покупателям забрать свои токены после успешного завершения пресейла."
					},
					"contributions(address)": {
						"notice": "Учет вкладов (адрес -> внесённые BNB)"
					},
					"deposit()": {
						"notice": "Владелец вносит нужное количество токенов для пресейла и ликвидности.         До вызова этой функции пресейл недоступен участникам."
					},
					"finalize()": {
						"notice": "Завершает пресейл, если он успешен (достигнут softCap).         Добавляет ликвидность, переводит остатки владельцу, открывает клейм для участников."
					},
					"isWhitelistEnabled()": {
						"notice": "2. Механика whitelist (для снижения рисков фронтраннинга)"
					},
					"pool()": {
						"notice": "Храним все данные в одной структуре"
					},
					"refund()": {
						"notice": "Возврат средств участникам, если пресейл отменён или не собрал softCap."
					},
					"removeFromWhitelist(address[])": {
						"notice": "Удаляет адреса из whitelist."
					},
					"setWhitelistEnabled(bool)": {
						"notice": "Включает или отключает механизм whitelist."
					}
				},
				"notice": "Create and manage a presale of an ERC20 token",
				"version": 1
			}
		}
	}
}