{
	"SDC-Contract.sol": {
		"SignDocumentsChain": {
			"abi": [
				{
					"inputs": [],
					"stateMutability": "nonpayable",
					"type": "constructor"
				},
				{
					"anonymous": false,
					"inputs": [
						{
							"indexed": true,
							"internalType": "address",
							"name": "owner",
							"type": "address"
						},
						{
							"indexed": true,
							"internalType": "address",
							"name": "spender",
							"type": "address"
						},
						{
							"indexed": false,
							"internalType": "uint256",
							"name": "value",
							"type": "uint256"
						}
					],
					"name": "Approval",
					"type": "event"
				},
				{
					"anonymous": false,
					"inputs": [
						{
							"indexed": true,
							"internalType": "address",
							"name": "previousOwner",
							"type": "address"
						},
						{
							"indexed": true,
							"internalType": "address",
							"name": "newOwner",
							"type": "address"
						}
					],
					"name": "OwnershipTransferred",
					"type": "event"
				},
				{
					"anonymous": false,
					"inputs": [
						{
							"indexed": true,
							"internalType": "address",
							"name": "from",
							"type": "address"
						},
						{
							"indexed": true,
							"internalType": "address",
							"name": "to",
							"type": "address"
						},
						{
							"indexed": false,
							"internalType": "uint256",
							"name": "value",
							"type": "uint256"
						}
					],
					"name": "Transfer",
					"type": "event"
				},
				{
					"inputs": [
						{
							"internalType": "address",
							"name": "owner",
							"type": "address"
						},
						{
							"internalType": "address",
							"name": "spender",
							"type": "address"
						}
					],
					"name": "allowance",
					"outputs": [
						{
							"internalType": "uint256",
							"name": "",
							"type": "uint256"
						}
					],
					"stateMutability": "view",
					"type": "function"
				},
				{
					"inputs": [
						{
							"internalType": "address",
							"name": "spender",
							"type": "address"
						},
						{
							"internalType": "uint256",
							"name": "amount",
							"type": "uint256"
						}
					],
					"name": "approve",
					"outputs": [
						{
							"internalType": "bool",
							"name": "",
							"type": "bool"
						}
					],
					"stateMutability": "nonpayable",
					"type": "function"
				},
				{
					"inputs": [
						{
							"internalType": "address",
							"name": "account",
							"type": "address"
						}
					],
					"name": "balanceOf",
					"outputs": [
						{
							"internalType": "uint256",
							"name": "",
							"type": "uint256"
						}
					],
					"stateMutability": "view",
					"type": "function"
				},
				{
					"inputs": [
						{
							"internalType": "uint256",
							"name": "_amount",
							"type": "uint256"
						}
					],
					"name": "burn",
					"outputs": [],
					"stateMutability": "nonpayable",
					"type": "function"
				},
				{
					"inputs": [],
					"name": "decimals",
					"outputs": [
						{
							"internalType": "uint8",
							"name": "",
							"type": "uint8"
						}
					],
					"stateMutability": "view",
					"type": "function"
				},
				{
					"inputs": [
						{
							"internalType": "address",
							"name": "spender",
							"type": "address"
						},
						{
							"internalType": "uint256",
							"name": "subtractedValue",
							"type": "uint256"
						}
					],
					"name": "decreaseAllowance",
					"outputs": [
						{
							"internalType": "bool",
							"name": "",
							"type": "bool"
						}
					],
					"stateMutability": "nonpayable",
					"type": "function"
				},
				{
					"inputs": [],
					"name": "getOwner",
					"outputs": [
						{
							"internalType": "address",
							"name": "",
							"type": "address"
						}
					],
					"stateMutability": "view",
					"type": "function"
				},
				{
					"inputs": [
						{
							"internalType": "address",
							"name": "spender",
							"type": "address"
						},
						{
							"internalType": "uint256",
							"name": "addedValue",
							"type": "uint256"
						}
					],
					"name": "increaseAllowance",
					"outputs": [
						{
							"internalType": "bool",
							"name": "",
							"type": "bool"
						}
					],
					"stateMutability": "nonpayable",
					"type": "function"
				},
				{
					"inputs": [
						{
							"internalType": "uint256",
							"name": "amount",
							"type": "uint256"
						}
					],
					"name": "mint",
					"outputs": [
						{
							"internalType": "bool",
							"name": "",
							"type": "bool"
						}
					],
					"stateMutability": "nonpayable",
					"type": "function"
				},
				{
					"inputs": [],
					"name": "name",
					"outputs": [
						{
							"internalType": "string",
							"name": "",
							"type": "string"
						}
					],
					"stateMutability": "view",
					"type": "function"
				},
				{
					"inputs": [],
					"name": "owner",
					"outputs": [
						{
							"internalType": "address",
							"name": "",
							"type": "address"
						}
					],
					"stateMutability": "view",
					"type": "function"
				},
				{
					"inputs": [],
					"name": "renounceOwnership",
					"outputs": [],
					"stateMutability": "nonpayable",
					"type": "function"
				},
				{
					"inputs": [],
					"name": "symbol",
					"outputs": [
						{
							"internalType": "string",
							"name": "",
							"type": "string"
						}
					],
					"stateMutability": "view",
					"type": "function"
				},
				{
					"inputs": [],
					"name": "totalSupply",
					"outputs": [
						{
							"internalType": "uint256",
							"name": "",
							"type": "uint256"
						}
					],
					"stateMutability": "view",
					"type": "function"
				},
				{
					"inputs": [
						{
							"internalType": "address",
							"name": "recipient",
							"type": "address"
						},
						{
							"internalType": "uint256",
							"name": "amount",
							"type": "uint256"
						}
					],
					"name": "transfer",
					"outputs": [
						{
							"internalType": "bool",
							"name": "",
							"type": "bool"
						}
					],
					"stateMutability": "nonpayable",
					"type": "function"
				},
				{
					"inputs": [
						{
							"internalType": "address",
							"name": "sender",
							"type": "address"
						},
						{
							"internalType": "address",
							"name": "recipient",
							"type": "address"
						},
						{
							"internalType": "uint256",
							"name": "amount",
							"type": "uint256"
						}
					],
					"name": "transferFrom",
					"outputs": [
						{
							"internalType": "bool",
							"name": "",
							"type": "bool"
						}
					],
					"stateMutability": "nonpayable",
					"type": "function"
				},
				{
					"inputs": [
						{
							"internalType": "address",
							"name": "newOwner",
							"type": "address"
						}
					],
					"name": "transferOwnership",
					"outputs": [],
					"stateMutability": "nonpayable",
					"type": "function"
				}
			],
			"devdoc": {
				"events": {
					"Approval(address,address,uint256)": {
						"details": "Emitted when the allowance of a `spender` for an `owner` is set by a call to {approve}. `value` is the new allowance."
					},
					"Transfer(address,address,uint256)": {
						"details": "Emitted when `value` tokens are moved from one account (`from`) to another (`to`). Note that `value` may be zero."
					}
				},
				"kind": "dev",
				"methods": {
					"approve(address,uint256)": {
						"details": "Sets `amount` as the allowance of `spender` over the caller's tokens. Returns a boolean value indicating whether the operation succeeded. IMPORTANT: Beware that changing an allowance with this method brings the risk that someone may use both the old and the new allowance by unfortunate transaction ordering. One possible solution to mitigate this race condition is to first reduce the spender's allowance to 0 and set the desired value afterwards: https://github.com/ethereum/EIPs/issues/20#issuecomment-263524729 Emits an {Approval} event."
					},
					"balanceOf(address)": {
						"details": "Returns the amount of tokens owned by `account`."
					},
					"decimals()": {
						"details": "Returns the token decimals."
					},
					"getOwner()": {
						"details": "Returns the bep token owner."
					},
					"name()": {
						"details": "Returns the token name."
					},
					"symbol()": {
						"details": "Returns the token symbol."
					},
					"totalSupply()": {
						"details": "Returns the amount of tokens in existence."
					},
					"transfer(address,uint256)": {
						"details": "Moves `amount` tokens from the caller's account to `recipient`. Returns a boolean value indicating whether the operation succeeded. Emits a {Transfer} event."
					},
					"transferFrom(address,address,uint256)": {
						"details": "Moves `amount` tokens from `sender` to `recipient` using the allowance mechanism. `amount` is then deducted from the caller's allowance. Returns a boolean value indicating whether the operation succeeded. Emits a {Transfer} event."
					}
				},
				"version": 1
			},
			"evm": {
				"assembly": "    /* \"SDC-Contract.sol\":5970:10182  contract SignDocumentsChain is Context, IBEP20, Ownable {... */\n  mstore(0x40, 0x80)\n    /* \"SDC-Contract.sol\":6308:6588  constructor() {... */\n  callvalue\n  dup1\n  iszero\n  tag_1\n  jumpi\n  revert(0x00, 0x00)\ntag_1:\n  pop\n    /* \"SDC-Contract.sol\":5149:5166  address msgSender */\n  0x00\n    /* \"SDC-Contract.sol\":5169:5181  _msgSender() */\n  tag_7\n    /* \"SDC-Contract.sol\":5169:5179  _msgSender */\n  shl(0x20, tag_8)\n    /* \"SDC-Contract.sol\":5169:5181  _msgSender() */\n  0x20\n  shr\n  jump\t// in\ntag_7:\n    /* \"SDC-Contract.sol\":5149:5181  address msgSender = _msgSender() */\n  swap1\n  pop\n    /* \"SDC-Contract.sol\":5200:5209  msgSender */\n  dup1\n    /* \"SDC-Contract.sol\":5191:5197  _owner */\n  0x00\n  0x00\n    /* \"SDC-Contract.sol\":5191:5209  _owner = msgSender */\n  0x0100\n  exp\n  dup2\n  sload\n  dup2\n  0xffffffffffffffffffffffffffffffffffffffff\n  mul\n  not\n  and\n  swap1\n  dup4\n  0xffffffffffffffffffffffffffffffffffffffff\n  and\n  mul\n  or\n  swap1\n  sstore\n  pop\n    /* \"SDC-Contract.sol\":5257:5266  msgSender */\n  dup1\n    /* \"SDC-Contract.sol\":5224:5267  OwnershipTransferred(address(0), msgSender) */\n  0xffffffffffffffffffffffffffffffffffffffff\n  and\n    /* \"SDC-Contract.sol\":5253:5254  0 */\n  0x00\n    /* \"SDC-Contract.sol\":5224:5267  OwnershipTransferred(address(0), msgSender) */\n  0xffffffffffffffffffffffffffffffffffffffff\n  and\n  0x8be0079c531659141344cd1fd0a4f28419497f9722a3daafe3b4186f6b6457e0\n  mload(0x40)\n  mload(0x40)\n  dup1\n  swap2\n  sub\n  swap1\n  log3\n    /* \"SDC-Contract.sol\":5139:5274  {... */\n  pop\n    /* \"SDC-Contract.sol\":6332:6362  _name = \"Sign Documents Chain\" */\n  mload(0x40)\n  dup1\n  0x40\n  add\n  0x40\n  mstore\n  dup1\n  0x14\n  dup2\n  mstore\n  0x20\n  add\n  0x5369676e20446f63756d656e747320436861696e000000000000000000000000\n  dup2\n  mstore\n  pop\n    /* \"SDC-Contract.sol\":6332:6337  _name */\n  0x06\n    /* \"SDC-Contract.sol\":6332:6362  _name = \"Sign Documents Chain\" */\n  swap1\n  dup2\n  tag_10\n  swap2\n  swap1\n  tag_11\n  jump\t// in\ntag_10:\n  pop\n    /* \"SDC-Contract.sol\":6372:6387  _symbol = \"SDC\" */\n  mload(0x40)\n  dup1\n  0x40\n  add\n  0x40\n  mstore\n  dup1\n  0x03\n  dup2\n  mstore\n  0x20\n  add\n  0x5344430000000000000000000000000000000000000000000000000000000000\n  dup2\n  mstore\n  pop\n    /* \"SDC-Contract.sol\":6372:6379  _symbol */\n  0x05\n    /* \"SDC-Contract.sol\":6372:6387  _symbol = \"SDC\" */\n  swap1\n  dup2\n  tag_12\n  swap2\n  swap1\n  tag_11\n  jump\t// in\ntag_12:\n  pop\n    /* \"SDC-Contract.sol\":6409:6411  18 */\n  0x12\n    /* \"SDC-Contract.sol\":6397:6406  _decimals */\n  0x04\n  0x00\n    /* \"SDC-Contract.sol\":6397:6411  _decimals = 18 */\n  0x0100\n  exp\n  dup2\n  sload\n  dup2\n  0xff\n  mul\n  not\n  and\n  swap1\n  dup4\n  0xff\n  and\n  mul\n  or\n  swap1\n  sstore\n  pop\n    /* \"SDC-Contract.sol\":6462:6471  _decimals */\n  0x04\n  0x00\n  swap1\n  sload\n  swap1\n  0x0100\n  exp\n  swap1\n  div\n  0xff\n  and\n    /* \"SDC-Contract.sol\":6454:6472  uint256(_decimals) */\n  0xff\n  and\n    /* \"SDC-Contract.sol\":6448:6450  10 */\n  0x0a\n    /* \"SDC-Contract.sol\":6448:6472  10 ** uint256(_decimals) */\n  tag_13\n  swap2\n  swap1\n  tag_14\n  jump\t// in\ntag_13:\n    /* \"SDC-Contract.sol\":6436:6444  50000000 */\n  0x02faf080\n    /* \"SDC-Contract.sol\":6436:6473  50000000 * (10 ** uint256(_decimals)) */\n  tag_15\n  swap2\n  swap1\n  tag_16\n  jump\t// in\ntag_15:\n    /* \"SDC-Contract.sol\":6421:6433  _totalSupply */\n  0x03\n    /* \"SDC-Contract.sol\":6421:6473  _totalSupply = 50000000 * (10 ** uint256(_decimals)) */\n  dup2\n  swap1\n  sstore\n  pop\n    /* \"SDC-Contract.sol\":6507:6519  _totalSupply */\n  sload(0x03)\n    /* \"SDC-Contract.sol\":6483:6492  _balances */\n  0x01\n    /* \"SDC-Contract.sol\":6483:6504  _balances[msg.sender] */\n  0x00\n    /* \"SDC-Contract.sol\":6493:6503  msg.sender */\n  caller\n    /* \"SDC-Contract.sol\":6483:6504  _balances[msg.sender] */\n  0xffffffffffffffffffffffffffffffffffffffff\n  and\n  0xffffffffffffffffffffffffffffffffffffffff\n  and\n  dup2\n  mstore\n  0x20\n  add\n  swap1\n  dup2\n  mstore\n  0x20\n  add\n  0x00\n  keccak256\n    /* \"SDC-Contract.sol\":6483:6519  _balances[msg.sender] = _totalSupply */\n  dup2\n  swap1\n  sstore\n  pop\n    /* \"SDC-Contract.sol\":6556:6566  msg.sender */\n  caller\n    /* \"SDC-Contract.sol\":6535:6581  Transfer(address(0), msg.sender, _totalSupply) */\n  0xffffffffffffffffffffffffffffffffffffffff\n  and\n    /* \"SDC-Contract.sol\":6552:6553  0 */\n  0x00\n    /* \"SDC-Contract.sol\":6535:6581  Transfer(address(0), msg.sender, _totalSupply) */\n  0xffffffffffffffffffffffffffffffffffffffff\n  and\n  0xddf252ad1be2c89b69c2b068fc378daa952ba7f163c4a11628f55a4df523b3ef\n    /* \"SDC-Contract.sol\":6568:6580  _totalSupply */\n  sload(0x03)\n    /* \"SDC-Contract.sol\":6535:6581  Transfer(address(0), msg.sender, _totalSupply) */\n  mload(0x40)\n  tag_17\n  swap2\n  swap1\n  tag_18\n  jump\t// in\ntag_17:\n  mload(0x40)\n  dup1\n  swap2\n  sub\n  swap1\n  log3\n    /* \"SDC-Contract.sol\":5970:10182  contract SignDocumentsChain is Context, IBEP20, Ownable {... */\n  jump(tag_19)\n    /* \"SDC-Contract.sol\":3281:3386  function _msgSender() internal view returns (address payable) {... */\ntag_8:\n    /* \"SDC-Contract.sol\":3326:3341  address payable */\n  0x00\n    /* \"SDC-Contract.sol\":3368:3378  msg.sender */\n  caller\n    /* \"SDC-Contract.sol\":3353:3379  return payable(msg.sender) */\n  swap1\n  pop\n    /* \"SDC-Contract.sol\":3281:3386  function _msgSender() internal view returns (address payable) {... */\n  swap1\n  jump\t// out\n    /* \"#utility.yul\":7:106   */\ntag_21:\n    /* \"#utility.yul\":59:65   */\n  0x00\n    /* \"#utility.yul\":93:98   */\n  dup2\n    /* \"#utility.yul\":87:99   */\n  mload\n    /* \"#utility.yul\":77:99   */\n  swap1\n  pop\n    /* \"#utility.yul\":7:106   */\n  swap2\n  swap1\n  pop\n  jump\t// out\n    /* \"#utility.yul\":112:292   */\ntag_22:\n    /* \"#utility.yul\":160:237   */\n  0x4e487b7100000000000000000000000000000000000000000000000000000000\n    /* \"#utility.yul\":157:158   */\n  0x00\n    /* \"#utility.yul\":150:238   */\n  mstore\n    /* \"#utility.yul\":257:261   */\n  0x41\n    /* \"#utility.yul\":254:255   */\n  0x04\n    /* \"#utility.yul\":247:262   */\n  mstore\n    /* \"#utility.yul\":281:285   */\n  0x24\n    /* \"#utility.yul\":278:279   */\n  0x00\n    /* \"#utility.yul\":271:286   */\n  revert\n    /* \"#utility.yul\":298:478   */\ntag_23:\n    /* \"#utility.yul\":346:423   */\n  0x4e487b7100000000000000000000000000000000000000000000000000000000\n    /* \"#utility.yul\":343:344   */\n  0x00\n    /* \"#utility.yul\":336:424   */\n  mstore\n    /* \"#utility.yul\":443:447   */\n  0x22\n    /* \"#utility.yul\":440:441   */\n  0x04\n    /* \"#utility.yul\":433:448   */\n  mstore\n    /* \"#utility.yul\":467:471   */\n  0x24\n    /* \"#utility.yul\":464:465   */\n  0x00\n    /* \"#utility.yul\":457:472   */\n  revert\n    /* \"#utility.yul\":484:804   */\ntag_24:\n    /* \"#utility.yul\":528:534   */\n  0x00\n    /* \"#utility.yul\":565:566   */\n  0x02\n    /* \"#utility.yul\":559:563   */\n  dup3\n    /* \"#utility.yul\":555:567   */\n  div\n    /* \"#utility.yul\":545:567   */\n  swap1\n  pop\n    /* \"#utility.yul\":612:613   */\n  0x01\n    /* \"#utility.yul\":606:610   */\n  dup3\n    /* \"#utility.yul\":602:614   */\n  and\n    /* \"#utility.yul\":633:651   */\n  dup1\n    /* \"#utility.yul\":623:704   */\n  tag_51\n  jumpi\n    /* \"#utility.yul\":689:693   */\n  0x7f\n    /* \"#utility.yul\":681:687   */\n  dup3\n    /* \"#utility.yul\":677:694   */\n  and\n    /* \"#utility.yul\":667:694   */\n  swap2\n  pop\n    /* \"#utility.yul\":623:704   */\ntag_51:\n    /* \"#utility.yul\":751:753   */\n  0x20\n    /* \"#utility.yul\":743:749   */\n  dup3\n    /* \"#utility.yul\":740:754   */\n  lt\n    /* \"#utility.yul\":720:738   */\n  dup2\n    /* \"#utility.yul\":717:755   */\n  sub\n    /* \"#utility.yul\":714:798   */\n  tag_52\n  jumpi\n    /* \"#utility.yul\":770:788   */\n  tag_53\n  tag_23\n  jump\t// in\ntag_53:\n    /* \"#utility.yul\":714:798   */\ntag_52:\n    /* \"#utility.yul\":535:804   */\n  pop\n    /* \"#utility.yul\":484:804   */\n  swap2\n  swap1\n  pop\n  jump\t// out\n    /* \"#utility.yul\":810:951   */\ntag_25:\n    /* \"#utility.yul\":859:863   */\n  0x00\n    /* \"#utility.yul\":882:885   */\n  dup2\n    /* \"#utility.yul\":874:885   */\n  swap1\n  pop\n    /* \"#utility.yul\":905:908   */\n  dup2\n    /* \"#utility.yul\":902:903   */\n  0x00\n    /* \"#utility.yul\":895:909   */\n  mstore\n    /* \"#utility.yul\":939:943   */\n  0x20\n    /* \"#utility.yul\":936:937   */\n  0x00\n    /* \"#utility.yul\":926:944   */\n  keccak256\n    /* \"#utility.yul\":918:944   */\n  swap1\n  pop\n    /* \"#utility.yul\":810:951   */\n  swap2\n  swap1\n  pop\n  jump\t// out\n    /* \"#utility.yul\":957:1050   */\ntag_26:\n    /* \"#utility.yul\":994:1000   */\n  0x00\n    /* \"#utility.yul\":1041:1043   */\n  0x20\n    /* \"#utility.yul\":1036:1038   */\n  0x1f\n    /* \"#utility.yul\":1029:1034   */\n  dup4\n    /* \"#utility.yul\":1025:1039   */\n  add\n    /* \"#utility.yul\":1021:1044   */\n  div\n    /* \"#utility.yul\":1011:1044   */\n  swap1\n  pop\n    /* \"#utility.yul\":957:1050   */\n  swap2\n  swap1\n  pop\n  jump\t// out\n    /* \"#utility.yul\":1056:1163   */\ntag_27:\n    /* \"#utility.yul\":1100:1108   */\n  0x00\n    /* \"#utility.yul\":1150:1155   */\n  dup3\n    /* \"#utility.yul\":1144:1148   */\n  dup3\n    /* \"#utility.yul\":1140:1156   */\n  shl\n    /* \"#utility.yul\":1119:1156   */\n  swap1\n  pop\n    /* \"#utility.yul\":1056:1163   */\n  swap3\n  swap2\n  pop\n  pop\n  jump\t// out\n    /* \"#utility.yul\":1169:1562   */\ntag_28:\n    /* \"#utility.yul\":1238:1244   */\n  0x00\n    /* \"#utility.yul\":1288:1289   */\n  0x08\n    /* \"#utility.yul\":1276:1286   */\n  dup4\n    /* \"#utility.yul\":1272:1290   */\n  mul\n    /* \"#utility.yul\":1311:1408   */\n  tag_58\n    /* \"#utility.yul\":1341:1407   */\n  0xffffffffffffffffffffffffffffffffffffffffffffffffffffffffffffffff\n    /* \"#utility.yul\":1330:1339   */\n  dup3\n    /* \"#utility.yul\":1311:1408   */\n  tag_27\n  jump\t// in\ntag_58:\n    /* \"#utility.yul\":1429:1468   */\n  tag_59\n    /* \"#utility.yul\":1459:1467   */\n  dup7\n    /* \"#utility.yul\":1448:1457   */\n  dup4\n    /* \"#utility.yul\":1429:1468   */\n  tag_27\n  jump\t// in\ntag_59:\n    /* \"#utility.yul\":1417:1468   */\n  swap6\n  pop\n    /* \"#utility.yul\":1501:1505   */\n  dup1\n    /* \"#utility.yul\":1497:1506   */\n  not\n    /* \"#utility.yul\":1490:1495   */\n  dup5\n    /* \"#utility.yul\":1486:1507   */\n  and\n    /* \"#utility.yul\":1477:1507   */\n  swap4\n  pop\n    /* \"#utility.yul\":1550:1554   */\n  dup1\n    /* \"#utility.yul\":1540:1548   */\n  dup7\n    /* \"#utility.yul\":1536:1555   */\n  and\n    /* \"#utility.yul\":1529:1534   */\n  dup5\n    /* \"#utility.yul\":1526:1556   */\n  or\n    /* \"#utility.yul\":1516:1556   */\n  swap3\n  pop\n    /* \"#utility.yul\":1245:1562   */\n  pop\n  pop\n    /* \"#utility.yul\":1169:1562   */\n  swap4\n  swap3\n  pop\n  pop\n  pop\n  jump\t// out\n    /* \"#utility.yul\":1568:1645   */\ntag_29:\n    /* \"#utility.yul\":1605:1612   */\n  0x00\n    /* \"#utility.yul\":1634:1639   */\n  dup2\n    /* \"#utility.yul\":1623:1639   */\n  swap1\n  pop\n    /* \"#utility.yul\":1568:1645   */\n  swap2\n  swap1\n  pop\n  jump\t// out\n    /* \"#utility.yul\":1651:1711   */\ntag_30:\n    /* \"#utility.yul\":1679:1682   */\n  0x00\n    /* \"#utility.yul\":1700:1705   */\n  dup2\n    /* \"#utility.yul\":1693:1705   */\n  swap1\n  pop\n    /* \"#utility.yul\":1651:1711   */\n  swap2\n  swap1\n  pop\n  jump\t// out\n    /* \"#utility.yul\":1717:1859   */\ntag_31:\n    /* \"#utility.yul\":1767:1776   */\n  0x00\n    /* \"#utility.yul\":1800:1853   */\n  tag_63\n    /* \"#utility.yul\":1818:1852   */\n  tag_64\n    /* \"#utility.yul\":1827:1851   */\n  tag_65\n    /* \"#utility.yul\":1845:1850   */\n  dup5\n    /* \"#utility.yul\":1827:1851   */\n  tag_29\n  jump\t// in\ntag_65:\n    /* \"#utility.yul\":1818:1852   */\n  tag_30\n  jump\t// in\ntag_64:\n    /* \"#utility.yul\":1800:1853   */\n  tag_29\n  jump\t// in\ntag_63:\n    /* \"#utility.yul\":1787:1853   */\n  swap1\n  pop\n    /* \"#utility.yul\":1717:1859   */\n  swap2\n  swap1\n  pop\n  jump\t// out\n    /* \"#utility.yul\":1865:1940   */\ntag_32:\n    /* \"#utility.yul\":1908:1911   */\n  0x00\n    /* \"#utility.yul\":1929:1934   */\n  dup2\n    /* \"#utility.yul\":1922:1934   */\n  swap1\n  pop\n    /* \"#utility.yul\":1865:1940   */\n  swap2\n  swap1\n  pop\n  jump\t// out\n    /* \"#utility.yul\":1946:2215   */\ntag_33:\n    /* \"#utility.yul\":2056:2095   */\n  tag_68\n    /* \"#utility.yul\":2087:2094   */\n  dup4\n    /* \"#utility.yul\":2056:2095   */\n  tag_31\n  jump\t// in\ntag_68:\n    /* \"#utility.yul\":2117:2208   */\n  tag_69\n    /* \"#utility.yul\":2166:2207   */\n  tag_70\n    /* \"#utility.yul\":2190:2206   */\n  dup3\n    /* \"#utility.yul\":2166:2207   */\n  tag_32\n  jump\t// in\ntag_70:\n    /* \"#utility.yul\":2158:2164   */\n  dup5\n    /* \"#utility.yul\":2151:2155   */\n  dup5\n    /* \"#utility.yul\":2145:2156   */\n  sload\n    /* \"#utility.yul\":2117:2208   */\n  tag_28\n  jump\t// in\ntag_69:\n    /* \"#utility.yul\":2111:2115   */\n  dup3\n    /* \"#utility.yul\":2104:2209   */\n  sstore\n    /* \"#utility.yul\":2022:2215   */\n  pop\n    /* \"#utility.yul\":1946:2215   */\n  pop\n  pop\n  pop\n  jump\t// out\n    /* \"#utility.yul\":2221:2294   */\ntag_34:\n    /* \"#utility.yul\":2266:2269   */\n  0x00\n    /* \"#utility.yul\":2287:2288   */\n  0x00\n    /* \"#utility.yul\":2280:2288   */\n  swap1\n  pop\n    /* \"#utility.yul\":2221:2294   */\n  swap1\n  jump\t// out\n    /* \"#utility.yul\":2300:2489   */\ntag_35:\n    /* \"#utility.yul\":2377:2409   */\n  tag_73\n  tag_34\n  jump\t// in\ntag_73:\n    /* \"#utility.yul\":2418:2483   */\n  tag_74\n    /* \"#utility.yul\":2476:2482   */\n  dup2\n    /* \"#utility.yul\":2468:2474   */\n  dup5\n    /* \"#utility.yul\":2462:2466   */\n  dup5\n    /* \"#utility.yul\":2418:2483   */\n  tag_33\n  jump\t// in\ntag_74:\n    /* \"#utility.yul\":2353:2489   */\n  pop\n    /* \"#utility.yul\":2300:2489   */\n  pop\n  pop\n  jump\t// out\n    /* \"#utility.yul\":2495:2681   */\ntag_36:\n    /* \"#utility.yul\":2555:2675   */\ntag_76:\n    /* \"#utility.yul\":2572:2575   */\n  dup2\n    /* \"#utility.yul\":2565:2570   */\n  dup2\n    /* \"#utility.yul\":2562:2576   */\n  lt\n    /* \"#utility.yul\":2555:2675   */\n  iszero\n  tag_78\n  jumpi\n    /* \"#utility.yul\":2626:2665   */\n  tag_79\n    /* \"#utility.yul\":2663:2664   */\n  0x00\n    /* \"#utility.yul\":2656:2661   */\n  dup3\n    /* \"#utility.yul\":2626:2665   */\n  tag_35\n  jump\t// in\ntag_79:\n    /* \"#utility.yul\":2599:2600   */\n  0x01\n    /* \"#utility.yul\":2592:2597   */\n  dup2\n    /* \"#utility.yul\":2588:2601   */\n  add\n    /* \"#utility.yul\":2579:2601   */\n  swap1\n  pop\n    /* \"#utility.yul\":2555:2675   */\n  jump(tag_76)\ntag_78:\n    /* \"#utility.yul\":2495:2681   */\n  pop\n  pop\n  jump\t// out\n    /* \"#utility.yul\":2687:3230   */\ntag_37:\n    /* \"#utility.yul\":2788:2790   */\n  0x1f\n    /* \"#utility.yul\":2783:2786   */\n  dup3\n    /* \"#utility.yul\":2780:2791   */\n  gt\n    /* \"#utility.yul\":2777:3223   */\n  iszero\n  tag_81\n  jumpi\n    /* \"#utility.yul\":2822:2860   */\n  tag_82\n    /* \"#utility.yul\":2854:2859   */\n  dup2\n    /* \"#utility.yul\":2822:2860   */\n  tag_25\n  jump\t// in\ntag_82:\n    /* \"#utility.yul\":2906:2935   */\n  tag_83\n    /* \"#utility.yul\":2924:2934   */\n  dup5\n    /* \"#utility.yul\":2906:2935   */\n  tag_26\n  jump\t// in\ntag_83:\n    /* \"#utility.yul\":2896:2904   */\n  dup2\n    /* \"#utility.yul\":2892:2936   */\n  add\n    /* \"#utility.yul\":3089:3091   */\n  0x20\n    /* \"#utility.yul\":3077:3087   */\n  dup6\n    /* \"#utility.yul\":3074:3092   */\n  lt\n    /* \"#utility.yul\":3071:3120   */\n  iszero\n  tag_84\n  jumpi\n    /* \"#utility.yul\":3110:3118   */\n  dup2\n    /* \"#utility.yul\":3095:3118   */\n  swap1\n  pop\n    /* \"#utility.yul\":3071:3120   */\ntag_84:\n    /* \"#utility.yul\":3133:3213   */\n  tag_85\n    /* \"#utility.yul\":3189:3211   */\n  tag_86\n    /* \"#utility.yul\":3207:3210   */\n  dup6\n    /* \"#utility.yul\":3189:3211   */\n  tag_26\n  jump\t// in\ntag_86:\n    /* \"#utility.yul\":3179:3187   */\n  dup4\n    /* \"#utility.yul\":3175:3212   */\n  add\n    /* \"#utility.yul\":3162:3173   */\n  dup3\n    /* \"#utility.yul\":3133:3213   */\n  tag_36\n  jump\t// in\ntag_85:\n    /* \"#utility.yul\":2792:3223   */\n  pop\n  pop\n    /* \"#utility.yul\":2777:3223   */\ntag_81:\n    /* \"#utility.yul\":2687:3230   */\n  pop\n  pop\n  pop\n  jump\t// out\n    /* \"#utility.yul\":3236:3353   */\ntag_38:\n    /* \"#utility.yul\":3290:3298   */\n  0x00\n    /* \"#utility.yul\":3340:3345   */\n  dup3\n    /* \"#utility.yul\":3334:3338   */\n  dup3\n    /* \"#utility.yul\":3330:3346   */\n  shr\n    /* \"#utility.yul\":3309:3346   */\n  swap1\n  pop\n    /* \"#utility.yul\":3236:3353   */\n  swap3\n  swap2\n  pop\n  pop\n  jump\t// out\n    /* \"#utility.yul\":3359:3528   */\ntag_39:\n    /* \"#utility.yul\":3403:3409   */\n  0x00\n    /* \"#utility.yul\":3436:3487   */\n  tag_89\n    /* \"#utility.yul\":3484:3485   */\n  0x00\n    /* \"#utility.yul\":3480:3486   */\n  not\n    /* \"#utility.yul\":3472:3477   */\n  dup5\n    /* \"#utility.yul\":3469:3470   */\n  0x08\n    /* \"#utility.yul\":3465:3478   */\n  mul\n    /* \"#utility.yul\":3436:3487   */\n  tag_38\n  jump\t// in\ntag_89:\n    /* \"#utility.yul\":3432:3488   */\n  not\n    /* \"#utility.yul\":3517:3521   */\n  dup1\n    /* \"#utility.yul\":3511:3515   */\n  dup4\n    /* \"#utility.yul\":3507:3522   */\n  and\n    /* \"#utility.yul\":3497:3522   */\n  swap2\n  pop\n    /* \"#utility.yul\":3410:3528   */\n  pop\n    /* \"#utility.yul\":3359:3528   */\n  swap3\n  swap2\n  pop\n  pop\n  jump\t// out\n    /* \"#utility.yul\":3533:3828   */\ntag_40:\n    /* \"#utility.yul\":3609:3613   */\n  0x00\n    /* \"#utility.yul\":3755:3784   */\n  tag_91\n    /* \"#utility.yul\":3780:3783   */\n  dup4\n    /* \"#utility.yul\":3774:3778   */\n  dup4\n    /* \"#utility.yul\":3755:3784   */\n  tag_39\n  jump\t// in\ntag_91:\n    /* \"#utility.yul\":3747:3784   */\n  swap2\n  pop\n    /* \"#utility.yul\":3817:3820   */\n  dup3\n    /* \"#utility.yul\":3814:3815   */\n  0x02\n    /* \"#utility.yul\":3810:3821   */\n  mul\n    /* \"#utility.yul\":3804:3808   */\n  dup3\n    /* \"#utility.yul\":3801:3822   */\n  or\n    /* \"#utility.yul\":3793:3822   */\n  swap1\n  pop\n    /* \"#utility.yul\":3533:3828   */\n  swap3\n  swap2\n  pop\n  pop\n  jump\t// out\n    /* \"#utility.yul\":3833:5228   */\ntag_11:\n    /* \"#utility.yul\":3950:3987   */\n  tag_93\n    /* \"#utility.yul\":3983:3986   */\n  dup3\n    /* \"#utility.yul\":3950:3987   */\n  tag_21\n  jump\t// in\ntag_93:\n    /* \"#utility.yul\":4052:4070   */\n  0xffffffffffffffff\n    /* \"#utility.yul\":4044:4050   */\n  dup2\n    /* \"#utility.yul\":4041:4071   */\n  gt\n    /* \"#utility.yul\":4038:4094   */\n  iszero\n  tag_94\n  jumpi\n    /* \"#utility.yul\":4074:4092   */\n  tag_95\n  tag_22\n  jump\t// in\ntag_95:\n    /* \"#utility.yul\":4038:4094   */\ntag_94:\n    /* \"#utility.yul\":4118:4156   */\n  tag_96\n    /* \"#utility.yul\":4150:4154   */\n  dup3\n    /* \"#utility.yul\":4144:4155   */\n  sload\n    /* \"#utility.yul\":4118:4156   */\n  tag_24\n  jump\t// in\ntag_96:\n    /* \"#utility.yul\":4203:4270   */\n  tag_97\n    /* \"#utility.yul\":4263:4269   */\n  dup3\n    /* \"#utility.yul\":4255:4261   */\n  dup3\n    /* \"#utility.yul\":4249:4253   */\n  dup6\n    /* \"#utility.yul\":4203:4270   */\n  tag_37\n  jump\t// in\ntag_97:\n    /* \"#utility.yul\":4297:4298   */\n  0x00\n    /* \"#utility.yul\":4321:4325   */\n  0x20\n    /* \"#utility.yul\":4308:4325   */\n  swap1\n  pop\n    /* \"#utility.yul\":4353:4355   */\n  0x1f\n    /* \"#utility.yul\":4345:4351   */\n  dup4\n    /* \"#utility.yul\":4342:4356   */\n  gt\n    /* \"#utility.yul\":4370:4371   */\n  0x01\n    /* \"#utility.yul\":4365:4983   */\n  dup2\n  eq\n  tag_99\n  jumpi\n    /* \"#utility.yul\":5027:5028   */\n  0x00\n    /* \"#utility.yul\":5044:5050   */\n  dup5\n    /* \"#utility.yul\":5041:5118   */\n  iszero\n  tag_100\n  jumpi\n    /* \"#utility.yul\":5093:5102   */\n  dup3\n    /* \"#utility.yul\":5088:5091   */\n  dup8\n    /* \"#utility.yul\":5084:5103   */\n  add\n    /* \"#utility.yul\":5078:5104   */\n  mload\n    /* \"#utility.yul\":5069:5104   */\n  swap1\n  pop\n    /* \"#utility.yul\":5041:5118   */\ntag_100:\n    /* \"#utility.yul\":5144:5211   */\n  tag_101\n    /* \"#utility.yul\":5204:5210   */\n  dup6\n    /* \"#utility.yul\":5197:5202   */\n  dup3\n    /* \"#utility.yul\":5144:5211   */\n  tag_40\n  jump\t// in\ntag_101:\n    /* \"#utility.yul\":5138:5142   */\n  dup7\n    /* \"#utility.yul\":5131:5212   */\n  sstore\n    /* \"#utility.yul\":5000:5222   */\n  pop\n    /* \"#utility.yul\":4335:5222   */\n  jump(tag_98)\n    /* \"#utility.yul\":4365:4983   */\ntag_99:\n    /* \"#utility.yul\":4417:4421   */\n  0x1f\n    /* \"#utility.yul\":4413:4422   */\n  not\n    /* \"#utility.yul\":4405:4411   */\n  dup5\n    /* \"#utility.yul\":4401:4423   */\n  and\n    /* \"#utility.yul\":4451:4488   */\n  tag_102\n    /* \"#utility.yul\":4483:4487   */\n  dup7\n    /* \"#utility.yul\":4451:4488   */\n  tag_25\n  jump\t// in\ntag_102:\n    /* \"#utility.yul\":4510:4511   */\n  0x00\n    /* \"#utility.yul\":4524:4732   */\ntag_103:\n    /* \"#utility.yul\":4538:4545   */\n  dup3\n    /* \"#utility.yul\":4535:4536   */\n  dup2\n    /* \"#utility.yul\":4532:4546   */\n  lt\n    /* \"#utility.yul\":4524:4732   */\n  iszero\n  tag_105\n  jumpi\n    /* \"#utility.yul\":4617:4626   */\n  dup5\n    /* \"#utility.yul\":4612:4615   */\n  dup10\n    /* \"#utility.yul\":4608:4627   */\n  add\n    /* \"#utility.yul\":4602:4628   */\n  mload\n    /* \"#utility.yul\":4594:4600   */\n  dup3\n    /* \"#utility.yul\":4587:4629   */\n  sstore\n    /* \"#utility.yul\":4668:4669   */\n  0x01\n    /* \"#utility.yul\":4660:4666   */\n  dup3\n    /* \"#utility.yul\":4656:4670   */\n  add\n    /* \"#utility.yul\":4646:4670   */\n  swap2\n  pop\n    /* \"#utility.yul\":4715:4717   */\n  0x20\n    /* \"#utility.yul\":4704:4713   */\n  dup6\n    /* \"#utility.yul\":4700:4718   */\n  add\n    /* \"#utility.yul\":4687:4718   */\n  swap5\n  pop\n    /* \"#utility.yul\":4561:4565   */\n  0x20\n    /* \"#utility.yul\":4558:4559   */\n  dup2\n    /* \"#utility.yul\":4554:4566   */\n  add\n    /* \"#utility.yul\":4549:4566   */\n  swap1\n  pop\n    /* \"#utility.yul\":4524:4732   */\n  jump(tag_103)\ntag_105:\n    /* \"#utility.yul\":4760:4766   */\n  dup7\n    /* \"#utility.yul\":4751:4758   */\n  dup4\n    /* \"#utility.yul\":4748:4767   */\n  lt\n    /* \"#utility.yul\":4745:4924   */\n  iszero\n  tag_106\n  jumpi\n    /* \"#utility.yul\":4818:4827   */\n  dup5\n    /* \"#utility.yul\":4813:4816   */\n  dup10\n    /* \"#utility.yul\":4809:4828   */\n  add\n    /* \"#utility.yul\":4803:4829   */\n  mload\n    /* \"#utility.yul\":4861:4909   */\n  tag_107\n    /* \"#utility.yul\":4903:4907   */\n  0x1f\n    /* \"#utility.yul\":4895:4901   */\n  dup10\n    /* \"#utility.yul\":4891:4908   */\n  and\n    /* \"#utility.yul\":4880:4889   */\n  dup3\n    /* \"#utility.yul\":4861:4909   */\n  tag_39\n  jump\t// in\ntag_107:\n    /* \"#utility.yul\":4853:4859   */\n  dup4\n    /* \"#utility.yul\":4846:4910   */\n  sstore\n    /* \"#utility.yul\":4768:4924   */\n  pop\n    /* \"#utility.yul\":4745:4924   */\ntag_106:\n    /* \"#utility.yul\":4970:4971   */\n  0x01\n    /* \"#utility.yul\":4966:4967   */\n  0x02\n    /* \"#utility.yul\":4958:4964   */\n  dup9\n    /* \"#utility.yul\":4954:4968   */\n  mul\n    /* \"#utility.yul\":4950:4972   */\n  add\n    /* \"#utility.yul\":4944:4948   */\n  dup9\n    /* \"#utility.yul\":4937:4973   */\n  sstore\n    /* \"#utility.yul\":4372:4983   */\n  pop\n  pop\n  pop\n    /* \"#utility.yul\":4335:5222   */\ntag_98:\n  pop\n    /* \"#utility.yul\":3925:5228   */\n  pop\n  pop\n  pop\n    /* \"#utility.yul\":3833:5228   */\n  pop\n  pop\n  jump\t// out\n    /* \"#utility.yul\":5234:5414   */\ntag_41:\n    /* \"#utility.yul\":5282:5359   */\n  0x4e487b7100000000000000000000000000000000000000000000000000000000\n    /* \"#utility.yul\":5279:5280   */\n  0x00\n    /* \"#utility.yul\":5272:5360   */\n  mstore\n    /* \"#utility.yul\":5379:5383   */\n  0x11\n    /* \"#utility.yul\":5376:5377   */\n  0x04\n    /* \"#utility.yul\":5369:5384   */\n  mstore\n    /* \"#utility.yul\":5403:5407   */\n  0x24\n    /* \"#utility.yul\":5400:5401   */\n  0x00\n    /* \"#utility.yul\":5393:5408   */\n  revert\n    /* \"#utility.yul\":5420:5522   */\ntag_42:\n    /* \"#utility.yul\":5462:5470   */\n  0x00\n    /* \"#utility.yul\":5509:5514   */\n  dup2\n    /* \"#utility.yul\":5506:5507   */\n  0x01\n    /* \"#utility.yul\":5502:5515   */\n  shr\n    /* \"#utility.yul\":5481:5515   */\n  swap1\n  pop\n    /* \"#utility.yul\":5420:5522   */\n  swap2\n  swap1\n  pop\n  jump\t// out\n    /* \"#utility.yul\":5528:6376   */\ntag_43:\n    /* \"#utility.yul\":5589:5594   */\n  0x00\n    /* \"#utility.yul\":5596:5600   */\n  0x00\n    /* \"#utility.yul\":5620:5626   */\n  dup3\n    /* \"#utility.yul\":5611:5626   */\n  swap2\n  pop\n    /* \"#utility.yul\":5644:5649   */\n  dup4\n    /* \"#utility.yul\":5635:5649   */\n  swap1\n  pop\n    /* \"#utility.yul\":5658:6370   */\ntag_111:\n    /* \"#utility.yul\":5679:5680   */\n  0x01\n    /* \"#utility.yul\":5669:5677   */\n  dup6\n    /* \"#utility.yul\":5666:5681   */\n  gt\n    /* \"#utility.yul\":5658:6370   */\n  iszero\n  tag_113\n  jumpi\n    /* \"#utility.yul\":5774:5778   */\n  dup1\n    /* \"#utility.yul\":5769:5772   */\n  dup7\n    /* \"#utility.yul\":5765:5779   */\n  div\n    /* \"#utility.yul\":5759:5763   */\n  dup2\n    /* \"#utility.yul\":5756:5780   */\n  gt\n    /* \"#utility.yul\":5753:5803   */\n  iszero\n  tag_114\n  jumpi\n    /* \"#utility.yul\":5783:5801   */\n  tag_115\n  tag_41\n  jump\t// in\ntag_115:\n    /* \"#utility.yul\":5753:5803   */\ntag_114:\n    /* \"#utility.yul\":5833:5834   */\n  0x01\n    /* \"#utility.yul\":5823:5831   */\n  dup6\n    /* \"#utility.yul\":5819:5835   */\n  and\n    /* \"#utility.yul\":5816:6267   */\n  iszero\n  tag_116\n  jumpi\n    /* \"#utility.yul\":6248:6252   */\n  dup1\n    /* \"#utility.yul\":6241:6246   */\n  dup3\n    /* \"#utility.yul\":6237:6253   */\n  mul\n    /* \"#utility.yul\":6228:6253   */\n  swap2\n  pop\n    /* \"#utility.yul\":5816:6267   */\ntag_116:\n    /* \"#utility.yul\":6298:6302   */\n  dup1\n    /* \"#utility.yul\":6292:6296   */\n  dup2\n    /* \"#utility.yul\":6288:6303   */\n  mul\n    /* \"#utility.yul\":6280:6303   */\n  swap1\n  pop\n    /* \"#utility.yul\":6328:6360   */\n  tag_117\n    /* \"#utility.yul\":6351:6359   */\n  dup6\n    /* \"#utility.yul\":6328:6360   */\n  tag_42\n  jump\t// in\ntag_117:\n    /* \"#utility.yul\":6316:6360   */\n  swap5\n  pop\n    /* \"#utility.yul\":5658:6370   */\n  jump(tag_111)\ntag_113:\n    /* \"#utility.yul\":5528:6376   */\n  swap5\n  pop\n  swap5\n  swap3\n  pop\n  pop\n  pop\n  jump\t// out\n    /* \"#utility.yul\":6382:7455   */\ntag_44:\n    /* \"#utility.yul\":6436:6441   */\n  0x00\n    /* \"#utility.yul\":6627:6635   */\n  dup3\n    /* \"#utility.yul\":6617:6657   */\n  tag_119\n  jumpi\n    /* \"#utility.yul\":6648:6649   */\n  0x01\n    /* \"#utility.yul\":6639:6649   */\n  swap1\n  pop\n    /* \"#utility.yul\":6650:6655   */\n  jump(tag_118)\n    /* \"#utility.yul\":6617:6657   */\ntag_119:\n    /* \"#utility.yul\":6676:6680   */\n  dup2\n    /* \"#utility.yul\":6666:6702   */\n  tag_120\n  jumpi\n    /* \"#utility.yul\":6693:6694   */\n  0x00\n    /* \"#utility.yul\":6684:6694   */\n  swap1\n  pop\n    /* \"#utility.yul\":6695:6700   */\n  jump(tag_118)\n    /* \"#utility.yul\":6666:6702   */\ntag_120:\n    /* \"#utility.yul\":6762:6766   */\n  dup2\n    /* \"#utility.yul\":6810:6811   */\n  0x01\n    /* \"#utility.yul\":6805:6832   */\n  dup2\n  eq\n  tag_122\n  jumpi\n    /* \"#utility.yul\":6846:6847   */\n  0x02\n    /* \"#utility.yul\":6841:7032   */\n  dup2\n  eq\n  tag_123\n  jumpi\n    /* \"#utility.yul\":6755:7032   */\n  jump(tag_121)\n    /* \"#utility.yul\":6805:6832   */\ntag_122:\n    /* \"#utility.yul\":6823:6824   */\n  0x01\n    /* \"#utility.yul\":6814:6824   */\n  swap2\n  pop\n    /* \"#utility.yul\":6825:6830   */\n  pop\n  jump(tag_118)\n    /* \"#utility.yul\":6841:7032   */\ntag_123:\n    /* \"#utility.yul\":6886:6889   */\n  0xff\n    /* \"#utility.yul\":6876:6884   */\n  dup5\n    /* \"#utility.yul\":6873:6890   */\n  gt\n    /* \"#utility.yul\":6870:6913   */\n  iszero\n  tag_124\n  jumpi\n    /* \"#utility.yul\":6893:6911   */\n  tag_125\n  tag_41\n  jump\t// in\ntag_125:\n    /* \"#utility.yul\":6870:6913   */\ntag_124:\n    /* \"#utility.yul\":6942:6950   */\n  dup4\n    /* \"#utility.yul\":6939:6940   */\n  0x02\n    /* \"#utility.yul\":6935:6951   */\n  exp\n    /* \"#utility.yul\":6926:6951   */\n  swap2\n  pop\n    /* \"#utility.yul\":6977:6980   */\n  dup5\n    /* \"#utility.yul\":6970:6975   */\n  dup3\n    /* \"#utility.yul\":6967:6981   */\n  gt\n    /* \"#utility.yul\":6964:7004   */\n  iszero\n  tag_126\n  jumpi\n    /* \"#utility.yul\":6984:7002   */\n  tag_127\n  tag_41\n  jump\t// in\ntag_127:\n    /* \"#utility.yul\":6964:7004   */\ntag_126:\n    /* \"#utility.yul\":7017:7022   */\n  pop\n  jump(tag_118)\n    /* \"#utility.yul\":6755:7032   */\ntag_121:\n  pop\n    /* \"#utility.yul\":7141:7143   */\n  0x20\n    /* \"#utility.yul\":7131:7139   */\n  dup4\n    /* \"#utility.yul\":7128:7144   */\n  lt\n    /* \"#utility.yul\":7122:7125   */\n  0x0133\n    /* \"#utility.yul\":7116:7120   */\n  dup4\n    /* \"#utility.yul\":7113:7126   */\n  lt\n    /* \"#utility.yul\":7109:7145   */\n  and\n    /* \"#utility.yul\":7091:7093   */\n  0x4e\n    /* \"#utility.yul\":7081:7089   */\n  dup5\n    /* \"#utility.yul\":7078:7094   */\n  lt\n    /* \"#utility.yul\":7073:7075   */\n  0x0b\n    /* \"#utility.yul\":7067:7071   */\n  dup5\n    /* \"#utility.yul\":7064:7076   */\n  lt\n    /* \"#utility.yul\":7060:7095   */\n  and\n    /* \"#utility.yul\":7044:7155   */\n  or\n    /* \"#utility.yul\":7041:7287   */\n  iszero\n  tag_128\n  jumpi\n    /* \"#utility.yul\":7197:7205   */\n  dup3\n    /* \"#utility.yul\":7191:7195   */\n  dup3\n    /* \"#utility.yul\":7187:7206   */\n  exp\n    /* \"#utility.yul\":7178:7206   */\n  swap1\n  pop\n    /* \"#utility.yul\":7232:7235   */\n  dup4\n    /* \"#utility.yul\":7225:7230   */\n  dup2\n    /* \"#utility.yul\":7222:7236   */\n  gt\n    /* \"#utility.yul\":7219:7259   */\n  iszero\n  tag_129\n  jumpi\n    /* \"#utility.yul\":7239:7257   */\n  tag_130\n  tag_41\n  jump\t// in\ntag_130:\n    /* \"#utility.yul\":7219:7259   */\ntag_129:\n    /* \"#utility.yul\":7272:7277   */\n  jump(tag_118)\n    /* \"#utility.yul\":7041:7287   */\ntag_128:\n    /* \"#utility.yul\":7312:7354   */\n  tag_131\n    /* \"#utility.yul\":7350:7353   */\n  dup5\n    /* \"#utility.yul\":7340:7348   */\n  dup5\n    /* \"#utility.yul\":7334:7338   */\n  dup5\n    /* \"#utility.yul\":7331:7332   */\n  0x01\n    /* \"#utility.yul\":7312:7354   */\n  tag_43\n  jump\t// in\ntag_131:\n    /* \"#utility.yul\":7297:7354   */\n  swap3\n  pop\n  swap1\n  pop\n    /* \"#utility.yul\":7386:7390   */\n  dup2\n    /* \"#utility.yul\":7381:7384   */\n  dup5\n    /* \"#utility.yul\":7377:7391   */\n  div\n    /* \"#utility.yul\":7370:7375   */\n  dup2\n    /* \"#utility.yul\":7367:7392   */\n  gt\n    /* \"#utility.yul\":7364:7415   */\n  iszero\n  tag_132\n  jumpi\n    /* \"#utility.yul\":7395:7413   */\n  tag_133\n  tag_41\n  jump\t// in\ntag_133:\n    /* \"#utility.yul\":7364:7415   */\ntag_132:\n    /* \"#utility.yul\":7444:7448   */\n  dup2\n    /* \"#utility.yul\":7437:7442   */\n  dup2\n    /* \"#utility.yul\":7433:7449   */\n  mul\n    /* \"#utility.yul\":7424:7449   */\n  swap1\n  pop\n    /* \"#utility.yul\":6382:7455   */\ntag_118:\n  swap4\n  swap3\n  pop\n  pop\n  pop\n  jump\t// out\n    /* \"#utility.yul\":7461:7746   */\ntag_14:\n    /* \"#utility.yul\":7521:7526   */\n  0x00\n    /* \"#utility.yul\":7545:7568   */\n  tag_135\n    /* \"#utility.yul\":7563:7567   */\n  dup3\n    /* \"#utility.yul\":7545:7568   */\n  tag_29\n  jump\t// in\ntag_135:\n    /* \"#utility.yul\":7537:7568   */\n  swap2\n  pop\n    /* \"#utility.yul\":7589:7616   */\n  tag_136\n    /* \"#utility.yul\":7607:7615   */\n  dup4\n    /* \"#utility.yul\":7589:7616   */\n  tag_29\n  jump\t// in\ntag_136:\n    /* \"#utility.yul\":7577:7616   */\n  swap3\n  pop\n    /* \"#utility.yul\":7635:7739   */\n  tag_137\n    /* \"#utility.yul\":7672:7738   */\n  0xffffffffffffffffffffffffffffffffffffffffffffffffffffffffffffffff\n    /* \"#utility.yul\":7662:7670   */\n  dup5\n    /* \"#utility.yul\":7656:7660   */\n  dup5\n    /* \"#utility.yul\":7635:7739   */\n  tag_44\n  jump\t// in\ntag_137:\n    /* \"#utility.yul\":7626:7739   */\n  swap1\n  pop\n    /* \"#utility.yul\":7461:7746   */\n  swap3\n  swap2\n  pop\n  pop\n  jump\t// out\n    /* \"#utility.yul\":7752:8162   */\ntag_16:\n    /* \"#utility.yul\":7792:7799   */\n  0x00\n    /* \"#utility.yul\":7815:7835   */\n  tag_139\n    /* \"#utility.yul\":7833:7834   */\n  dup3\n    /* \"#utility.yul\":7815:7835   */\n  tag_29\n  jump\t// in\ntag_139:\n    /* \"#utility.yul\":7810:7835   */\n  swap2\n  pop\n    /* \"#utility.yul\":7849:7869   */\n  tag_140\n    /* \"#utility.yul\":7867:7868   */\n  dup4\n    /* \"#utility.yul\":7849:7869   */\n  tag_29\n  jump\t// in\ntag_140:\n    /* \"#utility.yul\":7844:7869   */\n  swap3\n  pop\n    /* \"#utility.yul\":7904:7905   */\n  dup3\n    /* \"#utility.yul\":7901:7902   */\n  dup3\n    /* \"#utility.yul\":7897:7906   */\n  mul\n    /* \"#utility.yul\":7926:7956   */\n  tag_141\n    /* \"#utility.yul\":7944:7955   */\n  dup2\n    /* \"#utility.yul\":7926:7956   */\n  tag_29\n  jump\t// in\ntag_141:\n    /* \"#utility.yul\":7915:7956   */\n  swap2\n  pop\n    /* \"#utility.yul\":8105:8106   */\n  dup3\n    /* \"#utility.yul\":8096:8103   */\n  dup3\n    /* \"#utility.yul\":8092:8107   */\n  div\n    /* \"#utility.yul\":8089:8090   */\n  dup5\n    /* \"#utility.yul\":8086:8108   */\n  eq\n    /* \"#utility.yul\":8066:8067   */\n  dup4\n    /* \"#utility.yul\":8059:8068   */\n  iszero\n    /* \"#utility.yul\":8039:8122   */\n  or\n    /* \"#utility.yul\":8016:8155   */\n  tag_142\n  jumpi\n    /* \"#utility.yul\":8135:8153   */\n  tag_143\n  tag_41\n  jump\t// in\ntag_143:\n    /* \"#utility.yul\":8016:8155   */\ntag_142:\n    /* \"#utility.yul\":7800:8162   */\n  pop\n    /* \"#utility.yul\":7752:8162   */\n  swap3\n  swap2\n  pop\n  pop\n  jump\t// out\n    /* \"#utility.yul\":8168:8286   */\ntag_45:\n    /* \"#utility.yul\":8255:8279   */\n  tag_145\n    /* \"#utility.yul\":8273:8278   */\n  dup2\n    /* \"#utility.yul\":8255:8279   */\n  tag_29\n  jump\t// in\ntag_145:\n    /* \"#utility.yul\":8250:8253   */\n  dup3\n    /* \"#utility.yul\":8243:8280   */\n  mstore\n    /* \"#utility.yul\":8168:8286   */\n  pop\n  pop\n  jump\t// out\n    /* \"#utility.yul\":8292:8514   */\ntag_18:\n    /* \"#utility.yul\":8385:8389   */\n  0x00\n    /* \"#utility.yul\":8423:8425   */\n  0x20\n    /* \"#utility.yul\":8412:8421   */\n  dup3\n    /* \"#utility.yul\":8408:8426   */\n  add\n    /* \"#utility.yul\":8400:8426   */\n  swap1\n  pop\n    /* \"#utility.yul\":8436:8507   */\n  tag_147\n    /* \"#utility.yul\":8504:8505   */\n  0x00\n    /* \"#utility.yul\":8493:8502   */\n  dup4\n    /* \"#utility.yul\":8489:8506   */\n  add\n    /* \"#utility.yul\":8480:8486   */\n  dup5\n    /* \"#utility.yul\":8436:8507   */\n  tag_45\n  jump\t// in\ntag_147:\n    /* \"#utility.yul\":8292:8514   */\n  swap3\n  swap2\n  pop\n  pop\n  jump\t// out\n    /* \"SDC-Contract.sol\":5970:10182  contract SignDocumentsChain is Context, IBEP20, Ownable {... */\ntag_19:\n  dataSize(sub_0)\n  dup1\n  dataOffset(sub_0)\n  0x00\n  codecopy\n  0x00\n  return\nstop\n\nsub_0: assembly {\n        /* \"SDC-Contract.sol\":5970:10182  contract SignDocumentsChain is Context, IBEP20, Ownable {... */\n      mstore(0x40, 0x80)\n      callvalue\n      dup1\n      iszero\n      tag_1\n      jumpi\n      revert(0x00, 0x00)\n    tag_1:\n      pop\n      jumpi(tag_2, lt(calldatasize, 0x04))\n      shr(0xe0, calldataload(0x00))\n      dup1\n      0x715018a6\n      gt\n      tag_20\n      jumpi\n      dup1\n      0xa0712d68\n      gt\n      tag_21\n      jumpi\n      dup1\n      0xa0712d68\n      eq\n      tag_15\n      jumpi\n      dup1\n      0xa457c2d7\n      eq\n      tag_16\n      jumpi\n      dup1\n      0xa9059cbb\n      eq\n      tag_17\n      jumpi\n      dup1\n      0xdd62ed3e\n      eq\n      tag_18\n      jumpi\n      dup1\n      0xf2fde38b\n      eq\n      tag_19\n      jumpi\n      jump(tag_2)\n    tag_21:\n      dup1\n      0x715018a6\n      eq\n      tag_11\n      jumpi\n      dup1\n      0x893d20e8\n      eq\n      tag_12\n      jumpi\n      dup1\n      0x8da5cb5b\n      eq\n      tag_13\n      jumpi\n      dup1\n      0x95d89b41\n      eq\n      tag_14\n      jumpi\n      jump(tag_2)\n    tag_20:\n      dup1\n      0x313ce567\n      gt\n      tag_22\n      jumpi\n      dup1\n      0x313ce567\n      eq\n      tag_7\n      jumpi\n      dup1\n      0x39509351\n      eq\n      tag_8\n      jumpi\n      dup1\n      0x42966c68\n      eq\n      tag_9\n      jumpi\n      dup1\n      0x70a08231\n      eq\n      tag_10\n      jumpi\n      jump(tag_2)\n    tag_22:\n      dup1\n      0x06fdde03\n      eq\n      tag_3\n      jumpi\n      dup1\n      0x095ea7b3\n      eq\n      tag_4\n      jumpi\n      dup1\n      0x18160ddd\n      eq\n      tag_5\n      jumpi\n      dup1\n      0x23b872dd\n      eq\n      tag_6\n      jumpi\n    tag_2:\n      revert(0x00, 0x00)\n        /* \"SDC-Contract.sol\":6892:6984  function name() external view override returns (string memory) {... */\n    tag_3:\n      tag_23\n      tag_24\n      jump\t// in\n    tag_23:\n      mload(0x40)\n      tag_25\n      swap2\n      swap1\n      tag_26\n      jump\t// in\n    tag_25:\n      mload(0x40)\n      dup1\n      swap2\n      sub\n      swap1\n      return\n        /* \"SDC-Contract.sol\":7542:7702  function approve(address spender, uint256 amount) external override returns (bool) {... */\n    tag_4:\n      tag_27\n      0x04\n      dup1\n      calldatasize\n      sub\n      dup2\n      add\n      swap1\n      tag_28\n      swap2\n      swap1\n      tag_29\n      jump\t// in\n    tag_28:\n      tag_30\n      jump\t// in\n    tag_27:\n      mload(0x40)\n      tag_31\n      swap2\n      swap1\n      tag_32\n      jump\t// in\n    tag_31:\n      mload(0x40)\n      dup1\n      swap2\n      sub\n      swap1\n      return\n        /* \"SDC-Contract.sol\":6990:7090  function totalSupply() external view override returns (uint256) {... */\n    tag_5:\n      tag_33\n      tag_34\n      jump\t// in\n    tag_33:\n      mload(0x40)\n      tag_35\n      swap2\n      swap1\n      tag_36\n      jump\t// in\n    tag_35:\n      mload(0x40)\n      dup1\n      swap2\n      sub\n      swap1\n      return\n        /* \"SDC-Contract.sol\":7708:8019  function transferFrom(address sender, address recipient, uint256 amount) external override returns (bool) {... */\n    tag_6:\n      tag_37\n      0x04\n      dup1\n      calldatasize\n      sub\n      dup2\n      add\n      swap1\n      tag_38\n      swap2\n      swap1\n      tag_39\n      jump\t// in\n    tag_38:\n      tag_40\n      jump\t// in\n    tag_37:\n      mload(0x40)\n      tag_41\n      swap2\n      swap1\n      tag_32\n      jump\t// in\n    tag_41:\n      mload(0x40)\n      dup1\n      swap2\n      sub\n      swap1\n      return\n        /* \"SDC-Contract.sol\":6692:6784  function decimals() external view override returns (uint8) {... */\n    tag_7:\n      tag_42\n      tag_43\n      jump\t// in\n    tag_42:\n      mload(0x40)\n      tag_44\n      swap2\n      swap1\n      tag_45\n      jump\t// in\n    tag_44:\n      mload(0x40)\n      dup1\n      swap2\n      sub\n      swap1\n      return\n        /* \"SDC-Contract.sol\":8025:8232  function increaseAllowance(address spender, uint256 addedValue) public returns (bool) {... */\n    tag_8:\n      tag_46\n      0x04\n      dup1\n      calldatasize\n      sub\n      dup2\n      add\n      swap1\n      tag_47\n      swap2\n      swap1\n      tag_29\n      jump\t// in\n    tag_47:\n      tag_48\n      jump\t// in\n    tag_46:\n      mload(0x40)\n      tag_49\n      swap2\n      swap1\n      tag_32\n      jump\t// in\n    tag_49:\n      mload(0x40)\n      dup1\n      swap2\n      sub\n      swap1\n      return\n        /* \"SDC-Contract.sol\":10099:10180  function burn(uint256 _amount) public {... */\n    tag_9:\n      tag_50\n      0x04\n      dup1\n      calldatasize\n      sub\n      dup2\n      add\n      swap1\n      tag_51\n      swap2\n      swap1\n      tag_52\n      jump\t// in\n    tag_51:\n      tag_53\n      jump\t// in\n    tag_50:\n      stop\n        /* \"SDC-Contract.sol\":7096:7215  function balanceOf(address account) external view override returns (uint256) {... */\n    tag_10:\n      tag_54\n      0x04\n      dup1\n      calldatasize\n      sub\n      dup2\n      add\n      swap1\n      tag_55\n      swap2\n      swap1\n      tag_56\n      jump\t// in\n    tag_55:\n      tag_57\n      jump\t// in\n    tag_54:\n      mload(0x40)\n      tag_58\n      swap2\n      swap1\n      tag_36\n      jump\t// in\n    tag_58:\n      mload(0x40)\n      dup1\n      swap2\n      sub\n      swap1\n      return\n        /* \"SDC-Contract.sol\":5485:5622  function renounceOwnership() public onlyOwner {... */\n    tag_11:\n      tag_59\n      tag_60\n      jump\t// in\n    tag_59:\n      stop\n        /* \"SDC-Contract.sol\":6594:6686  function getOwner() external view override returns (address) {... */\n    tag_12:\n      tag_61\n      tag_62\n      jump\t// in\n    tag_61:\n      mload(0x40)\n      tag_63\n      swap2\n      swap1\n      tag_64\n      jump\t// in\n    tag_63:\n      mload(0x40)\n      dup1\n      swap2\n      sub\n      swap1\n      return\n        /* \"SDC-Contract.sol\":5280:5357  function owner() public view returns (address) {... */\n    tag_13:\n      tag_65\n      tag_66\n      jump\t// in\n    tag_65:\n      mload(0x40)\n      tag_67\n      swap2\n      swap1\n      tag_64\n      jump\t// in\n    tag_67:\n      mload(0x40)\n      dup1\n      swap2\n      sub\n      swap1\n      return\n        /* \"SDC-Contract.sol\":6790:6886  function symbol() external view override returns (string memory) {... */\n    tag_14:\n      tag_68\n      tag_69\n      jump\t// in\n    tag_68:\n      mload(0x40)\n      tag_70\n      swap2\n      swap1\n      tag_26\n      jump\t// in\n    tag_70:\n      mload(0x40)\n      dup1\n      swap2\n      sub\n      swap1\n      return\n        /* \"SDC-Contract.sol\":8502:8629  function mint(uint256 amount) public onlyOwner returns (bool) {... */\n    tag_15:\n      tag_71\n      0x04\n      dup1\n      calldatasize\n      sub\n      dup2\n      add\n      swap1\n      tag_72\n      swap2\n      swap1\n      tag_52\n      jump\t// in\n    tag_72:\n      tag_73\n      jump\t// in\n    tag_71:\n      mload(0x40)\n      tag_74\n      swap2\n      swap1\n      tag_32\n      jump\t// in\n    tag_74:\n      mload(0x40)\n      dup1\n      swap2\n      sub\n      swap1\n      return\n        /* \"SDC-Contract.sol\":8238:8496  function decreaseAllowance(address spender, uint256 subtractedValue) public returns (bool) {... */\n    tag_16:\n      tag_75\n      0x04\n      dup1\n      calldatasize\n      sub\n      dup2\n      add\n      swap1\n      tag_76\n      swap2\n      swap1\n      tag_29\n      jump\t// in\n    tag_76:\n      tag_77\n      jump\t// in\n    tag_75:\n      mload(0x40)\n      tag_78\n      swap2\n      swap1\n      tag_32\n      jump\t// in\n    tag_78:\n      mload(0x40)\n      dup1\n      swap2\n      sub\n      swap1\n      return\n        /* \"SDC-Contract.sol\":7221:7387  function transfer(address recipient, uint256 amount) external override returns (bool) {... */\n    tag_17:\n      tag_79\n      0x04\n      dup1\n      calldatasize\n      sub\n      dup2\n      add\n      swap1\n      tag_80\n      swap2\n      swap1\n      tag_29\n      jump\t// in\n    tag_80:\n      tag_81\n      jump\t// in\n    tag_79:\n      mload(0x40)\n      tag_82\n      swap2\n      swap1\n      tag_32\n      jump\t// in\n    tag_82:\n      mload(0x40)\n      dup1\n      swap2\n      sub\n      swap1\n      return\n        /* \"SDC-Contract.sol\":7393:7536  function allowance(address owner, address spender) external view override returns (uint256) {... */\n    tag_18:\n      tag_83\n      0x04\n      dup1\n      calldatasize\n      sub\n      dup2\n      add\n      swap1\n      tag_84\n      swap2\n      swap1\n      tag_85\n      jump\t// in\n    tag_84:\n      tag_86\n      jump\t// in\n    tag_83:\n      mload(0x40)\n      tag_87\n      swap2\n      swap1\n      tag_36\n      jump\t// in\n    tag_87:\n      mload(0x40)\n      dup1\n      swap2\n      sub\n      swap1\n      return\n        /* \"SDC-Contract.sol\":5628:5735  function transferOwnership(address newOwner) public onlyOwner {... */\n    tag_19:\n      tag_88\n      0x04\n      dup1\n      calldatasize\n      sub\n      dup2\n      add\n      swap1\n      tag_89\n      swap2\n      swap1\n      tag_56\n      jump\t// in\n    tag_89:\n      tag_90\n      jump\t// in\n    tag_88:\n      stop\n        /* \"SDC-Contract.sol\":6892:6984  function name() external view override returns (string memory) {... */\n    tag_24:\n        /* \"SDC-Contract.sol\":6940:6953  string memory */\n      0x60\n        /* \"SDC-Contract.sol\":6972:6977  _name */\n      0x06\n        /* \"SDC-Contract.sol\":6965:6977  return _name */\n      dup1\n      sload\n      tag_92\n      swap1\n      tag_93\n      jump\t// in\n    tag_92:\n      dup1\n      0x1f\n      add\n      0x20\n      dup1\n      swap2\n      div\n      mul\n      0x20\n      add\n      mload(0x40)\n      swap1\n      dup2\n      add\n      0x40\n      mstore\n      dup1\n      swap3\n      swap2\n      swap1\n      dup2\n      dup2\n      mstore\n      0x20\n      add\n      dup3\n      dup1\n      sload\n      tag_94\n      swap1\n      tag_93\n      jump\t// in\n    tag_94:\n      dup1\n      iszero\n      tag_95\n      jumpi\n      dup1\n      0x1f\n      lt\n      tag_96\n      jumpi\n      0x0100\n      dup1\n      dup4\n      sload\n      div\n      mul\n      dup4\n      mstore\n      swap2\n      0x20\n      add\n      swap2\n      jump(tag_95)\n    tag_96:\n      dup3\n      add\n      swap2\n      swap1\n      0x00\n      mstore\n      keccak256(0x00, 0x20)\n      swap1\n    tag_97:\n      dup2\n      sload\n      dup2\n      mstore\n      swap1\n      0x01\n      add\n      swap1\n      0x20\n      add\n      dup1\n      dup4\n      gt\n      tag_97\n      jumpi\n      dup3\n      swap1\n      sub\n      0x1f\n      and\n      dup3\n      add\n      swap2\n    tag_95:\n      pop\n      pop\n      pop\n      pop\n      pop\n      swap1\n      pop\n        /* \"SDC-Contract.sol\":6892:6984  function name() external view override returns (string memory) {... */\n      swap1\n      jump\t// out\n        /* \"SDC-Contract.sol\":7542:7702  function approve(address spender, uint256 amount) external override returns (bool) {... */\n    tag_30:\n        /* \"SDC-Contract.sol\":7619:7623  bool */\n      0x00\n        /* \"SDC-Contract.sol\":7635:7674  _approve(_msgSender(), spender, amount) */\n      tag_99\n        /* \"SDC-Contract.sol\":7644:7656  _msgSender() */\n      tag_100\n        /* \"SDC-Contract.sol\":7644:7654  _msgSender */\n      tag_101\n        /* \"SDC-Contract.sol\":7644:7656  _msgSender() */\n      jump\t// in\n    tag_100:\n        /* \"SDC-Contract.sol\":7658:7665  spender */\n      dup5\n        /* \"SDC-Contract.sol\":7667:7673  amount */\n      dup5\n        /* \"SDC-Contract.sol\":7635:7643  _approve */\n      tag_102\n        /* \"SDC-Contract.sol\":7635:7674  _approve(_msgSender(), spender, amount) */\n      jump\t// in\n    tag_99:\n        /* \"SDC-Contract.sol\":7691:7695  true */\n      0x01\n        /* \"SDC-Contract.sol\":7684:7695  return true */\n      swap1\n      pop\n        /* \"SDC-Contract.sol\":7542:7702  function approve(address spender, uint256 amount) external override returns (bool) {... */\n      swap3\n      swap2\n      pop\n      pop\n      jump\t// out\n        /* \"SDC-Contract.sol\":6990:7090  function totalSupply() external view override returns (uint256) {... */\n    tag_34:\n        /* \"SDC-Contract.sol\":7045:7052  uint256 */\n      0x00\n        /* \"SDC-Contract.sol\":7071:7083  _totalSupply */\n      sload(0x03)\n        /* \"SDC-Contract.sol\":7064:7083  return _totalSupply */\n      swap1\n      pop\n        /* \"SDC-Contract.sol\":6990:7090  function totalSupply() external view override returns (uint256) {... */\n      swap1\n      jump\t// out\n        /* \"SDC-Contract.sol\":7708:8019  function transferFrom(address sender, address recipient, uint256 amount) external override returns (bool) {... */\n    tag_40:\n        /* \"SDC-Contract.sol\":7808:7812  bool */\n      0x00\n        /* \"SDC-Contract.sol\":7824:7860  _transfer(sender, recipient, amount) */\n      tag_105\n        /* \"SDC-Contract.sol\":7834:7840  sender */\n      dup5\n        /* \"SDC-Contract.sol\":7842:7851  recipient */\n      dup5\n        /* \"SDC-Contract.sol\":7853:7859  amount */\n      dup5\n        /* \"SDC-Contract.sol\":7824:7833  _transfer */\n      tag_106\n        /* \"SDC-Contract.sol\":7824:7860  _transfer(sender, recipient, amount) */\n      jump\t// in\n    tag_105:\n        /* \"SDC-Contract.sol\":7870:7991  _approve(sender, _msgSender(), _allowances[sender][_msgSender()].sub(amount, \"BEP20: transfer amount exceeds allowance\")) */\n      tag_107\n        /* \"SDC-Contract.sol\":7879:7885  sender */\n      dup5\n        /* \"SDC-Contract.sol\":7887:7899  _msgSender() */\n      tag_108\n        /* \"SDC-Contract.sol\":7887:7897  _msgSender */\n      tag_101\n        /* \"SDC-Contract.sol\":7887:7899  _msgSender() */\n      jump\t// in\n    tag_108:\n        /* \"SDC-Contract.sol\":7901:7990  _allowances[sender][_msgSender()].sub(amount, \"BEP20: transfer amount exceeds allowance\") */\n      tag_109\n        /* \"SDC-Contract.sol\":7939:7945  amount */\n      dup6\n        /* \"SDC-Contract.sol\":7901:7990  _allowances[sender][_msgSender()].sub(amount, \"BEP20: transfer amount exceeds allowance\") */\n      mload(0x40)\n      dup1\n      0x60\n      add\n      0x40\n      mstore\n      dup1\n      0x28\n      dup2\n      mstore\n      0x20\n      add\n      data_4f3506f4ba71c79c3cbd442a3afeb30e9b27af2d84e116a4385b34e267d2287e\n      0x28\n      swap2\n      codecopy\n        /* \"SDC-Contract.sol\":7901:7912  _allowances */\n      0x02\n        /* \"SDC-Contract.sol\":7901:7920  _allowances[sender] */\n      0x00\n        /* \"SDC-Contract.sol\":7913:7919  sender */\n      dup12\n        /* \"SDC-Contract.sol\":7901:7920  _allowances[sender] */\n      0xffffffffffffffffffffffffffffffffffffffff\n      and\n      0xffffffffffffffffffffffffffffffffffffffff\n      and\n      dup2\n      mstore\n      0x20\n      add\n      swap1\n      dup2\n      mstore\n      0x20\n      add\n      0x00\n      keccak256\n        /* \"SDC-Contract.sol\":7901:7934  _allowances[sender][_msgSender()] */\n      0x00\n        /* \"SDC-Contract.sol\":7921:7933  _msgSender() */\n      tag_110\n        /* \"SDC-Contract.sol\":7921:7931  _msgSender */\n      tag_101\n        /* \"SDC-Contract.sol\":7921:7933  _msgSender() */\n      jump\t// in\n    tag_110:\n        /* \"SDC-Contract.sol\":7901:7934  _allowances[sender][_msgSender()] */\n      0xffffffffffffffffffffffffffffffffffffffff\n      and\n      0xffffffffffffffffffffffffffffffffffffffff\n      and\n      dup2\n      mstore\n      0x20\n      add\n      swap1\n      dup2\n      mstore\n      0x20\n      add\n      0x00\n      keccak256\n      sload\n        /* \"SDC-Contract.sol\":7901:7938  _allowances[sender][_msgSender()].sub */\n      tag_111\n      swap1\n        /* \"SDC-Contract.sol\":7901:7990  _allowances[sender][_msgSender()].sub(amount, \"BEP20: transfer amount exceeds allowance\") */\n      swap3\n      swap2\n      swap1\n      0xffffffff\n      and\n      jump\t// in\n    tag_109:\n        /* \"SDC-Contract.sol\":7870:7878  _approve */\n      tag_102\n        /* \"SDC-Contract.sol\":7870:7991  _approve(sender, _msgSender(), _allowances[sender][_msgSender()].sub(amount, \"BEP20: transfer amount exceeds allowance\")) */\n      jump\t// in\n    tag_107:\n        /* \"SDC-Contract.sol\":8008:8012  true */\n      0x01\n        /* \"SDC-Contract.sol\":8001:8012  return true */\n      swap1\n      pop\n        /* \"SDC-Contract.sol\":7708:8019  function transferFrom(address sender, address recipient, uint256 amount) external override returns (bool) {... */\n      swap4\n      swap3\n      pop\n      pop\n      pop\n      jump\t// out\n        /* \"SDC-Contract.sol\":6692:6784  function decimals() external view override returns (uint8) {... */\n    tag_43:\n        /* \"SDC-Contract.sol\":6744:6749  uint8 */\n      0x00\n        /* \"SDC-Contract.sol\":6768:6777  _decimals */\n      0x04\n      0x00\n      swap1\n      sload\n      swap1\n      0x0100\n      exp\n      swap1\n      div\n      0xff\n      and\n        /* \"SDC-Contract.sol\":6761:6777  return _decimals */\n      swap1\n      pop\n        /* \"SDC-Contract.sol\":6692:6784  function decimals() external view override returns (uint8) {... */\n      swap1\n      jump\t// out\n        /* \"SDC-Contract.sol\":8025:8232  function increaseAllowance(address spender, uint256 addedValue) public returns (bool) {... */\n    tag_48:\n        /* \"SDC-Contract.sol\":8105:8109  bool */\n      0x00\n        /* \"SDC-Contract.sol\":8121:8204  _approve(_msgSender(), spender, _allowances[_msgSender()][spender].add(addedValue)) */\n      tag_114\n        /* \"SDC-Contract.sol\":8130:8142  _msgSender() */\n      tag_115\n        /* \"SDC-Contract.sol\":8130:8140  _msgSender */\n      tag_101\n        /* \"SDC-Contract.sol\":8130:8142  _msgSender() */\n      jump\t// in\n    tag_115:\n        /* \"SDC-Contract.sol\":8144:8151  spender */\n      dup5\n        /* \"SDC-Contract.sol\":8153:8203  _allowances[_msgSender()][spender].add(addedValue) */\n      tag_116\n        /* \"SDC-Contract.sol\":8192:8202  addedValue */\n      dup6\n        /* \"SDC-Contract.sol\":8153:8164  _allowances */\n      0x02\n        /* \"SDC-Contract.sol\":8153:8178  _allowances[_msgSender()] */\n      0x00\n        /* \"SDC-Contract.sol\":8165:8177  _msgSender() */\n      tag_117\n        /* \"SDC-Contract.sol\":8165:8175  _msgSender */\n      tag_101\n        /* \"SDC-Contract.sol\":8165:8177  _msgSender() */\n      jump\t// in\n    tag_117:\n        /* \"SDC-Contract.sol\":8153:8178  _allowances[_msgSender()] */\n      0xffffffffffffffffffffffffffffffffffffffff\n      and\n      0xffffffffffffffffffffffffffffffffffffffff\n      and\n      dup2\n      mstore\n      0x20\n      add\n      swap1\n      dup2\n      mstore\n      0x20\n      add\n      0x00\n      keccak256\n        /* \"SDC-Contract.sol\":8153:8187  _allowances[_msgSender()][spender] */\n      0x00\n        /* \"SDC-Contract.sol\":8179:8186  spender */\n      dup10\n        /* \"SDC-Contract.sol\":8153:8187  _allowances[_msgSender()][spender] */\n      0xffffffffffffffffffffffffffffffffffffffff\n      and\n      0xffffffffffffffffffffffffffffffffffffffff\n      and\n      dup2\n      mstore\n      0x20\n      add\n      swap1\n      dup2\n      mstore\n      0x20\n      add\n      0x00\n      keccak256\n      sload\n        /* \"SDC-Contract.sol\":8153:8191  _allowances[_msgSender()][spender].add */\n      tag_118\n      swap1\n        /* \"SDC-Contract.sol\":8153:8203  _allowances[_msgSender()][spender].add(addedValue) */\n      swap2\n      swap1\n      0xffffffff\n      and\n      jump\t// in\n    tag_116:\n        /* \"SDC-Contract.sol\":8121:8129  _approve */\n      tag_102\n        /* \"SDC-Contract.sol\":8121:8204  _approve(_msgSender(), spender, _allowances[_msgSender()][spender].add(addedValue)) */\n      jump\t// in\n    tag_114:\n        /* \"SDC-Contract.sol\":8221:8225  true */\n      0x01\n        /* \"SDC-Contract.sol\":8214:8225  return true */\n      swap1\n      pop\n        /* \"SDC-Contract.sol\":8025:8232  function increaseAllowance(address spender, uint256 addedValue) public returns (bool) {... */\n      swap3\n      swap2\n      pop\n      pop\n      jump\t// out\n        /* \"SDC-Contract.sol\":10099:10180  function burn(uint256 _amount) public {... */\n    tag_53:\n        /* \"SDC-Contract.sol\":10147:10173  _burn(msg.sender, _amount) */\n      tag_120\n        /* \"SDC-Contract.sol\":10153:10163  msg.sender */\n      caller\n        /* \"SDC-Contract.sol\":10165:10172  _amount */\n      dup3\n        /* \"SDC-Contract.sol\":10147:10152  _burn */\n      tag_121\n        /* \"SDC-Contract.sol\":10147:10173  _burn(msg.sender, _amount) */\n      jump\t// in\n    tag_120:\n        /* \"SDC-Contract.sol\":10099:10180  function burn(uint256 _amount) public {... */\n      pop\n      jump\t// out\n        /* \"SDC-Contract.sol\":7096:7215  function balanceOf(address account) external view override returns (uint256) {... */\n    tag_57:\n        /* \"SDC-Contract.sol\":7164:7171  uint256 */\n      0x00\n        /* \"SDC-Contract.sol\":7190:7199  _balances */\n      0x01\n        /* \"SDC-Contract.sol\":7190:7208  _balances[account] */\n      0x00\n        /* \"SDC-Contract.sol\":7200:7207  account */\n      dup4\n        /* \"SDC-Contract.sol\":7190:7208  _balances[account] */\n      0xffffffffffffffffffffffffffffffffffffffff\n      and\n      0xffffffffffffffffffffffffffffffffffffffff\n      and\n      dup2\n      mstore\n      0x20\n      add\n      swap1\n      dup2\n      mstore\n      0x20\n      add\n      0x00\n      keccak256\n      sload\n        /* \"SDC-Contract.sol\":7183:7208  return _balances[account] */\n      swap1\n      pop\n        /* \"SDC-Contract.sol\":7096:7215  function balanceOf(address account) external view override returns (uint256) {... */\n      swap2\n      swap1\n      pop\n      jump\t// out\n        /* \"SDC-Contract.sol\":5485:5622  function renounceOwnership() public onlyOwner {... */\n    tag_60:\n        /* \"SDC-Contract.sol\":5412:5424  _msgSender() */\n      tag_124\n        /* \"SDC-Contract.sol\":5412:5422  _msgSender */\n      tag_101\n        /* \"SDC-Contract.sol\":5412:5424  _msgSender() */\n      jump\t// in\n    tag_124:\n        /* \"SDC-Contract.sol\":5402:5424  _owner == _msgSender() */\n      0xffffffffffffffffffffffffffffffffffffffff\n      and\n        /* \"SDC-Contract.sol\":5402:5408  _owner */\n      0x00\n      0x00\n      swap1\n      sload\n      swap1\n      0x0100\n      exp\n      swap1\n      div\n      0xffffffffffffffffffffffffffffffffffffffff\n      and\n        /* \"SDC-Contract.sol\":5402:5424  _owner == _msgSender() */\n      0xffffffffffffffffffffffffffffffffffffffff\n      and\n      eq\n        /* \"SDC-Contract.sol\":5394:5461  require(_owner == _msgSender(), \"Ownable: caller is not the owner\") */\n      tag_125\n      jumpi\n      mload(0x40)\n      0x08c379a000000000000000000000000000000000000000000000000000000000\n      dup2\n      mstore\n      0x04\n      add\n      tag_126\n      swap1\n      tag_127\n      jump\t// in\n    tag_126:\n      mload(0x40)\n      dup1\n      swap2\n      sub\n      swap1\n      revert\n    tag_125:\n        /* \"SDC-Contract.sol\":5583:5584  0 */\n      0x00\n        /* \"SDC-Contract.sol\":5546:5586  OwnershipTransferred(_owner, address(0)) */\n      0xffffffffffffffffffffffffffffffffffffffff\n      and\n        /* \"SDC-Contract.sol\":5567:5573  _owner */\n      0x00\n      0x00\n      swap1\n      sload\n      swap1\n      0x0100\n      exp\n      swap1\n      div\n      0xffffffffffffffffffffffffffffffffffffffff\n      and\n        /* \"SDC-Contract.sol\":5546:5586  OwnershipTransferred(_owner, address(0)) */\n      0xffffffffffffffffffffffffffffffffffffffff\n      and\n      0x8be0079c531659141344cd1fd0a4f28419497f9722a3daafe3b4186f6b6457e0\n      mload(0x40)\n      mload(0x40)\n      dup1\n      swap2\n      sub\n      swap1\n      log3\n        /* \"SDC-Contract.sol\":5613:5614  0 */\n      0x00\n        /* \"SDC-Contract.sol\":5596:5602  _owner */\n      0x00\n      0x00\n        /* \"SDC-Contract.sol\":5596:5615  _owner = address(0) */\n      0x0100\n      exp\n      dup2\n      sload\n      dup2\n      0xffffffffffffffffffffffffffffffffffffffff\n      mul\n      not\n      and\n      swap1\n      dup4\n      0xffffffffffffffffffffffffffffffffffffffff\n      and\n      mul\n      or\n      swap1\n      sstore\n      pop\n        /* \"SDC-Contract.sol\":5485:5622  function renounceOwnership() public onlyOwner {... */\n      jump\t// out\n        /* \"SDC-Contract.sol\":6594:6686  function getOwner() external view override returns (address) {... */\n    tag_62:\n        /* \"SDC-Contract.sol\":6646:6653  address */\n      0x00\n        /* \"SDC-Contract.sol\":6672:6679  owner() */\n      tag_130\n        /* \"SDC-Contract.sol\":6672:6677  owner */\n      tag_66\n        /* \"SDC-Contract.sol\":6672:6679  owner() */\n      jump\t// in\n    tag_130:\n        /* \"SDC-Contract.sol\":6665:6679  return owner() */\n      swap1\n      pop\n        /* \"SDC-Contract.sol\":6594:6686  function getOwner() external view override returns (address) {... */\n      swap1\n      jump\t// out\n        /* \"SDC-Contract.sol\":5280:5357  function owner() public view returns (address) {... */\n    tag_66:\n        /* \"SDC-Contract.sol\":5318:5325  address */\n      0x00\n        /* \"SDC-Contract.sol\":5344:5350  _owner */\n      0x00\n      0x00\n      swap1\n      sload\n      swap1\n      0x0100\n      exp\n      swap1\n      div\n      0xffffffffffffffffffffffffffffffffffffffff\n      and\n        /* \"SDC-Contract.sol\":5337:5350  return _owner */\n      swap1\n      pop\n        /* \"SDC-Contract.sol\":5280:5357  function owner() public view returns (address) {... */\n      swap1\n      jump\t// out\n        /* \"SDC-Contract.sol\":6790:6886  function symbol() external view override returns (string memory) {... */\n    tag_69:\n        /* \"SDC-Contract.sol\":6840:6853  string memory */\n      0x60\n        /* \"SDC-Contract.sol\":6872:6879  _symbol */\n      0x05\n        /* \"SDC-Contract.sol\":6865:6879  return _symbol */\n      dup1\n      sload\n      tag_133\n      swap1\n      tag_93\n      jump\t// in\n    tag_133:\n      dup1\n      0x1f\n      add\n      0x20\n      dup1\n      swap2\n      div\n      mul\n      0x20\n      add\n      mload(0x40)\n      swap1\n      dup2\n      add\n      0x40\n      mstore\n      dup1\n      swap3\n      swap2\n      swap1\n      dup2\n      dup2\n      mstore\n      0x20\n      add\n      dup3\n      dup1\n      sload\n      tag_134\n      swap1\n      tag_93\n      jump\t// in\n    tag_134:\n      dup1\n      iszero\n      tag_135\n      jumpi\n      dup1\n      0x1f\n      lt\n      tag_136\n      jumpi\n      0x0100\n      dup1\n      dup4\n      sload\n      div\n      mul\n      dup4\n      mstore\n      swap2\n      0x20\n      add\n      swap2\n      jump(tag_135)\n    tag_136:\n      dup3\n      add\n      swap2\n      swap1\n      0x00\n      mstore\n      keccak256(0x00, 0x20)\n      swap1\n    tag_137:\n      dup2\n      sload\n      dup2\n      mstore\n      swap1\n      0x01\n      add\n      swap1\n      0x20\n      add\n      dup1\n      dup4\n      gt\n      tag_137\n      jumpi\n      dup3\n      swap1\n      sub\n      0x1f\n      and\n      dup3\n      add\n      swap2\n    tag_135:\n      pop\n      pop\n      pop\n      pop\n      pop\n      swap1\n      pop\n        /* \"SDC-Contract.sol\":6790:6886  function symbol() external view override returns (string memory) {... */\n      swap1\n      jump\t// out\n        /* \"SDC-Contract.sol\":8502:8629  function mint(uint256 amount) public onlyOwner returns (bool) {... */\n    tag_73:\n        /* \"SDC-Contract.sol\":8558:8562  bool */\n      0x00\n        /* \"SDC-Contract.sol\":5412:5424  _msgSender() */\n      tag_139\n        /* \"SDC-Contract.sol\":5412:5422  _msgSender */\n      tag_101\n        /* \"SDC-Contract.sol\":5412:5424  _msgSender() */\n      jump\t// in\n    tag_139:\n        /* \"SDC-Contract.sol\":5402:5424  _owner == _msgSender() */\n      0xffffffffffffffffffffffffffffffffffffffff\n      and\n        /* \"SDC-Contract.sol\":5402:5408  _owner */\n      0x00\n      0x00\n      swap1\n      sload\n      swap1\n      0x0100\n      exp\n      swap1\n      div\n      0xffffffffffffffffffffffffffffffffffffffff\n      and\n        /* \"SDC-Contract.sol\":5402:5424  _owner == _msgSender() */\n      0xffffffffffffffffffffffffffffffffffffffff\n      and\n      eq\n        /* \"SDC-Contract.sol\":5394:5461  require(_owner == _msgSender(), \"Ownable: caller is not the owner\") */\n      tag_140\n      jumpi\n      mload(0x40)\n      0x08c379a000000000000000000000000000000000000000000000000000000000\n      dup2\n      mstore\n      0x04\n      add\n      tag_141\n      swap1\n      tag_127\n      jump\t// in\n    tag_141:\n      mload(0x40)\n      dup1\n      swap2\n      sub\n      swap1\n      revert\n    tag_140:\n        /* \"SDC-Contract.sol\":8574:8601  _mint(_msgSender(), amount) */\n      tag_143\n        /* \"SDC-Contract.sol\":8580:8592  _msgSender() */\n      tag_144\n        /* \"SDC-Contract.sol\":8580:8590  _msgSender */\n      tag_101\n        /* \"SDC-Contract.sol\":8580:8592  _msgSender() */\n      jump\t// in\n    tag_144:\n        /* \"SDC-Contract.sol\":8594:8600  amount */\n      dup4\n        /* \"SDC-Contract.sol\":8574:8579  _mint */\n      tag_145\n        /* \"SDC-Contract.sol\":8574:8601  _mint(_msgSender(), amount) */\n      jump\t// in\n    tag_143:\n        /* \"SDC-Contract.sol\":8618:8622  true */\n      0x01\n        /* \"SDC-Contract.sol\":8611:8622  return true */\n      swap1\n      pop\n        /* \"SDC-Contract.sol\":8502:8629  function mint(uint256 amount) public onlyOwner returns (bool) {... */\n      swap2\n      swap1\n      pop\n      jump\t// out\n        /* \"SDC-Contract.sol\":8238:8496  function decreaseAllowance(address spender, uint256 subtractedValue) public returns (bool) {... */\n    tag_77:\n        /* \"SDC-Contract.sol\":8323:8327  bool */\n      0x00\n        /* \"SDC-Contract.sol\":8339:8468  _approve(_msgSender(), spender, _allowances[_msgSender()][spender].sub(subtractedValue, \"BEP20: decreased allowance below zero\")) */\n      tag_147\n        /* \"SDC-Contract.sol\":8348:8360  _msgSender() */\n      tag_148\n        /* \"SDC-Contract.sol\":8348:8358  _msgSender */\n      tag_101\n        /* \"SDC-Contract.sol\":8348:8360  _msgSender() */\n      jump\t// in\n    tag_148:\n        /* \"SDC-Contract.sol\":8362:8369  spender */\n      dup5\n        /* \"SDC-Contract.sol\":8371:8467  _allowances[_msgSender()][spender].sub(subtractedValue, \"BEP20: decreased allowance below zero\") */\n      tag_149\n        /* \"SDC-Contract.sol\":8410:8425  subtractedValue */\n      dup6\n        /* \"SDC-Contract.sol\":8371:8467  _allowances[_msgSender()][spender].sub(subtractedValue, \"BEP20: decreased allowance below zero\") */\n      mload(0x40)\n      dup1\n      0x60\n      add\n      0x40\n      mstore\n      dup1\n      0x25\n      dup2\n      mstore\n      0x20\n      add\n      data_b7060b3538dcd3ddc8a941c91636a8115a1aa46914747fd9809d543bbb46cd22\n      0x25\n      swap2\n      codecopy\n        /* \"SDC-Contract.sol\":8371:8382  _allowances */\n      0x02\n        /* \"SDC-Contract.sol\":8371:8396  _allowances[_msgSender()] */\n      0x00\n        /* \"SDC-Contract.sol\":8383:8395  _msgSender() */\n      tag_150\n        /* \"SDC-Contract.sol\":8383:8393  _msgSender */\n      tag_101\n        /* \"SDC-Contract.sol\":8383:8395  _msgSender() */\n      jump\t// in\n    tag_150:\n        /* \"SDC-Contract.sol\":8371:8396  _allowances[_msgSender()] */\n      0xffffffffffffffffffffffffffffffffffffffff\n      and\n      0xffffffffffffffffffffffffffffffffffffffff\n      and\n      dup2\n      mstore\n      0x20\n      add\n      swap1\n      dup2\n      mstore\n      0x20\n      add\n      0x00\n      keccak256\n        /* \"SDC-Contract.sol\":8371:8405  _allowances[_msgSender()][spender] */\n      0x00\n        /* \"SDC-Contract.sol\":8397:8404  spender */\n      dup11\n        /* \"SDC-Contract.sol\":8371:8405  _allowances[_msgSender()][spender] */\n      0xffffffffffffffffffffffffffffffffffffffff\n      and\n      0xffffffffffffffffffffffffffffffffffffffff\n      and\n      dup2\n      mstore\n      0x20\n      add\n      swap1\n      dup2\n      mstore\n      0x20\n      add\n      0x00\n      keccak256\n      sload\n        /* \"SDC-Contract.sol\":8371:8409  _allowances[_msgSender()][spender].sub */\n      tag_111\n      swap1\n        /* \"SDC-Contract.sol\":8371:8467  _allowances[_msgSender()][spender].sub(subtractedValue, \"BEP20: decreased allowance below zero\") */\n      swap3\n      swap2\n      swap1\n      0xffffffff\n      and\n      jump\t// in\n    tag_149:\n        /* \"SDC-Contract.sol\":8339:8347  _approve */\n      tag_102\n        /* \"SDC-Contract.sol\":8339:8468  _approve(_msgSender(), spender, _allowances[_msgSender()][spender].sub(subtractedValue, \"BEP20: decreased allowance below zero\")) */\n      jump\t// in\n    tag_147:\n        /* \"SDC-Contract.sol\":8485:8489  true */\n      0x01\n        /* \"SDC-Contract.sol\":8478:8489  return true */\n      swap1\n      pop\n        /* \"SDC-Contract.sol\":8238:8496  function decreaseAllowance(address spender, uint256 subtractedValue) public returns (bool) {... */\n      swap3\n      swap2\n      pop\n      pop\n      jump\t// out\n        /* \"SDC-Contract.sol\":7221:7387  function transfer(address recipient, uint256 amount) external override returns (bool) {... */\n    tag_81:\n        /* \"SDC-Contract.sol\":7301:7305  bool */\n      0x00\n        /* \"SDC-Contract.sol\":7317:7359  _transfer(_msgSender(), recipient, amount) */\n      tag_152\n        /* \"SDC-Contract.sol\":7327:7339  _msgSender() */\n      tag_153\n        /* \"SDC-Contract.sol\":7327:7337  _msgSender */\n      tag_101\n        /* \"SDC-Contract.sol\":7327:7339  _msgSender() */\n      jump\t// in\n    tag_153:\n        /* \"SDC-Contract.sol\":7341:7350  recipient */\n      dup5\n        /* \"SDC-Contract.sol\":7352:7358  amount */\n      dup5\n        /* \"SDC-Contract.sol\":7317:7326  _transfer */\n      tag_106\n        /* \"SDC-Contract.sol\":7317:7359  _transfer(_msgSender(), recipient, amount) */\n      jump\t// in\n    tag_152:\n        /* \"SDC-Contract.sol\":7376:7380  true */\n      0x01\n        /* \"SDC-Contract.sol\":7369:7380  return true */\n      swap1\n      pop\n        /* \"SDC-Contract.sol\":7221:7387  function transfer(address recipient, uint256 amount) external override returns (bool) {... */\n      swap3\n      swap2\n      pop\n      pop\n      jump\t// out\n        /* \"SDC-Contract.sol\":7393:7536  function allowance(address owner, address spender) external view override returns (uint256) {... */\n    tag_86:\n        /* \"SDC-Contract.sol\":7476:7483  uint256 */\n      0x00\n        /* \"SDC-Contract.sol\":7502:7513  _allowances */\n      0x02\n        /* \"SDC-Contract.sol\":7502:7520  _allowances[owner] */\n      0x00\n        /* \"SDC-Contract.sol\":7514:7519  owner */\n      dup5\n        /* \"SDC-Contract.sol\":7502:7520  _allowances[owner] */\n      0xffffffffffffffffffffffffffffffffffffffff\n      and\n      0xffffffffffffffffffffffffffffffffffffffff\n      and\n      dup2\n      mstore\n      0x20\n      add\n      swap1\n      dup2\n      mstore\n      0x20\n      add\n      0x00\n      keccak256\n        /* \"SDC-Contract.sol\":7502:7529  _allowances[owner][spender] */\n      0x00\n        /* \"SDC-Contract.sol\":7521:7528  spender */\n      dup4\n        /* \"SDC-Contract.sol\":7502:7529  _allowances[owner][spender] */\n      0xffffffffffffffffffffffffffffffffffffffff\n      and\n      0xffffffffffffffffffffffffffffffffffffffff\n      and\n      dup2\n      mstore\n      0x20\n      add\n      swap1\n      dup2\n      mstore\n      0x20\n      add\n      0x00\n      keccak256\n      sload\n        /* \"SDC-Contract.sol\":7495:7529  return _allowances[owner][spender] */\n      swap1\n      pop\n        /* \"SDC-Contract.sol\":7393:7536  function allowance(address owner, address spender) external view override returns (uint256) {... */\n      swap3\n      swap2\n      pop\n      pop\n      jump\t// out\n        /* \"SDC-Contract.sol\":5628:5735  function transferOwnership(address newOwner) public onlyOwner {... */\n    tag_90:\n        /* \"SDC-Contract.sol\":5412:5424  _msgSender() */\n      tag_156\n        /* \"SDC-Contract.sol\":5412:5422  _msgSender */\n      tag_101\n        /* \"SDC-Contract.sol\":5412:5424  _msgSender() */\n      jump\t// in\n    tag_156:\n        /* \"SDC-Contract.sol\":5402:5424  _owner == _msgSender() */\n      0xffffffffffffffffffffffffffffffffffffffff\n      and\n        /* \"SDC-Contract.sol\":5402:5408  _owner */\n      0x00\n      0x00\n      swap1\n      sload\n      swap1\n      0x0100\n      exp\n      swap1\n      div\n      0xffffffffffffffffffffffffffffffffffffffff\n      and\n        /* \"SDC-Contract.sol\":5402:5424  _owner == _msgSender() */\n      0xffffffffffffffffffffffffffffffffffffffff\n      and\n      eq\n        /* \"SDC-Contract.sol\":5394:5461  require(_owner == _msgSender(), \"Ownable: caller is not the owner\") */\n      tag_157\n      jumpi\n      mload(0x40)\n      0x08c379a000000000000000000000000000000000000000000000000000000000\n      dup2\n      mstore\n      0x04\n      add\n      tag_158\n      swap1\n      tag_127\n      jump\t// in\n    tag_158:\n      mload(0x40)\n      dup1\n      swap2\n      sub\n      swap1\n      revert\n    tag_157:\n        /* \"SDC-Contract.sol\":5700:5728  _transferOwnership(newOwner) */\n      tag_160\n        /* \"SDC-Contract.sol\":5719:5727  newOwner */\n      dup2\n        /* \"SDC-Contract.sol\":5700:5718  _transferOwnership */\n      tag_161\n        /* \"SDC-Contract.sol\":5700:5728  _transferOwnership(newOwner) */\n      jump\t// in\n    tag_160:\n        /* \"SDC-Contract.sol\":5628:5735  function transferOwnership(address newOwner) public onlyOwner {... */\n      pop\n      jump\t// out\n        /* \"SDC-Contract.sol\":3281:3386  function _msgSender() internal view returns (address payable) {... */\n    tag_101:\n        /* \"SDC-Contract.sol\":3326:3341  address payable */\n      0x00\n        /* \"SDC-Contract.sol\":3368:3378  msg.sender */\n      caller\n        /* \"SDC-Contract.sol\":3353:3379  return payable(msg.sender) */\n      swap1\n      pop\n        /* \"SDC-Contract.sol\":3281:3386  function _msgSender() internal view returns (address payable) {... */\n      swap1\n      jump\t// out\n        /* \"SDC-Contract.sol\":9761:10093  function _approve(address owner, address spender, uint256 amount) internal {... */\n    tag_102:\n        /* \"SDC-Contract.sol\":9871:9872  0 */\n      0x00\n        /* \"SDC-Contract.sol\":9854:9873  owner != address(0) */\n      0xffffffffffffffffffffffffffffffffffffffff\n      and\n        /* \"SDC-Contract.sol\":9854:9859  owner */\n      dup4\n        /* \"SDC-Contract.sol\":9854:9873  owner != address(0) */\n      0xffffffffffffffffffffffffffffffffffffffff\n      and\n      sub\n        /* \"SDC-Contract.sol\":9846:9914  require(owner != address(0), \"BEP20: approve from the zero address\") */\n      tag_164\n      jumpi\n      mload(0x40)\n      0x08c379a000000000000000000000000000000000000000000000000000000000\n      dup2\n      mstore\n      0x04\n      add\n      tag_165\n      swap1\n      tag_166\n      jump\t// in\n    tag_165:\n      mload(0x40)\n      dup1\n      swap2\n      sub\n      swap1\n      revert\n    tag_164:\n        /* \"SDC-Contract.sol\":9951:9952  0 */\n      0x00\n        /* \"SDC-Contract.sol\":9932:9953  spender != address(0) */\n      0xffffffffffffffffffffffffffffffffffffffff\n      and\n        /* \"SDC-Contract.sol\":9932:9939  spender */\n      dup3\n        /* \"SDC-Contract.sol\":9932:9953  spender != address(0) */\n      0xffffffffffffffffffffffffffffffffffffffff\n      and\n      sub\n        /* \"SDC-Contract.sol\":9924:9992  require(spender != address(0), \"BEP20: approve to the zero address\") */\n      tag_167\n      jumpi\n      mload(0x40)\n      0x08c379a000000000000000000000000000000000000000000000000000000000\n      dup2\n      mstore\n      0x04\n      add\n      tag_168\n      swap1\n      tag_169\n      jump\t// in\n    tag_168:\n      mload(0x40)\n      dup1\n      swap2\n      sub\n      swap1\n      revert\n    tag_167:\n        /* \"SDC-Contract.sol\":10033:10039  amount */\n      dup1\n        /* \"SDC-Contract.sol\":10003:10014  _allowances */\n      0x02\n        /* \"SDC-Contract.sol\":10003:10021  _allowances[owner] */\n      0x00\n        /* \"SDC-Contract.sol\":10015:10020  owner */\n      dup6\n        /* \"SDC-Contract.sol\":10003:10021  _allowances[owner] */\n      0xffffffffffffffffffffffffffffffffffffffff\n      and\n      0xffffffffffffffffffffffffffffffffffffffff\n      and\n      dup2\n      mstore\n      0x20\n      add\n      swap1\n      dup2\n      mstore\n      0x20\n      add\n      0x00\n      keccak256\n        /* \"SDC-Contract.sol\":10003:10030  _allowances[owner][spender] */\n      0x00\n        /* \"SDC-Contract.sol\":10022:10029  spender */\n      dup5\n        /* \"SDC-Contract.sol\":10003:10030  _allowances[owner][spender] */\n      0xffffffffffffffffffffffffffffffffffffffff\n      and\n      0xffffffffffffffffffffffffffffffffffffffff\n      and\n      dup2\n      mstore\n      0x20\n      add\n      swap1\n      dup2\n      mstore\n      0x20\n      add\n      0x00\n      keccak256\n        /* \"SDC-Contract.sol\":10003:10039  _allowances[owner][spender] = amount */\n      dup2\n      swap1\n      sstore\n      pop\n        /* \"SDC-Contract.sol\":10070:10077  spender */\n      dup2\n        /* \"SDC-Contract.sol\":10054:10086  Approval(owner, spender, amount) */\n      0xffffffffffffffffffffffffffffffffffffffff\n      and\n        /* \"SDC-Contract.sol\":10063:10068  owner */\n      dup4\n        /* \"SDC-Contract.sol\":10054:10086  Approval(owner, spender, amount) */\n      0xffffffffffffffffffffffffffffffffffffffff\n      and\n      0x8c5be1e5ebec7d5bd14f71427d1e84f3dd0314c0f7b2291e5b200ac8c7c3b925\n        /* \"SDC-Contract.sol\":10079:10085  amount */\n      dup4\n        /* \"SDC-Contract.sol\":10054:10086  Approval(owner, spender, amount) */\n      mload(0x40)\n      tag_170\n      swap2\n      swap1\n      tag_36\n      jump\t// in\n    tag_170:\n      mload(0x40)\n      dup1\n      swap2\n      sub\n      swap1\n      log3\n        /* \"SDC-Contract.sol\":9761:10093  function _approve(address owner, address spender, uint256 amount) internal {... */\n      pop\n      pop\n      pop\n      jump\t// out\n        /* \"SDC-Contract.sol\":8635:9099  function _transfer(address sender, address recipient, uint256 amount) internal {... */\n    tag_106:\n        /* \"SDC-Contract.sol\":8750:8751  0 */\n      0x00\n        /* \"SDC-Contract.sol\":8732:8752  sender != address(0) */\n      0xffffffffffffffffffffffffffffffffffffffff\n      and\n        /* \"SDC-Contract.sol\":8732:8738  sender */\n      dup4\n        /* \"SDC-Contract.sol\":8732:8752  sender != address(0) */\n      0xffffffffffffffffffffffffffffffffffffffff\n      and\n      sub\n        /* \"SDC-Contract.sol\":8724:8794  require(sender != address(0), \"BEP20: transfer from the zero address\") */\n      tag_172\n      jumpi\n      mload(0x40)\n      0x08c379a000000000000000000000000000000000000000000000000000000000\n      dup2\n      mstore\n      0x04\n      add\n      tag_173\n      swap1\n      tag_174\n      jump\t// in\n    tag_173:\n      mload(0x40)\n      dup1\n      swap2\n      sub\n      swap1\n      revert\n    tag_172:\n        /* \"SDC-Contract.sol\":8833:8834  0 */\n      0x00\n        /* \"SDC-Contract.sol\":8812:8835  recipient != address(0) */\n      0xffffffffffffffffffffffffffffffffffffffff\n      and\n        /* \"SDC-Contract.sol\":8812:8821  recipient */\n      dup3\n        /* \"SDC-Contract.sol\":8812:8835  recipient != address(0) */\n      0xffffffffffffffffffffffffffffffffffffffff\n      and\n      sub\n        /* \"SDC-Contract.sol\":8804:8875  require(recipient != address(0), \"BEP20: transfer to the zero address\") */\n      tag_175\n      jumpi\n      mload(0x40)\n      0x08c379a000000000000000000000000000000000000000000000000000000000\n      dup2\n      mstore\n      0x04\n      add\n      tag_176\n      swap1\n      tag_177\n      jump\t// in\n    tag_176:\n      mload(0x40)\n      dup1\n      swap2\n      sub\n      swap1\n      revert\n    tag_175:\n        /* \"SDC-Contract.sol\":8906:8977  _balances[sender].sub(amount, \"BEP20: transfer amount exceeds balance\") */\n      tag_178\n        /* \"SDC-Contract.sol\":8928:8934  amount */\n      dup2\n        /* \"SDC-Contract.sol\":8906:8977  _balances[sender].sub(amount, \"BEP20: transfer amount exceeds balance\") */\n      mload(0x40)\n      dup1\n      0x60\n      add\n      0x40\n      mstore\n      dup1\n      0x26\n      dup2\n      mstore\n      0x20\n      add\n      data_a91efd7a65ef5b4ae4d6568d674798b78a5a89184dd296c100513251c22d3e73\n      0x26\n      swap2\n      codecopy\n        /* \"SDC-Contract.sol\":8906:8915  _balances */\n      0x01\n        /* \"SDC-Contract.sol\":8906:8923  _balances[sender] */\n      0x00\n        /* \"SDC-Contract.sol\":8916:8922  sender */\n      dup8\n        /* \"SDC-Contract.sol\":8906:8923  _balances[sender] */\n      0xffffffffffffffffffffffffffffffffffffffff\n      and\n      0xffffffffffffffffffffffffffffffffffffffff\n      and\n      dup2\n      mstore\n      0x20\n      add\n      swap1\n      dup2\n      mstore\n      0x20\n      add\n      0x00\n      keccak256\n      sload\n        /* \"SDC-Contract.sol\":8906:8927  _balances[sender].sub */\n      tag_111\n      swap1\n        /* \"SDC-Contract.sol\":8906:8977  _balances[sender].sub(amount, \"BEP20: transfer amount exceeds balance\") */\n      swap3\n      swap2\n      swap1\n      0xffffffff\n      and\n      jump\t// in\n    tag_178:\n        /* \"SDC-Contract.sol\":8886:8895  _balances */\n      0x01\n        /* \"SDC-Contract.sol\":8886:8903  _balances[sender] */\n      0x00\n        /* \"SDC-Contract.sol\":8896:8902  sender */\n      dup6\n        /* \"SDC-Contract.sol\":8886:8903  _balances[sender] */\n      0xffffffffffffffffffffffffffffffffffffffff\n      and\n      0xffffffffffffffffffffffffffffffffffffffff\n      and\n      dup2\n      mstore\n      0x20\n      add\n      swap1\n      dup2\n      mstore\n      0x20\n      add\n      0x00\n      keccak256\n        /* \"SDC-Contract.sol\":8886:8977  _balances[sender] = _balances[sender].sub(amount, \"BEP20: transfer amount exceeds balance\") */\n      dup2\n      swap1\n      sstore\n      pop\n        /* \"SDC-Contract.sol\":9010:9042  _balances[recipient].add(amount) */\n      tag_179\n        /* \"SDC-Contract.sol\":9035:9041  amount */\n      dup2\n        /* \"SDC-Contract.sol\":9010:9019  _balances */\n      0x01\n        /* \"SDC-Contract.sol\":9010:9030  _balances[recipient] */\n      0x00\n        /* \"SDC-Contract.sol\":9020:9029  recipient */\n      dup6\n        /* \"SDC-Contract.sol\":9010:9030  _balances[recipient] */\n      0xffffffffffffffffffffffffffffffffffffffff\n      and\n      0xffffffffffffffffffffffffffffffffffffffff\n      and\n      dup2\n      mstore\n      0x20\n      add\n      swap1\n      dup2\n      mstore\n      0x20\n      add\n      0x00\n      keccak256\n      sload\n        /* \"SDC-Contract.sol\":9010:9034  _balances[recipient].add */\n      tag_118\n      swap1\n        /* \"SDC-Contract.sol\":9010:9042  _balances[recipient].add(amount) */\n      swap2\n      swap1\n      0xffffffff\n      and\n      jump\t// in\n    tag_179:\n        /* \"SDC-Contract.sol\":8987:8996  _balances */\n      0x01\n        /* \"SDC-Contract.sol\":8987:9007  _balances[recipient] */\n      0x00\n        /* \"SDC-Contract.sol\":8997:9006  recipient */\n      dup5\n        /* \"SDC-Contract.sol\":8987:9007  _balances[recipient] */\n      0xffffffffffffffffffffffffffffffffffffffff\n      and\n      0xffffffffffffffffffffffffffffffffffffffff\n      and\n      dup2\n      mstore\n      0x20\n      add\n      swap1\n      dup2\n      mstore\n      0x20\n      add\n      0x00\n      keccak256\n        /* \"SDC-Contract.sol\":8987:9042  _balances[recipient] = _balances[recipient].add(amount) */\n      dup2\n      swap1\n      sstore\n      pop\n        /* \"SDC-Contract.sol\":9074:9083  recipient */\n      dup2\n        /* \"SDC-Contract.sol\":9057:9092  Transfer(sender, recipient, amount) */\n      0xffffffffffffffffffffffffffffffffffffffff\n      and\n        /* \"SDC-Contract.sol\":9066:9072  sender */\n      dup4\n        /* \"SDC-Contract.sol\":9057:9092  Transfer(sender, recipient, amount) */\n      0xffffffffffffffffffffffffffffffffffffffff\n      and\n      0xddf252ad1be2c89b69c2b068fc378daa952ba7f163c4a11628f55a4df523b3ef\n        /* \"SDC-Contract.sol\":9085:9091  amount */\n      dup4\n        /* \"SDC-Contract.sol\":9057:9092  Transfer(sender, recipient, amount) */\n      mload(0x40)\n      tag_180\n      swap2\n      swap1\n      tag_36\n      jump\t// in\n    tag_180:\n      mload(0x40)\n      dup1\n      swap2\n      sub\n      swap1\n      log3\n        /* \"SDC-Contract.sol\":8635:9099  function _transfer(address sender, address recipient, uint256 amount) internal {... */\n      pop\n      pop\n      pop\n      jump\t// out\n        /* \"SDC-Contract.sol\":3907:4093  function sub(uint256 a, uint256 b, string memory errorMessage) internal pure returns (uint256) {... */\n    tag_111:\n        /* \"SDC-Contract.sol\":3993:4000  uint256 */\n      0x00\n        /* \"SDC-Contract.sol\":4025:4026  a */\n      dup4\n        /* \"SDC-Contract.sol\":4020:4021  b */\n      dup4\n        /* \"SDC-Contract.sol\":4020:4026  b <= a */\n      gt\n      iszero\n        /* \"SDC-Contract.sol\":4028:4040  errorMessage */\n      dup3\n        /* \"SDC-Contract.sol\":4012:4041  require(b <= a, errorMessage) */\n      swap1\n      tag_182\n      jumpi\n      mload(0x40)\n      0x08c379a000000000000000000000000000000000000000000000000000000000\n      dup2\n      mstore\n      0x04\n      add\n      tag_183\n      swap2\n      swap1\n      tag_26\n      jump\t// in\n    tag_183:\n      mload(0x40)\n      dup1\n      swap2\n      sub\n      swap1\n      revert\n    tag_182:\n      pop\n        /* \"SDC-Contract.sol\":4051:4060  uint256 c */\n      0x00\n        /* \"SDC-Contract.sol\":4067:4068  b */\n      dup4\n        /* \"SDC-Contract.sol\":4063:4064  a */\n      dup6\n        /* \"SDC-Contract.sol\":4063:4068  a - b */\n      tag_184\n      swap2\n      swap1\n      tag_185\n      jump\t// in\n    tag_184:\n        /* \"SDC-Contract.sol\":4051:4068  uint256 c = a - b */\n      swap1\n      pop\n        /* \"SDC-Contract.sol\":4085:4086  c */\n      dup1\n        /* \"SDC-Contract.sol\":4078:4086  return c */\n      swap2\n      pop\n      pop\n        /* \"SDC-Contract.sol\":3907:4093  function sub(uint256 a, uint256 b, string memory errorMessage) internal pure returns (uint256) {... */\n      swap4\n      swap3\n      pop\n      pop\n      pop\n      jump\t// out\n        /* \"SDC-Contract.sol\":3586:3761  function add(uint256 a, uint256 b) internal pure returns (uint256) {... */\n    tag_118:\n        /* \"SDC-Contract.sol\":3644:3651  uint256 */\n      0x00\n        /* \"SDC-Contract.sol\":3663:3672  uint256 c */\n      0x00\n        /* \"SDC-Contract.sol\":3679:3680  b */\n      dup3\n        /* \"SDC-Contract.sol\":3675:3676  a */\n      dup5\n        /* \"SDC-Contract.sol\":3675:3680  a + b */\n      tag_187\n      swap2\n      swap1\n      tag_188\n      jump\t// in\n    tag_187:\n        /* \"SDC-Contract.sol\":3663:3680  uint256 c = a + b */\n      swap1\n      pop\n        /* \"SDC-Contract.sol\":3703:3704  a */\n      dup4\n        /* \"SDC-Contract.sol\":3698:3699  c */\n      dup2\n        /* \"SDC-Contract.sol\":3698:3704  c >= a */\n      lt\n      iszero\n        /* \"SDC-Contract.sol\":3690:3736  require(c >= a, \"SafeMath: addition overflow\") */\n      tag_189\n      jumpi\n      mload(0x40)\n      0x08c379a000000000000000000000000000000000000000000000000000000000\n      dup2\n      mstore\n      0x04\n      add\n      tag_190\n      swap1\n      tag_191\n      jump\t// in\n    tag_190:\n      mload(0x40)\n      dup1\n      swap2\n      sub\n      swap1\n      revert\n    tag_189:\n        /* \"SDC-Contract.sol\":3753:3754  c */\n      dup1\n        /* \"SDC-Contract.sol\":3746:3754  return c */\n      swap2\n      pop\n      pop\n        /* \"SDC-Contract.sol\":3586:3761  function add(uint256 a, uint256 b) internal pure returns (uint256) {... */\n      swap3\n      swap2\n      pop\n      pop\n      jump\t// out\n        /* \"SDC-Contract.sol\":9413:9755  function _burn(address account, uint256 amount) internal {... */\n    tag_121:\n        /* \"SDC-Contract.sol\":9507:9508  0 */\n      0x00\n        /* \"SDC-Contract.sol\":9488:9509  account != address(0) */\n      0xffffffffffffffffffffffffffffffffffffffff\n      and\n        /* \"SDC-Contract.sol\":9488:9495  account */\n      dup3\n        /* \"SDC-Contract.sol\":9488:9509  account != address(0) */\n      0xffffffffffffffffffffffffffffffffffffffff\n      and\n      sub\n        /* \"SDC-Contract.sol\":9480:9547  require(account != address(0), \"BEP20: burn from the zero address\") */\n      tag_193\n      jumpi\n      mload(0x40)\n      0x08c379a000000000000000000000000000000000000000000000000000000000\n      dup2\n      mstore\n      0x04\n      add\n      tag_194\n      swap1\n      tag_195\n      jump\t// in\n    tag_194:\n      mload(0x40)\n      dup1\n      swap2\n      sub\n      swap1\n      revert\n    tag_193:\n        /* \"SDC-Contract.sol\":9579:9647  _balances[account].sub(amount, \"BEP20: burn amount exceeds balance\") */\n      tag_196\n        /* \"SDC-Contract.sol\":9602:9608  amount */\n      dup2\n        /* \"SDC-Contract.sol\":9579:9647  _balances[account].sub(amount, \"BEP20: burn amount exceeds balance\") */\n      mload(0x40)\n      dup1\n      0x60\n      add\n      0x40\n      mstore\n      dup1\n      0x22\n      dup2\n      mstore\n      0x20\n      add\n      data_deaa84b30175fd0578812c46240362b7914652a35e6707ad7e1556891e4ae032\n      0x22\n      swap2\n      codecopy\n        /* \"SDC-Contract.sol\":9579:9588  _balances */\n      0x01\n        /* \"SDC-Contract.sol\":9579:9597  _balances[account] */\n      0x00\n        /* \"SDC-Contract.sol\":9589:9596  account */\n      dup7\n        /* \"SDC-Contract.sol\":9579:9597  _balances[account] */\n      0xffffffffffffffffffffffffffffffffffffffff\n      and\n      0xffffffffffffffffffffffffffffffffffffffff\n      and\n      dup2\n      mstore\n      0x20\n      add\n      swap1\n      dup2\n      mstore\n      0x20\n      add\n      0x00\n      keccak256\n      sload\n        /* \"SDC-Contract.sol\":9579:9601  _balances[account].sub */\n      tag_111\n      swap1\n        /* \"SDC-Contract.sol\":9579:9647  _balances[account].sub(amount, \"BEP20: burn amount exceeds balance\") */\n      swap3\n      swap2\n      swap1\n      0xffffffff\n      and\n      jump\t// in\n    tag_196:\n        /* \"SDC-Contract.sol\":9558:9567  _balances */\n      0x01\n        /* \"SDC-Contract.sol\":9558:9576  _balances[account] */\n      0x00\n        /* \"SDC-Contract.sol\":9568:9575  account */\n      dup5\n        /* \"SDC-Contract.sol\":9558:9576  _balances[account] */\n      0xffffffffffffffffffffffffffffffffffffffff\n      and\n      0xffffffffffffffffffffffffffffffffffffffff\n      and\n      dup2\n      mstore\n      0x20\n      add\n      swap1\n      dup2\n      mstore\n      0x20\n      add\n      0x00\n      keccak256\n        /* \"SDC-Contract.sol\":9558:9647  _balances[account] = _balances[account].sub(amount, \"BEP20: burn amount exceeds balance\") */\n      dup2\n      swap1\n      sstore\n      pop\n        /* \"SDC-Contract.sol\":9672:9696  _totalSupply.sub(amount) */\n      tag_197\n        /* \"SDC-Contract.sol\":9689:9695  amount */\n      dup2\n        /* \"SDC-Contract.sol\":9672:9684  _totalSupply */\n      sload(0x03)\n        /* \"SDC-Contract.sol\":9672:9688  _totalSupply.sub */\n      tag_198\n      swap1\n        /* \"SDC-Contract.sol\":9672:9696  _totalSupply.sub(amount) */\n      swap2\n      swap1\n      0xffffffff\n      and\n      jump\t// in\n    tag_197:\n        /* \"SDC-Contract.sol\":9657:9669  _totalSupply */\n      0x03\n        /* \"SDC-Contract.sol\":9657:9696  _totalSupply = _totalSupply.sub(amount) */\n      dup2\n      swap1\n      sstore\n      pop\n        /* \"SDC-Contract.sol\":9737:9738  0 */\n      0x00\n        /* \"SDC-Contract.sol\":9711:9748  Transfer(account, address(0), amount) */\n      0xffffffffffffffffffffffffffffffffffffffff\n      and\n        /* \"SDC-Contract.sol\":9720:9727  account */\n      dup3\n        /* \"SDC-Contract.sol\":9711:9748  Transfer(account, address(0), amount) */\n      0xffffffffffffffffffffffffffffffffffffffff\n      and\n      0xddf252ad1be2c89b69c2b068fc378daa952ba7f163c4a11628f55a4df523b3ef\n        /* \"SDC-Contract.sol\":9741:9747  amount */\n      dup4\n        /* \"SDC-Contract.sol\":9711:9748  Transfer(account, address(0), amount) */\n      mload(0x40)\n      tag_199\n      swap2\n      swap1\n      tag_36\n      jump\t// in\n    tag_199:\n      mload(0x40)\n      dup1\n      swap2\n      sub\n      swap1\n      log3\n        /* \"SDC-Contract.sol\":9413:9755  function _burn(address account, uint256 amount) internal {... */\n      pop\n      pop\n      jump\t// out\n        /* \"SDC-Contract.sol\":9105:9407  function _mint(address account, uint256 amount) internal {... */\n    tag_145:\n        /* \"SDC-Contract.sol\":9199:9200  0 */\n      0x00\n        /* \"SDC-Contract.sol\":9180:9201  account != address(0) */\n      0xffffffffffffffffffffffffffffffffffffffff\n      and\n        /* \"SDC-Contract.sol\":9180:9187  account */\n      dup3\n        /* \"SDC-Contract.sol\":9180:9201  account != address(0) */\n      0xffffffffffffffffffffffffffffffffffffffff\n      and\n      sub\n        /* \"SDC-Contract.sol\":9172:9237  require(account != address(0), \"BEP20: mint to the zero address\") */\n      tag_201\n      jumpi\n      mload(0x40)\n      0x08c379a000000000000000000000000000000000000000000000000000000000\n      dup2\n      mstore\n      0x04\n      add\n      tag_202\n      swap1\n      tag_203\n      jump\t// in\n    tag_202:\n      mload(0x40)\n      dup1\n      swap2\n      sub\n      swap1\n      revert\n    tag_201:\n        /* \"SDC-Contract.sol\":9263:9287  _totalSupply.add(amount) */\n      tag_204\n        /* \"SDC-Contract.sol\":9280:9286  amount */\n      dup2\n        /* \"SDC-Contract.sol\":9263:9275  _totalSupply */\n      sload(0x03)\n        /* \"SDC-Contract.sol\":9263:9279  _totalSupply.add */\n      tag_118\n      swap1\n        /* \"SDC-Contract.sol\":9263:9287  _totalSupply.add(amount) */\n      swap2\n      swap1\n      0xffffffff\n      and\n      jump\t// in\n    tag_204:\n        /* \"SDC-Contract.sol\":9248:9260  _totalSupply */\n      0x03\n        /* \"SDC-Contract.sol\":9248:9287  _totalSupply = _totalSupply.add(amount) */\n      dup2\n      swap1\n      sstore\n      pop\n        /* \"SDC-Contract.sol\":9318:9348  _balances[account].add(amount) */\n      tag_205\n        /* \"SDC-Contract.sol\":9341:9347  amount */\n      dup2\n        /* \"SDC-Contract.sol\":9318:9327  _balances */\n      0x01\n        /* \"SDC-Contract.sol\":9318:9336  _balances[account] */\n      0x00\n        /* \"SDC-Contract.sol\":9328:9335  account */\n      dup6\n        /* \"SDC-Contract.sol\":9318:9336  _balances[account] */\n      0xffffffffffffffffffffffffffffffffffffffff\n      and\n      0xffffffffffffffffffffffffffffffffffffffff\n      and\n      dup2\n      mstore\n      0x20\n      add\n      swap1\n      dup2\n      mstore\n      0x20\n      add\n      0x00\n      keccak256\n      sload\n        /* \"SDC-Contract.sol\":9318:9340  _balances[account].add */\n      tag_118\n      swap1\n        /* \"SDC-Contract.sol\":9318:9348  _balances[account].add(amount) */\n      swap2\n      swap1\n      0xffffffff\n      and\n      jump\t// in\n    tag_205:\n        /* \"SDC-Contract.sol\":9297:9306  _balances */\n      0x01\n        /* \"SDC-Contract.sol\":9297:9315  _balances[account] */\n      0x00\n        /* \"SDC-Contract.sol\":9307:9314  account */\n      dup5\n        /* \"SDC-Contract.sol\":9297:9315  _balances[account] */\n      0xffffffffffffffffffffffffffffffffffffffff\n      and\n      0xffffffffffffffffffffffffffffffffffffffff\n      and\n      dup2\n      mstore\n      0x20\n      add\n      swap1\n      dup2\n      mstore\n      0x20\n      add\n      0x00\n      keccak256\n        /* \"SDC-Contract.sol\":9297:9348  _balances[account] = _balances[account].add(amount) */\n      dup2\n      swap1\n      sstore\n      pop\n        /* \"SDC-Contract.sol\":9384:9391  account */\n      dup2\n        /* \"SDC-Contract.sol\":9363:9400  Transfer(address(0), account, amount) */\n      0xffffffffffffffffffffffffffffffffffffffff\n      and\n        /* \"SDC-Contract.sol\":9380:9381  0 */\n      0x00\n        /* \"SDC-Contract.sol\":9363:9400  Transfer(address(0), account, amount) */\n      0xffffffffffffffffffffffffffffffffffffffff\n      and\n      0xddf252ad1be2c89b69c2b068fc378daa952ba7f163c4a11628f55a4df523b3ef\n        /* \"SDC-Contract.sol\":9393:9399  amount */\n      dup4\n        /* \"SDC-Contract.sol\":9363:9400  Transfer(address(0), account, amount) */\n      mload(0x40)\n      tag_206\n      swap2\n      swap1\n      tag_36\n      jump\t// in\n    tag_206:\n      mload(0x40)\n      dup1\n      swap2\n      sub\n      swap1\n      log3\n        /* \"SDC-Contract.sol\":9105:9407  function _mint(address account, uint256 amount) internal {... */\n      pop\n      pop\n      jump\t// out\n        /* \"SDC-Contract.sol\":5741:5966  function _transferOwnership(address newOwner) internal {... */\n    tag_161:\n        /* \"SDC-Contract.sol\":5834:5835  0 */\n      0x00\n        /* \"SDC-Contract.sol\":5814:5836  newOwner != address(0) */\n      0xffffffffffffffffffffffffffffffffffffffff\n      and\n        /* \"SDC-Contract.sol\":5814:5822  newOwner */\n      dup2\n        /* \"SDC-Contract.sol\":5814:5836  newOwner != address(0) */\n      0xffffffffffffffffffffffffffffffffffffffff\n      and\n      sub\n        /* \"SDC-Contract.sol\":5806:5879  require(newOwner != address(0), \"Ownable: new owner is the zero address\") */\n      tag_208\n      jumpi\n      mload(0x40)\n      0x08c379a000000000000000000000000000000000000000000000000000000000\n      dup2\n      mstore\n      0x04\n      add\n      tag_209\n      swap1\n      tag_210\n      jump\t// in\n    tag_209:\n      mload(0x40)\n      dup1\n      swap2\n      sub\n      swap1\n      revert\n    tag_208:\n        /* \"SDC-Contract.sol\":5923:5931  newOwner */\n      dup1\n        /* \"SDC-Contract.sol\":5894:5932  OwnershipTransferred(_owner, newOwner) */\n      0xffffffffffffffffffffffffffffffffffffffff\n      and\n        /* \"SDC-Contract.sol\":5915:5921  _owner */\n      0x00\n      0x00\n      swap1\n      sload\n      swap1\n      0x0100\n      exp\n      swap1\n      div\n      0xffffffffffffffffffffffffffffffffffffffff\n      and\n        /* \"SDC-Contract.sol\":5894:5932  OwnershipTransferred(_owner, newOwner) */\n      0xffffffffffffffffffffffffffffffffffffffff\n      and\n      0x8be0079c531659141344cd1fd0a4f28419497f9722a3daafe3b4186f6b6457e0\n      mload(0x40)\n      mload(0x40)\n      dup1\n      swap2\n      sub\n      swap1\n      log3\n        /* \"SDC-Contract.sol\":5951:5959  newOwner */\n      dup1\n        /* \"SDC-Contract.sol\":5942:5948  _owner */\n      0x00\n      0x00\n        /* \"SDC-Contract.sol\":5942:5959  _owner = newOwner */\n      0x0100\n      exp\n      dup2\n      sload\n      dup2\n      0xffffffffffffffffffffffffffffffffffffffff\n      mul\n      not\n      and\n      swap1\n      dup4\n      0xffffffffffffffffffffffffffffffffffffffff\n      and\n      mul\n      or\n      swap1\n      sstore\n      pop\n        /* \"SDC-Contract.sol\":5741:5966  function _transferOwnership(address newOwner) internal {... */\n      pop\n      jump\t// out\n        /* \"SDC-Contract.sol\":3767:3901  function sub(uint256 a, uint256 b) internal pure returns (uint256) {... */\n    tag_198:\n        /* \"SDC-Contract.sol\":3825:3832  uint256 */\n      0x00\n        /* \"SDC-Contract.sol\":3851:3894  sub(a, b, \"SafeMath: subtraction overflow\") */\n      tag_212\n        /* \"SDC-Contract.sol\":3855:3856  a */\n      dup4\n        /* \"SDC-Contract.sol\":3858:3859  b */\n      dup4\n        /* \"SDC-Contract.sol\":3851:3894  sub(a, b, \"SafeMath: subtraction overflow\") */\n      mload(0x40)\n      dup1\n      0x40\n      add\n      0x40\n      mstore\n      dup1\n      0x1e\n      dup2\n      mstore\n      0x20\n      add\n      0x536166654d6174683a207375627472616374696f6e206f766572666c6f770000\n      dup2\n      mstore\n      pop\n        /* \"SDC-Contract.sol\":3851:3854  sub */\n      tag_111\n        /* \"SDC-Contract.sol\":3851:3894  sub(a, b, \"SafeMath: subtraction overflow\") */\n      jump\t// in\n    tag_212:\n        /* \"SDC-Contract.sol\":3844:3894  return sub(a, b, \"SafeMath: subtraction overflow\") */\n      swap1\n      pop\n        /* \"SDC-Contract.sol\":3767:3901  function sub(uint256 a, uint256 b) internal pure returns (uint256) {... */\n      swap3\n      swap2\n      pop\n      pop\n      jump\t// out\n        /* \"#utility.yul\":7:106   */\n    tag_213:\n        /* \"#utility.yul\":59:65   */\n      0x00\n        /* \"#utility.yul\":93:98   */\n      dup2\n        /* \"#utility.yul\":87:99   */\n      mload\n        /* \"#utility.yul\":77:99   */\n      swap1\n      pop\n        /* \"#utility.yul\":7:106   */\n      swap2\n      swap1\n      pop\n      jump\t// out\n        /* \"#utility.yul\":112:281   */\n    tag_214:\n        /* \"#utility.yul\":196:207   */\n      0x00\n        /* \"#utility.yul\":230:236   */\n      dup3\n        /* \"#utility.yul\":225:228   */\n      dup3\n        /* \"#utility.yul\":218:237   */\n      mstore\n        /* \"#utility.yul\":270:274   */\n      0x20\n        /* \"#utility.yul\":265:268   */\n      dup3\n        /* \"#utility.yul\":261:275   */\n      add\n        /* \"#utility.yul\":246:275   */\n      swap1\n      pop\n        /* \"#utility.yul\":112:281   */\n      swap3\n      swap2\n      pop\n      pop\n      jump\t// out\n        /* \"#utility.yul\":287:426   */\n    tag_215:\n        /* \"#utility.yul\":376:382   */\n      dup3\n        /* \"#utility.yul\":371:374   */\n      dup2\n        /* \"#utility.yul\":366:369   */\n      dup4\n        /* \"#utility.yul\":360:383   */\n      mcopy\n        /* \"#utility.yul\":417:418   */\n      0x00\n        /* \"#utility.yul\":408:414   */\n      dup4\n        /* \"#utility.yul\":403:406   */\n      dup4\n        /* \"#utility.yul\":399:415   */\n      add\n        /* \"#utility.yul\":392:419   */\n      mstore\n        /* \"#utility.yul\":287:426   */\n      pop\n      pop\n      pop\n      jump\t// out\n        /* \"#utility.yul\":432:534   */\n    tag_216:\n        /* \"#utility.yul\":473:479   */\n      0x00\n        /* \"#utility.yul\":524:526   */\n      0x1f\n        /* \"#utility.yul\":520:527   */\n      not\n        /* \"#utility.yul\":515:517   */\n      0x1f\n        /* \"#utility.yul\":508:513   */\n      dup4\n        /* \"#utility.yul\":504:518   */\n      add\n        /* \"#utility.yul\":500:528   */\n      and\n        /* \"#utility.yul\":490:528   */\n      swap1\n      pop\n        /* \"#utility.yul\":432:534   */\n      swap2\n      swap1\n      pop\n      jump\t// out\n        /* \"#utility.yul\":540:917   */\n    tag_217:\n        /* \"#utility.yul\":628:631   */\n      0x00\n        /* \"#utility.yul\":656:695   */\n      tag_260\n        /* \"#utility.yul\":689:694   */\n      dup3\n        /* \"#utility.yul\":656:695   */\n      tag_213\n      jump\t// in\n    tag_260:\n        /* \"#utility.yul\":711:782   */\n      tag_261\n        /* \"#utility.yul\":775:781   */\n      dup2\n        /* \"#utility.yul\":770:773   */\n      dup6\n        /* \"#utility.yul\":711:782   */\n      tag_214\n      jump\t// in\n    tag_261:\n        /* \"#utility.yul\":704:782   */\n      swap4\n      pop\n        /* \"#utility.yul\":791:856   */\n      tag_262\n        /* \"#utility.yul\":849:855   */\n      dup2\n        /* \"#utility.yul\":844:847   */\n      dup6\n        /* \"#utility.yul\":837:841   */\n      0x20\n        /* \"#utility.yul\":830:835   */\n      dup7\n        /* \"#utility.yul\":826:842   */\n      add\n        /* \"#utility.yul\":791:856   */\n      tag_215\n      jump\t// in\n    tag_262:\n        /* \"#utility.yul\":881:910   */\n      tag_263\n        /* \"#utility.yul\":903:909   */\n      dup2\n        /* \"#utility.yul\":881:910   */\n      tag_216\n      jump\t// in\n    tag_263:\n        /* \"#utility.yul\":876:879   */\n      dup5\n        /* \"#utility.yul\":872:911   */\n      add\n        /* \"#utility.yul\":865:911   */\n      swap2\n      pop\n        /* \"#utility.yul\":632:917   */\n      pop\n        /* \"#utility.yul\":540:917   */\n      swap3\n      swap2\n      pop\n      pop\n      jump\t// out\n        /* \"#utility.yul\":923:1236   */\n    tag_26:\n        /* \"#utility.yul\":1036:1040   */\n      0x00\n        /* \"#utility.yul\":1074:1076   */\n      0x20\n        /* \"#utility.yul\":1063:1072   */\n      dup3\n        /* \"#utility.yul\":1059:1077   */\n      add\n        /* \"#utility.yul\":1051:1077   */\n      swap1\n      pop\n        /* \"#utility.yul\":1123:1132   */\n      dup2\n        /* \"#utility.yul\":1117:1121   */\n      dup2\n        /* \"#utility.yul\":1113:1133   */\n      sub\n        /* \"#utility.yul\":1109:1110   */\n      0x00\n        /* \"#utility.yul\":1098:1107   */\n      dup4\n        /* \"#utility.yul\":1094:1111   */\n      add\n        /* \"#utility.yul\":1087:1134   */\n      mstore\n        /* \"#utility.yul\":1151:1229   */\n      tag_265\n        /* \"#utility.yul\":1224:1228   */\n      dup2\n        /* \"#utility.yul\":1215:1221   */\n      dup5\n        /* \"#utility.yul\":1151:1229   */\n      tag_217\n      jump\t// in\n    tag_265:\n        /* \"#utility.yul\":1143:1229   */\n      swap1\n      pop\n        /* \"#utility.yul\":923:1236   */\n      swap3\n      swap2\n      pop\n      pop\n      jump\t// out\n        /* \"#utility.yul\":1323:1440   */\n    tag_219:\n        /* \"#utility.yul\":1432:1433   */\n      0x00\n        /* \"#utility.yul\":1429:1430   */\n      0x00\n        /* \"#utility.yul\":1422:1434   */\n      revert\n        /* \"#utility.yul\":1569:1695   */\n    tag_221:\n        /* \"#utility.yul\":1606:1613   */\n      0x00\n        /* \"#utility.yul\":1646:1688   */\n      0xffffffffffffffffffffffffffffffffffffffff\n        /* \"#utility.yul\":1639:1644   */\n      dup3\n        /* \"#utility.yul\":1635:1689   */\n      and\n        /* \"#utility.yul\":1624:1689   */\n      swap1\n      pop\n        /* \"#utility.yul\":1569:1695   */\n      swap2\n      swap1\n      pop\n      jump\t// out\n        /* \"#utility.yul\":1701:1797   */\n    tag_222:\n        /* \"#utility.yul\":1738:1745   */\n      0x00\n        /* \"#utility.yul\":1767:1791   */\n      tag_271\n        /* \"#utility.yul\":1785:1790   */\n      dup3\n        /* \"#utility.yul\":1767:1791   */\n      tag_221\n      jump\t// in\n    tag_271:\n        /* \"#utility.yul\":1756:1791   */\n      swap1\n      pop\n        /* \"#utility.yul\":1701:1797   */\n      swap2\n      swap1\n      pop\n      jump\t// out\n        /* \"#utility.yul\":1803:1925   */\n    tag_223:\n        /* \"#utility.yul\":1876:1900   */\n      tag_273\n        /* \"#utility.yul\":1894:1899   */\n      dup2\n        /* \"#utility.yul\":1876:1900   */\n      tag_222\n      jump\t// in\n    tag_273:\n        /* \"#utility.yul\":1869:1874   */\n      dup2\n        /* \"#utility.yul\":1866:1901   */\n      eq\n        /* \"#utility.yul\":1856:1919   */\n      tag_274\n      jumpi\n        /* \"#utility.yul\":1915:1916   */\n      0x00\n        /* \"#utility.yul\":1912:1913   */\n      0x00\n        /* \"#utility.yul\":1905:1917   */\n      revert\n        /* \"#utility.yul\":1856:1919   */\n    tag_274:\n        /* \"#utility.yul\":1803:1925   */\n      pop\n      jump\t// out\n        /* \"#utility.yul\":1931:2070   */\n    tag_224:\n        /* \"#utility.yul\":1977:1982   */\n      0x00\n        /* \"#utility.yul\":2015:2021   */\n      dup2\n        /* \"#utility.yul\":2002:2022   */\n      calldataload\n        /* \"#utility.yul\":1993:2022   */\n      swap1\n      pop\n        /* \"#utility.yul\":2031:2064   */\n      tag_276\n        /* \"#utility.yul\":2058:2063   */\n      dup2\n        /* \"#utility.yul\":2031:2064   */\n      tag_223\n      jump\t// in\n    tag_276:\n        /* \"#utility.yul\":1931:2070   */\n      swap3\n      swap2\n      pop\n      pop\n      jump\t// out\n        /* \"#utility.yul\":2076:2153   */\n    tag_225:\n        /* \"#utility.yul\":2113:2120   */\n      0x00\n        /* \"#utility.yul\":2142:2147   */\n      dup2\n        /* \"#utility.yul\":2131:2147   */\n      swap1\n      pop\n        /* \"#utility.yul\":2076:2153   */\n      swap2\n      swap1\n      pop\n      jump\t// out\n        /* \"#utility.yul\":2159:2281   */\n    tag_226:\n        /* \"#utility.yul\":2232:2256   */\n      tag_279\n        /* \"#utility.yul\":2250:2255   */\n      dup2\n        /* \"#utility.yul\":2232:2256   */\n      tag_225\n      jump\t// in\n    tag_279:\n        /* \"#utility.yul\":2225:2230   */\n      dup2\n        /* \"#utility.yul\":2222:2257   */\n      eq\n        /* \"#utility.yul\":2212:2275   */\n      tag_280\n      jumpi\n        /* \"#utility.yul\":2271:2272   */\n      0x00\n        /* \"#utility.yul\":2268:2269   */\n      0x00\n        /* \"#utility.yul\":2261:2273   */\n      revert\n        /* \"#utility.yul\":2212:2275   */\n    tag_280:\n        /* \"#utility.yul\":2159:2281   */\n      pop\n      jump\t// out\n        /* \"#utility.yul\":2287:2426   */\n    tag_227:\n        /* \"#utility.yul\":2333:2338   */\n      0x00\n        /* \"#utility.yul\":2371:2377   */\n      dup2\n        /* \"#utility.yul\":2358:2378   */\n      calldataload\n        /* \"#utility.yul\":2349:2378   */\n      swap1\n      pop\n        /* \"#utility.yul\":2387:2420   */\n      tag_282\n        /* \"#utility.yul\":2414:2419   */\n      dup2\n        /* \"#utility.yul\":2387:2420   */\n      tag_226\n      jump\t// in\n    tag_282:\n        /* \"#utility.yul\":2287:2426   */\n      swap3\n      swap2\n      pop\n      pop\n      jump\t// out\n        /* \"#utility.yul\":2432:2906   */\n    tag_29:\n        /* \"#utility.yul\":2500:2506   */\n      0x00\n        /* \"#utility.yul\":2508:2514   */\n      0x00\n        /* \"#utility.yul\":2557:2559   */\n      0x40\n        /* \"#utility.yul\":2545:2554   */\n      dup4\n        /* \"#utility.yul\":2536:2543   */\n      dup6\n        /* \"#utility.yul\":2532:2555   */\n      sub\n        /* \"#utility.yul\":2528:2560   */\n      slt\n        /* \"#utility.yul\":2525:2644   */\n      iszero\n      tag_284\n      jumpi\n        /* \"#utility.yul\":2563:2642   */\n      tag_285\n      tag_219\n      jump\t// in\n    tag_285:\n        /* \"#utility.yul\":2525:2644   */\n    tag_284:\n        /* \"#utility.yul\":2683:2684   */\n      0x00\n        /* \"#utility.yul\":2708:2761   */\n      tag_286\n        /* \"#utility.yul\":2753:2760   */\n      dup6\n        /* \"#utility.yul\":2744:2750   */\n      dup3\n        /* \"#utility.yul\":2733:2742   */\n      dup7\n        /* \"#utility.yul\":2729:2751   */\n      add\n        /* \"#utility.yul\":2708:2761   */\n      tag_224\n      jump\t// in\n    tag_286:\n        /* \"#utility.yul\":2698:2761   */\n      swap3\n      pop\n        /* \"#utility.yul\":2654:2771   */\n      pop\n        /* \"#utility.yul\":2810:2812   */\n      0x20\n        /* \"#utility.yul\":2836:2889   */\n      tag_287\n        /* \"#utility.yul\":2881:2888   */\n      dup6\n        /* \"#utility.yul\":2872:2878   */\n      dup3\n        /* \"#utility.yul\":2861:2870   */\n      dup7\n        /* \"#utility.yul\":2857:2879   */\n      add\n        /* \"#utility.yul\":2836:2889   */\n      tag_227\n      jump\t// in\n    tag_287:\n        /* \"#utility.yul\":2826:2889   */\n      swap2\n      pop\n        /* \"#utility.yul\":2781:2899   */\n      pop\n        /* \"#utility.yul\":2432:2906   */\n      swap3\n      pop\n      swap3\n      swap1\n      pop\n      jump\t// out\n        /* \"#utility.yul\":2912:3002   */\n    tag_228:\n        /* \"#utility.yul\":2946:2953   */\n      0x00\n        /* \"#utility.yul\":2989:2994   */\n      dup2\n        /* \"#utility.yul\":2982:2995   */\n      iszero\n        /* \"#utility.yul\":2975:2996   */\n      iszero\n        /* \"#utility.yul\":2964:2996   */\n      swap1\n      pop\n        /* \"#utility.yul\":2912:3002   */\n      swap2\n      swap1\n      pop\n      jump\t// out\n        /* \"#utility.yul\":3008:3117   */\n    tag_229:\n        /* \"#utility.yul\":3089:3110   */\n      tag_290\n        /* \"#utility.yul\":3104:3109   */\n      dup2\n        /* \"#utility.yul\":3089:3110   */\n      tag_228\n      jump\t// in\n    tag_290:\n        /* \"#utility.yul\":3084:3087   */\n      dup3\n        /* \"#utility.yul\":3077:3111   */\n      mstore\n        /* \"#utility.yul\":3008:3117   */\n      pop\n      pop\n      jump\t// out\n        /* \"#utility.yul\":3123:3333   */\n    tag_32:\n        /* \"#utility.yul\":3210:3214   */\n      0x00\n        /* \"#utility.yul\":3248:3250   */\n      0x20\n        /* \"#utility.yul\":3237:3246   */\n      dup3\n        /* \"#utility.yul\":3233:3251   */\n      add\n        /* \"#utility.yul\":3225:3251   */\n      swap1\n      pop\n        /* \"#utility.yul\":3261:3326   */\n      tag_292\n        /* \"#utility.yul\":3323:3324   */\n      0x00\n        /* \"#utility.yul\":3312:3321   */\n      dup4\n        /* \"#utility.yul\":3308:3325   */\n      add\n        /* \"#utility.yul\":3299:3305   */\n      dup5\n        /* \"#utility.yul\":3261:3326   */\n      tag_229\n      jump\t// in\n    tag_292:\n        /* \"#utility.yul\":3123:3333   */\n      swap3\n      swap2\n      pop\n      pop\n      jump\t// out\n        /* \"#utility.yul\":3339:3457   */\n    tag_230:\n        /* \"#utility.yul\":3426:3450   */\n      tag_294\n        /* \"#utility.yul\":3444:3449   */\n      dup2\n        /* \"#utility.yul\":3426:3450   */\n      tag_225\n      jump\t// in\n    tag_294:\n        /* \"#utility.yul\":3421:3424   */\n      dup3\n        /* \"#utility.yul\":3414:3451   */\n      mstore\n        /* \"#utility.yul\":3339:3457   */\n      pop\n      pop\n      jump\t// out\n        /* \"#utility.yul\":3463:3685   */\n    tag_36:\n        /* \"#utility.yul\":3556:3560   */\n      0x00\n        /* \"#utility.yul\":3594:3596   */\n      0x20\n        /* \"#utility.yul\":3583:3592   */\n      dup3\n        /* \"#utility.yul\":3579:3597   */\n      add\n        /* \"#utility.yul\":3571:3597   */\n      swap1\n      pop\n        /* \"#utility.yul\":3607:3678   */\n      tag_296\n        /* \"#utility.yul\":3675:3676   */\n      0x00\n        /* \"#utility.yul\":3664:3673   */\n      dup4\n        /* \"#utility.yul\":3660:3677   */\n      add\n        /* \"#utility.yul\":3651:3657   */\n      dup5\n        /* \"#utility.yul\":3607:3678   */\n      tag_230\n      jump\t// in\n    tag_296:\n        /* \"#utility.yul\":3463:3685   */\n      swap3\n      swap2\n      pop\n      pop\n      jump\t// out\n        /* \"#utility.yul\":3691:4310   */\n    tag_39:\n        /* \"#utility.yul\":3768:3774   */\n      0x00\n        /* \"#utility.yul\":3776:3782   */\n      0x00\n        /* \"#utility.yul\":3784:3790   */\n      0x00\n        /* \"#utility.yul\":3833:3835   */\n      0x60\n        /* \"#utility.yul\":3821:3830   */\n      dup5\n        /* \"#utility.yul\":3812:3819   */\n      dup7\n        /* \"#utility.yul\":3808:3831   */\n      sub\n        /* \"#utility.yul\":3804:3836   */\n      slt\n        /* \"#utility.yul\":3801:3920   */\n      iszero\n      tag_298\n      jumpi\n        /* \"#utility.yul\":3839:3918   */\n      tag_299\n      tag_219\n      jump\t// in\n    tag_299:\n        /* \"#utility.yul\":3801:3920   */\n    tag_298:\n        /* \"#utility.yul\":3959:3960   */\n      0x00\n        /* \"#utility.yul\":3984:4037   */\n      tag_300\n        /* \"#utility.yul\":4029:4036   */\n      dup7\n        /* \"#utility.yul\":4020:4026   */\n      dup3\n        /* \"#utility.yul\":4009:4018   */\n      dup8\n        /* \"#utility.yul\":4005:4027   */\n      add\n        /* \"#utility.yul\":3984:4037   */\n      tag_224\n      jump\t// in\n    tag_300:\n        /* \"#utility.yul\":3974:4037   */\n      swap4\n      pop\n        /* \"#utility.yul\":3930:4047   */\n      pop\n        /* \"#utility.yul\":4086:4088   */\n      0x20\n        /* \"#utility.yul\":4112:4165   */\n      tag_301\n        /* \"#utility.yul\":4157:4164   */\n      dup7\n        /* \"#utility.yul\":4148:4154   */\n      dup3\n        /* \"#utility.yul\":4137:4146   */\n      dup8\n        /* \"#utility.yul\":4133:4155   */\n      add\n        /* \"#utility.yul\":4112:4165   */\n      tag_224\n      jump\t// in\n    tag_301:\n        /* \"#utility.yul\":4102:4165   */\n      swap3\n      pop\n        /* \"#utility.yul\":4057:4175   */\n      pop\n        /* \"#utility.yul\":4214:4216   */\n      0x40\n        /* \"#utility.yul\":4240:4293   */\n      tag_302\n        /* \"#utility.yul\":4285:4292   */\n      dup7\n        /* \"#utility.yul\":4276:4282   */\n      dup3\n        /* \"#utility.yul\":4265:4274   */\n      dup8\n        /* \"#utility.yul\":4261:4283   */\n      add\n        /* \"#utility.yul\":4240:4293   */\n      tag_227\n      jump\t// in\n    tag_302:\n        /* \"#utility.yul\":4230:4293   */\n      swap2\n      pop\n        /* \"#utility.yul\":4185:4303   */\n      pop\n        /* \"#utility.yul\":3691:4310   */\n      swap3\n      pop\n      swap3\n      pop\n      swap3\n      jump\t// out\n        /* \"#utility.yul\":4316:4402   */\n    tag_231:\n        /* \"#utility.yul\":4351:4358   */\n      0x00\n        /* \"#utility.yul\":4391:4395   */\n      0xff\n        /* \"#utility.yul\":4384:4389   */\n      dup3\n        /* \"#utility.yul\":4380:4396   */\n      and\n        /* \"#utility.yul\":4369:4396   */\n      swap1\n      pop\n        /* \"#utility.yul\":4316:4402   */\n      swap2\n      swap1\n      pop\n      jump\t// out\n        /* \"#utility.yul\":4408:4520   */\n    tag_232:\n        /* \"#utility.yul\":4491:4513   */\n      tag_305\n        /* \"#utility.yul\":4507:4512   */\n      dup2\n        /* \"#utility.yul\":4491:4513   */\n      tag_231\n      jump\t// in\n    tag_305:\n        /* \"#utility.yul\":4486:4489   */\n      dup3\n        /* \"#utility.yul\":4479:4514   */\n      mstore\n        /* \"#utility.yul\":4408:4520   */\n      pop\n      pop\n      jump\t// out\n        /* \"#utility.yul\":4526:4740   */\n    tag_45:\n        /* \"#utility.yul\":4615:4619   */\n      0x00\n        /* \"#utility.yul\":4653:4655   */\n      0x20\n        /* \"#utility.yul\":4642:4651   */\n      dup3\n        /* \"#utility.yul\":4638:4656   */\n      add\n        /* \"#utility.yul\":4630:4656   */\n      swap1\n      pop\n        /* \"#utility.yul\":4666:4733   */\n      tag_307\n        /* \"#utility.yul\":4730:4731   */\n      0x00\n        /* \"#utility.yul\":4719:4728   */\n      dup4\n        /* \"#utility.yul\":4715:4732   */\n      add\n        /* \"#utility.yul\":4706:4712   */\n      dup5\n        /* \"#utility.yul\":4666:4733   */\n      tag_232\n      jump\t// in\n    tag_307:\n        /* \"#utility.yul\":4526:4740   */\n      swap3\n      swap2\n      pop\n      pop\n      jump\t// out\n        /* \"#utility.yul\":4746:5075   */\n    tag_52:\n        /* \"#utility.yul\":4805:4811   */\n      0x00\n        /* \"#utility.yul\":4854:4856   */\n      0x20\n        /* \"#utility.yul\":4842:4851   */\n      dup3\n        /* \"#utility.yul\":4833:4840   */\n      dup5\n        /* \"#utility.yul\":4829:4852   */\n      sub\n        /* \"#utility.yul\":4825:4857   */\n      slt\n        /* \"#utility.yul\":4822:4941   */\n      iszero\n      tag_309\n      jumpi\n        /* \"#utility.yul\":4860:4939   */\n      tag_310\n      tag_219\n      jump\t// in\n    tag_310:\n        /* \"#utility.yul\":4822:4941   */\n    tag_309:\n        /* \"#utility.yul\":4980:4981   */\n      0x00\n        /* \"#utility.yul\":5005:5058   */\n      tag_311\n        /* \"#utility.yul\":5050:5057   */\n      dup5\n        /* \"#utility.yul\":5041:5047   */\n      dup3\n        /* \"#utility.yul\":5030:5039   */\n      dup6\n        /* \"#utility.yul\":5026:5048   */\n      add\n        /* \"#utility.yul\":5005:5058   */\n      tag_227\n      jump\t// in\n    tag_311:\n        /* \"#utility.yul\":4995:5058   */\n      swap2\n      pop\n        /* \"#utility.yul\":4951:5068   */\n      pop\n        /* \"#utility.yul\":4746:5075   */\n      swap3\n      swap2\n      pop\n      pop\n      jump\t// out\n        /* \"#utility.yul\":5081:5410   */\n    tag_56:\n        /* \"#utility.yul\":5140:5146   */\n      0x00\n        /* \"#utility.yul\":5189:5191   */\n      0x20\n        /* \"#utility.yul\":5177:5186   */\n      dup3\n        /* \"#utility.yul\":5168:5175   */\n      dup5\n        /* \"#utility.yul\":5164:5187   */\n      sub\n        /* \"#utility.yul\":5160:5192   */\n      slt\n        /* \"#utility.yul\":5157:5276   */\n      iszero\n      tag_313\n      jumpi\n        /* \"#utility.yul\":5195:5274   */\n      tag_314\n      tag_219\n      jump\t// in\n    tag_314:\n        /* \"#utility.yul\":5157:5276   */\n    tag_313:\n        /* \"#utility.yul\":5315:5316   */\n      0x00\n        /* \"#utility.yul\":5340:5393   */\n      tag_315\n        /* \"#utility.yul\":5385:5392   */\n      dup5\n        /* \"#utility.yul\":5376:5382   */\n      dup3\n        /* \"#utility.yul\":5365:5374   */\n      dup6\n        /* \"#utility.yul\":5361:5383   */\n      add\n        /* \"#utility.yul\":5340:5393   */\n      tag_224\n      jump\t// in\n    tag_315:\n        /* \"#utility.yul\":5330:5393   */\n      swap2\n      pop\n        /* \"#utility.yul\":5286:5403   */\n      pop\n        /* \"#utility.yul\":5081:5410   */\n      swap3\n      swap2\n      pop\n      pop\n      jump\t// out\n        /* \"#utility.yul\":5416:5534   */\n    tag_233:\n        /* \"#utility.yul\":5503:5527   */\n      tag_317\n        /* \"#utility.yul\":5521:5526   */\n      dup2\n        /* \"#utility.yul\":5503:5527   */\n      tag_222\n      jump\t// in\n    tag_317:\n        /* \"#utility.yul\":5498:5501   */\n      dup3\n        /* \"#utility.yul\":5491:5528   */\n      mstore\n        /* \"#utility.yul\":5416:5534   */\n      pop\n      pop\n      jump\t// out\n        /* \"#utility.yul\":5540:5762   */\n    tag_64:\n        /* \"#utility.yul\":5633:5637   */\n      0x00\n        /* \"#utility.yul\":5671:5673   */\n      0x20\n        /* \"#utility.yul\":5660:5669   */\n      dup3\n        /* \"#utility.yul\":5656:5674   */\n      add\n        /* \"#utility.yul\":5648:5674   */\n      swap1\n      pop\n        /* \"#utility.yul\":5684:5755   */\n      tag_319\n        /* \"#utility.yul\":5752:5753   */\n      0x00\n        /* \"#utility.yul\":5741:5750   */\n      dup4\n        /* \"#utility.yul\":5737:5754   */\n      add\n        /* \"#utility.yul\":5728:5734   */\n      dup5\n        /* \"#utility.yul\":5684:5755   */\n      tag_233\n      jump\t// in\n    tag_319:\n        /* \"#utility.yul\":5540:5762   */\n      swap3\n      swap2\n      pop\n      pop\n      jump\t// out\n        /* \"#utility.yul\":5768:6242   */\n    tag_85:\n        /* \"#utility.yul\":5836:5842   */\n      0x00\n        /* \"#utility.yul\":5844:5850   */\n      0x00\n        /* \"#utility.yul\":5893:5895   */\n      0x40\n        /* \"#utility.yul\":5881:5890   */\n      dup4\n        /* \"#utility.yul\":5872:5879   */\n      dup6\n        /* \"#utility.yul\":5868:5891   */\n      sub\n        /* \"#utility.yul\":5864:5896   */\n      slt\n        /* \"#utility.yul\":5861:5980   */\n      iszero\n      tag_321\n      jumpi\n        /* \"#utility.yul\":5899:5978   */\n      tag_322\n      tag_219\n      jump\t// in\n    tag_322:\n        /* \"#utility.yul\":5861:5980   */\n    tag_321:\n        /* \"#utility.yul\":6019:6020   */\n      0x00\n        /* \"#utility.yul\":6044:6097   */\n      tag_323\n        /* \"#utility.yul\":6089:6096   */\n      dup6\n        /* \"#utility.yul\":6080:6086   */\n      dup3\n        /* \"#utility.yul\":6069:6078   */\n      dup7\n        /* \"#utility.yul\":6065:6087   */\n      add\n        /* \"#utility.yul\":6044:6097   */\n      tag_224\n      jump\t// in\n    tag_323:\n        /* \"#utility.yul\":6034:6097   */\n      swap3\n      pop\n        /* \"#utility.yul\":5990:6107   */\n      pop\n        /* \"#utility.yul\":6146:6148   */\n      0x20\n        /* \"#utility.yul\":6172:6225   */\n      tag_324\n        /* \"#utility.yul\":6217:6224   */\n      dup6\n        /* \"#utility.yul\":6208:6214   */\n      dup3\n        /* \"#utility.yul\":6197:6206   */\n      dup7\n        /* \"#utility.yul\":6193:6215   */\n      add\n        /* \"#utility.yul\":6172:6225   */\n      tag_224\n      jump\t// in\n    tag_324:\n        /* \"#utility.yul\":6162:6225   */\n      swap2\n      pop\n        /* \"#utility.yul\":6117:6235   */\n      pop\n        /* \"#utility.yul\":5768:6242   */\n      swap3\n      pop\n      swap3\n      swap1\n      pop\n      jump\t// out\n        /* \"#utility.yul\":6248:6428   */\n    tag_234:\n        /* \"#utility.yul\":6296:6373   */\n      0x4e487b7100000000000000000000000000000000000000000000000000000000\n        /* \"#utility.yul\":6293:6294   */\n      0x00\n        /* \"#utility.yul\":6286:6374   */\n      mstore\n        /* \"#utility.yul\":6393:6397   */\n      0x22\n        /* \"#utility.yul\":6390:6391   */\n      0x04\n        /* \"#utility.yul\":6383:6398   */\n      mstore\n        /* \"#utility.yul\":6417:6421   */\n      0x24\n        /* \"#utility.yul\":6414:6415   */\n      0x00\n        /* \"#utility.yul\":6407:6422   */\n      revert\n        /* \"#utility.yul\":6434:6754   */\n    tag_93:\n        /* \"#utility.yul\":6478:6484   */\n      0x00\n        /* \"#utility.yul\":6515:6516   */\n      0x02\n        /* \"#utility.yul\":6509:6513   */\n      dup3\n        /* \"#utility.yul\":6505:6517   */\n      div\n        /* \"#utility.yul\":6495:6517   */\n      swap1\n      pop\n        /* \"#utility.yul\":6562:6563   */\n      0x01\n        /* \"#utility.yul\":6556:6560   */\n      dup3\n        /* \"#utility.yul\":6552:6564   */\n      and\n        /* \"#utility.yul\":6583:6601   */\n      dup1\n        /* \"#utility.yul\":6573:6654   */\n      tag_327\n      jumpi\n        /* \"#utility.yul\":6639:6643   */\n      0x7f\n        /* \"#utility.yul\":6631:6637   */\n      dup3\n        /* \"#utility.yul\":6627:6644   */\n      and\n        /* \"#utility.yul\":6617:6644   */\n      swap2\n      pop\n        /* \"#utility.yul\":6573:6654   */\n    tag_327:\n        /* \"#utility.yul\":6701:6703   */\n      0x20\n        /* \"#utility.yul\":6693:6699   */\n      dup3\n        /* \"#utility.yul\":6690:6704   */\n      lt\n        /* \"#utility.yul\":6670:6688   */\n      dup2\n        /* \"#utility.yul\":6667:6705   */\n      sub\n        /* \"#utility.yul\":6664:6748   */\n      tag_328\n      jumpi\n        /* \"#utility.yul\":6720:6738   */\n      tag_329\n      tag_234\n      jump\t// in\n    tag_329:\n        /* \"#utility.yul\":6664:6748   */\n    tag_328:\n        /* \"#utility.yul\":6485:6754   */\n      pop\n        /* \"#utility.yul\":6434:6754   */\n      swap2\n      swap1\n      pop\n      jump\t// out\n        /* \"#utility.yul\":6760:6942   */\n    tag_235:\n        /* \"#utility.yul\":6900:6934   */\n      0x4f776e61626c653a2063616c6c6572206973206e6f7420746865206f776e6572\n        /* \"#utility.yul\":6896:6897   */\n      0x00\n        /* \"#utility.yul\":6888:6894   */\n      dup3\n        /* \"#utility.yul\":6884:6898   */\n      add\n        /* \"#utility.yul\":6877:6935   */\n      mstore\n        /* \"#utility.yul\":6760:6942   */\n      pop\n      jump\t// out\n        /* \"#utility.yul\":6948:7314   */\n    tag_236:\n        /* \"#utility.yul\":7090:7093   */\n      0x00\n        /* \"#utility.yul\":7111:7178   */\n      tag_332\n        /* \"#utility.yul\":7175:7177   */\n      0x20\n        /* \"#utility.yul\":7170:7173   */\n      dup4\n        /* \"#utility.yul\":7111:7178   */\n      tag_214\n      jump\t// in\n    tag_332:\n        /* \"#utility.yul\":7104:7178   */\n      swap2\n      pop\n        /* \"#utility.yul\":7187:7280   */\n      tag_333\n        /* \"#utility.yul\":7276:7279   */\n      dup3\n        /* \"#utility.yul\":7187:7280   */\n      tag_235\n      jump\t// in\n    tag_333:\n        /* \"#utility.yul\":7305:7307   */\n      0x20\n        /* \"#utility.yul\":7300:7303   */\n      dup3\n        /* \"#utility.yul\":7296:7308   */\n      add\n        /* \"#utility.yul\":7289:7308   */\n      swap1\n      pop\n        /* \"#utility.yul\":6948:7314   */\n      swap2\n      swap1\n      pop\n      jump\t// out\n        /* \"#utility.yul\":7320:7739   */\n    tag_127:\n        /* \"#utility.yul\":7486:7490   */\n      0x00\n        /* \"#utility.yul\":7524:7526   */\n      0x20\n        /* \"#utility.yul\":7513:7522   */\n      dup3\n        /* \"#utility.yul\":7509:7527   */\n      add\n        /* \"#utility.yul\":7501:7527   */\n      swap1\n      pop\n        /* \"#utility.yul\":7573:7582   */\n      dup2\n        /* \"#utility.yul\":7567:7571   */\n      dup2\n        /* \"#utility.yul\":7563:7583   */\n      sub\n        /* \"#utility.yul\":7559:7560   */\n      0x00\n        /* \"#utility.yul\":7548:7557   */\n      dup4\n        /* \"#utility.yul\":7544:7561   */\n      add\n        /* \"#utility.yul\":7537:7584   */\n      mstore\n        /* \"#utility.yul\":7601:7732   */\n      tag_335\n        /* \"#utility.yul\":7727:7731   */\n      dup2\n        /* \"#utility.yul\":7601:7732   */\n      tag_236\n      jump\t// in\n    tag_335:\n        /* \"#utility.yul\":7593:7732   */\n      swap1\n      pop\n        /* \"#utility.yul\":7320:7739   */\n      swap2\n      swap1\n      pop\n      jump\t// out\n        /* \"#utility.yul\":7745:7968   */\n    tag_237:\n        /* \"#utility.yul\":7885:7919   */\n      0x42455032303a20617070726f76652066726f6d20746865207a65726f20616464\n        /* \"#utility.yul\":7881:7882   */\n      0x00\n        /* \"#utility.yul\":7873:7879   */\n      dup3\n        /* \"#utility.yul\":7869:7883   */\n      add\n        /* \"#utility.yul\":7862:7920   */\n      mstore\n        /* \"#utility.yul\":7954:7960   */\n      0x7265737300000000000000000000000000000000000000000000000000000000\n        /* \"#utility.yul\":7949:7951   */\n      0x20\n        /* \"#utility.yul\":7941:7947   */\n      dup3\n        /* \"#utility.yul\":7937:7952   */\n      add\n        /* \"#utility.yul\":7930:7961   */\n      mstore\n        /* \"#utility.yul\":7745:7968   */\n      pop\n      jump\t// out\n        /* \"#utility.yul\":7974:8340   */\n    tag_238:\n        /* \"#utility.yul\":8116:8119   */\n      0x00\n        /* \"#utility.yul\":8137:8204   */\n      tag_338\n        /* \"#utility.yul\":8201:8203   */\n      0x24\n        /* \"#utility.yul\":8196:8199   */\n      dup4\n        /* \"#utility.yul\":8137:8204   */\n      tag_214\n      jump\t// in\n    tag_338:\n        /* \"#utility.yul\":8130:8204   */\n      swap2\n      pop\n        /* \"#utility.yul\":8213:8306   */\n      tag_339\n        /* \"#utility.yul\":8302:8305   */\n      dup3\n        /* \"#utility.yul\":8213:8306   */\n      tag_237\n      jump\t// in\n    tag_339:\n        /* \"#utility.yul\":8331:8333   */\n      0x40\n        /* \"#utility.yul\":8326:8329   */\n      dup3\n        /* \"#utility.yul\":8322:8334   */\n      add\n        /* \"#utility.yul\":8315:8334   */\n      swap1\n      pop\n        /* \"#utility.yul\":7974:8340   */\n      swap2\n      swap1\n      pop\n      jump\t// out\n        /* \"#utility.yul\":8346:8765   */\n    tag_166:\n        /* \"#utility.yul\":8512:8516   */\n      0x00\n        /* \"#utility.yul\":8550:8552   */\n      0x20\n        /* \"#utility.yul\":8539:8548   */\n      dup3\n        /* \"#utility.yul\":8535:8553   */\n      add\n        /* \"#utility.yul\":8527:8553   */\n      swap1\n      pop\n        /* \"#utility.yul\":8599:8608   */\n      dup2\n        /* \"#utility.yul\":8593:8597   */\n      dup2\n        /* \"#utility.yul\":8589:8609   */\n      sub\n        /* \"#utility.yul\":8585:8586   */\n      0x00\n        /* \"#utility.yul\":8574:8583   */\n      dup4\n        /* \"#utility.yul\":8570:8587   */\n      add\n        /* \"#utility.yul\":8563:8610   */\n      mstore\n        /* \"#utility.yul\":8627:8758   */\n      tag_341\n        /* \"#utility.yul\":8753:8757   */\n      dup2\n        /* \"#utility.yul\":8627:8758   */\n      tag_238\n      jump\t// in\n    tag_341:\n        /* \"#utility.yul\":8619:8758   */\n      swap1\n      pop\n        /* \"#utility.yul\":8346:8765   */\n      swap2\n      swap1\n      pop\n      jump\t// out\n        /* \"#utility.yul\":8771:8992   */\n    tag_239:\n        /* \"#utility.yul\":8911:8945   */\n      0x42455032303a20617070726f766520746f20746865207a65726f206164647265\n        /* \"#utility.yul\":8907:8908   */\n      0x00\n        /* \"#utility.yul\":8899:8905   */\n      dup3\n        /* \"#utility.yul\":8895:8909   */\n      add\n        /* \"#utility.yul\":8888:8946   */\n      mstore\n        /* \"#utility.yul\":8980:8984   */\n      0x7373000000000000000000000000000000000000000000000000000000000000\n        /* \"#utility.yul\":8975:8977   */\n      0x20\n        /* \"#utility.yul\":8967:8973   */\n      dup3\n        /* \"#utility.yul\":8963:8978   */\n      add\n        /* \"#utility.yul\":8956:8985   */\n      mstore\n        /* \"#utility.yul\":8771:8992   */\n      pop\n      jump\t// out\n        /* \"#utility.yul\":8998:9364   */\n    tag_240:\n        /* \"#utility.yul\":9140:9143   */\n      0x00\n        /* \"#utility.yul\":9161:9228   */\n      tag_344\n        /* \"#utility.yul\":9225:9227   */\n      0x22\n        /* \"#utility.yul\":9220:9223   */\n      dup4\n        /* \"#utility.yul\":9161:9228   */\n      tag_214\n      jump\t// in\n    tag_344:\n        /* \"#utility.yul\":9154:9228   */\n      swap2\n      pop\n        /* \"#utility.yul\":9237:9330   */\n      tag_345\n        /* \"#utility.yul\":9326:9329   */\n      dup3\n        /* \"#utility.yul\":9237:9330   */\n      tag_239\n      jump\t// in\n    tag_345:\n        /* \"#utility.yul\":9355:9357   */\n      0x40\n        /* \"#utility.yul\":9350:9353   */\n      dup3\n        /* \"#utility.yul\":9346:9358   */\n      add\n        /* \"#utility.yul\":9339:9358   */\n      swap1\n      pop\n        /* \"#utility.yul\":8998:9364   */\n      swap2\n      swap1\n      pop\n      jump\t// out\n        /* \"#utility.yul\":9370:9789   */\n    tag_169:\n        /* \"#utility.yul\":9536:9540   */\n      0x00\n        /* \"#utility.yul\":9574:9576   */\n      0x20\n        /* \"#utility.yul\":9563:9572   */\n      dup3\n        /* \"#utility.yul\":9559:9577   */\n      add\n        /* \"#utility.yul\":9551:9577   */\n      swap1\n      pop\n        /* \"#utility.yul\":9623:9632   */\n      dup2\n        /* \"#utility.yul\":9617:9621   */\n      dup2\n        /* \"#utility.yul\":9613:9633   */\n      sub\n        /* \"#utility.yul\":9609:9610   */\n      0x00\n        /* \"#utility.yul\":9598:9607   */\n      dup4\n        /* \"#utility.yul\":9594:9611   */\n      add\n        /* \"#utility.yul\":9587:9634   */\n      mstore\n        /* \"#utility.yul\":9651:9782   */\n      tag_347\n        /* \"#utility.yul\":9777:9781   */\n      dup2\n        /* \"#utility.yul\":9651:9782   */\n      tag_240\n      jump\t// in\n    tag_347:\n        /* \"#utility.yul\":9643:9782   */\n      swap1\n      pop\n        /* \"#utility.yul\":9370:9789   */\n      swap2\n      swap1\n      pop\n      jump\t// out\n        /* \"#utility.yul\":9795:10019   */\n    tag_241:\n        /* \"#utility.yul\":9935:9969   */\n      0x42455032303a207472616e736665722066726f6d20746865207a65726f206164\n        /* \"#utility.yul\":9931:9932   */\n      0x00\n        /* \"#utility.yul\":9923:9929   */\n      dup3\n        /* \"#utility.yul\":9919:9933   */\n      add\n        /* \"#utility.yul\":9912:9970   */\n      mstore\n        /* \"#utility.yul\":10004:10011   */\n      0x6472657373000000000000000000000000000000000000000000000000000000\n        /* \"#utility.yul\":9999:10001   */\n      0x20\n        /* \"#utility.yul\":9991:9997   */\n      dup3\n        /* \"#utility.yul\":9987:10002   */\n      add\n        /* \"#utility.yul\":9980:10012   */\n      mstore\n        /* \"#utility.yul\":9795:10019   */\n      pop\n      jump\t// out\n        /* \"#utility.yul\":10025:10391   */\n    tag_242:\n        /* \"#utility.yul\":10167:10170   */\n      0x00\n        /* \"#utility.yul\":10188:10255   */\n      tag_350\n        /* \"#utility.yul\":10252:10254   */\n      0x25\n        /* \"#utility.yul\":10247:10250   */\n      dup4\n        /* \"#utility.yul\":10188:10255   */\n      tag_214\n      jump\t// in\n    tag_350:\n        /* \"#utility.yul\":10181:10255   */\n      swap2\n      pop\n        /* \"#utility.yul\":10264:10357   */\n      tag_351\n        /* \"#utility.yul\":10353:10356   */\n      dup3\n        /* \"#utility.yul\":10264:10357   */\n      tag_241\n      jump\t// in\n    tag_351:\n        /* \"#utility.yul\":10382:10384   */\n      0x40\n        /* \"#utility.yul\":10377:10380   */\n      dup3\n        /* \"#utility.yul\":10373:10385   */\n      add\n        /* \"#utility.yul\":10366:10385   */\n      swap1\n      pop\n        /* \"#utility.yul\":10025:10391   */\n      swap2\n      swap1\n      pop\n      jump\t// out\n        /* \"#utility.yul\":10397:10816   */\n    tag_174:\n        /* \"#utility.yul\":10563:10567   */\n      0x00\n        /* \"#utility.yul\":10601:10603   */\n      0x20\n        /* \"#utility.yul\":10590:10599   */\n      dup3\n        /* \"#utility.yul\":10586:10604   */\n      add\n        /* \"#utility.yul\":10578:10604   */\n      swap1\n      pop\n        /* \"#utility.yul\":10650:10659   */\n      dup2\n        /* \"#utility.yul\":10644:10648   */\n      dup2\n        /* \"#utility.yul\":10640:10660   */\n      sub\n        /* \"#utility.yul\":10636:10637   */\n      0x00\n        /* \"#utility.yul\":10625:10634   */\n      dup4\n        /* \"#utility.yul\":10621:10638   */\n      add\n        /* \"#utility.yul\":10614:10661   */\n      mstore\n        /* \"#utility.yul\":10678:10809   */\n      tag_353\n        /* \"#utility.yul\":10804:10808   */\n      dup2\n        /* \"#utility.yul\":10678:10809   */\n      tag_242\n      jump\t// in\n    tag_353:\n        /* \"#utility.yul\":10670:10809   */\n      swap1\n      pop\n        /* \"#utility.yul\":10397:10816   */\n      swap2\n      swap1\n      pop\n      jump\t// out\n        /* \"#utility.yul\":10822:11044   */\n    tag_243:\n        /* \"#utility.yul\":10962:10996   */\n      0x42455032303a207472616e7366657220746f20746865207a65726f2061646472\n        /* \"#utility.yul\":10958:10959   */\n      0x00\n        /* \"#utility.yul\":10950:10956   */\n      dup3\n        /* \"#utility.yul\":10946:10960   */\n      add\n        /* \"#utility.yul\":10939:10997   */\n      mstore\n        /* \"#utility.yul\":11031:11036   */\n      0x6573730000000000000000000000000000000000000000000000000000000000\n        /* \"#utility.yul\":11026:11028   */\n      0x20\n        /* \"#utility.yul\":11018:11024   */\n      dup3\n        /* \"#utility.yul\":11014:11029   */\n      add\n        /* \"#utility.yul\":11007:11037   */\n      mstore\n        /* \"#utility.yul\":10822:11044   */\n      pop\n      jump\t// out\n        /* \"#utility.yul\":11050:11416   */\n    tag_244:\n        /* \"#utility.yul\":11192:11195   */\n      0x00\n        /* \"#utility.yul\":11213:11280   */\n      tag_356\n        /* \"#utility.yul\":11277:11279   */\n      0x23\n        /* \"#utility.yul\":11272:11275   */\n      dup4\n        /* \"#utility.yul\":11213:11280   */\n      tag_214\n      jump\t// in\n    tag_356:\n        /* \"#utility.yul\":11206:11280   */\n      swap2\n      pop\n        /* \"#utility.yul\":11289:11382   */\n      tag_357\n        /* \"#utility.yul\":11378:11381   */\n      dup3\n        /* \"#utility.yul\":11289:11382   */\n      tag_243\n      jump\t// in\n    tag_357:\n        /* \"#utility.yul\":11407:11409   */\n      0x40\n        /* \"#utility.yul\":11402:11405   */\n      dup3\n        /* \"#utility.yul\":11398:11410   */\n      add\n        /* \"#utility.yul\":11391:11410   */\n      swap1\n      pop\n        /* \"#utility.yul\":11050:11416   */\n      swap2\n      swap1\n      pop\n      jump\t// out\n        /* \"#utility.yul\":11422:11841   */\n    tag_177:\n        /* \"#utility.yul\":11588:11592   */\n      0x00\n        /* \"#utility.yul\":11626:11628   */\n      0x20\n        /* \"#utility.yul\":11615:11624   */\n      dup3\n        /* \"#utility.yul\":11611:11629   */\n      add\n        /* \"#utility.yul\":11603:11629   */\n      swap1\n      pop\n        /* \"#utility.yul\":11675:11684   */\n      dup2\n        /* \"#utility.yul\":11669:11673   */\n      dup2\n        /* \"#utility.yul\":11665:11685   */\n      sub\n        /* \"#utility.yul\":11661:11662   */\n      0x00\n        /* \"#utility.yul\":11650:11659   */\n      dup4\n        /* \"#utility.yul\":11646:11663   */\n      add\n        /* \"#utility.yul\":11639:11686   */\n      mstore\n        /* \"#utility.yul\":11703:11834   */\n      tag_359\n        /* \"#utility.yul\":11829:11833   */\n      dup2\n        /* \"#utility.yul\":11703:11834   */\n      tag_244\n      jump\t// in\n    tag_359:\n        /* \"#utility.yul\":11695:11834   */\n      swap1\n      pop\n        /* \"#utility.yul\":11422:11841   */\n      swap2\n      swap1\n      pop\n      jump\t// out\n        /* \"#utility.yul\":11847:12027   */\n    tag_245:\n        /* \"#utility.yul\":11895:11972   */\n      0x4e487b7100000000000000000000000000000000000000000000000000000000\n        /* \"#utility.yul\":11892:11893   */\n      0x00\n        /* \"#utility.yul\":11885:11973   */\n      mstore\n        /* \"#utility.yul\":11992:11996   */\n      0x11\n        /* \"#utility.yul\":11989:11990   */\n      0x04\n        /* \"#utility.yul\":11982:11997   */\n      mstore\n        /* \"#utility.yul\":12016:12020   */\n      0x24\n        /* \"#utility.yul\":12013:12014   */\n      0x00\n        /* \"#utility.yul\":12006:12021   */\n      revert\n        /* \"#utility.yul\":12033:12227   */\n    tag_185:\n        /* \"#utility.yul\":12073:12077   */\n      0x00\n        /* \"#utility.yul\":12093:12113   */\n      tag_362\n        /* \"#utility.yul\":12111:12112   */\n      dup3\n        /* \"#utility.yul\":12093:12113   */\n      tag_225\n      jump\t// in\n    tag_362:\n        /* \"#utility.yul\":12088:12113   */\n      swap2\n      pop\n        /* \"#utility.yul\":12127:12147   */\n      tag_363\n        /* \"#utility.yul\":12145:12146   */\n      dup4\n        /* \"#utility.yul\":12127:12147   */\n      tag_225\n      jump\t// in\n    tag_363:\n        /* \"#utility.yul\":12122:12147   */\n      swap3\n      pop\n        /* \"#utility.yul\":12171:12172   */\n      dup3\n        /* \"#utility.yul\":12168:12169   */\n      dup3\n        /* \"#utility.yul\":12164:12173   */\n      sub\n        /* \"#utility.yul\":12156:12173   */\n      swap1\n      pop\n        /* \"#utility.yul\":12195:12196   */\n      dup2\n        /* \"#utility.yul\":12189:12193   */\n      dup2\n        /* \"#utility.yul\":12186:12197   */\n      gt\n        /* \"#utility.yul\":12183:12220   */\n      iszero\n      tag_364\n      jumpi\n        /* \"#utility.yul\":12200:12218   */\n      tag_365\n      tag_245\n      jump\t// in\n    tag_365:\n        /* \"#utility.yul\":12183:12220   */\n    tag_364:\n        /* \"#utility.yul\":12033:12227   */\n      swap3\n      swap2\n      pop\n      pop\n      jump\t// out\n        /* \"#utility.yul\":12233:12424   */\n    tag_188:\n        /* \"#utility.yul\":12273:12276   */\n      0x00\n        /* \"#utility.yul\":12292:12312   */\n      tag_367\n        /* \"#utility.yul\":12310:12311   */\n      dup3\n        /* \"#utility.yul\":12292:12312   */\n      tag_225\n      jump\t// in\n    tag_367:\n        /* \"#utility.yul\":12287:12312   */\n      swap2\n      pop\n        /* \"#utility.yul\":12326:12346   */\n      tag_368\n        /* \"#utility.yul\":12344:12345   */\n      dup4\n        /* \"#utility.yul\":12326:12346   */\n      tag_225\n      jump\t// in\n    tag_368:\n        /* \"#utility.yul\":12321:12346   */\n      swap3\n      pop\n        /* \"#utility.yul\":12369:12370   */\n      dup3\n        /* \"#utility.yul\":12366:12367   */\n      dup3\n        /* \"#utility.yul\":12362:12371   */\n      add\n        /* \"#utility.yul\":12355:12371   */\n      swap1\n      pop\n        /* \"#utility.yul\":12390:12393   */\n      dup1\n        /* \"#utility.yul\":12387:12388   */\n      dup3\n        /* \"#utility.yul\":12384:12394   */\n      gt\n        /* \"#utility.yul\":12381:12417   */\n      iszero\n      tag_369\n      jumpi\n        /* \"#utility.yul\":12397:12415   */\n      tag_370\n      tag_245\n      jump\t// in\n    tag_370:\n        /* \"#utility.yul\":12381:12417   */\n    tag_369:\n        /* \"#utility.yul\":12233:12424   */\n      swap3\n      swap2\n      pop\n      pop\n      jump\t// out\n        /* \"#utility.yul\":12430:12607   */\n    tag_246:\n        /* \"#utility.yul\":12570:12599   */\n      0x536166654d6174683a206164646974696f6e206f766572666c6f770000000000\n        /* \"#utility.yul\":12566:12567   */\n      0x00\n        /* \"#utility.yul\":12558:12564   */\n      dup3\n        /* \"#utility.yul\":12554:12568   */\n      add\n        /* \"#utility.yul\":12547:12600   */\n      mstore\n        /* \"#utility.yul\":12430:12607   */\n      pop\n      jump\t// out\n        /* \"#utility.yul\":12613:12979   */\n    tag_247:\n        /* \"#utility.yul\":12755:12758   */\n      0x00\n        /* \"#utility.yul\":12776:12843   */\n      tag_373\n        /* \"#utility.yul\":12840:12842   */\n      0x1b\n        /* \"#utility.yul\":12835:12838   */\n      dup4\n        /* \"#utility.yul\":12776:12843   */\n      tag_214\n      jump\t// in\n    tag_373:\n        /* \"#utility.yul\":12769:12843   */\n      swap2\n      pop\n        /* \"#utility.yul\":12852:12945   */\n      tag_374\n        /* \"#utility.yul\":12941:12944   */\n      dup3\n        /* \"#utility.yul\":12852:12945   */\n      tag_246\n      jump\t// in\n    tag_374:\n        /* \"#utility.yul\":12970:12972   */\n      0x20\n        /* \"#utility.yul\":12965:12968   */\n      dup3\n        /* \"#utility.yul\":12961:12973   */\n      add\n        /* \"#utility.yul\":12954:12973   */\n      swap1\n      pop\n        /* \"#utility.yul\":12613:12979   */\n      swap2\n      swap1\n      pop\n      jump\t// out\n        /* \"#utility.yul\":12985:13404   */\n    tag_191:\n        /* \"#utility.yul\":13151:13155   */\n      0x00\n        /* \"#utility.yul\":13189:13191   */\n      0x20\n        /* \"#utility.yul\":13178:13187   */\n      dup3\n        /* \"#utility.yul\":13174:13192   */\n      add\n        /* \"#utility.yul\":13166:13192   */\n      swap1\n      pop\n        /* \"#utility.yul\":13238:13247   */\n      dup2\n        /* \"#utility.yul\":13232:13236   */\n      dup2\n        /* \"#utility.yul\":13228:13248   */\n      sub\n        /* \"#utility.yul\":13224:13225   */\n      0x00\n        /* \"#utility.yul\":13213:13222   */\n      dup4\n        /* \"#utility.yul\":13209:13226   */\n      add\n        /* \"#utility.yul\":13202:13249   */\n      mstore\n        /* \"#utility.yul\":13266:13397   */\n      tag_376\n        /* \"#utility.yul\":13392:13396   */\n      dup2\n        /* \"#utility.yul\":13266:13397   */\n      tag_247\n      jump\t// in\n    tag_376:\n        /* \"#utility.yul\":13258:13397   */\n      swap1\n      pop\n        /* \"#utility.yul\":12985:13404   */\n      swap2\n      swap1\n      pop\n      jump\t// out\n        /* \"#utility.yul\":13410:13630   */\n    tag_248:\n        /* \"#utility.yul\":13550:13584   */\n      0x42455032303a206275726e2066726f6d20746865207a65726f20616464726573\n        /* \"#utility.yul\":13546:13547   */\n      0x00\n        /* \"#utility.yul\":13538:13544   */\n      dup3\n        /* \"#utility.yul\":13534:13548   */\n      add\n        /* \"#utility.yul\":13527:13585   */\n      mstore\n        /* \"#utility.yul\":13619:13622   */\n      0x7300000000000000000000000000000000000000000000000000000000000000\n        /* \"#utility.yul\":13614:13616   */\n      0x20\n        /* \"#utility.yul\":13606:13612   */\n      dup3\n        /* \"#utility.yul\":13602:13617   */\n      add\n        /* \"#utility.yul\":13595:13623   */\n      mstore\n        /* \"#utility.yul\":13410:13630   */\n      pop\n      jump\t// out\n        /* \"#utility.yul\":13636:14002   */\n    tag_249:\n        /* \"#utility.yul\":13778:13781   */\n      0x00\n        /* \"#utility.yul\":13799:13866   */\n      tag_379\n        /* \"#utility.yul\":13863:13865   */\n      0x21\n        /* \"#utility.yul\":13858:13861   */\n      dup4\n        /* \"#utility.yul\":13799:13866   */\n      tag_214\n      jump\t// in\n    tag_379:\n        /* \"#utility.yul\":13792:13866   */\n      swap2\n      pop\n        /* \"#utility.yul\":13875:13968   */\n      tag_380\n        /* \"#utility.yul\":13964:13967   */\n      dup3\n        /* \"#utility.yul\":13875:13968   */\n      tag_248\n      jump\t// in\n    tag_380:\n        /* \"#utility.yul\":13993:13995   */\n      0x40\n        /* \"#utility.yul\":13988:13991   */\n      dup3\n        /* \"#utility.yul\":13984:13996   */\n      add\n        /* \"#utility.yul\":13977:13996   */\n      swap1\n      pop\n        /* \"#utility.yul\":13636:14002   */\n      swap2\n      swap1\n      pop\n      jump\t// out\n        /* \"#utility.yul\":14008:14427   */\n    tag_195:\n        /* \"#utility.yul\":14174:14178   */\n      0x00\n        /* \"#utility.yul\":14212:14214   */\n      0x20\n        /* \"#utility.yul\":14201:14210   */\n      dup3\n        /* \"#utility.yul\":14197:14215   */\n      add\n        /* \"#utility.yul\":14189:14215   */\n      swap1\n      pop\n        /* \"#utility.yul\":14261:14270   */\n      dup2\n        /* \"#utility.yul\":14255:14259   */\n      dup2\n        /* \"#utility.yul\":14251:14271   */\n      sub\n        /* \"#utility.yul\":14247:14248   */\n      0x00\n        /* \"#utility.yul\":14236:14245   */\n      dup4\n        /* \"#utility.yul\":14232:14249   */\n      add\n        /* \"#utility.yul\":14225:14272   */\n      mstore\n        /* \"#utility.yul\":14289:14420   */\n      tag_382\n        /* \"#utility.yul\":14415:14419   */\n      dup2\n        /* \"#utility.yul\":14289:14420   */\n      tag_249\n      jump\t// in\n    tag_382:\n        /* \"#utility.yul\":14281:14420   */\n      swap1\n      pop\n        /* \"#utility.yul\":14008:14427   */\n      swap2\n      swap1\n      pop\n      jump\t// out\n        /* \"#utility.yul\":14433:14614   */\n    tag_250:\n        /* \"#utility.yul\":14573:14606   */\n      0x42455032303a206d696e7420746f20746865207a65726f206164647265737300\n        /* \"#utility.yul\":14569:14570   */\n      0x00\n        /* \"#utility.yul\":14561:14567   */\n      dup3\n        /* \"#utility.yul\":14557:14571   */\n      add\n        /* \"#utility.yul\":14550:14607   */\n      mstore\n        /* \"#utility.yul\":14433:14614   */\n      pop\n      jump\t// out\n        /* \"#utility.yul\":14620:14986   */\n    tag_251:\n        /* \"#utility.yul\":14762:14765   */\n      0x00\n        /* \"#utility.yul\":14783:14850   */\n      tag_385\n        /* \"#utility.yul\":14847:14849   */\n      0x1f\n        /* \"#utility.yul\":14842:14845   */\n      dup4\n        /* \"#utility.yul\":14783:14850   */\n      tag_214\n      jump\t// in\n    tag_385:\n        /* \"#utility.yul\":14776:14850   */\n      swap2\n      pop\n        /* \"#utility.yul\":14859:14952   */\n      tag_386\n        /* \"#utility.yul\":14948:14951   */\n      dup3\n        /* \"#utility.yul\":14859:14952   */\n      tag_250\n      jump\t// in\n    tag_386:\n        /* \"#utility.yul\":14977:14979   */\n      0x20\n        /* \"#utility.yul\":14972:14975   */\n      dup3\n        /* \"#utility.yul\":14968:14980   */\n      add\n        /* \"#utility.yul\":14961:14980   */\n      swap1\n      pop\n        /* \"#utility.yul\":14620:14986   */\n      swap2\n      swap1\n      pop\n      jump\t// out\n        /* \"#utility.yul\":14992:15411   */\n    tag_203:\n        /* \"#utility.yul\":15158:15162   */\n      0x00\n        /* \"#utility.yul\":15196:15198   */\n      0x20\n        /* \"#utility.yul\":15185:15194   */\n      dup3\n        /* \"#utility.yul\":15181:15199   */\n      add\n        /* \"#utility.yul\":15173:15199   */\n      swap1\n      pop\n        /* \"#utility.yul\":15245:15254   */\n      dup2\n        /* \"#utility.yul\":15239:15243   */\n      dup2\n        /* \"#utility.yul\":15235:15255   */\n      sub\n        /* \"#utility.yul\":15231:15232   */\n      0x00\n        /* \"#utility.yul\":15220:15229   */\n      dup4\n        /* \"#utility.yul\":15216:15233   */\n      add\n        /* \"#utility.yul\":15209:15256   */\n      mstore\n        /* \"#utility.yul\":15273:15404   */\n      tag_388\n        /* \"#utility.yul\":15399:15403   */\n      dup2\n        /* \"#utility.yul\":15273:15404   */\n      tag_251\n      jump\t// in\n    tag_388:\n        /* \"#utility.yul\":15265:15404   */\n      swap1\n      pop\n        /* \"#utility.yul\":14992:15411   */\n      swap2\n      swap1\n      pop\n      jump\t// out\n        /* \"#utility.yul\":15417:15642   */\n    tag_252:\n        /* \"#utility.yul\":15557:15591   */\n      0x4f776e61626c653a206e6577206f776e657220697320746865207a65726f2061\n        /* \"#utility.yul\":15553:15554   */\n      0x00\n        /* \"#utility.yul\":15545:15551   */\n      dup3\n        /* \"#utility.yul\":15541:15555   */\n      add\n        /* \"#utility.yul\":15534:15592   */\n      mstore\n        /* \"#utility.yul\":15626:15634   */\n      0x6464726573730000000000000000000000000000000000000000000000000000\n        /* \"#utility.yul\":15621:15623   */\n      0x20\n        /* \"#utility.yul\":15613:15619   */\n      dup3\n        /* \"#utility.yul\":15609:15624   */\n      add\n        /* \"#utility.yul\":15602:15635   */\n      mstore\n        /* \"#utility.yul\":15417:15642   */\n      pop\n      jump\t// out\n        /* \"#utility.yul\":15648:16014   */\n    tag_253:\n        /* \"#utility.yul\":15790:15793   */\n      0x00\n        /* \"#utility.yul\":15811:15878   */\n      tag_391\n        /* \"#utility.yul\":15875:15877   */\n      0x26\n        /* \"#utility.yul\":15870:15873   */\n      dup4\n        /* \"#utility.yul\":15811:15878   */\n      tag_214\n      jump\t// in\n    tag_391:\n        /* \"#utility.yul\":15804:15878   */\n      swap2\n      pop\n        /* \"#utility.yul\":15887:15980   */\n      tag_392\n        /* \"#utility.yul\":15976:15979   */\n      dup3\n        /* \"#utility.yul\":15887:15980   */\n      tag_252\n      jump\t// in\n    tag_392:\n        /* \"#utility.yul\":16005:16007   */\n      0x40\n        /* \"#utility.yul\":16000:16003   */\n      dup3\n        /* \"#utility.yul\":15996:16008   */\n      add\n        /* \"#utility.yul\":15989:16008   */\n      swap1\n      pop\n        /* \"#utility.yul\":15648:16014   */\n      swap2\n      swap1\n      pop\n      jump\t// out\n        /* \"#utility.yul\":16020:16439   */\n    tag_210:\n        /* \"#utility.yul\":16186:16190   */\n      0x00\n        /* \"#utility.yul\":16224:16226   */\n      0x20\n        /* \"#utility.yul\":16213:16222   */\n      dup3\n        /* \"#utility.yul\":16209:16227   */\n      add\n        /* \"#utility.yul\":16201:16227   */\n      swap1\n      pop\n        /* \"#utility.yul\":16273:16282   */\n      dup2\n        /* \"#utility.yul\":16267:16271   */\n      dup2\n        /* \"#utility.yul\":16263:16283   */\n      sub\n        /* \"#utility.yul\":16259:16260   */\n      0x00\n        /* \"#utility.yul\":16248:16257   */\n      dup4\n        /* \"#utility.yul\":16244:16261   */\n      add\n        /* \"#utility.yul\":16237:16284   */\n      mstore\n        /* \"#utility.yul\":16301:16432   */\n      tag_394\n        /* \"#utility.yul\":16427:16431   */\n      dup2\n        /* \"#utility.yul\":16301:16432   */\n      tag_253\n      jump\t// in\n    tag_394:\n        /* \"#utility.yul\":16293:16432   */\n      swap1\n      pop\n        /* \"#utility.yul\":16020:16439   */\n      swap2\n      swap1\n      pop\n      jump\t// out\n    stop\n    data_4f3506f4ba71c79c3cbd442a3afeb30e9b27af2d84e116a4385b34e267d2287e 42455032303a207472616e7366657220616d6f756e74206578636565647320616c6c6f77616e6365\n    data_a91efd7a65ef5b4ae4d6568d674798b78a5a89184dd296c100513251c22d3e73 42455032303a207472616e7366657220616d6f756e7420657863656564732062616c616e6365\n    data_b7060b3538dcd3ddc8a941c91636a8115a1aa46914747fd9809d543bbb46cd22 42455032303a2064656372656173656420616c6c6f77616e63652062656c6f77207a65726f\n    data_deaa84b30175fd0578812c46240362b7914652a35e6707ad7e1556891e4ae032 42455032303a206275726e20616d6f756e7420657863656564732062616c616e6365\n\n    auxdata: 0xa26469706673582212208cb3a190539fdc0c61fd55574a3d355d6c76a5cf3f01563356caa2c1a3d3fd9a64736f6c634300081c0033\n}\n",
				"bytecode": {
					"linkReferences": {},
					"object": "608060405234801561000f575f5ffd5b505f61001f61024360201b60201c565b9050805f5f6101000a81548173ffffffffffffffffffffffffffffffffffffffff021916908373ffffffffffffffffffffffffffffffffffffffff1602179055508073ffffffffffffffffffffffffffffffffffffffff165f73ffffffffffffffffffffffffffffffffffffffff167f8be0079c531659141344cd1fd0a4f28419497f9722a3daafe3b4186f6b6457e060405160405180910390a3506040518060400160405280601481526020017f5369676e20446f63756d656e747320436861696e000000000000000000000000815250600690816100ff9190610487565b506040518060400160405280600381526020017f5344430000000000000000000000000000000000000000000000000000000000815250600590816101449190610487565b50601260045f6101000a81548160ff021916908360ff16021790555060045f9054906101000a900460ff1660ff16600a61017e91906106b2565b6302faf08061018d91906106fc565b60038190555060035460015f3373ffffffffffffffffffffffffffffffffffffffff1673ffffffffffffffffffffffffffffffffffffffff1681526020019081526020015f20819055503373ffffffffffffffffffffffffffffffffffffffff165f73ffffffffffffffffffffffffffffffffffffffff167fddf252ad1be2c89b69c2b068fc378daa952ba7f163c4a11628f55a4df523b3ef600354604051610236919061074c565b60405180910390a3610765565b5f33905090565b5f81519050919050565b7f4e487b71000000000000000000000000000000000000000000000000000000005f52604160045260245ffd5b7f4e487b71000000000000000000000000000000000000000000000000000000005f52602260045260245ffd5b5f60028204905060018216806102c557607f821691505b6020821081036102d8576102d7610281565b5b50919050565b5f819050815f5260205f209050919050565b5f6020601f8301049050919050565b5f82821b905092915050565b5f6008830261033a7fffffffffffffffffffffffffffffffffffffffffffffffffffffffffffffffff826102ff565b61034486836102ff565b95508019841693508086168417925050509392505050565b5f819050919050565b5f819050919050565b5f61038861038361037e8461035c565b610365565b61035c565b9050919050565b5f819050919050565b6103a18361036e565b6103b56103ad8261038f565b84845461030b565b825550505050565b5f5f905090565b6103cc6103bd565b6103d7818484610398565b505050565b5b818110156103fa576103ef5f826103c4565b6001810190506103dd565b5050565b601f82111561043f57610410816102de565b610419846102f0565b81016020851015610428578190505b61043c610434856102f0565b8301826103dc565b50505b505050565b5f82821c905092915050565b5f61045f5f1984600802610444565b1980831691505092915050565b5f6104778383610450565b9150826002028217905092915050565b6104908261024a565b67ffffffffffffffff8111156104a9576104a8610254565b5b6104b382546102ae565b6104be8282856103fe565b5f60209050601f8311600181146104ef575f84156104dd578287015190505b6104e7858261046c565b86555061054e565b601f1984166104fd866102de565b5f5b82811015610524578489015182556001820191506020850194506020810190506104ff565b86831015610541578489015161053d601f891682610450565b8355505b6001600288020188555050505b505050505050565b7f4e487b71000000000000000000000000000000000000000000000000000000005f52601160045260245ffd5b5f8160011c9050919050565b5f5f8291508390505b60018511156105d8578086048111156105b4576105b3610556565b5b60018516156105c35780820291505b80810290506105d185610583565b9450610598565b94509492505050565b5f826105f057600190506106ab565b816105fd575f90506106ab565b8160018114610613576002811461061d5761064c565b60019150506106ab565b60ff84111561062f5761062e610556565b5b8360020a91508482111561064657610645610556565b5b506106ab565b5060208310610133831016604e8410600b84101617156106815782820a90508381111561067c5761067b610556565b5b6106ab565b61068e848484600161058f565b925090508184048111156106a5576106a4610556565b5b81810290505b9392505050565b5f6106bc8261035c565b91506106c78361035c565b92506106f47fffffffffffffffffffffffffffffffffffffffffffffffffffffffffffffffff84846105e1565b905092915050565b5f6107068261035c565b91506107118361035c565b925082820261071f8161035c565b9150828204841483151761073657610735610556565b5b5092915050565b6107468161035c565b82525050565b5f60208201905061075f5f83018461073d565b92915050565b611dcf806107725f395ff3fe608060405234801561000f575f5ffd5b5060043610610109575f3560e01c8063715018a6116100a0578063a0712d681161006f578063a0712d68146102a7578063a457c2d7146102d7578063a9059cbb14610307578063dd62ed3e14610337578063f2fde38b1461036757610109565b8063715018a614610243578063893d20e81461024d5780638da5cb5b1461026b57806395d89b411461028957610109565b8063313ce567116100dc578063313ce567146101a957806339509351146101c757806342966c68146101f757806370a082311461021357610109565b806306fdde031461010d578063095ea7b31461012b57806318160ddd1461015b57806323b872dd14610179575b5f5ffd5b610115610383565b60405161012291906114fe565b60405180910390f35b610145600480360381019061014091906115af565b610413565b6040516101529190611607565b60405180910390f35b610163610430565b604051610170919061162f565b60405180910390f35b610193600480360381019061018e9190611648565b610439565b6040516101a09190611607565b60405180910390f35b6101b161050d565b6040516101be91906116b3565b60405180910390f35b6101e160048036038101906101dc91906115af565b610522565b6040516101ee9190611607565b60405180910390f35b610211600480360381019061020c91906116cc565b6105d0565b005b61022d600480360381019061022891906116f7565b6105dd565b60405161023a919061162f565b60405180910390f35b61024b610623565b005b610255610773565b6040516102629190611731565b60405180910390f35b610273610781565b6040516102809190611731565b60405180910390f35b6102916107a8565b60405161029e91906114fe565b60405180910390f35b6102c160048036038101906102bc91906116cc565b610838565b6040516102ce9190611607565b60405180910390f35b6102f160048036038101906102ec91906115af565b6108e8565b6040516102fe9190611607565b60405180910390f35b610321600480360381019061031c91906115af565b6109b0565b60405161032e9190611607565b60405180910390f35b610351600480360381019061034c919061174a565b6109cd565b60405161035e919061162f565b60405180910390f35b610381600480360381019061037c91906116f7565b610a4f565b005b606060068054610392906117b5565b80601f01602080910402602001604051908101604052809291908181526020018280546103be906117b5565b80156104095780601f106103e057610100808354040283529160200191610409565b820191905f5260205f20905b8154815290600101906020018083116103ec57829003601f168201915b5050505050905090565b5f61042661041f610af0565b8484610af7565b6001905092915050565b5f600354905090565b5f610445848484610cba565b61050284610451610af0565b6104fd85604051806060016040528060288152602001611d056028913960025f8b73ffffffffffffffffffffffffffffffffffffffff1673ffffffffffffffffffffffffffffffffffffffff1681526020019081526020015f205f6104b4610af0565b73ffffffffffffffffffffffffffffffffffffffff1673ffffffffffffffffffffffffffffffffffffffff1681526020019081526020015f2054610f3c9092919063ffffffff16565b610af7565b600190509392505050565b5f60045f9054906101000a900460ff16905090565b5f6105c661052e610af0565b846105c18560025f61053e610af0565b73ffffffffffffffffffffffffffffffffffffffff1673ffffffffffffffffffffffffffffffffffffffff1681526020019081526020015f205f8973ffffffffffffffffffffffffffffffffffffffff1673ffffffffffffffffffffffffffffffffffffffff1681526020019081526020015f2054610f9e90919063ffffffff16565b610af7565b6001905092915050565b6105da3382610ffb565b50565b5f60015f8373ffffffffffffffffffffffffffffffffffffffff1673ffffffffffffffffffffffffffffffffffffffff1681526020019081526020015f20549050919050565b61062b610af0565b73ffffffffffffffffffffffffffffffffffffffff165f5f9054906101000a900473ffffffffffffffffffffffffffffffffffffffff1673ffffffffffffffffffffffffffffffffffffffff16146106b8576040517f08c379a00000000000000000000000000000000000000000000000000000000081526004016106af9061182f565b60405180910390fd5b5f73ffffffffffffffffffffffffffffffffffffffff165f5f9054906101000a900473ffffffffffffffffffffffffffffffffffffffff1673ffffffffffffffffffffffffffffffffffffffff167f8be0079c531659141344cd1fd0a4f28419497f9722a3daafe3b4186f6b6457e060405160405180910390a35f5f5f6101000a81548173ffffffffffffffffffffffffffffffffffffffff021916908373ffffffffffffffffffffffffffffffffffffffff160217905550565b5f61077c610781565b905090565b5f5f5f9054906101000a900473ffffffffffffffffffffffffffffffffffffffff16905090565b6060600580546107b7906117b5565b80601f01602080910402602001604051908101604052809291908181526020018280546107e3906117b5565b801561082e5780601f106108055761010080835404028352916020019161082e565b820191905f5260205f20905b81548152906001019060200180831161081157829003601f168201915b5050505050905090565b5f610841610af0565b73ffffffffffffffffffffffffffffffffffffffff165f5f9054906101000a900473ffffffffffffffffffffffffffffffffffffffff1673ffffffffffffffffffffffffffffffffffffffff16146108ce576040517f08c379a00000000000000000000000000000000000000000000000000000000081526004016108c59061182f565b60405180910390fd5b6108df6108d9610af0565b83611198565b60019050919050565b5f6109a66108f4610af0565b846109a185604051806060016040528060258152602001611d536025913960025f61091d610af0565b73ffffffffffffffffffffffffffffffffffffffff1673ffffffffffffffffffffffffffffffffffffffff1681526020019081526020015f205f8a73ffffffffffffffffffffffffffffffffffffffff1673ffffffffffffffffffffffffffffffffffffffff1681526020019081526020015f2054610f3c9092919063ffffffff16565b610af7565b6001905092915050565b5f6109c36109bc610af0565b8484610cba565b6001905092915050565b5f60025f8473ffffffffffffffffffffffffffffffffffffffff1673ffffffffffffffffffffffffffffffffffffffff1681526020019081526020015f205f8373ffffffffffffffffffffffffffffffffffffffff1673ffffffffffffffffffffffffffffffffffffffff1681526020019081526020015f2054905092915050565b610a57610af0565b73ffffffffffffffffffffffffffffffffffffffff165f5f9054906101000a900473ffffffffffffffffffffffffffffffffffffffff1673ffffffffffffffffffffffffffffffffffffffff1614610ae4576040517f08c379a0000000000000000000000000000000000000000000000000000000008152600401610adb9061182f565b60405180910390fd5b610aed8161131b565b50565b5f33905090565b5f73ffffffffffffffffffffffffffffffffffffffff168373ffffffffffffffffffffffffffffffffffffffff1603610b65576040517f08c379a0000000000000000000000000000000000000000000000000000000008152600401610b5c906118bd565b60405180910390fd5b5f73ffffffffffffffffffffffffffffffffffffffff168273ffffffffffffffffffffffffffffffffffffffff1603610bd3576040517f08c379a0000000000000000000000000000000000000000000000000000000008152600401610bca9061194b565b60405180910390fd5b8060025f8573ffffffffffffffffffffffffffffffffffffffff1673ffffffffffffffffffffffffffffffffffffffff1681526020019081526020015f205f8473ffffffffffffffffffffffffffffffffffffffff1673ffffffffffffffffffffffffffffffffffffffff1681526020019081526020015f20819055508173ffffffffffffffffffffffffffffffffffffffff168373ffffffffffffffffffffffffffffffffffffffff167f8c5be1e5ebec7d5bd14f71427d1e84f3dd0314c0f7b2291e5b200ac8c7c3b92583604051610cad919061162f565b60405180910390a3505050565b5f73ffffffffffffffffffffffffffffffffffffffff168373ffffffffffffffffffffffffffffffffffffffff1603610d28576040517f08c379a0000000000000000000000000000000000000000000000000000000008152600401610d1f906119d9565b60405180910390fd5b5f73ffffffffffffffffffffffffffffffffffffffff168273ffffffffffffffffffffffffffffffffffffffff1603610d96576040517f08c379a0000000000000000000000000000000000000000000000000000000008152600401610d8d90611a67565b60405180910390fd5b610e0081604051806060016040528060268152602001611d2d6026913960015f8773ffffffffffffffffffffffffffffffffffffffff1673ffffffffffffffffffffffffffffffffffffffff1681526020019081526020015f2054610f3c9092919063ffffffff16565b60015f8573ffffffffffffffffffffffffffffffffffffffff1673ffffffffffffffffffffffffffffffffffffffff1681526020019081526020015f2081905550610e918160015f8573ffffffffffffffffffffffffffffffffffffffff1673ffffffffffffffffffffffffffffffffffffffff1681526020019081526020015f2054610f9e90919063ffffffff16565b60015f8473ffffffffffffffffffffffffffffffffffffffff1673ffffffffffffffffffffffffffffffffffffffff1681526020019081526020015f20819055508173ffffffffffffffffffffffffffffffffffffffff168373ffffffffffffffffffffffffffffffffffffffff167fddf252ad1be2c89b69c2b068fc378daa952ba7f163c4a11628f55a4df523b3ef83604051610f2f919061162f565b60405180910390a3505050565b5f838311158290610f83576040517f08c379a0000000000000000000000000000000000000000000000000000000008152600401610f7a91906114fe565b60405180910390fd5b505f8385610f919190611ab2565b9050809150509392505050565b5f5f8284610fac9190611ae5565b905083811015610ff1576040517f08c379a0000000000000000000000000000000000000000000000000000000008152600401610fe890611b62565b60405180910390fd5b8091505092915050565b5f73ffffffffffffffffffffffffffffffffffffffff168273ffffffffffffffffffffffffffffffffffffffff1603611069576040517f08c379a000000000000000000000000000000000000000000000000000000000815260040161106090611bf0565b60405180910390fd5b6110d381604051806060016040528060228152602001611d786022913960015f8673ffffffffffffffffffffffffffffffffffffffff1673ffffffffffffffffffffffffffffffffffffffff1681526020019081526020015f2054610f3c9092919063ffffffff16565b60015f8473ffffffffffffffffffffffffffffffffffffffff1673ffffffffffffffffffffffffffffffffffffffff1681526020019081526020015f20819055506111298160035461144590919063ffffffff16565b6003819055505f73ffffffffffffffffffffffffffffffffffffffff168273ffffffffffffffffffffffffffffffffffffffff167fddf252ad1be2c89b69c2b068fc378daa952ba7f163c4a11628f55a4df523b3ef8360405161118c919061162f565b60405180910390a35050565b5f73ffffffffffffffffffffffffffffffffffffffff168273ffffffffffffffffffffffffffffffffffffffff1603611206576040517f08c379a00000000000000000000000000000000000000000000000000000000081526004016111fd90611c58565b60405180910390fd5b61121b81600354610f9e90919063ffffffff16565b6003819055506112718160015f8573ffffffffffffffffffffffffffffffffffffffff1673ffffffffffffffffffffffffffffffffffffffff1681526020019081526020015f2054610f9e90919063ffffffff16565b60015f8473ffffffffffffffffffffffffffffffffffffffff1673ffffffffffffffffffffffffffffffffffffffff1681526020019081526020015f20819055508173ffffffffffffffffffffffffffffffffffffffff165f73ffffffffffffffffffffffffffffffffffffffff167fddf252ad1be2c89b69c2b068fc378daa952ba7f163c4a11628f55a4df523b3ef8360405161130f919061162f565b60405180910390a35050565b5f73ffffffffffffffffffffffffffffffffffffffff168173ffffffffffffffffffffffffffffffffffffffff1603611389576040517f08c379a000000000000000000000000000000000000000000000000000000000815260040161138090611ce6565b60405180910390fd5b8073ffffffffffffffffffffffffffffffffffffffff165f5f9054906101000a900473ffffffffffffffffffffffffffffffffffffffff1673ffffffffffffffffffffffffffffffffffffffff167f8be0079c531659141344cd1fd0a4f28419497f9722a3daafe3b4186f6b6457e060405160405180910390a3805f5f6101000a81548173ffffffffffffffffffffffffffffffffffffffff021916908373ffffffffffffffffffffffffffffffffffffffff16021790555050565b5f61148683836040518060400160405280601e81526020017f536166654d6174683a207375627472616374696f6e206f766572666c6f770000815250610f3c565b905092915050565b5f81519050919050565b5f82825260208201905092915050565b8281835e5f83830152505050565b5f601f19601f8301169050919050565b5f6114d08261148e565b6114da8185611498565b93506114ea8185602086016114a8565b6114f3816114b6565b840191505092915050565b5f6020820190508181035f83015261151681846114c6565b905092915050565b5f5ffd5b5f73ffffffffffffffffffffffffffffffffffffffff82169050919050565b5f61154b82611522565b9050919050565b61155b81611541565b8114611565575f5ffd5b50565b5f8135905061157681611552565b92915050565b5f819050919050565b61158e8161157c565b8114611598575f5ffd5b50565b5f813590506115a981611585565b92915050565b5f5f604083850312156115c5576115c461151e565b5b5f6115d285828601611568565b92505060206115e38582860161159b565b9150509250929050565b5f8115159050919050565b611601816115ed565b82525050565b5f60208201905061161a5f8301846115f8565b92915050565b6116298161157c565b82525050565b5f6020820190506116425f830184611620565b92915050565b5f5f5f6060848603121561165f5761165e61151e565b5b5f61166c86828701611568565b935050602061167d86828701611568565b925050604061168e8682870161159b565b9150509250925092565b5f60ff82169050919050565b6116ad81611698565b82525050565b5f6020820190506116c65f8301846116a4565b92915050565b5f602082840312156116e1576116e061151e565b5b5f6116ee8482850161159b565b91505092915050565b5f6020828403121561170c5761170b61151e565b5b5f61171984828501611568565b91505092915050565b61172b81611541565b82525050565b5f6020820190506117445f830184611722565b92915050565b5f5f604083850312156117605761175f61151e565b5b5f61176d85828601611568565b925050602061177e85828601611568565b9150509250929050565b7f4e487b71000000000000000000000000000000000000000000000000000000005f52602260045260245ffd5b5f60028204905060018216806117cc57607f821691505b6020821081036117df576117de611788565b5b50919050565b7f4f776e61626c653a2063616c6c6572206973206e6f7420746865206f776e65725f82015250565b5f611819602083611498565b9150611824826117e5565b602082019050919050565b5f6020820190508181035f8301526118468161180d565b9050919050565b7f42455032303a20617070726f76652066726f6d20746865207a65726f206164645f8201527f7265737300000000000000000000000000000000000000000000000000000000602082015250565b5f6118a7602483611498565b91506118b28261184d565b604082019050919050565b5f6020820190508181035f8301526118d48161189b565b9050919050565b7f42455032303a20617070726f766520746f20746865207a65726f2061646472655f8201527f7373000000000000000000000000000000000000000000000000000000000000602082015250565b5f611935602283611498565b9150611940826118db565b604082019050919050565b5f6020820190508181035f83015261196281611929565b9050919050565b7f42455032303a207472616e736665722066726f6d20746865207a65726f2061645f8201527f6472657373000000000000000000000000000000000000000000000000000000602082015250565b5f6119c3602583611498565b91506119ce82611969565b604082019050919050565b5f6020820190508181035f8301526119f0816119b7565b9050919050565b7f42455032303a207472616e7366657220746f20746865207a65726f20616464725f8201527f6573730000000000000000000000000000000000000000000000000000000000602082015250565b5f611a51602383611498565b9150611a5c826119f7565b604082019050919050565b5f6020820190508181035f830152611a7e81611a45565b9050919050565b7f4e487b71000000000000000000000000000000000000000000000000000000005f52601160045260245ffd5b5f611abc8261157c565b9150611ac78361157c565b9250828203905081811115611adf57611ade611a85565b5b92915050565b5f611aef8261157c565b9150611afa8361157c565b9250828201905080821115611b1257611b11611a85565b5b92915050565b7f536166654d6174683a206164646974696f6e206f766572666c6f7700000000005f82015250565b5f611b4c601b83611498565b9150611b5782611b18565b602082019050919050565b5f6020820190508181035f830152611b7981611b40565b9050919050565b7f42455032303a206275726e2066726f6d20746865207a65726f206164647265735f8201527f7300000000000000000000000000000000000000000000000000000000000000602082015250565b5f611bda602183611498565b9150611be582611b80565b604082019050919050565b5f6020820190508181035f830152611c0781611bce565b9050919050565b7f42455032303a206d696e7420746f20746865207a65726f2061646472657373005f82015250565b5f611c42601f83611498565b9150611c4d82611c0e565b602082019050919050565b5f6020820190508181035f830152611c6f81611c36565b9050919050565b7f4f776e61626c653a206e6577206f776e657220697320746865207a65726f20615f8201527f6464726573730000000000000000000000000000000000000000000000000000602082015250565b5f611cd0602683611498565b9150611cdb82611c76565b604082019050919050565b5f6020820190508181035f830152611cfd81611cc4565b905091905056fe42455032303a207472616e7366657220616d6f756e74206578636565647320616c6c6f77616e636542455032303a207472616e7366657220616d6f756e7420657863656564732062616c616e636542455032303a2064656372656173656420616c6c6f77616e63652062656c6f77207a65726f42455032303a206275726e20616d6f756e7420657863656564732062616c616e6365a26469706673582212208cb3a190539fdc0c61fd55574a3d355d6c76a5cf3f01563356caa2c1a3d3fd9a64736f6c634300081c0033",
					"opcodes": "PUSH1 0x80 PUSH1 0x40 MSTORE CALLVALUE DUP1 ISZERO PUSH2 0xF JUMPI PUSH0 PUSH0 REVERT JUMPDEST POP PUSH0 PUSH2 0x1F PUSH2 0x243 PUSH1 0x20 SHL PUSH1 0x20 SHR JUMP JUMPDEST SWAP1 POP DUP1 PUSH0 PUSH0 PUSH2 0x100 EXP DUP2 SLOAD DUP2 PUSH20 0xFFFFFFFFFFFFFFFFFFFFFFFFFFFFFFFFFFFFFFFF MUL NOT AND SWAP1 DUP4 PUSH20 0xFFFFFFFFFFFFFFFFFFFFFFFFFFFFFFFFFFFFFFFF AND MUL OR SWAP1 SSTORE POP DUP1 PUSH20 0xFFFFFFFFFFFFFFFFFFFFFFFFFFFFFFFFFFFFFFFF AND PUSH0 PUSH20 0xFFFFFFFFFFFFFFFFFFFFFFFFFFFFFFFFFFFFFFFF AND PUSH32 0x8BE0079C531659141344CD1FD0A4F28419497F9722A3DAAFE3B4186F6B6457E0 PUSH1 0x40 MLOAD PUSH1 0x40 MLOAD DUP1 SWAP2 SUB SWAP1 LOG3 POP PUSH1 0x40 MLOAD DUP1 PUSH1 0x40 ADD PUSH1 0x40 MSTORE DUP1 PUSH1 0x14 DUP2 MSTORE PUSH1 0x20 ADD PUSH32 0x5369676E20446F63756D656E747320436861696E000000000000000000000000 DUP2 MSTORE POP PUSH1 0x6 SWAP1 DUP2 PUSH2 0xFF SWAP2 SWAP1 PUSH2 0x487 JUMP JUMPDEST POP PUSH1 0x40 MLOAD DUP1 PUSH1 0x40 ADD PUSH1 0x40 MSTORE DUP1 PUSH1 0x3 DUP2 MSTORE PUSH1 0x20 ADD PUSH32 0x5344430000000000000000000000000000000000000000000000000000000000 DUP2 MSTORE POP PUSH1 0x5 SWAP1 DUP2 PUSH2 0x144 SWAP2 SWAP1 PUSH2 0x487 JUMP JUMPDEST POP PUSH1 0x12 PUSH1 0x4 PUSH0 PUSH2 0x100 EXP DUP2 SLOAD DUP2 PUSH1 0xFF MUL NOT AND SWAP1 DUP4 PUSH1 0xFF AND MUL OR SWAP1 SSTORE POP PUSH1 0x4 PUSH0 SWAP1 SLOAD SWAP1 PUSH2 0x100 EXP SWAP1 DIV PUSH1 0xFF AND PUSH1 0xFF AND PUSH1 0xA PUSH2 0x17E SWAP2 SWAP1 PUSH2 0x6B2 JUMP JUMPDEST PUSH4 0x2FAF080 PUSH2 0x18D SWAP2 SWAP1 PUSH2 0x6FC JUMP JUMPDEST PUSH1 0x3 DUP2 SWAP1 SSTORE POP PUSH1 0x3 SLOAD PUSH1 0x1 PUSH0 CALLER PUSH20 0xFFFFFFFFFFFFFFFFFFFFFFFFFFFFFFFFFFFFFFFF AND PUSH20 0xFFFFFFFFFFFFFFFFFFFFFFFFFFFFFFFFFFFFFFFF AND DUP2 MSTORE PUSH1 0x20 ADD SWAP1 DUP2 MSTORE PUSH1 0x20 ADD PUSH0 KECCAK256 DUP2 SWAP1 SSTORE POP CALLER PUSH20 0xFFFFFFFFFFFFFFFFFFFFFFFFFFFFFFFFFFFFFFFF AND PUSH0 PUSH20 0xFFFFFFFFFFFFFFFFFFFFFFFFFFFFFFFFFFFFFFFF AND PUSH32 0xDDF252AD1BE2C89B69C2B068FC378DAA952BA7F163C4A11628F55A4DF523B3EF PUSH1 0x3 SLOAD PUSH1 0x40 MLOAD PUSH2 0x236 SWAP2 SWAP1 PUSH2 0x74C JUMP JUMPDEST PUSH1 0x40 MLOAD DUP1 SWAP2 SUB SWAP1 LOG3 PUSH2 0x765 JUMP JUMPDEST PUSH0 CALLER SWAP1 POP SWAP1 JUMP JUMPDEST PUSH0 DUP2 MLOAD SWAP1 POP SWAP2 SWAP1 POP JUMP JUMPDEST PUSH32 0x4E487B7100000000000000000000000000000000000000000000000000000000 PUSH0 MSTORE PUSH1 0x41 PUSH1 0x4 MSTORE PUSH1 0x24 PUSH0 REVERT JUMPDEST PUSH32 0x4E487B7100000000000000000000000000000000000000000000000000000000 PUSH0 MSTORE PUSH1 0x22 PUSH1 0x4 MSTORE PUSH1 0x24 PUSH0 REVERT JUMPDEST PUSH0 PUSH1 0x2 DUP3 DIV SWAP1 POP PUSH1 0x1 DUP3 AND DUP1 PUSH2 0x2C5 JUMPI PUSH1 0x7F DUP3 AND SWAP2 POP JUMPDEST PUSH1 0x20 DUP3 LT DUP2 SUB PUSH2 0x2D8 JUMPI PUSH2 0x2D7 PUSH2 0x281 JUMP JUMPDEST JUMPDEST POP SWAP2 SWAP1 POP JUMP JUMPDEST PUSH0 DUP2 SWAP1 POP DUP2 PUSH0 MSTORE PUSH1 0x20 PUSH0 KECCAK256 SWAP1 POP SWAP2 SWAP1 POP JUMP JUMPDEST PUSH0 PUSH1 0x20 PUSH1 0x1F DUP4 ADD DIV SWAP1 POP SWAP2 SWAP1 POP JUMP JUMPDEST PUSH0 DUP3 DUP3 SHL SWAP1 POP SWAP3 SWAP2 POP POP JUMP JUMPDEST PUSH0 PUSH1 0x8 DUP4 MUL PUSH2 0x33A PUSH32 0xFFFFFFFFFFFFFFFFFFFFFFFFFFFFFFFFFFFFFFFFFFFFFFFFFFFFFFFFFFFFFFFF DUP3 PUSH2 0x2FF JUMP JUMPDEST PUSH2 0x344 DUP7 DUP4 PUSH2 0x2FF JUMP JUMPDEST SWAP6 POP DUP1 NOT DUP5 AND SWAP4 POP DUP1 DUP7 AND DUP5 OR SWAP3 POP POP POP SWAP4 SWAP3 POP POP POP JUMP JUMPDEST PUSH0 DUP2 SWAP1 POP SWAP2 SWAP1 POP JUMP JUMPDEST PUSH0 DUP2 SWAP1 POP SWAP2 SWAP1 POP JUMP JUMPDEST PUSH0 PUSH2 0x388 PUSH2 0x383 PUSH2 0x37E DUP5 PUSH2 0x35C JUMP JUMPDEST PUSH2 0x365 JUMP JUMPDEST PUSH2 0x35C JUMP JUMPDEST SWAP1 POP SWAP2 SWAP1 POP JUMP JUMPDEST PUSH0 DUP2 SWAP1 POP SWAP2 SWAP1 POP JUMP JUMPDEST PUSH2 0x3A1 DUP4 PUSH2 0x36E JUMP JUMPDEST PUSH2 0x3B5 PUSH2 0x3AD DUP3 PUSH2 0x38F JUMP JUMPDEST DUP5 DUP5 SLOAD PUSH2 0x30B JUMP JUMPDEST DUP3 SSTORE POP POP POP POP JUMP JUMPDEST PUSH0 PUSH0 SWAP1 POP SWAP1 JUMP JUMPDEST PUSH2 0x3CC PUSH2 0x3BD JUMP JUMPDEST PUSH2 0x3D7 DUP2 DUP5 DUP5 PUSH2 0x398 JUMP JUMPDEST POP POP POP JUMP JUMPDEST JUMPDEST DUP2 DUP2 LT ISZERO PUSH2 0x3FA JUMPI PUSH2 0x3EF PUSH0 DUP3 PUSH2 0x3C4 JUMP JUMPDEST PUSH1 0x1 DUP2 ADD SWAP1 POP PUSH2 0x3DD JUMP JUMPDEST POP POP JUMP JUMPDEST PUSH1 0x1F DUP3 GT ISZERO PUSH2 0x43F JUMPI PUSH2 0x410 DUP2 PUSH2 0x2DE JUMP JUMPDEST PUSH2 0x419 DUP5 PUSH2 0x2F0 JUMP JUMPDEST DUP2 ADD PUSH1 0x20 DUP6 LT ISZERO PUSH2 0x428 JUMPI DUP2 SWAP1 POP JUMPDEST PUSH2 0x43C PUSH2 0x434 DUP6 PUSH2 0x2F0 JUMP JUMPDEST DUP4 ADD DUP3 PUSH2 0x3DC JUMP JUMPDEST POP POP JUMPDEST POP POP POP JUMP JUMPDEST PUSH0 DUP3 DUP3 SHR SWAP1 POP SWAP3 SWAP2 POP POP JUMP JUMPDEST PUSH0 PUSH2 0x45F PUSH0 NOT DUP5 PUSH1 0x8 MUL PUSH2 0x444 JUMP JUMPDEST NOT DUP1 DUP4 AND SWAP2 POP POP SWAP3 SWAP2 POP POP JUMP JUMPDEST PUSH0 PUSH2 0x477 DUP4 DUP4 PUSH2 0x450 JUMP JUMPDEST SWAP2 POP DUP3 PUSH1 0x2 MUL DUP3 OR SWAP1 POP SWAP3 SWAP2 POP POP JUMP JUMPDEST PUSH2 0x490 DUP3 PUSH2 0x24A JUMP JUMPDEST PUSH8 0xFFFFFFFFFFFFFFFF DUP2 GT ISZERO PUSH2 0x4A9 JUMPI PUSH2 0x4A8 PUSH2 0x254 JUMP JUMPDEST JUMPDEST PUSH2 0x4B3 DUP3 SLOAD PUSH2 0x2AE JUMP JUMPDEST PUSH2 0x4BE DUP3 DUP3 DUP6 PUSH2 0x3FE JUMP JUMPDEST PUSH0 PUSH1 0x20 SWAP1 POP PUSH1 0x1F DUP4 GT PUSH1 0x1 DUP2 EQ PUSH2 0x4EF JUMPI PUSH0 DUP5 ISZERO PUSH2 0x4DD JUMPI DUP3 DUP8 ADD MLOAD SWAP1 POP JUMPDEST PUSH2 0x4E7 DUP6 DUP3 PUSH2 0x46C JUMP JUMPDEST DUP7 SSTORE POP PUSH2 0x54E JUMP JUMPDEST PUSH1 0x1F NOT DUP5 AND PUSH2 0x4FD DUP7 PUSH2 0x2DE JUMP JUMPDEST PUSH0 JUMPDEST DUP3 DUP2 LT ISZERO PUSH2 0x524 JUMPI DUP5 DUP10 ADD MLOAD DUP3 SSTORE PUSH1 0x1 DUP3 ADD SWAP2 POP PUSH1 0x20 DUP6 ADD SWAP5 POP PUSH1 0x20 DUP2 ADD SWAP1 POP PUSH2 0x4FF JUMP JUMPDEST DUP7 DUP4 LT ISZERO PUSH2 0x541 JUMPI DUP5 DUP10 ADD MLOAD PUSH2 0x53D PUSH1 0x1F DUP10 AND DUP3 PUSH2 0x450 JUMP JUMPDEST DUP4 SSTORE POP JUMPDEST PUSH1 0x1 PUSH1 0x2 DUP9 MUL ADD DUP9 SSTORE POP POP POP JUMPDEST POP POP POP POP POP POP JUMP JUMPDEST PUSH32 0x4E487B7100000000000000000000000000000000000000000000000000000000 PUSH0 MSTORE PUSH1 0x11 PUSH1 0x4 MSTORE PUSH1 0x24 PUSH0 REVERT JUMPDEST PUSH0 DUP2 PUSH1 0x1 SHR SWAP1 POP SWAP2 SWAP1 POP JUMP JUMPDEST PUSH0 PUSH0 DUP3 SWAP2 POP DUP4 SWAP1 POP JUMPDEST PUSH1 0x1 DUP6 GT ISZERO PUSH2 0x5D8 JUMPI DUP1 DUP7 DIV DUP2 GT ISZERO PUSH2 0x5B4 JUMPI PUSH2 0x5B3 PUSH2 0x556 JUMP JUMPDEST JUMPDEST PUSH1 0x1 DUP6 AND ISZERO PUSH2 0x5C3 JUMPI DUP1 DUP3 MUL SWAP2 POP JUMPDEST DUP1 DUP2 MUL SWAP1 POP PUSH2 0x5D1 DUP6 PUSH2 0x583 JUMP JUMPDEST SWAP5 POP PUSH2 0x598 JUMP JUMPDEST SWAP5 POP SWAP5 SWAP3 POP POP POP JUMP JUMPDEST PUSH0 DUP3 PUSH2 0x5F0 JUMPI PUSH1 0x1 SWAP1 POP PUSH2 0x6AB JUMP JUMPDEST DUP2 PUSH2 0x5FD JUMPI PUSH0 SWAP1 POP PUSH2 0x6AB JUMP JUMPDEST DUP2 PUSH1 0x1 DUP2 EQ PUSH2 0x613 JUMPI PUSH1 0x2 DUP2 EQ PUSH2 0x61D JUMPI PUSH2 0x64C JUMP JUMPDEST PUSH1 0x1 SWAP2 POP POP PUSH2 0x6AB JUMP JUMPDEST PUSH1 0xFF DUP5 GT ISZERO PUSH2 0x62F JUMPI PUSH2 0x62E PUSH2 0x556 JUMP JUMPDEST JUMPDEST DUP4 PUSH1 0x2 EXP SWAP2 POP DUP5 DUP3 GT ISZERO PUSH2 0x646 JUMPI PUSH2 0x645 PUSH2 0x556 JUMP JUMPDEST JUMPDEST POP PUSH2 0x6AB JUMP JUMPDEST POP PUSH1 0x20 DUP4 LT PUSH2 0x133 DUP4 LT AND PUSH1 0x4E DUP5 LT PUSH1 0xB DUP5 LT AND OR ISZERO PUSH2 0x681 JUMPI DUP3 DUP3 EXP SWAP1 POP DUP4 DUP2 GT ISZERO PUSH2 0x67C JUMPI PUSH2 0x67B PUSH2 0x556 JUMP JUMPDEST JUMPDEST PUSH2 0x6AB JUMP JUMPDEST PUSH2 0x68E DUP5 DUP5 DUP5 PUSH1 0x1 PUSH2 0x58F JUMP JUMPDEST SWAP3 POP SWAP1 POP DUP2 DUP5 DIV DUP2 GT ISZERO PUSH2 0x6A5 JUMPI PUSH2 0x6A4 PUSH2 0x556 JUMP JUMPDEST JUMPDEST DUP2 DUP2 MUL SWAP1 POP JUMPDEST SWAP4 SWAP3 POP POP POP JUMP JUMPDEST PUSH0 PUSH2 0x6BC DUP3 PUSH2 0x35C JUMP JUMPDEST SWAP2 POP PUSH2 0x6C7 DUP4 PUSH2 0x35C JUMP JUMPDEST SWAP3 POP PUSH2 0x6F4 PUSH32 0xFFFFFFFFFFFFFFFFFFFFFFFFFFFFFFFFFFFFFFFFFFFFFFFFFFFFFFFFFFFFFFFF DUP5 DUP5 PUSH2 0x5E1 JUMP JUMPDEST SWAP1 POP SWAP3 SWAP2 POP POP JUMP JUMPDEST PUSH0 PUSH2 0x706 DUP3 PUSH2 0x35C JUMP JUMPDEST SWAP2 POP PUSH2 0x711 DUP4 PUSH2 0x35C JUMP JUMPDEST SWAP3 POP DUP3 DUP3 MUL PUSH2 0x71F DUP2 PUSH2 0x35C JUMP JUMPDEST SWAP2 POP DUP3 DUP3 DIV DUP5 EQ DUP4 ISZERO OR PUSH2 0x736 JUMPI PUSH2 0x735 PUSH2 0x556 JUMP JUMPDEST JUMPDEST POP SWAP3 SWAP2 POP POP JUMP JUMPDEST PUSH2 0x746 DUP2 PUSH2 0x35C JUMP JUMPDEST DUP3 MSTORE POP POP JUMP JUMPDEST PUSH0 PUSH1 0x20 DUP3 ADD SWAP1 POP PUSH2 0x75F PUSH0 DUP4 ADD DUP5 PUSH2 0x73D JUMP JUMPDEST SWAP3 SWAP2 POP POP JUMP JUMPDEST PUSH2 0x1DCF DUP1 PUSH2 0x772 PUSH0 CODECOPY PUSH0 RETURN INVALID PUSH1 0x80 PUSH1 0x40 MSTORE CALLVALUE DUP1 ISZERO PUSH2 0xF JUMPI PUSH0 PUSH0 REVERT JUMPDEST POP PUSH1 0x4 CALLDATASIZE LT PUSH2 0x109 JUMPI PUSH0 CALLDATALOAD PUSH1 0xE0 SHR DUP1 PUSH4 0x715018A6 GT PUSH2 0xA0 JUMPI DUP1 PUSH4 0xA0712D68 GT PUSH2 0x6F JUMPI DUP1 PUSH4 0xA0712D68 EQ PUSH2 0x2A7 JUMPI DUP1 PUSH4 0xA457C2D7 EQ PUSH2 0x2D7 JUMPI DUP1 PUSH4 0xA9059CBB EQ PUSH2 0x307 JUMPI DUP1 PUSH4 0xDD62ED3E EQ PUSH2 0x337 JUMPI DUP1 PUSH4 0xF2FDE38B EQ PUSH2 0x367 JUMPI PUSH2 0x109 JUMP JUMPDEST DUP1 PUSH4 0x715018A6 EQ PUSH2 0x243 JUMPI DUP1 PUSH4 0x893D20E8 EQ PUSH2 0x24D JUMPI DUP1 PUSH4 0x8DA5CB5B EQ PUSH2 0x26B JUMPI DUP1 PUSH4 0x95D89B41 EQ PUSH2 0x289 JUMPI PUSH2 0x109 JUMP JUMPDEST DUP1 PUSH4 0x313CE567 GT PUSH2 0xDC JUMPI DUP1 PUSH4 0x313CE567 EQ PUSH2 0x1A9 JUMPI DUP1 PUSH4 0x39509351 EQ PUSH2 0x1C7 JUMPI DUP1 PUSH4 0x42966C68 EQ PUSH2 0x1F7 JUMPI DUP1 PUSH4 0x70A08231 EQ PUSH2 0x213 JUMPI PUSH2 0x109 JUMP JUMPDEST DUP1 PUSH4 0x6FDDE03 EQ PUSH2 0x10D JUMPI DUP1 PUSH4 0x95EA7B3 EQ PUSH2 0x12B JUMPI DUP1 PUSH4 0x18160DDD EQ PUSH2 0x15B JUMPI DUP1 PUSH4 0x23B872DD EQ PUSH2 0x179 JUMPI JUMPDEST PUSH0 PUSH0 REVERT JUMPDEST PUSH2 0x115 PUSH2 0x383 JUMP JUMPDEST PUSH1 0x40 MLOAD PUSH2 0x122 SWAP2 SWAP1 PUSH2 0x14FE JUMP JUMPDEST PUSH1 0x40 MLOAD DUP1 SWAP2 SUB SWAP1 RETURN JUMPDEST PUSH2 0x145 PUSH1 0x4 DUP1 CALLDATASIZE SUB DUP2 ADD SWAP1 PUSH2 0x140 SWAP2 SWAP1 PUSH2 0x15AF JUMP JUMPDEST PUSH2 0x413 JUMP JUMPDEST PUSH1 0x40 MLOAD PUSH2 0x152 SWAP2 SWAP1 PUSH2 0x1607 JUMP JUMPDEST PUSH1 0x40 MLOAD DUP1 SWAP2 SUB SWAP1 RETURN JUMPDEST PUSH2 0x163 PUSH2 0x430 JUMP JUMPDEST PUSH1 0x40 MLOAD PUSH2 0x170 SWAP2 SWAP1 PUSH2 0x162F JUMP JUMPDEST PUSH1 0x40 MLOAD DUP1 SWAP2 SUB SWAP1 RETURN JUMPDEST PUSH2 0x193 PUSH1 0x4 DUP1 CALLDATASIZE SUB DUP2 ADD SWAP1 PUSH2 0x18E SWAP2 SWAP1 PUSH2 0x1648 JUMP JUMPDEST PUSH2 0x439 JUMP JUMPDEST PUSH1 0x40 MLOAD PUSH2 0x1A0 SWAP2 SWAP1 PUSH2 0x1607 JUMP JUMPDEST PUSH1 0x40 MLOAD DUP1 SWAP2 SUB SWAP1 RETURN JUMPDEST PUSH2 0x1B1 PUSH2 0x50D JUMP JUMPDEST PUSH1 0x40 MLOAD PUSH2 0x1BE SWAP2 SWAP1 PUSH2 0x16B3 JUMP JUMPDEST PUSH1 0x40 MLOAD DUP1 SWAP2 SUB SWAP1 RETURN JUMPDEST PUSH2 0x1E1 PUSH1 0x4 DUP1 CALLDATASIZE SUB DUP2 ADD SWAP1 PUSH2 0x1DC SWAP2 SWAP1 PUSH2 0x15AF JUMP JUMPDEST PUSH2 0x522 JUMP JUMPDEST PUSH1 0x40 MLOAD PUSH2 0x1EE SWAP2 SWAP1 PUSH2 0x1607 JUMP JUMPDEST PUSH1 0x40 MLOAD DUP1 SWAP2 SUB SWAP1 RETURN JUMPDEST PUSH2 0x211 PUSH1 0x4 DUP1 CALLDATASIZE SUB DUP2 ADD SWAP1 PUSH2 0x20C SWAP2 SWAP1 PUSH2 0x16CC JUMP JUMPDEST PUSH2 0x5D0 JUMP JUMPDEST STOP JUMPDEST PUSH2 0x22D PUSH1 0x4 DUP1 CALLDATASIZE SUB DUP2 ADD SWAP1 PUSH2 0x228 SWAP2 SWAP1 PUSH2 0x16F7 JUMP JUMPDEST PUSH2 0x5DD JUMP JUMPDEST PUSH1 0x40 MLOAD PUSH2 0x23A SWAP2 SWAP1 PUSH2 0x162F JUMP JUMPDEST PUSH1 0x40 MLOAD DUP1 SWAP2 SUB SWAP1 RETURN JUMPDEST PUSH2 0x24B PUSH2 0x623 JUMP JUMPDEST STOP JUMPDEST PUSH2 0x255 PUSH2 0x773 JUMP JUMPDEST PUSH1 0x40 MLOAD PUSH2 0x262 SWAP2 SWAP1 PUSH2 0x1731 JUMP JUMPDEST PUSH1 0x40 MLOAD DUP1 SWAP2 SUB SWAP1 RETURN JUMPDEST PUSH2 0x273 PUSH2 0x781 JUMP JUMPDEST PUSH1 0x40 MLOAD PUSH2 0x280 SWAP2 SWAP1 PUSH2 0x1731 JUMP JUMPDEST PUSH1 0x40 MLOAD DUP1 SWAP2 SUB SWAP1 RETURN JUMPDEST PUSH2 0x291 PUSH2 0x7A8 JUMP JUMPDEST PUSH1 0x40 MLOAD PUSH2 0x29E SWAP2 SWAP1 PUSH2 0x14FE JUMP JUMPDEST PUSH1 0x40 MLOAD DUP1 SWAP2 SUB SWAP1 RETURN JUMPDEST PUSH2 0x2C1 PUSH1 0x4 DUP1 CALLDATASIZE SUB DUP2 ADD SWAP1 PUSH2 0x2BC SWAP2 SWAP1 PUSH2 0x16CC JUMP JUMPDEST PUSH2 0x838 JUMP JUMPDEST PUSH1 0x40 MLOAD PUSH2 0x2CE SWAP2 SWAP1 PUSH2 0x1607 JUMP JUMPDEST PUSH1 0x40 MLOAD DUP1 SWAP2 SUB SWAP1 RETURN JUMPDEST PUSH2 0x2F1 PUSH1 0x4 DUP1 CALLDATASIZE SUB DUP2 ADD SWAP1 PUSH2 0x2EC SWAP2 SWAP1 PUSH2 0x15AF JUMP JUMPDEST PUSH2 0x8E8 JUMP JUMPDEST PUSH1 0x40 MLOAD PUSH2 0x2FE SWAP2 SWAP1 PUSH2 0x1607 JUMP JUMPDEST PUSH1 0x40 MLOAD DUP1 SWAP2 SUB SWAP1 RETURN JUMPDEST PUSH2 0x321 PUSH1 0x4 DUP1 CALLDATASIZE SUB DUP2 ADD SWAP1 PUSH2 0x31C SWAP2 SWAP1 PUSH2 0x15AF JUMP JUMPDEST PUSH2 0x9B0 JUMP JUMPDEST PUSH1 0x40 MLOAD PUSH2 0x32E SWAP2 SWAP1 PUSH2 0x1607 JUMP JUMPDEST PUSH1 0x40 MLOAD DUP1 SWAP2 SUB SWAP1 RETURN JUMPDEST PUSH2 0x351 PUSH1 0x4 DUP1 CALLDATASIZE SUB DUP2 ADD SWAP1 PUSH2 0x34C SWAP2 SWAP1 PUSH2 0x174A JUMP JUMPDEST PUSH2 0x9CD JUMP JUMPDEST PUSH1 0x40 MLOAD PUSH2 0x35E SWAP2 SWAP1 PUSH2 0x162F JUMP JUMPDEST PUSH1 0x40 MLOAD DUP1 SWAP2 SUB SWAP1 RETURN JUMPDEST PUSH2 0x381 PUSH1 0x4 DUP1 CALLDATASIZE SUB DUP2 ADD SWAP1 PUSH2 0x37C SWAP2 SWAP1 PUSH2 0x16F7 JUMP JUMPDEST PUSH2 0xA4F JUMP JUMPDEST STOP JUMPDEST PUSH1 0x60 PUSH1 0x6 DUP1 SLOAD PUSH2 0x392 SWAP1 PUSH2 0x17B5 JUMP JUMPDEST DUP1 PUSH1 0x1F ADD PUSH1 0x20 DUP1 SWAP2 DIV MUL PUSH1 0x20 ADD PUSH1 0x40 MLOAD SWAP1 DUP2 ADD PUSH1 0x40 MSTORE DUP1 SWAP3 SWAP2 SWAP1 DUP2 DUP2 MSTORE PUSH1 0x20 ADD DUP3 DUP1 SLOAD PUSH2 0x3BE SWAP1 PUSH2 0x17B5 JUMP JUMPDEST DUP1 ISZERO PUSH2 0x409 JUMPI DUP1 PUSH1 0x1F LT PUSH2 0x3E0 JUMPI PUSH2 0x100 DUP1 DUP4 SLOAD DIV MUL DUP4 MSTORE SWAP2 PUSH1 0x20 ADD SWAP2 PUSH2 0x409 JUMP JUMPDEST DUP3 ADD SWAP2 SWAP1 PUSH0 MSTORE PUSH1 0x20 PUSH0 KECCAK256 SWAP1 JUMPDEST DUP2 SLOAD DUP2 MSTORE SWAP1 PUSH1 0x1 ADD SWAP1 PUSH1 0x20 ADD DUP1 DUP4 GT PUSH2 0x3EC JUMPI DUP3 SWAP1 SUB PUSH1 0x1F AND DUP3 ADD SWAP2 JUMPDEST POP POP POP POP POP SWAP1 POP SWAP1 JUMP JUMPDEST PUSH0 PUSH2 0x426 PUSH2 0x41F PUSH2 0xAF0 JUMP JUMPDEST DUP5 DUP5 PUSH2 0xAF7 JUMP JUMPDEST PUSH1 0x1 SWAP1 POP SWAP3 SWAP2 POP POP JUMP JUMPDEST PUSH0 PUSH1 0x3 SLOAD SWAP1 POP SWAP1 JUMP JUMPDEST PUSH0 PUSH2 0x445 DUP5 DUP5 DUP5 PUSH2 0xCBA JUMP JUMPDEST PUSH2 0x502 DUP5 PUSH2 0x451 PUSH2 0xAF0 JUMP JUMPDEST PUSH2 0x4FD DUP6 PUSH1 0x40 MLOAD DUP1 PUSH1 0x60 ADD PUSH1 0x40 MSTORE DUP1 PUSH1 0x28 DUP2 MSTORE PUSH1 0x20 ADD PUSH2 0x1D05 PUSH1 0x28 SWAP2 CODECOPY PUSH1 0x2 PUSH0 DUP12 PUSH20 0xFFFFFFFFFFFFFFFFFFFFFFFFFFFFFFFFFFFFFFFF AND PUSH20 0xFFFFFFFFFFFFFFFFFFFFFFFFFFFFFFFFFFFFFFFF AND DUP2 MSTORE PUSH1 0x20 ADD SWAP1 DUP2 MSTORE PUSH1 0x20 ADD PUSH0 KECCAK256 PUSH0 PUSH2 0x4B4 PUSH2 0xAF0 JUMP JUMPDEST PUSH20 0xFFFFFFFFFFFFFFFFFFFFFFFFFFFFFFFFFFFFFFFF AND PUSH20 0xFFFFFFFFFFFFFFFFFFFFFFFFFFFFFFFFFFFFFFFF AND DUP2 MSTORE PUSH1 0x20 ADD SWAP1 DUP2 MSTORE PUSH1 0x20 ADD PUSH0 KECCAK256 SLOAD PUSH2 0xF3C SWAP1 SWAP3 SWAP2 SWAP1 PUSH4 0xFFFFFFFF AND JUMP JUMPDEST PUSH2 0xAF7 JUMP JUMPDEST PUSH1 0x1 SWAP1 POP SWAP4 SWAP3 POP POP POP JUMP JUMPDEST PUSH0 PUSH1 0x4 PUSH0 SWAP1 SLOAD SWAP1 PUSH2 0x100 EXP SWAP1 DIV PUSH1 0xFF AND SWAP1 POP SWAP1 JUMP JUMPDEST PUSH0 PUSH2 0x5C6 PUSH2 0x52E PUSH2 0xAF0 JUMP JUMPDEST DUP5 PUSH2 0x5C1 DUP6 PUSH1 0x2 PUSH0 PUSH2 0x53E PUSH2 0xAF0 JUMP JUMPDEST PUSH20 0xFFFFFFFFFFFFFFFFFFFFFFFFFFFFFFFFFFFFFFFF AND PUSH20 0xFFFFFFFFFFFFFFFFFFFFFFFFFFFFFFFFFFFFFFFF AND DUP2 MSTORE PUSH1 0x20 ADD SWAP1 DUP2 MSTORE PUSH1 0x20 ADD PUSH0 KECCAK256 PUSH0 DUP10 PUSH20 0xFFFFFFFFFFFFFFFFFFFFFFFFFFFFFFFFFFFFFFFF AND PUSH20 0xFFFFFFFFFFFFFFFFFFFFFFFFFFFFFFFFFFFFFFFF AND DUP2 MSTORE PUSH1 0x20 ADD SWAP1 DUP2 MSTORE PUSH1 0x20 ADD PUSH0 KECCAK256 SLOAD PUSH2 0xF9E SWAP1 SWAP2 SWAP1 PUSH4 0xFFFFFFFF AND JUMP JUMPDEST PUSH2 0xAF7 JUMP JUMPDEST PUSH1 0x1 SWAP1 POP SWAP3 SWAP2 POP POP JUMP JUMPDEST PUSH2 0x5DA CALLER DUP3 PUSH2 0xFFB JUMP JUMPDEST POP JUMP JUMPDEST PUSH0 PUSH1 0x1 PUSH0 DUP4 PUSH20 0xFFFFFFFFFFFFFFFFFFFFFFFFFFFFFFFFFFFFFFFF AND PUSH20 0xFFFFFFFFFFFFFFFFFFFFFFFFFFFFFFFFFFFFFFFF AND DUP2 MSTORE PUSH1 0x20 ADD SWAP1 DUP2 MSTORE PUSH1 0x20 ADD PUSH0 KECCAK256 SLOAD SWAP1 POP SWAP2 SWAP1 POP JUMP JUMPDEST PUSH2 0x62B PUSH2 0xAF0 JUMP JUMPDEST PUSH20 0xFFFFFFFFFFFFFFFFFFFFFFFFFFFFFFFFFFFFFFFF AND PUSH0 PUSH0 SWAP1 SLOAD SWAP1 PUSH2 0x100 EXP SWAP1 DIV PUSH20 0xFFFFFFFFFFFFFFFFFFFFFFFFFFFFFFFFFFFFFFFF AND PUSH20 0xFFFFFFFFFFFFFFFFFFFFFFFFFFFFFFFFFFFFFFFF AND EQ PUSH2 0x6B8 JUMPI PUSH1 0x40 MLOAD PUSH32 0x8C379A000000000000000000000000000000000000000000000000000000000 DUP2 MSTORE PUSH1 0x4 ADD PUSH2 0x6AF SWAP1 PUSH2 0x182F JUMP JUMPDEST PUSH1 0x40 MLOAD DUP1 SWAP2 SUB SWAP1 REVERT JUMPDEST PUSH0 PUSH20 0xFFFFFFFFFFFFFFFFFFFFFFFFFFFFFFFFFFFFFFFF AND PUSH0 PUSH0 SWAP1 SLOAD SWAP1 PUSH2 0x100 EXP SWAP1 DIV PUSH20 0xFFFFFFFFFFFFFFFFFFFFFFFFFFFFFFFFFFFFFFFF AND PUSH20 0xFFFFFFFFFFFFFFFFFFFFFFFFFFFFFFFFFFFFFFFF AND PUSH32 0x8BE0079C531659141344CD1FD0A4F28419497F9722A3DAAFE3B4186F6B6457E0 PUSH1 0x40 MLOAD PUSH1 0x40 MLOAD DUP1 SWAP2 SUB SWAP1 LOG3 PUSH0 PUSH0 PUSH0 PUSH2 0x100 EXP DUP2 SLOAD DUP2 PUSH20 0xFFFFFFFFFFFFFFFFFFFFFFFFFFFFFFFFFFFFFFFF MUL NOT AND SWAP1 DUP4 PUSH20 0xFFFFFFFFFFFFFFFFFFFFFFFFFFFFFFFFFFFFFFFF AND MUL OR SWAP1 SSTORE POP JUMP JUMPDEST PUSH0 PUSH2 0x77C PUSH2 0x781 JUMP JUMPDEST SWAP1 POP SWAP1 JUMP JUMPDEST PUSH0 PUSH0 PUSH0 SWAP1 SLOAD SWAP1 PUSH2 0x100 EXP SWAP1 DIV PUSH20 0xFFFFFFFFFFFFFFFFFFFFFFFFFFFFFFFFFFFFFFFF AND SWAP1 POP SWAP1 JUMP JUMPDEST PUSH1 0x60 PUSH1 0x5 DUP1 SLOAD PUSH2 0x7B7 SWAP1 PUSH2 0x17B5 JUMP JUMPDEST DUP1 PUSH1 0x1F ADD PUSH1 0x20 DUP1 SWAP2 DIV MUL PUSH1 0x20 ADD PUSH1 0x40 MLOAD SWAP1 DUP2 ADD PUSH1 0x40 MSTORE DUP1 SWAP3 SWAP2 SWAP1 DUP2 DUP2 MSTORE PUSH1 0x20 ADD DUP3 DUP1 SLOAD PUSH2 0x7E3 SWAP1 PUSH2 0x17B5 JUMP JUMPDEST DUP1 ISZERO PUSH2 0x82E JUMPI DUP1 PUSH1 0x1F LT PUSH2 0x805 JUMPI PUSH2 0x100 DUP1 DUP4 SLOAD DIV MUL DUP4 MSTORE SWAP2 PUSH1 0x20 ADD SWAP2 PUSH2 0x82E JUMP JUMPDEST DUP3 ADD SWAP2 SWAP1 PUSH0 MSTORE PUSH1 0x20 PUSH0 KECCAK256 SWAP1 JUMPDEST DUP2 SLOAD DUP2 MSTORE SWAP1 PUSH1 0x1 ADD SWAP1 PUSH1 0x20 ADD DUP1 DUP4 GT PUSH2 0x811 JUMPI DUP3 SWAP1 SUB PUSH1 0x1F AND DUP3 ADD SWAP2 JUMPDEST POP POP POP POP POP SWAP1 POP SWAP1 JUMP JUMPDEST PUSH0 PUSH2 0x841 PUSH2 0xAF0 JUMP JUMPDEST PUSH20 0xFFFFFFFFFFFFFFFFFFFFFFFFFFFFFFFFFFFFFFFF AND PUSH0 PUSH0 SWAP1 SLOAD SWAP1 PUSH2 0x100 EXP SWAP1 DIV PUSH20 0xFFFFFFFFFFFFFFFFFFFFFFFFFFFFFFFFFFFFFFFF AND PUSH20 0xFFFFFFFFFFFFFFFFFFFFFFFFFFFFFFFFFFFFFFFF AND EQ PUSH2 0x8CE JUMPI PUSH1 0x40 MLOAD PUSH32 0x8C379A000000000000000000000000000000000000000000000000000000000 DUP2 MSTORE PUSH1 0x4 ADD PUSH2 0x8C5 SWAP1 PUSH2 0x182F JUMP JUMPDEST PUSH1 0x40 MLOAD DUP1 SWAP2 SUB SWAP1 REVERT JUMPDEST PUSH2 0x8DF PUSH2 0x8D9 PUSH2 0xAF0 JUMP JUMPDEST DUP4 PUSH2 0x1198 JUMP JUMPDEST PUSH1 0x1 SWAP1 POP SWAP2 SWAP1 POP JUMP JUMPDEST PUSH0 PUSH2 0x9A6 PUSH2 0x8F4 PUSH2 0xAF0 JUMP JUMPDEST DUP5 PUSH2 0x9A1 DUP6 PUSH1 0x40 MLOAD DUP1 PUSH1 0x60 ADD PUSH1 0x40 MSTORE DUP1 PUSH1 0x25 DUP2 MSTORE PUSH1 0x20 ADD PUSH2 0x1D53 PUSH1 0x25 SWAP2 CODECOPY PUSH1 0x2 PUSH0 PUSH2 0x91D PUSH2 0xAF0 JUMP JUMPDEST PUSH20 0xFFFFFFFFFFFFFFFFFFFFFFFFFFFFFFFFFFFFFFFF AND PUSH20 0xFFFFFFFFFFFFFFFFFFFFFFFFFFFFFFFFFFFFFFFF AND DUP2 MSTORE PUSH1 0x20 ADD SWAP1 DUP2 MSTORE PUSH1 0x20 ADD PUSH0 KECCAK256 PUSH0 DUP11 PUSH20 0xFFFFFFFFFFFFFFFFFFFFFFFFFFFFFFFFFFFFFFFF AND PUSH20 0xFFFFFFFFFFFFFFFFFFFFFFFFFFFFFFFFFFFFFFFF AND DUP2 MSTORE PUSH1 0x20 ADD SWAP1 DUP2 MSTORE PUSH1 0x20 ADD PUSH0 KECCAK256 SLOAD PUSH2 0xF3C SWAP1 SWAP3 SWAP2 SWAP1 PUSH4 0xFFFFFFFF AND JUMP JUMPDEST PUSH2 0xAF7 JUMP JUMPDEST PUSH1 0x1 SWAP1 POP SWAP3 SWAP2 POP POP JUMP JUMPDEST PUSH0 PUSH2 0x9C3 PUSH2 0x9BC PUSH2 0xAF0 JUMP JUMPDEST DUP5 DUP5 PUSH2 0xCBA JUMP JUMPDEST PUSH1 0x1 SWAP1 POP SWAP3 SWAP2 POP POP JUMP JUMPDEST PUSH0 PUSH1 0x2 PUSH0 DUP5 PUSH20 0xFFFFFFFFFFFFFFFFFFFFFFFFFFFFFFFFFFFFFFFF AND PUSH20 0xFFFFFFFFFFFFFFFFFFFFFFFFFFFFFFFFFFFFFFFF AND DUP2 MSTORE PUSH1 0x20 ADD SWAP1 DUP2 MSTORE PUSH1 0x20 ADD PUSH0 KECCAK256 PUSH0 DUP4 PUSH20 0xFFFFFFFFFFFFFFFFFFFFFFFFFFFFFFFFFFFFFFFF AND PUSH20 0xFFFFFFFFFFFFFFFFFFFFFFFFFFFFFFFFFFFFFFFF AND DUP2 MSTORE PUSH1 0x20 ADD SWAP1 DUP2 MSTORE PUSH1 0x20 ADD PUSH0 KECCAK256 SLOAD SWAP1 POP SWAP3 SWAP2 POP POP JUMP JUMPDEST PUSH2 0xA57 PUSH2 0xAF0 JUMP JUMPDEST PUSH20 0xFFFFFFFFFFFFFFFFFFFFFFFFFFFFFFFFFFFFFFFF AND PUSH0 PUSH0 SWAP1 SLOAD SWAP1 PUSH2 0x100 EXP SWAP1 DIV PUSH20 0xFFFFFFFFFFFFFFFFFFFFFFFFFFFFFFFFFFFFFFFF AND PUSH20 0xFFFFFFFFFFFFFFFFFFFFFFFFFFFFFFFFFFFFFFFF AND EQ PUSH2 0xAE4 JUMPI PUSH1 0x40 MLOAD PUSH32 0x8C379A000000000000000000000000000000000000000000000000000000000 DUP2 MSTORE PUSH1 0x4 ADD PUSH2 0xADB SWAP1 PUSH2 0x182F JUMP JUMPDEST PUSH1 0x40 MLOAD DUP1 SWAP2 SUB SWAP1 REVERT JUMPDEST PUSH2 0xAED DUP2 PUSH2 0x131B JUMP JUMPDEST POP JUMP JUMPDEST PUSH0 CALLER SWAP1 POP SWAP1 JUMP JUMPDEST PUSH0 PUSH20 0xFFFFFFFFFFFFFFFFFFFFFFFFFFFFFFFFFFFFFFFF AND DUP4 PUSH20 0xFFFFFFFFFFFFFFFFFFFFFFFFFFFFFFFFFFFFFFFF AND SUB PUSH2 0xB65 JUMPI PUSH1 0x40 MLOAD PUSH32 0x8C379A000000000000000000000000000000000000000000000000000000000 DUP2 MSTORE PUSH1 0x4 ADD PUSH2 0xB5C SWAP1 PUSH2 0x18BD JUMP JUMPDEST PUSH1 0x40 MLOAD DUP1 SWAP2 SUB SWAP1 REVERT JUMPDEST PUSH0 PUSH20 0xFFFFFFFFFFFFFFFFFFFFFFFFFFFFFFFFFFFFFFFF AND DUP3 PUSH20 0xFFFFFFFFFFFFFFFFFFFFFFFFFFFFFFFFFFFFFFFF AND SUB PUSH2 0xBD3 JUMPI PUSH1 0x40 MLOAD PUSH32 0x8C379A000000000000000000000000000000000000000000000000000000000 DUP2 MSTORE PUSH1 0x4 ADD PUSH2 0xBCA SWAP1 PUSH2 0x194B JUMP JUMPDEST PUSH1 0x40 MLOAD DUP1 SWAP2 SUB SWAP1 REVERT JUMPDEST DUP1 PUSH1 0x2 PUSH0 DUP6 PUSH20 0xFFFFFFFFFFFFFFFFFFFFFFFFFFFFFFFFFFFFFFFF AND PUSH20 0xFFFFFFFFFFFFFFFFFFFFFFFFFFFFFFFFFFFFFFFF AND DUP2 MSTORE PUSH1 0x20 ADD SWAP1 DUP2 MSTORE PUSH1 0x20 ADD PUSH0 KECCAK256 PUSH0 DUP5 PUSH20 0xFFFFFFFFFFFFFFFFFFFFFFFFFFFFFFFFFFFFFFFF AND PUSH20 0xFFFFFFFFFFFFFFFFFFFFFFFFFFFFFFFFFFFFFFFF AND DUP2 MSTORE PUSH1 0x20 ADD SWAP1 DUP2 MSTORE PUSH1 0x20 ADD PUSH0 KECCAK256 DUP2 SWAP1 SSTORE POP DUP2 PUSH20 0xFFFFFFFFFFFFFFFFFFFFFFFFFFFFFFFFFFFFFFFF AND DUP4 PUSH20 0xFFFFFFFFFFFFFFFFFFFFFFFFFFFFFFFFFFFFFFFF AND PUSH32 0x8C5BE1E5EBEC7D5BD14F71427D1E84F3DD0314C0F7B2291E5B200AC8C7C3B925 DUP4 PUSH1 0x40 MLOAD PUSH2 0xCAD SWAP2 SWAP1 PUSH2 0x162F JUMP JUMPDEST PUSH1 0x40 MLOAD DUP1 SWAP2 SUB SWAP1 LOG3 POP POP POP JUMP JUMPDEST PUSH0 PUSH20 0xFFFFFFFFFFFFFFFFFFFFFFFFFFFFFFFFFFFFFFFF AND DUP4 PUSH20 0xFFFFFFFFFFFFFFFFFFFFFFFFFFFFFFFFFFFFFFFF AND SUB PUSH2 0xD28 JUMPI PUSH1 0x40 MLOAD PUSH32 0x8C379A000000000000000000000000000000000000000000000000000000000 DUP2 MSTORE PUSH1 0x4 ADD PUSH2 0xD1F SWAP1 PUSH2 0x19D9 JUMP JUMPDEST PUSH1 0x40 MLOAD DUP1 SWAP2 SUB SWAP1 REVERT JUMPDEST PUSH0 PUSH20 0xFFFFFFFFFFFFFFFFFFFFFFFFFFFFFFFFFFFFFFFF AND DUP3 PUSH20 0xFFFFFFFFFFFFFFFFFFFFFFFFFFFFFFFFFFFFFFFF AND SUB PUSH2 0xD96 JUMPI PUSH1 0x40 MLOAD PUSH32 0x8C379A000000000000000000000000000000000000000000000000000000000 DUP2 MSTORE PUSH1 0x4 ADD PUSH2 0xD8D SWAP1 PUSH2 0x1A67 JUMP JUMPDEST PUSH1 0x40 MLOAD DUP1 SWAP2 SUB SWAP1 REVERT JUMPDEST PUSH2 0xE00 DUP2 PUSH1 0x40 MLOAD DUP1 PUSH1 0x60 ADD PUSH1 0x40 MSTORE DUP1 PUSH1 0x26 DUP2 MSTORE PUSH1 0x20 ADD PUSH2 0x1D2D PUSH1 0x26 SWAP2 CODECOPY PUSH1 0x1 PUSH0 DUP8 PUSH20 0xFFFFFFFFFFFFFFFFFFFFFFFFFFFFFFFFFFFFFFFF AND PUSH20 0xFFFFFFFFFFFFFFFFFFFFFFFFFFFFFFFFFFFFFFFF AND DUP2 MSTORE PUSH1 0x20 ADD SWAP1 DUP2 MSTORE PUSH1 0x20 ADD PUSH0 KECCAK256 SLOAD PUSH2 0xF3C SWAP1 SWAP3 SWAP2 SWAP1 PUSH4 0xFFFFFFFF AND JUMP JUMPDEST PUSH1 0x1 PUSH0 DUP6 PUSH20 0xFFFFFFFFFFFFFFFFFFFFFFFFFFFFFFFFFFFFFFFF AND PUSH20 0xFFFFFFFFFFFFFFFFFFFFFFFFFFFFFFFFFFFFFFFF AND DUP2 MSTORE PUSH1 0x20 ADD SWAP1 DUP2 MSTORE PUSH1 0x20 ADD PUSH0 KECCAK256 DUP2 SWAP1 SSTORE POP PUSH2 0xE91 DUP2 PUSH1 0x1 PUSH0 DUP6 PUSH20 0xFFFFFFFFFFFFFFFFFFFFFFFFFFFFFFFFFFFFFFFF AND PUSH20 0xFFFFFFFFFFFFFFFFFFFFFFFFFFFFFFFFFFFFFFFF AND DUP2 MSTORE PUSH1 0x20 ADD SWAP1 DUP2 MSTORE PUSH1 0x20 ADD PUSH0 KECCAK256 SLOAD PUSH2 0xF9E SWAP1 SWAP2 SWAP1 PUSH4 0xFFFFFFFF AND JUMP JUMPDEST PUSH1 0x1 PUSH0 DUP5 PUSH20 0xFFFFFFFFFFFFFFFFFFFFFFFFFFFFFFFFFFFFFFFF AND PUSH20 0xFFFFFFFFFFFFFFFFFFFFFFFFFFFFFFFFFFFFFFFF AND DUP2 MSTORE PUSH1 0x20 ADD SWAP1 DUP2 MSTORE PUSH1 0x20 ADD PUSH0 KECCAK256 DUP2 SWAP1 SSTORE POP DUP2 PUSH20 0xFFFFFFFFFFFFFFFFFFFFFFFFFFFFFFFFFFFFFFFF AND DUP4 PUSH20 0xFFFFFFFFFFFFFFFFFFFFFFFFFFFFFFFFFFFFFFFF AND PUSH32 0xDDF252AD1BE2C89B69C2B068FC378DAA952BA7F163C4A11628F55A4DF523B3EF DUP4 PUSH1 0x40 MLOAD PUSH2 0xF2F SWAP2 SWAP1 PUSH2 0x162F JUMP JUMPDEST PUSH1 0x40 MLOAD DUP1 SWAP2 SUB SWAP1 LOG3 POP POP POP JUMP JUMPDEST PUSH0 DUP4 DUP4 GT ISZERO DUP3 SWAP1 PUSH2 0xF83 JUMPI PUSH1 0x40 MLOAD PUSH32 0x8C379A000000000000000000000000000000000000000000000000000000000 DUP2 MSTORE PUSH1 0x4 ADD PUSH2 0xF7A SWAP2 SWAP1 PUSH2 0x14FE JUMP JUMPDEST PUSH1 0x40 MLOAD DUP1 SWAP2 SUB SWAP1 REVERT JUMPDEST POP PUSH0 DUP4 DUP6 PUSH2 0xF91 SWAP2 SWAP1 PUSH2 0x1AB2 JUMP JUMPDEST SWAP1 POP DUP1 SWAP2 POP POP SWAP4 SWAP3 POP POP POP JUMP JUMPDEST PUSH0 PUSH0 DUP3 DUP5 PUSH2 0xFAC SWAP2 SWAP1 PUSH2 0x1AE5 JUMP JUMPDEST SWAP1 POP DUP4 DUP2 LT ISZERO PUSH2 0xFF1 JUMPI PUSH1 0x40 MLOAD PUSH32 0x8C379A000000000000000000000000000000000000000000000000000000000 DUP2 MSTORE PUSH1 0x4 ADD PUSH2 0xFE8 SWAP1 PUSH2 0x1B62 JUMP JUMPDEST PUSH1 0x40 MLOAD DUP1 SWAP2 SUB SWAP1 REVERT JUMPDEST DUP1 SWAP2 POP POP SWAP3 SWAP2 POP POP JUMP JUMPDEST PUSH0 PUSH20 0xFFFFFFFFFFFFFFFFFFFFFFFFFFFFFFFFFFFFFFFF AND DUP3 PUSH20 0xFFFFFFFFFFFFFFFFFFFFFFFFFFFFFFFFFFFFFFFF AND SUB PUSH2 0x1069 JUMPI PUSH1 0x40 MLOAD PUSH32 0x8C379A000000000000000000000000000000000000000000000000000000000 DUP2 MSTORE PUSH1 0x4 ADD PUSH2 0x1060 SWAP1 PUSH2 0x1BF0 JUMP JUMPDEST PUSH1 0x40 MLOAD DUP1 SWAP2 SUB SWAP1 REVERT JUMPDEST PUSH2 0x10D3 DUP2 PUSH1 0x40 MLOAD DUP1 PUSH1 0x60 ADD PUSH1 0x40 MSTORE DUP1 PUSH1 0x22 DUP2 MSTORE PUSH1 0x20 ADD PUSH2 0x1D78 PUSH1 0x22 SWAP2 CODECOPY PUSH1 0x1 PUSH0 DUP7 PUSH20 0xFFFFFFFFFFFFFFFFFFFFFFFFFFFFFFFFFFFFFFFF AND PUSH20 0xFFFFFFFFFFFFFFFFFFFFFFFFFFFFFFFFFFFFFFFF AND DUP2 MSTORE PUSH1 0x20 ADD SWAP1 DUP2 MSTORE PUSH1 0x20 ADD PUSH0 KECCAK256 SLOAD PUSH2 0xF3C SWAP1 SWAP3 SWAP2 SWAP1 PUSH4 0xFFFFFFFF AND JUMP JUMPDEST PUSH1 0x1 PUSH0 DUP5 PUSH20 0xFFFFFFFFFFFFFFFFFFFFFFFFFFFFFFFFFFFFFFFF AND PUSH20 0xFFFFFFFFFFFFFFFFFFFFFFFFFFFFFFFFFFFFFFFF AND DUP2 MSTORE PUSH1 0x20 ADD SWAP1 DUP2 MSTORE PUSH1 0x20 ADD PUSH0 KECCAK256 DUP2 SWAP1 SSTORE POP PUSH2 0x1129 DUP2 PUSH1 0x3 SLOAD PUSH2 0x1445 SWAP1 SWAP2 SWAP1 PUSH4 0xFFFFFFFF AND JUMP JUMPDEST PUSH1 0x3 DUP2 SWAP1 SSTORE POP PUSH0 PUSH20 0xFFFFFFFFFFFFFFFFFFFFFFFFFFFFFFFFFFFFFFFF AND DUP3 PUSH20 0xFFFFFFFFFFFFFFFFFFFFFFFFFFFFFFFFFFFFFFFF AND PUSH32 0xDDF252AD1BE2C89B69C2B068FC378DAA952BA7F163C4A11628F55A4DF523B3EF DUP4 PUSH1 0x40 MLOAD PUSH2 0x118C SWAP2 SWAP1 PUSH2 0x162F JUMP JUMPDEST PUSH1 0x40 MLOAD DUP1 SWAP2 SUB SWAP1 LOG3 POP POP JUMP JUMPDEST PUSH0 PUSH20 0xFFFFFFFFFFFFFFFFFFFFFFFFFFFFFFFFFFFFFFFF AND DUP3 PUSH20 0xFFFFFFFFFFFFFFFFFFFFFFFFFFFFFFFFFFFFFFFF AND SUB PUSH2 0x1206 JUMPI PUSH1 0x40 MLOAD PUSH32 0x8C379A000000000000000000000000000000000000000000000000000000000 DUP2 MSTORE PUSH1 0x4 ADD PUSH2 0x11FD SWAP1 PUSH2 0x1C58 JUMP JUMPDEST PUSH1 0x40 MLOAD DUP1 SWAP2 SUB SWAP1 REVERT JUMPDEST PUSH2 0x121B DUP2 PUSH1 0x3 SLOAD PUSH2 0xF9E SWAP1 SWAP2 SWAP1 PUSH4 0xFFFFFFFF AND JUMP JUMPDEST PUSH1 0x3 DUP2 SWAP1 SSTORE POP PUSH2 0x1271 DUP2 PUSH1 0x1 PUSH0 DUP6 PUSH20 0xFFFFFFFFFFFFFFFFFFFFFFFFFFFFFFFFFFFFFFFF AND PUSH20 0xFFFFFFFFFFFFFFFFFFFFFFFFFFFFFFFFFFFFFFFF AND DUP2 MSTORE PUSH1 0x20 ADD SWAP1 DUP2 MSTORE PUSH1 0x20 ADD PUSH0 KECCAK256 SLOAD PUSH2 0xF9E SWAP1 SWAP2 SWAP1 PUSH4 0xFFFFFFFF AND JUMP JUMPDEST PUSH1 0x1 PUSH0 DUP5 PUSH20 0xFFFFFFFFFFFFFFFFFFFFFFFFFFFFFFFFFFFFFFFF AND PUSH20 0xFFFFFFFFFFFFFFFFFFFFFFFFFFFFFFFFFFFFFFFF AND DUP2 MSTORE PUSH1 0x20 ADD SWAP1 DUP2 MSTORE PUSH1 0x20 ADD PUSH0 KECCAK256 DUP2 SWAP1 SSTORE POP DUP2 PUSH20 0xFFFFFFFFFFFFFFFFFFFFFFFFFFFFFFFFFFFFFFFF AND PUSH0 PUSH20 0xFFFFFFFFFFFFFFFFFFFFFFFFFFFFFFFFFFFFFFFF AND PUSH32 0xDDF252AD1BE2C89B69C2B068FC378DAA952BA7F163C4A11628F55A4DF523B3EF DUP4 PUSH1 0x40 MLOAD PUSH2 0x130F SWAP2 SWAP1 PUSH2 0x162F JUMP JUMPDEST PUSH1 0x40 MLOAD DUP1 SWAP2 SUB SWAP1 LOG3 POP POP JUMP JUMPDEST PUSH0 PUSH20 0xFFFFFFFFFFFFFFFFFFFFFFFFFFFFFFFFFFFFFFFF AND DUP2 PUSH20 0xFFFFFFFFFFFFFFFFFFFFFFFFFFFFFFFFFFFFFFFF AND SUB PUSH2 0x1389 JUMPI PUSH1 0x40 MLOAD PUSH32 0x8C379A000000000000000000000000000000000000000000000000000000000 DUP2 MSTORE PUSH1 0x4 ADD PUSH2 0x1380 SWAP1 PUSH2 0x1CE6 JUMP JUMPDEST PUSH1 0x40 MLOAD DUP1 SWAP2 SUB SWAP1 REVERT JUMPDEST DUP1 PUSH20 0xFFFFFFFFFFFFFFFFFFFFFFFFFFFFFFFFFFFFFFFF AND PUSH0 PUSH0 SWAP1 SLOAD SWAP1 PUSH2 0x100 EXP SWAP1 DIV PUSH20 0xFFFFFFFFFFFFFFFFFFFFFFFFFFFFFFFFFFFFFFFF AND PUSH20 0xFFFFFFFFFFFFFFFFFFFFFFFFFFFFFFFFFFFFFFFF AND PUSH32 0x8BE0079C531659141344CD1FD0A4F28419497F9722A3DAAFE3B4186F6B6457E0 PUSH1 0x40 MLOAD PUSH1 0x40 MLOAD DUP1 SWAP2 SUB SWAP1 LOG3 DUP1 PUSH0 PUSH0 PUSH2 0x100 EXP DUP2 SLOAD DUP2 PUSH20 0xFFFFFFFFFFFFFFFFFFFFFFFFFFFFFFFFFFFFFFFF MUL NOT AND SWAP1 DUP4 PUSH20 0xFFFFFFFFFFFFFFFFFFFFFFFFFFFFFFFFFFFFFFFF AND MUL OR SWAP1 SSTORE POP POP JUMP JUMPDEST PUSH0 PUSH2 0x1486 DUP4 DUP4 PUSH1 0x40 MLOAD DUP1 PUSH1 0x40 ADD PUSH1 0x40 MSTORE DUP1 PUSH1 0x1E DUP2 MSTORE PUSH1 0x20 ADD PUSH32 0x536166654D6174683A207375627472616374696F6E206F766572666C6F770000 DUP2 MSTORE POP PUSH2 0xF3C JUMP JUMPDEST SWAP1 POP SWAP3 SWAP2 POP POP JUMP JUMPDEST PUSH0 DUP2 MLOAD SWAP1 POP SWAP2 SWAP1 POP JUMP JUMPDEST PUSH0 DUP3 DUP3 MSTORE PUSH1 0x20 DUP3 ADD SWAP1 POP SWAP3 SWAP2 POP POP JUMP JUMPDEST DUP3 DUP2 DUP4 MCOPY PUSH0 DUP4 DUP4 ADD MSTORE POP POP POP JUMP JUMPDEST PUSH0 PUSH1 0x1F NOT PUSH1 0x1F DUP4 ADD AND SWAP1 POP SWAP2 SWAP1 POP JUMP JUMPDEST PUSH0 PUSH2 0x14D0 DUP3 PUSH2 0x148E JUMP JUMPDEST PUSH2 0x14DA DUP2 DUP6 PUSH2 0x1498 JUMP JUMPDEST SWAP4 POP PUSH2 0x14EA DUP2 DUP6 PUSH1 0x20 DUP7 ADD PUSH2 0x14A8 JUMP JUMPDEST PUSH2 0x14F3 DUP2 PUSH2 0x14B6 JUMP JUMPDEST DUP5 ADD SWAP2 POP POP SWAP3 SWAP2 POP POP JUMP JUMPDEST PUSH0 PUSH1 0x20 DUP3 ADD SWAP1 POP DUP2 DUP2 SUB PUSH0 DUP4 ADD MSTORE PUSH2 0x1516 DUP2 DUP5 PUSH2 0x14C6 JUMP JUMPDEST SWAP1 POP SWAP3 SWAP2 POP POP JUMP JUMPDEST PUSH0 PUSH0 REVERT JUMPDEST PUSH0 PUSH20 0xFFFFFFFFFFFFFFFFFFFFFFFFFFFFFFFFFFFFFFFF DUP3 AND SWAP1 POP SWAP2 SWAP1 POP JUMP JUMPDEST PUSH0 PUSH2 0x154B DUP3 PUSH2 0x1522 JUMP JUMPDEST SWAP1 POP SWAP2 SWAP1 POP JUMP JUMPDEST PUSH2 0x155B DUP2 PUSH2 0x1541 JUMP JUMPDEST DUP2 EQ PUSH2 0x1565 JUMPI PUSH0 PUSH0 REVERT JUMPDEST POP JUMP JUMPDEST PUSH0 DUP2 CALLDATALOAD SWAP1 POP PUSH2 0x1576 DUP2 PUSH2 0x1552 JUMP JUMPDEST SWAP3 SWAP2 POP POP JUMP JUMPDEST PUSH0 DUP2 SWAP1 POP SWAP2 SWAP1 POP JUMP JUMPDEST PUSH2 0x158E DUP2 PUSH2 0x157C JUMP JUMPDEST DUP2 EQ PUSH2 0x1598 JUMPI PUSH0 PUSH0 REVERT JUMPDEST POP JUMP JUMPDEST PUSH0 DUP2 CALLDATALOAD SWAP1 POP PUSH2 0x15A9 DUP2 PUSH2 0x1585 JUMP JUMPDEST SWAP3 SWAP2 POP POP JUMP JUMPDEST PUSH0 PUSH0 PUSH1 0x40 DUP4 DUP6 SUB SLT ISZERO PUSH2 0x15C5 JUMPI PUSH2 0x15C4 PUSH2 0x151E JUMP JUMPDEST JUMPDEST PUSH0 PUSH2 0x15D2 DUP6 DUP3 DUP7 ADD PUSH2 0x1568 JUMP JUMPDEST SWAP3 POP POP PUSH1 0x20 PUSH2 0x15E3 DUP6 DUP3 DUP7 ADD PUSH2 0x159B JUMP JUMPDEST SWAP2 POP POP SWAP3 POP SWAP3 SWAP1 POP JUMP JUMPDEST PUSH0 DUP2 ISZERO ISZERO SWAP1 POP SWAP2 SWAP1 POP JUMP JUMPDEST PUSH2 0x1601 DUP2 PUSH2 0x15ED JUMP JUMPDEST DUP3 MSTORE POP POP JUMP JUMPDEST PUSH0 PUSH1 0x20 DUP3 ADD SWAP1 POP PUSH2 0x161A PUSH0 DUP4 ADD DUP5 PUSH2 0x15F8 JUMP JUMPDEST SWAP3 SWAP2 POP POP JUMP JUMPDEST PUSH2 0x1629 DUP2 PUSH2 0x157C JUMP JUMPDEST DUP3 MSTORE POP POP JUMP JUMPDEST PUSH0 PUSH1 0x20 DUP3 ADD SWAP1 POP PUSH2 0x1642 PUSH0 DUP4 ADD DUP5 PUSH2 0x1620 JUMP JUMPDEST SWAP3 SWAP2 POP POP JUMP JUMPDEST PUSH0 PUSH0 PUSH0 PUSH1 0x60 DUP5 DUP7 SUB SLT ISZERO PUSH2 0x165F JUMPI PUSH2 0x165E PUSH2 0x151E JUMP JUMPDEST JUMPDEST PUSH0 PUSH2 0x166C DUP7 DUP3 DUP8 ADD PUSH2 0x1568 JUMP JUMPDEST SWAP4 POP POP PUSH1 0x20 PUSH2 0x167D DUP7 DUP3 DUP8 ADD PUSH2 0x1568 JUMP JUMPDEST SWAP3 POP POP PUSH1 0x40 PUSH2 0x168E DUP7 DUP3 DUP8 ADD PUSH2 0x159B JUMP JUMPDEST SWAP2 POP POP SWAP3 POP SWAP3 POP SWAP3 JUMP JUMPDEST PUSH0 PUSH1 0xFF DUP3 AND SWAP1 POP SWAP2 SWAP1 POP JUMP JUMPDEST PUSH2 0x16AD DUP2 PUSH2 0x1698 JUMP JUMPDEST DUP3 MSTORE POP POP JUMP JUMPDEST PUSH0 PUSH1 0x20 DUP3 ADD SWAP1 POP PUSH2 0x16C6 PUSH0 DUP4 ADD DUP5 PUSH2 0x16A4 JUMP JUMPDEST SWAP3 SWAP2 POP POP JUMP JUMPDEST PUSH0 PUSH1 0x20 DUP3 DUP5 SUB SLT ISZERO PUSH2 0x16E1 JUMPI PUSH2 0x16E0 PUSH2 0x151E JUMP JUMPDEST JUMPDEST PUSH0 PUSH2 0x16EE DUP5 DUP3 DUP6 ADD PUSH2 0x159B JUMP JUMPDEST SWAP2 POP POP SWAP3 SWAP2 POP POP JUMP JUMPDEST PUSH0 PUSH1 0x20 DUP3 DUP5 SUB SLT ISZERO PUSH2 0x170C JUMPI PUSH2 0x170B PUSH2 0x151E JUMP JUMPDEST JUMPDEST PUSH0 PUSH2 0x1719 DUP5 DUP3 DUP6 ADD PUSH2 0x1568 JUMP JUMPDEST SWAP2 POP POP SWAP3 SWAP2 POP POP JUMP JUMPDEST PUSH2 0x172B DUP2 PUSH2 0x1541 JUMP JUMPDEST DUP3 MSTORE POP POP JUMP JUMPDEST PUSH0 PUSH1 0x20 DUP3 ADD SWAP1 POP PUSH2 0x1744 PUSH0 DUP4 ADD DUP5 PUSH2 0x1722 JUMP JUMPDEST SWAP3 SWAP2 POP POP JUMP JUMPDEST PUSH0 PUSH0 PUSH1 0x40 DUP4 DUP6 SUB SLT ISZERO PUSH2 0x1760 JUMPI PUSH2 0x175F PUSH2 0x151E JUMP JUMPDEST JUMPDEST PUSH0 PUSH2 0x176D DUP6 DUP3 DUP7 ADD PUSH2 0x1568 JUMP JUMPDEST SWAP3 POP POP PUSH1 0x20 PUSH2 0x177E DUP6 DUP3 DUP7 ADD PUSH2 0x1568 JUMP JUMPDEST SWAP2 POP POP SWAP3 POP SWAP3 SWAP1 POP JUMP JUMPDEST PUSH32 0x4E487B7100000000000000000000000000000000000000000000000000000000 PUSH0 MSTORE PUSH1 0x22 PUSH1 0x4 MSTORE PUSH1 0x24 PUSH0 REVERT JUMPDEST PUSH0 PUSH1 0x2 DUP3 DIV SWAP1 POP PUSH1 0x1 DUP3 AND DUP1 PUSH2 0x17CC JUMPI PUSH1 0x7F DUP3 AND SWAP2 POP JUMPDEST PUSH1 0x20 DUP3 LT DUP2 SUB PUSH2 0x17DF JUMPI PUSH2 0x17DE PUSH2 0x1788 JUMP JUMPDEST JUMPDEST POP SWAP2 SWAP1 POP JUMP JUMPDEST PUSH32 0x4F776E61626C653A2063616C6C6572206973206E6F7420746865206F776E6572 PUSH0 DUP3 ADD MSTORE POP JUMP JUMPDEST PUSH0 PUSH2 0x1819 PUSH1 0x20 DUP4 PUSH2 0x1498 JUMP JUMPDEST SWAP2 POP PUSH2 0x1824 DUP3 PUSH2 0x17E5 JUMP JUMPDEST PUSH1 0x20 DUP3 ADD SWAP1 POP SWAP2 SWAP1 POP JUMP JUMPDEST PUSH0 PUSH1 0x20 DUP3 ADD SWAP1 POP DUP2 DUP2 SUB PUSH0 DUP4 ADD MSTORE PUSH2 0x1846 DUP2 PUSH2 0x180D JUMP JUMPDEST SWAP1 POP SWAP2 SWAP1 POP JUMP JUMPDEST PUSH32 0x42455032303A20617070726F76652066726F6D20746865207A65726F20616464 PUSH0 DUP3 ADD MSTORE PUSH32 0x7265737300000000000000000000000000000000000000000000000000000000 PUSH1 0x20 DUP3 ADD MSTORE POP JUMP JUMPDEST PUSH0 PUSH2 0x18A7 PUSH1 0x24 DUP4 PUSH2 0x1498 JUMP JUMPDEST SWAP2 POP PUSH2 0x18B2 DUP3 PUSH2 0x184D JUMP JUMPDEST PUSH1 0x40 DUP3 ADD SWAP1 POP SWAP2 SWAP1 POP JUMP JUMPDEST PUSH0 PUSH1 0x20 DUP3 ADD SWAP1 POP DUP2 DUP2 SUB PUSH0 DUP4 ADD MSTORE PUSH2 0x18D4 DUP2 PUSH2 0x189B JUMP JUMPDEST SWAP1 POP SWAP2 SWAP1 POP JUMP JUMPDEST PUSH32 0x42455032303A20617070726F766520746F20746865207A65726F206164647265 PUSH0 DUP3 ADD MSTORE PUSH32 0x7373000000000000000000000000000000000000000000000000000000000000 PUSH1 0x20 DUP3 ADD MSTORE POP JUMP JUMPDEST PUSH0 PUSH2 0x1935 PUSH1 0x22 DUP4 PUSH2 0x1498 JUMP JUMPDEST SWAP2 POP PUSH2 0x1940 DUP3 PUSH2 0x18DB JUMP JUMPDEST PUSH1 0x40 DUP3 ADD SWAP1 POP SWAP2 SWAP1 POP JUMP JUMPDEST PUSH0 PUSH1 0x20 DUP3 ADD SWAP1 POP DUP2 DUP2 SUB PUSH0 DUP4 ADD MSTORE PUSH2 0x1962 DUP2 PUSH2 0x1929 JUMP JUMPDEST SWAP1 POP SWAP2 SWAP1 POP JUMP JUMPDEST PUSH32 0x42455032303A207472616E736665722066726F6D20746865207A65726F206164 PUSH0 DUP3 ADD MSTORE PUSH32 0x6472657373000000000000000000000000000000000000000000000000000000 PUSH1 0x20 DUP3 ADD MSTORE POP JUMP JUMPDEST PUSH0 PUSH2 0x19C3 PUSH1 0x25 DUP4 PUSH2 0x1498 JUMP JUMPDEST SWAP2 POP PUSH2 0x19CE DUP3 PUSH2 0x1969 JUMP JUMPDEST PUSH1 0x40 DUP3 ADD SWAP1 POP SWAP2 SWAP1 POP JUMP JUMPDEST PUSH0 PUSH1 0x20 DUP3 ADD SWAP1 POP DUP2 DUP2 SUB PUSH0 DUP4 ADD MSTORE PUSH2 0x19F0 DUP2 PUSH2 0x19B7 JUMP JUMPDEST SWAP1 POP SWAP2 SWAP1 POP JUMP JUMPDEST PUSH32 0x42455032303A207472616E7366657220746F20746865207A65726F2061646472 PUSH0 DUP3 ADD MSTORE PUSH32 0x6573730000000000000000000000000000000000000000000000000000000000 PUSH1 0x20 DUP3 ADD MSTORE POP JUMP JUMPDEST PUSH0 PUSH2 0x1A51 PUSH1 0x23 DUP4 PUSH2 0x1498 JUMP JUMPDEST SWAP2 POP PUSH2 0x1A5C DUP3 PUSH2 0x19F7 JUMP JUMPDEST PUSH1 0x40 DUP3 ADD SWAP1 POP SWAP2 SWAP1 POP JUMP JUMPDEST PUSH0 PUSH1 0x20 DUP3 ADD SWAP1 POP DUP2 DUP2 SUB PUSH0 DUP4 ADD MSTORE PUSH2 0x1A7E DUP2 PUSH2 0x1A45 JUMP JUMPDEST SWAP1 POP SWAP2 SWAP1 POP JUMP JUMPDEST PUSH32 0x4E487B7100000000000000000000000000000000000000000000000000000000 PUSH0 MSTORE PUSH1 0x11 PUSH1 0x4 MSTORE PUSH1 0x24 PUSH0 REVERT JUMPDEST PUSH0 PUSH2 0x1ABC DUP3 PUSH2 0x157C JUMP JUMPDEST SWAP2 POP PUSH2 0x1AC7 DUP4 PUSH2 0x157C JUMP JUMPDEST SWAP3 POP DUP3 DUP3 SUB SWAP1 POP DUP2 DUP2 GT ISZERO PUSH2 0x1ADF JUMPI PUSH2 0x1ADE PUSH2 0x1A85 JUMP JUMPDEST JUMPDEST SWAP3 SWAP2 POP POP JUMP JUMPDEST PUSH0 PUSH2 0x1AEF DUP3 PUSH2 0x157C JUMP JUMPDEST SWAP2 POP PUSH2 0x1AFA DUP4 PUSH2 0x157C JUMP JUMPDEST SWAP3 POP DUP3 DUP3 ADD SWAP1 POP DUP1 DUP3 GT ISZERO PUSH2 0x1B12 JUMPI PUSH2 0x1B11 PUSH2 0x1A85 JUMP JUMPDEST JUMPDEST SWAP3 SWAP2 POP POP JUMP JUMPDEST PUSH32 0x536166654D6174683A206164646974696F6E206F766572666C6F770000000000 PUSH0 DUP3 ADD MSTORE POP JUMP JUMPDEST PUSH0 PUSH2 0x1B4C PUSH1 0x1B DUP4 PUSH2 0x1498 JUMP JUMPDEST SWAP2 POP PUSH2 0x1B57 DUP3 PUSH2 0x1B18 JUMP JUMPDEST PUSH1 0x20 DUP3 ADD SWAP1 POP SWAP2 SWAP1 POP JUMP JUMPDEST PUSH0 PUSH1 0x20 DUP3 ADD SWAP1 POP DUP2 DUP2 SUB PUSH0 DUP4 ADD MSTORE PUSH2 0x1B79 DUP2 PUSH2 0x1B40 JUMP JUMPDEST SWAP1 POP SWAP2 SWAP1 POP JUMP JUMPDEST PUSH32 0x42455032303A206275726E2066726F6D20746865207A65726F20616464726573 PUSH0 DUP3 ADD MSTORE PUSH32 0x7300000000000000000000000000000000000000000000000000000000000000 PUSH1 0x20 DUP3 ADD MSTORE POP JUMP JUMPDEST PUSH0 PUSH2 0x1BDA PUSH1 0x21 DUP4 PUSH2 0x1498 JUMP JUMPDEST SWAP2 POP PUSH2 0x1BE5 DUP3 PUSH2 0x1B80 JUMP JUMPDEST PUSH1 0x40 DUP3 ADD SWAP1 POP SWAP2 SWAP1 POP JUMP JUMPDEST PUSH0 PUSH1 0x20 DUP3 ADD SWAP1 POP DUP2 DUP2 SUB PUSH0 DUP4 ADD MSTORE PUSH2 0x1C07 DUP2 PUSH2 0x1BCE JUMP JUMPDEST SWAP1 POP SWAP2 SWAP1 POP JUMP JUMPDEST PUSH32 0x42455032303A206D696E7420746F20746865207A65726F206164647265737300 PUSH0 DUP3 ADD MSTORE POP JUMP JUMPDEST PUSH0 PUSH2 0x1C42 PUSH1 0x1F DUP4 PUSH2 0x1498 JUMP JUMPDEST SWAP2 POP PUSH2 0x1C4D DUP3 PUSH2 0x1C0E JUMP JUMPDEST PUSH1 0x20 DUP3 ADD SWAP1 POP SWAP2 SWAP1 POP JUMP JUMPDEST PUSH0 PUSH1 0x20 DUP3 ADD SWAP1 POP DUP2 DUP2 SUB PUSH0 DUP4 ADD MSTORE PUSH2 0x1C6F DUP2 PUSH2 0x1C36 JUMP JUMPDEST SWAP1 POP SWAP2 SWAP1 POP JUMP JUMPDEST PUSH32 0x4F776E61626C653A206E6577206F776E657220697320746865207A65726F2061 PUSH0 DUP3 ADD MSTORE PUSH32 0x6464726573730000000000000000000000000000000000000000000000000000 PUSH1 0x20 DUP3 ADD MSTORE POP JUMP JUMPDEST PUSH0 PUSH2 0x1CD0 PUSH1 0x26 DUP4 PUSH2 0x1498 JUMP JUMPDEST SWAP2 POP PUSH2 0x1CDB DUP3 PUSH2 0x1C76 JUMP JUMPDEST PUSH1 0x40 DUP3 ADD SWAP1 POP SWAP2 SWAP1 POP JUMP JUMPDEST PUSH0 PUSH1 0x20 DUP3 ADD SWAP1 POP DUP2 DUP2 SUB PUSH0 DUP4 ADD MSTORE PUSH2 0x1CFD DUP2 PUSH2 0x1CC4 JUMP JUMPDEST SWAP1 POP SWAP2 SWAP1 POP JUMP INVALID TIMESTAMP GASLIMIT POP ORIGIN ADDRESS GASPRICE KECCAK256 PUSH21 0x72616E7366657220616D6F756E7420657863656564 PUSH20 0x20616C6C6F77616E636542455032303A20747261 PUSH15 0x7366657220616D6F756E7420657863 PUSH6 0x656473206261 PUSH13 0x616E636542455032303A206465 PUSH4 0x72656173 PUSH6 0x6420616C6C6F PUSH24 0x616E63652062656C6F77207A65726F42455032303A206275 PUSH19 0x6E20616D6F756E742065786365656473206261 PUSH13 0x616E6365A26469706673582212 KECCAK256 DUP13 0xB3 LOG1 SWAP1 MSTORE8 SWAP16 0xDC 0xC PUSH2 0xFD55 JUMPI BLOBBASEFEE RETURNDATASIZE CALLDATALOAD TSTORE PUSH13 0x76A5CF3F01563356CAA2C1A3D3 REVERT SWAP11 PUSH5 0x736F6C6343 STOP ADDMOD SHR STOP CALLER "
				},
				"gasEstimates": {
					"creation": {
						"codeDepositCost": "1526200",
						"executionCost": "infinite",
						"totalCost": "infinite"
					},
					"external": {
						"allowance(address,address)": "infinite",
						"approve(address,uint256)": "infinite",
						"balanceOf(address)": "2918",
						"burn(uint256)": "infinite",
						"decimals()": "2496",
						"decreaseAllowance(address,uint256)": "infinite",
						"getOwner()": "2593",
						"increaseAllowance(address,uint256)": "infinite",
						"mint(uint256)": "infinite",
						"name()": "infinite",
						"owner()": "2581",
						"renounceOwnership()": "30310",
						"symbol()": "infinite",
						"totalSupply()": "2500",
						"transfer(address,uint256)": "infinite",
						"transferFrom(address,address,uint256)": "infinite",
						"transferOwnership(address)": "30768"
					},
					"internal": {
						"_approve(address,address,uint256)": "infinite",
						"_burn(address,uint256)": "infinite",
						"_mint(address,uint256)": "infinite",
						"_transfer(address,address,uint256)": "infinite"
					}
				},
				"methodIdentifiers": {
					"allowance(address,address)": "dd62ed3e",
					"approve(address,uint256)": "095ea7b3",
					"balanceOf(address)": "70a08231",
					"burn(uint256)": "42966c68",
					"decimals()": "313ce567",
					"decreaseAllowance(address,uint256)": "a457c2d7",
					"getOwner()": "893d20e8",
					"increaseAllowance(address,uint256)": "39509351",
					"mint(uint256)": "a0712d68",
					"name()": "06fdde03",
					"owner()": "8da5cb5b",
					"renounceOwnership()": "715018a6",
					"symbol()": "95d89b41",
					"totalSupply()": "18160ddd",
					"transfer(address,uint256)": "a9059cbb",
					"transferFrom(address,address,uint256)": "23b872dd",
					"transferOwnership(address)": "f2fde38b"
				}
			},
			"storageLayout": {
				"storage": [
					{
						"astId": 317,
						"contract": "SDC-Contract.sol:SignDocumentsChain",
						"label": "_owner",
						"offset": 0,
						"slot": "0",
						"type": "t_address"
					},
					{
						"astId": 436,
						"contract": "SDC-Contract.sol:SignDocumentsChain",
						"label": "_balances",
						"offset": 0,
						"slot": "1",
						"type": "t_mapping(t_address,t_uint256)"
					},
					{
						"astId": 442,
						"contract": "SDC-Contract.sol:SignDocumentsChain",
						"label": "_allowances",
						"offset": 0,
						"slot": "2",
						"type": "t_mapping(t_address,t_mapping(t_address,t_uint256))"
					},
					{
						"astId": 444,
						"contract": "SDC-Contract.sol:SignDocumentsChain",
						"label": "_totalSupply",
						"offset": 0,
						"slot": "3",
						"type": "t_uint256"
					},
					{
						"astId": 446,
						"contract": "SDC-Contract.sol:SignDocumentsChain",
						"label": "_decimals",
						"offset": 0,
						"slot": "4",
						"type": "t_uint8"
					},
					{
						"astId": 448,
						"contract": "SDC-Contract.sol:SignDocumentsChain",
						"label": "_symbol",
						"offset": 0,
						"slot": "5",
						"type": "t_string_storage"
					},
					{
						"astId": 450,
						"contract": "SDC-Contract.sol:SignDocumentsChain",
						"label": "_name",
						"offset": 0,
						"slot": "6",
						"type": "t_string_storage"
					}
				],
				"types": {
					"t_address": {
						"encoding": "inplace",
						"label": "address",
						"numberOfBytes": "20"
					},
					"t_mapping(t_address,t_mapping(t_address,t_uint256))": {
						"encoding": "mapping",
						"key": "t_address",
						"label": "mapping(address => mapping(address => uint256))",
						"numberOfBytes": "32",
						"value": "t_mapping(t_address,t_uint256)"
					},
					"t_mapping(t_address,t_uint256)": {
						"encoding": "mapping",
						"key": "t_address",
						"label": "mapping(address => uint256)",
						"numberOfBytes": "32",
						"value": "t_uint256"
					},
					"t_string_storage": {
						"encoding": "bytes",
						"label": "string",
						"numberOfBytes": "32"
					},
					"t_uint256": {
						"encoding": "inplace",
						"label": "uint256",
						"numberOfBytes": "32"
					},
					"t_uint8": {
						"encoding": "inplace",
						"label": "uint8",
						"numberOfBytes": "1"
					}
				}
			},
			"userdoc": {
				"kind": "user",
				"methods": {},
				"version": 1
			}
		}
	}
}